:10000000F8FF022099010000F55A0000B55A0000DF
:10001000B55A0000B55A0000B55A0000B55A0000A4
:10002000B55A0000B55A0000B55A0000F55A000054
:10003000F55A0000B55A0000E5620000CD630000EB
:10004000F55A0000F55A0000F55A0000F55A000074
:10005000F55A0000F55A0000F55A0000F55A000064
:10006000F55A0000F55A0000F55A0000F55A000054
:10007000F55A0000F55A0000F55A0000F55A000044
:10008000F55A0000F55A0000F55A0000F55A000034
:10009000F55A0000F55A0000F55A0000F55A000024
:1000A000F55A0000F55A0000F55A0000F55A000014
:1000B000F55A0000F55A0000F55A0000AD5B00004B
:1000C000F55A0000ED5C0000F55A00002D5E0000BE
:1000D000F55A0000355F0000F55A0000F55A00009F
:1000E000F55A0000F55A0000F55A0000F55A0000D4
:1000F000F55A0000F55A0000F55A0000F55A0000C4
:10010000F55A0000F55A0000F55A0000F55A0000B3
:10011000F55A000089440000F55A0000F55A000025
:10012000F55A0000F55A0000F55A0000F55A000093
:10013000F55A0000F55A0000F55A0000F55A000083
:10014000F55A0000F55A00003D600000F55A000025
:1001500045610000F55A0000F55A0000F55A00000C
:10016000F55A0000F55A0000F55A0000F55A000053
:10017000F55A0000F55A0000F55A0000F55A000043
:10018000F55A0000F55A0000F55A0000F55A000033
:10019000F55A0000F55A0000584B4CF2205210B5A9
:1001A0001A804DF628121A8000BF00BF05F0A6FC89
:1001B000534B4FF030621A60524A9A60524ADA60EA
:1001C000524B4FF470021A60514A136813F4807353
:1001D00004D150490B604FF4A85313604E4B1A786A
:1001E000110703D51A7842F008021A704B4B4C499C
:1001F0002A221A704B4A4C4B8B4204D252F8040FFD
:1002000043F8040BF8E7494B494900228B4202D2DC
:1002100043F8042BFAE74749474A002352F82300E2
:1002200041F823000133662BF8D1444B444A802126
:1002300003F8011B9342FBD1424B3E4A1A60424BEA
:100240008A221A70A3F5805324225A70A0221A70B1
:100250009A799207FCD59A79D406FCD43B4A9379D3
:1002600003F00C03082B394BF9D103221A714622F3
:100270005A719A799006FCD5344A9179334B4906E4
:10028000FBD5334A4FF08271116009215160202261
:100290001A709A7902F00C020C2AFAD12D4B2E4AD0
:1002A0001A602E4B2E4A1A6000225A60072243F829
:1002B000042C2C4AC3F80C2D62B603F08BFF154BAF
:1002C0001B68DA0705D5284803F048FD274B284A64
:1002D0001A60284B1B785B0609D5244C244B2268F6
:1002E0009A4204D1204803F039FD0023236007F02F
:1002F0007DFE05F009FC05F06BF8FEE70E200540D9
:1003000030800440823F04000100002B88ED00E0B3
:1003100010D0034014D0034002D0074000E0074053
:100320000410FF1FB4960000F806FF1F0810FF1FFF
:100330009840FF1F0002FF1F0000000000E400E0E3
:1003400056E400E008ED00E00050064000400640A2
:100350004480044004800440C010050014E000E024
:10036000BFD4010000002020613F3D5E1CE003403F
:10037000A5C3945A00F00740FFFFFFFFFFFFFFFFF8
:10038000FFFFFFFFFFFFFFFFFFFFFFFFFFFFFFFF7D
:10039000FFFFFFFFFFFFFFFFFFFFFFFFFFFFFFFF6D
:1003A000FFFFFFFFFFFFFFFFFFFFFFFFFFFFFFFF5D
:1003B000FFFFFFFFFFFFFFFFFFFFFFFFFFFFFFFF4D
:1003C000FFFFFFFFFFFFFFFFFFFFFFFFFFFFFFFF3D
:1003D000FFFFFFFFFFFFFFFFFFFFFFFFFFFFFFFF2D
:1003E000FFFFFFFFFFFFFFFFFFFFFFFFFFFFFFFF1D
:1003F000FFFFFFFFFFFFFFFFFFFFFFFFFFFFFFFF0D
:10040000FFFFFFFFFFFFFFFFFFFFFFFFDEF9FFFF23
:1004100010B5054C237833B9044B13B10448AFF33E
:1004200000800123237010BD0810FF1F0000000092
:10043000B8960000084B10B51BB108490848AFF347
:1004400000800848036803B910BD074B002BFBD0A0
:10045000BDE81040184700BF000000000C10FF1F4F
:10046000B89600000410FF1F0000000010B50446FD
:10047000B83005F013F9204610BD00BF10B5044692
:10048000B83005F00BF9204610BD00BFFFFFFFFF9D
:100490002DE9F04F2DED028B8DB005461446002658
:1004A00004EB86035B680BB10136F9E7D4F898A03A
:1004B000DFF818B3DBF8000007F028FA9FEDBC8BDB
:1004C00041EC110BB0EE480AF0EE680A05F094FF1B
:1004D0000022BB4B51EC100B07F0CAF8CDE902012A
:1004E000B84F87FB0A304FEAEA7ACAEB601007F090
:1004F0000DFADDE9022307F06FFA07F01DFD07F0A2
:1005000005FACDE90601D4F89CA0DBF8000007F05D
:10051000FDF941EC110BB0EE480AF0EE680A05F067
:100520006BFF0022A64B51EC100B07F0A1F8CDE9B0
:10053000020187FB0A304FEAEA7ACAEB601007F043
:10054000E5F9DDE9022307F047FA07F0F5FC07F0CB
:10055000DDF982468B46D4E92823D4E92A0107F045
:1005600087F8CDE90201D4F84C71002F58D1D4E9B5
:100570002289701C07F0CAF902460B4640464946DC
:1005800007F054FB02460B46CDE90023DDE90201EA
:1005900007F04CFB07F0D0FC8046DDE90023DDE9E5
:1005A000020107F065F8DDE9002307F03FFB07F0E3
:1005B000C3FC8146B8F1000F01D14FF0FF3952461C
:1005C0005B46DDE9060107F053F8CDE904017AA3A3
:1005D000D3E90023DDE9000107F028FB02460B46C2
:1005E000DDE9040107F022FBCDE90401404607F0F4
:1005F0008DF9DDE9002307F0EFF902460B46DDE94E
:10060000020107F035F86CA3D3E9002307F00EFBD5
:1006100002460B46DDE9040107F0DEF9CDE90401ED
:10062000012F6DD1D4E92289701C07F06FF90246C1
:100630000B464046494607F0F9FA8046894630465F
:1006400007F064F9CDE90401CDE9008942464B4643
:10065000DDE9020107F0EAFA02460B46CDE908237C
:10066000DDE9040107F004F807F066FC8046DDE9E7
:100670000023DDE9020106F0FBFFDDE9002307F0BE
:10068000D5FA02460B46DDE9040106F0F1FF07F05A
:1006900053FC8146DDE9080107F04EFC0490524608
:1006A0005B46DDE9060106F0E3FFCDE9080142A360
:1006B000D3E90023DDE9000107F0B8FA02460B4652
:1006C000DDE9080107F0B2FACDE90801049807F066
:1006D0001DF9DDE9002307F07FF902460B46DDE94D
:1006E000020106F0C5FF34A3D3E9002307F09EFA08
:1006F00002460B46DDE9080107F06EF9CDE9040179
:10070000022F40F0EF8094ED228B701E400007F026
:10071000FDF802460B4651EC180B07F087FACDE9BD
:1007200000010022284B51EC180B07F055F9024646
:100730000B46CDE90823DDE9020107F0BFFB0028E5
:100740005DD0DDE90023DDE9020107F06FFA07F073
:10075000F3FB8046DDE90023DDE9020106F088FFB6
:10076000DDE9002307F062FA07F0E6FB8146B8F105
:10077000000F01D14FF0010952465B46DDE9060149
:1007800006F076FFCDE904010BA3D3E90023DDE9F0
:10079000000107F04BFA02460B46DDE9040107F0C1
:1007A00045FACDE90401404607F0B0F810E000BF7B
:1007B0000000000000000040000000000088C3406E
:1007C0000000F03F1F85EB510000E03FFC06FF1FDB
:1007D000DDE9002307F000F902460B46DDE90201DE
:1007E00006F046FFD4A3D3E9002307F01FFA024620
:1007F0000B46DDE9040107F0EFF8CDE90401DDE97E
:100800000823DDE9020107F077FB00286AD03046B3
:1008100007F07CF807468846DDE90823DDE9020198
:1008200006F026FFCDE90401DDE9002307F0FEF91B
:1008300002460B46CDE90A23CDE908783846414601
:1008400006F016FF07F078FB8046DDE90023DDE9BE
:10085000040106F00DFFDDE9002307F0E7F9024689
:100860000B46DDE9080106F003FF07F065FB814652
:10087000DDE90A0107F060FB07464E4501D1A6F10C
:10088000020952465B46DDE9060106F0F1FECDE9BC
:100890000801A9A3D3E90023DDE9000107F0C6F9A7
:1008A00002460B46DDE9080107F0C0F9CDE9080171
:1008B000384607F02BF8DDE9002307F08DF80246F3
:1008C0000B46DDE9040106F0D3FE9BA3D3E9002328
:1008D00007F0ACF902460B46DDE9080107F07CF8A9
:1008E000CDE9040152465B46DDE9040106F0C2FE93
:1008F00082468B46864E306807F008F89FED808B65
:1009000041EC110BB0EE480AF0EE680A05F074FDF8
:100910000022804B51EC100B06F0AAFECDE9080135
:10092000306806F0F3FF41EC110BB0EE480AF0EE30
:10093000680A05F061FD0022764B51EC100B06F0C1
:1009400097FE02460B465046594607F06FF99FED59
:100950006E1B41EC100B05F04FFD53EC102BDDE945
:10096000080107F039F806460F460022002307F079
:10097000B9FA48B10022684B3046394606F07AFE93
:1009800007F0DAFA074608E00022634B30463946A2
:1009900006F06EFE07F0D0FA0746604E33685B68DB
:1009A00010225F493046984702219DED000B3046EA
:1009B00004F072FD304604F013FD33685B680C22CE
:1009C00058493046984702219DED020B304604F00D
:1009D00063FD304604F004FD33685B681122524920
:1009E000304698474146304604F048FD304604F012
:1009F000F7FC33685B6810224C493046984704EB9B
:100A000088035968304604F039FD304604F0E8FCAC
:100A100033685B68072246493046984702214BEC11
:100A200010AB304604F038FD304604F0D9FC336892
:100A30005B6815223F49304698473946304604F0F6
:100A40001DFD304604F0CCFCC4F8508108F132039F
:100A500044F82370DDE90423DDE9060106F008FE11
:100A6000CDE90001DFF8A8A0DAF8000006F04EFF9B
:100A70009FED238B41EC110BB0EE480AF0EE680AB3
:100A800005F0BAFC0022234B51EC100B06F0F0FDF0
:100A900006460F46DAF8000006F038FF41EC110B6D
:100AA000B0EE480AF0EE680A05F0A6FC0022194BE9
:100AB00051EC100B06F0DCFD02460B46DDE90001AF
:100AC00007F0B4F89FED101B41EC100B05F094FCFF
:100AD00053EC102B3046394606F07EFF06460F4693
:100AE0000022002307F0FEF950B300220A4B3046E3
:100AF000394606F0BFFD07F01FFA064629E000BFA1
:100B00000000000000000040000000403333FB3FC5
:100B1000FC06FF1F0000F03F0000E03F0807FF1F3A
:100B20003493000048930000589300006C93000039
:100B30008093000088930000000000000088C340FC
:100B400000224B4B3046394606F092FD07F0F4F98F
:100B50000646484F3B685B6811224749384698472C
:100B60004946384604F08AFC384604F039FC3B68B4
:100B70005B68102241493846984704EB890359685D
:100B8000384604F07BFC384604F02AFC3B685B687E
:100B900007223B493846984702219DED000B384615
:100BA00004F07AFC384604F01BFC3B685B681722B3
:100BB0003449384698473146384604F05FFC384699
:100BC00004F00EFC384604F00BFCB6F5C87F00DCE0
:100BD0000026C4F8549109F1320344F823602146F9
:100BE00051F8043B284640F8043B8426324603F083
:100BF0001BF8D4E92223C5E92223D4E92423C5E93B
:100C00002423D4F89830C5F89830D4F89C30C5F82F
:100C10009C30D4E92823C5E92823D4E92A23C5E94F
:100C20002A23D4E92C23C5E92C2304F1B80105F1CA
:100C3000B80004F0B1FD324604F1C80105F1C80066
:100C400002F0F2FFD4F84C31C5F84C31D4F85031F1
:100C5000C5F85031D4F85431C5F85431D4F858316E
:100C6000C5F8583128460DB0BDEC028BBDE8F08FB9
:100C70000000E03F0807FF1FA0930000B4930000AE
:100C8000C8930000D09300002DE9F04F2DED028BAA
:100C9000ADF2344D05468A4614460022644BD4E931
:100CA000280107F001F938B103F05CFA06F01EFEE6
:100CB000C4E92801C4E92C01D4E9286703F052FAF9
:100CC00006F014FE02460B463046394607F014F98A
:100CD00060B1D4E92A6703F045FA06F007FE324610
:100CE0003B4606F0C7FCC4E92A0105E003F03AFAE6
:100CF00006F0FCFDC4E92A01D4E92A67D4E92C23D3
:100D00003046394606F0B4FC47A3D3E9002307F088
:100D1000E9F8002801F0B881C4E92C67214651F8B0
:100D2000043B04938426324605A802F07DFFD4E9F3
:100D30002223CDE92623D4E92423CDE92823D4F89E
:100D400098302A93D4F89C302B93D4E92823CDE90A
:100D50002C23D4E92A23CDE92E23D4E92C23CDE971
:100D6000302304F1B80132A804F02CFD324604F11E
:100D7000C80136A802F058FFD4F84C315793D4F884
:100D800050315893D4F854315993D4F858315A9378
:100D9000049B0133062B01F2F980DFE813F0070012
:100DA000F7085700D9013903F705A808524652F849
:100DB000043B0493202305A9B3F1FF3F05D052F86B
:100DC000040B41F8040B013BF6E7DAE92223CDE9F5
:100DD0002623DAE92423CDE92823DAF898302A9368
:100DE000DAF89C302B93DAE92823CDE92C23DAE9D1
:100DF0002A23CDE92E23DAE92C23CDE930230AF189
:100E0000B80132A804F0D4FC0AF1C801202336AAA4
:100E1000B3F1FF3F0ED051F8040B42F8040B013B35
:100E2000F6E700BFAFF30080000000000088C34079
:100E30000000F0BFDAF84C315793DAF8503158938C
:100E4000DAF854315993DAF858315A93049BB49331
:100E50008426324605A9B5A802F0E6FEDDE9262380
:100E6000CDE9D623DDE92823CDE9D8232A9BDA93DF
:100E70002B9BDB93DDE92C23CDE9DC23DDE92E235D
:100E8000CDE9DE23DDE93023CDE9E02332A9E2A874
:100E900004F098FC324636A9E6A802F0C5FE579B3E
:100EA000CDF81C34589BCDF82034599BCDF8243410
:100EB0005A9BCDF82834DDF868B3DFF88C92D9F866
:100EC000000006F023FD9FED988B41EC110BB0EE76
:100ED000480AF0EE680A05F08FFA0022984B51ECB0
:100EE000100B06F0C5FB06460F46DFF8608288FB54
:100EF0000B304FEAEB7BCBEB601006F007FD324680
:100F00003B4606F069FD07F017F806F0FFFC0646C1
:100F10000F46DDF86CB3D9F8000006F0F7FC41ECA1
:100F2000110BB0EE480AF0EE680A05F065FA0022EF
:100F3000834B51EC100B06F09BFBCDE9000188FBC5
:100F40000B304FEAEB7BCBEB601006F0DFFCDDE90A
:100F5000002306F041FD06F0EFFF06F0D7FC8046C7
:100F6000894602460B463046394606F081FB064666
:100F70000F466FA3D3E90023DDE9D60106F056FE44
:100F800002460B463046394606F050FECDE90001D8
:100F9000DDE9DC23DDE9DE0106F06AFB64A3D3E9C9
:100FA000002306F043FE06460F460022002306F00B
:100FB00099FF40B10022634B3046394606F05AFB98
:100FC00006F0BAFF07E000225E4B3046394606F0D5
:100FD0004FFB06F0B1FF06F099FCDDE9002306F0B7
:100FE000FBFC02460B464046494606F043FB804662
:100FF0008946DFF854B1DBF8000006F087FC9FED6E
:101000004A8B41EC110BB0EE480AF0EE680A05F08D
:10101000F3F900224A4B51EC100B06F029FB06466F
:101020000F46DBF8000006F071FC41EC110BB0EE4E
:10103000480AF0EE680A05F0DFF90022404B51EC57
:10104000100B06F015FB02460B464046494606F0DB
:10105000EDFD9FED391B41EC100B05F0CDF953EC84
:10106000102B3046394606F0B7FC06460F460022E4
:10107000002306F037FF40B10022324B304639469C
:1010800006F0F8FA06F058FF07E000222D4B304634
:10109000394606F0EDFA06F04FFF00230F2B06DC71
:1010A00003F13201B4AA42F821000133F6E7B49B00
:1010B0005C9384263246B5A95DA802F0B5FDDDE952
:1010C000D623CDE97E23DDE9D823CDE98023DA9B41
:1010D0008293DB9B8393DDE9DC23CDE98423DDE987
:1010E000DE23CDE98623DDE9E023CDE98823E2A9EB
:1010F0008AA804F051FB3246E6A98EA802F094FDBE
:10110000DDF81C34AF93DDF82034B093DDF82434DF
:10111000B193DDF82834B293E2A804F0BFFA00F0EE
:1011200066BF00BFAFF30080000000000000004079
:10113000000000000088C3400000006066660640B2
:101140000000F03F0000E03FFC06FF1F1F85EB5151
:10115000049BB4938426324605A9B5A802F064FD29
:10116000DDE92623CDE9D623DDE92823CDE9D823FF
:101170002A9BDA932B9BDB93DDE92C23CDE9DC233F
:10118000DDE92E23CDE9DE23DDE93023CDE9E023BF
:1011900032A9E2A804F016FB324636A9E6A802F00E
:1011A00043FD579BCDF81C34589BCDF82034599BF8
:1011B000CDF824345A9BCDF82834DDF868B3DFF835
:1011C0004882D8F8000006F0A1FB9FED878B41EC28
:1011D000110BB0EE480AF0EE680A05F00DF9002296
:1011E000874B51EC100B06F043FA06460F46DFF82A
:1011F0001C9289FB0B304FEAEB7BCBEB601006F0C7
:1012000085FB32463B4606F0E7FB06F095FE83463B
:10121000DB9ED8F8000006F079FB41EC110BB0EE34
:10122000480AF0EE680A05F0E7F80022744B51EC2A
:10123000100B06F01DFACDE9000189FB0630F61708
:10124000C6EB601006F062FBDDE9002306F0C4FB8C
:1012500006F072FEC0EB0B0965A3D3E90023DDE9BC
:10126000D60106F0E3FC06460F46484606F04EFB64
:1012700032463B4606F0DAFC06460F46DDE9DC2343
:10128000DDE9DE0106F0F4F959A3D3E9002306F005
:10129000CDFC02460B463046394606F09DFB06461D
:1012A0000F46584606F032FB32463B4606F0E0F960
:1012B00006F042FE06F02AFB06460F46D8F800006C
:1012C00006F024FB41EC110BB0EE480AF0EE680A80
:1012D00005F092F800224A4B51EC100B06F0C8F9C9
:1012E000CDE90001D8F8000006F010FB41EC110B2D
:1012F000B0EE480AF0EE680A05F07EF80022404B96
:1013000051EC100B06F0B4F902460B463046394654
:1013100006F08CFC9FED381B41EC100B05F06CF8CF
:1013200053EC102BDDE9000106F056FB06460F4694
:101330000022002306F0D6FD40B10022314B30469A
:10134000394606F097F906F0F7FD07E000222D4B2D
:101350003046394606F08CF906F0EEFD00230F2BDF
:1013600006DC03F13201B4AA42F821000133F6E7AA
:10137000B49B5C9384263246B5A95DA802F054FC68
:10138000DDE9D623CDE97E23DDE9D823CDE980232D
:10139000DA9B8293DB9B8393DDE9DC23CDE9842315
:1013A000DDE9DE23CDE98623DDE9E023CDE98823ED
:1013B000E2A98AA804F0F0F93246E6A98EA802F064
:1013C00033FCDDF81C34AF93DDF82034B093DDF846
:1013D0002434B193DDF82834B293E2A804F05EF926
:1013E00000F005BEAFF300800000000000000040E8
:1013F000000000000088C3400000006066660640F0
:101400000000F03F0000E03FFC06FF1F1F85EB518E
:10141000049BB4938426324605A9B5A802F004FCC7
:10142000DDE92623CDE9D623DDE92823CDE9D8233C
:101430002A9BDA932B9BDB93DDE92C23CDE9DC237C
:10144000DDE92E23CDE9DE23DDE93023CDE9E023FC
:1014500032A9E2A804F0B6F9324636A9E6A802F0AD
:10146000E3FB579BCDF81C34589BCDF82034599B97
:10147000CDF824345A9BCDF82834DDF86893DFF892
:1014800020B3DBF8000006F041FA9FEDBD8B41EC84
:10149000110BB0EE480AF0EE680A04F0ADFF00222E
:1014A000BD4B51EC100B06F0E3F806460F46DFF893
:1014B000F48288FB09304FEAE979C9EB601006F045
:1014C00025FA32463B4606F087FA06F035FD06F06F
:1014D0001DFACDE90201DDF86C93DBF8000006F09F
:1014E00015FA41EC110BB0EE480AF0EE680A04F070
:1014F00083FF0022A84B51EC100B06F0B9F806460A
:101500000F4688FB09304FEAE979C9EB601006F015
:10151000FDF932463B4606F05FFA06F00DFD06F097
:10152000F5F9CDE90001DDE9DC23DDE9DE0106F0B6
:101530009FF806460F460022984BDDE9D60106F0DB
:101540004BFA8046894602460B463046394606F03D
:10155000B5FC002800F0D880DDE90023DDE90201B8
:1015600006F086F8CDE9020187A3D3E900234046BF
:10157000494606F05BFB02460B46DDE9020106F038
:1015800055FB8046894680A3D3E90023304639467F
:1015900006F04CFB06460F460022002306F0A2FC94
:1015A00040B100227D4B3046394606F063F806F024
:1015B000C3FC07E00022794B3046394606F058F864
:1015C00006F0BAFC06F0A2F942464B4606F004FAD1
:1015D00002460B46DDE9000106F04CF806460F46D0
:1015E000DFF8BCB1DBF8000006F090F99FED648BEA
:1015F00041EC110BB0EE480AF0EE680A04F0FCFE74
:101600000022654B51EC100B06F032F880468946FB
:10161000DBF8000006F07AF941EC110BB0EE480A55
:10162000F0EE680A04F0E8FE00225B4B51EC100B70
:1016300006F01EF802460B463046394606F0F6FA2A
:101640009FED531B41EC100B04F0D6FE53EC102B16
:101650004046494606F0C0F906460F4600220023E0
:1016600006F040FC40B100224C4B3046394606F0B3
:1016700001F806F061FC07E00022484B304639468D
:1016800005F0F6FF06F058FC00230F2B06DC03F1F3
:101690003201B4AA42F821000133F6E7B49B5C930F
:1016A00084263246B5A95DA802F0BEFADDE9D6234C
:1016B000CDE97E23DDE9D823CDE98023DA9B82932F
:1016C000DB9B8393DDE9DC23CDE98423DDE9DE23A5
:1016D000CDE98623DDE9E023CDE98823E2A98AA8C4
:1016E00004F05AF83246E6A98EA802F09DFADDF819
:1016F0001C34AF93DDF82034B093DDF82434B1937B
:10170000DDF82834B2932EE142464B463046394646
:1017100006F0F2FB002800F0F180DDE90023DDE9AE
:10172000020105F0A5FFCDE9000117A3D3E90023CD
:101730004046494606F07AFA02460B46DDE90001CA
:1017400006F074FACDE9000142464B463046394670
:1017500005F08EFF0CA3D3E9002306F067FA0646D6
:101760000F460022002306F0BDFBE8B100220B4B20
:101770003046394605F07EFF06F0DEFB1CE000BF78
:101780000000000000000040000000000088C3408E
:1017900000000060666606400000F03F0000E03F89
:1017A000FC06FF1F1F85EB510022754B3046394662
:1017B00005F05EFF06F0C0FB06F0A8F8DDE90023A7
:1017C00006F00AF902460B46DDE9020105F050FF7A
:1017D00006460F46DFF8B0B1DBF8000006F096F8D9
:1017E0009FED638B41EC110BB0EE480AF0EE680AF6
:1017F00004F002FE0022634B51EC100B05F038FFA1
:1018000080468946DBF8000006F080F841EC110BB9
:10181000B0EE480AF0EE680A04F0EEFD0022594BE3
:1018200051EC100B05F024FF02460B4630463946BA
:1018300006F0FCF99FED501B41EC100B04F0DCFDB1
:1018400053EC102B4046494606F0C6F806460F46B4
:101850000022002306F046FB40B10022484B3046F0
:10186000394605F007FF06F067FB07E00022444B0E
:101870003046394605F0FCFE06F05EFB00230F2BD8
:1018800006DC03F13201B4AA42F821000133F6E785
:10189000B49B5C9384263246B5A95DA802F0C4F9D6
:1018A000DDE9D623CDE97E23DDE9D823CDE9802308
:1018B000DA9B8293DB9B8393DDE9DC23CDE98423F0
:1018C000DDE9DE23CDE98623DDE9E023CDE98823C8
:1018D000E2A98AA803F060FF3246E6A98EA802F0CA
:1018E000A3F9DDF81C34AF93DDF82034B093DDF8B4
:1018F0002434B193DDF82834B29334E0B49B5C9384
:1019000084263246B5A95DA802F08EF9DDE9D6231A
:10191000CDE97E23DDE9D823CDE98023DA9B8293CC
:10192000DB9B8393DDE9DC23CDE98423DDE9DE2342
:10193000CDE98623DDE9E023CDE98823E2A98AA861
:1019400003F02AFF3246E6A98EA802F06DF9DDF811
:101950001C34AF93DDF82034B093DDF82434B19318
:10196000DDF82834B293E2A803F098FE3FE300BF0D
:1019700000000000000000400000006066660640B5
:101980000000E03F0000F03FFC06FF1F049BB49303
:101990008426324605A9B5A802F046F9DDE92623DA
:1019A000CDE9D623DDE92823CDE9D8232A9BDA9394
:1019B0002B9BDB93DDE92C23CDE9DC23DDE92E2312
:1019C000CDE9DE23DDE93023CDE9E02332A9E2A829
:1019D00003F0F8FE324636A9E6A802F025F9579B37
:1019E000CDF81C34589BCDF82034599BCDF82434C5
:1019F0005A9BCDF82834DDF86893DFF824B3DBF880
:101A0000000005F083FF9FEDBE8B41EC110BB0EEA3
:101A1000480AF0EE680A04F0EFFC0022BE4B51ECDD
:101A2000100B05F025FE06460F46DFF8F88288FB0E
:101A300009304FEAE979C9EB601005F067FF3246DB
:101A40003B4605F0C9FF06F077FA05F05FFFCDE9E8
:101A50000001DDF86C93DBF8000005F057FF41EC66
:101A6000110BB0EE480AF0EE680A04F0C5FC002243
:101A7000A94B51EC100B05F0FBFD06460F4688FB09
:101A800009304FEAE979C9EB601005F03FFF3246B3
:101A90003B4605F0A1FF06F04FFA05F037FFCDE910
:101AA0000201DDE9DC23DDE9DE0105F0E1FD0646AA
:101AB0000F460022994BDDE9D60105F08DFF8046E7
:101AC000894602460B463046394606F0F7F90028AB
:101AD00000F0D880DDE90223DDE9000105F0C8FD52
:101AE000CDE9020188A3D3E900234046494606F028
:101AF0009DF802460B46DDE9020106F097F88046A4
:101B0000894681A3D3E900233046394606F08EF892
:101B100006460F460022002306F0E4F940B10022F9
:101B20007E4B3046394605F0A5FD06F005FA07E084
:101B300000227A4B3046394605F09AFD06F0FCF952
:101B400005F0E4FE42464B4605F046FF02460B46D2
:101B5000DDE9000105F08CFD06460F46DFF8C0B157
:101B6000DBF8000005F0D2FE9FED658B41EC110B18
:101B7000B0EE480AF0EE680A04F03EFC0022664B24
:101B800051EC100B05F074FD80468946DBF800002F
:101B900005F0BCFE41EC110BB0EE480AF0EE680A0D
:101BA00004F02AFC00225C4B51EC100B05F060FDA8
:101BB00002460B463046394606F038F89FED541B76
:101BC00041EC100B04F018FC53EC102B4046494636
:101BD00005F002FF06460F460022002306F082F9B8
:101BE00040B100224D4B3046394605F043FD06F02A
:101BF000A3F907E00022494B3046394605F038FD8D
:101C000006F09AF900230F2B06DC03F13201B4AA87
:101C100042F821000133F6E7B49B5C9384263246F8
:101C2000B5A95DA802F000F8DDE9D623CDE97E2351
:101C3000DDE9D823CDE98023DA9B8293DB9B839374
:101C4000DDE9DC23CDE98423DDE9DE23CDE986234C
:101C5000DDE9E023CDE98823E2A98AA803F09CFD11
:101C60003246E6A98EA801F0DFFFDDF81C34AF9301
:101C7000DDF82034B093DDF82434B193DDF8283456
:101C8000B29330E142464B463046394606F034F9CD
:101C9000002800F0F380DDE90223DDE9000105F012
:101CA000E7FCCDE9000118A3D3E9002340464946EB
:101CB00005F0BCFF02460B46DDE9000105F0B6FF6A
:101CC000CDE9000142464B463046394605F0D0FC8E
:101CD0000DA3D3E9002305F0A9FF06460F46002215
:101CE000002306F0FFF8F8B100220C4B30463946CD
:101CF00005F0C0FC06F020F91EE000BFAFF3008045
:101D00000000000000000040000000000088C34008
:101D100000000060666606400000F03F0000E03F03
:101D2000FC06FF1F1F85EB510022954B30463946BC
:101D300005F09EFC06F000F905F0E8FDDDE9002362
:101D400005F04AFE02460B46DDE9020105F092FC71
:101D500006460F46DFF830B2DBF8000005F0D6FD8E
:101D60009FED838B41EC110BB0EE480AF0EE680A50
:101D700004F042FB0022834B51EC100B05F078FC81
:101D800080468946DBF8000005F0C0FD41EC110BF0
:101D9000B0EE480AF0EE680A04F02EFB0022794B00
:101DA00051EC100B05F064FC02460B4630463946F8
:101DB00005F03CFF9FED701B41EC100B04F01CFB89
:101DC00053EC102B4046494605F006FE06460F46EA
:101DD0000022002306F086F840B10022684B30460E
:101DE000394605F047FC06F0A7F807E00022644BEF
:101DF0003046394605F03CFC06F09EF800230F2BD8
:101E000006DC03F13201B4AA42F821000133F6E7FF
:101E1000B49B5C9384263246B5A95DA801F004FF0B
:101E2000DDE9D623CDE97E23DDE9D823CDE9802382
:101E3000DA9B8293DB9B8393DDE9DC23CDE984236A
:101E4000DDE9DE23CDE98623DDE9E023CDE9882342
:101E5000E2A98AA803F0A0FC3246E6A98EA801F008
:101E6000E3FEDDF81C34AF93DDF82034B093DDF8E9
:101E70002434B193DDF82834B29334E0B49B5C93FE
:101E800084263246B5A95DA801F0CEFEDDE9D62351
:101E9000CDE97E23DDE9D823CDE98023DA9B829347
:101EA000DB9B8393DDE9DC23CDE98423DDE9DE23BD
:101EB000CDE98623DDE9E023CDE98823E2A98AA8DC
:101EC00003F06AFC3246E6A98EA801F0ADFEDDF80B
:101ED0001C34AF93DDF82034B093DDF82434B19393
:101EE000DDF82834B293E2A803F0D8FB7FE0049B2E
:101EF000B4938426324605A9B5A801F095FEDDE924
:101F00002623CDE9D623DDE92823CDE9D8232A9B52
:101F1000DA932B9BDB93DDE92C23CDE9DC23DDE990
:101F20002E23CDE9DE23DDE93023CDE9E02332A9FC
:101F3000E2A803F047FC324636A9E6A801F074FE99
:101F4000579BCDF81C34589BCDF82034599BCDF8C5
:101F500024345A9BCDF82834B4AA51465CA8FEF725
:101F600097FAE2A803F09AFB41E000BFAFF30080CC
:101F700000000000000000400000006066660640AF
:101F80000000E03F0000F03FFC06FF1F049B5C9355
:101F90008426324605A95DA801F046FEDDE9262328
:101FA000CDE97E23DDE92823CDE980232A9B829396
:101FB0002B9B8393DDE92C23CDE98423DDE92E23BC
:101FC000CDE98623DDE93023CDE9882332A98AA82B
:101FD00003F0E2FB324636A98EA801F025FE579B9E
:101FE000AF93589BB093599BB1935A9BB2935C9B10
:101FF000224642F8043B5DA92023B3F1FF3F05D000
:1020000051F8040B42F8040B013BF6E7DDE97E23AF
:10201000C4E92223DDE98023C4E92423829BC4F898
:102020009830839BC4F89C30DDE98423C4E92823DD
:10203000DDE98623C4E92A23DDE98823C4E92C23CA
:102040008AA904F1B80003F0C9FB04F1C8018EAA03
:102050002023B3F1FF3F05D052F8040B41F8040BE5
:10206000013BF6E7AF9BC4F84C31B09BC4F850314C
:10207000B19BC4F85431B29BC4F858318AA803F01C
:102080000DFB32A803F00AFBD4E92823D4E92A0186
:1020900005F0EEFAD4E9222305F024FF00285AD0F7
:1020A0000022524BC4E92823514904F1B80003F03F
:1020B000AFFB00284FD0514651F8043B224642F86E
:1020C000043B2023B3F1FF3F05D051F8040B42F845
:1020D000040B013BF6E7DAE92223C4E92223DAE91B
:1020E0002423C4E92423DAF89830C4F89830DAF8C5
:1020F0009C30C4F89C30DAE92823C4E92823DAE9C3
:102100002A23C4E92A23DAE92C23C4E92C230AF17F
:10211000B80104F1B80003F04BFB04F1C8010AF167
:10212000C8022023B3F1FF3F05D052F8040B41F859
:10213000040B013BF6E7DAF84C31C4F84C31DAF81D
:102140005031C4F85031DAF85431C4F85431DAF867
:102150005831C4F85831214651F8043B284640F81C
:10216000043B8426324601F05FFDD4E92223C5E911
:102170002223D4E92423C5E92423D4F89830C5F8D0
:102180009830D4F89C30C5F89C30D4E92823C5E9B0
:102190002823D4E92A23C5E92A23D4E92C23C5E935
:1021A0002C2304F1B80105F1B80003F0F5FA32462A
:1021B00004F1C80105F1C80001F036FDD4F84C3136
:1021C000C5F84C31D4F85031C5F85031D4F85431F9
:1021D000C5F85431D4F85831C5F8583128460DF2B5
:1021E000344DBDEC028BBDE8F08F00BF0000F0BFA6
:1021F000E893000070B504464FF0FF3340F8043B0D
:1022000084263246002106F045FA0022124BC4E92A
:10221000222300200021C4E924016421C4F898107D
:102220000025C4F89C50C4E92823C4E92A23C4E942
:102230002C230A4904F1B80003F07CFA32462946FF
:1022400004F1C80006F026FAC4F84C51C4F8505105
:10225000C4F85451204670BD0000F0BFE893000060
:10226000012840F030814FF6FF73994240F02B81F6
:1022700070B5954B1B6883F00203944A1360944E2B
:102280003046FFF7B7FF934C934D22462946304620
:1022900005F09AFE914E3046FFF7ACFF22462946E4
:1022A000304605F091FE8E4E3046FFF7A3FF2246E2
:1022B0002946304605F088FE8A4E3046FFF79AFFE1
:1022C00022462946304605F07FFE874E3046FFF70E
:1022D00091FF22462946304605F076FE834E304671
:1022E000FFF788FF22462946304605F06DFE804EF6
:1022F0003046FFF77FFF22462946304605F064FE50
:102300007C4E3046FFF776FF22462946304605F0E0
:102310005BFE794E3046FFF76DFF22462946304678
:1023200005F052FE754E3046FFF764FF22462946FF
:10233000304605F049FE724E3046FFF75BFF2246FD
:102340002946304605F040FE6E4E3046FFF752FFFC
:1023500022462946304605F037FE6B4E3046FFF7E1
:1023600049FF22462946304605F02EFE674E30468C
:10237000FFF740FF22462946304605F025FE644E11
:102380003046FFF737FF22462946304605F01CFE4F
:10239000604E3046FFF72EFF22462946304605F0B4
:1023A00013FE5D4E3046FFF725FF5C4D2246294661
:1023B000304605F009FE5A4E3046FFF71BFF224615
:1023C0002946304605F000FE564E3046FFF712FF14
:1023D00022462946304605F0F7FD534E3046FFF7BA
:1023E00009FF22462946304605F0EEFD4F4E3046A5
:1023F000FFF700FF22462946304605F0E5FD4C4E2A
:102400003046FFF7F7FE22462946304605F0DCFD50
:10241000484E3046FFF7EEFE22462946304605F08C
:10242000D3FD454E3046FFF7E5FE224629463046AD
:1024300005F0CAFD414E3046FFF7DCFE2246294634
:10244000304605F0C1FD3E4E3046FFF7D3FE224632
:102450002946304605F0B8FD3A4E3046FFF7CAFE31
:1024600022462946304605F0AFFD374E3046FFF78D
:10247000C1FE22462946304605F0A6FD334E3046C1
:10248000FFF7B8FE22462946304605F09DFD304E46
:102490003046FFF7AFFE22462946304605F094FD50
:1024A0002C4E3046FFF7A6FE22462946304605F060
:1024B0008BFD294E3046FFF79DFE224629463046C9
:1024C00005F082FD70BD7047FC06FF1F0C22FF1F48
:1024D0001022FF1FF806FF1F7D0400007023FF1F5E
:1024E000D024FF1F3026FF1F9027FF1FF028FF1F5B
:1024F000502AFF1FB02BFF1F102DFF1FD03AFF1FC8
:102500002810FF1F8811FF1FE812FF1F4814FF1F2C
:10251000A815FF1F0817FF1F702EFF1F6D04000076
:10252000D02FFF1F3031FF1F9032FF1FF033FF1FEE
:102530005035FF1FB036FF1F1038FF1F7039FF1FC7
:102540006818FF1FC819FF1F281BFF1F881CFF1FCB
:10255000E81DFF1F481FFF1FA820FF1FF8B50646F4
:102560000F461C46069B052B11D1079B022B01D061
:10257000142B0ED157F8221016F8220001F06CFC33
:1025800057F8241016F8240001F066FCF8BD002569
:1025900000E0002556F825300BB10135FAE700249C
:1025A000A54207DD57F8241016F8240001F054FC6A
:1025B0000134F5E7F8BD00BF2DE9F0472DED028BA2
:1025C000494B186801F0DAFB0025484B1D60484C68
:1025D0004FF00309C4F80090082363600723A36049
:1025E0000923E3600A2323614FF06408C4F898804C
:1025F000C4F89C503F4E314604F1B80003F0F6F8A1
:1026000035A3D3E90023C4E922230123C4F85831B8
:102610000227C4F84C71384C4FF0040AC4F800A0EB
:10262000152363601623A3601423E3600E23236144
:10263000C4F89880C4F89C50314604F1B80003F007
:10264000D5F89FED278B84ED228BC4F858712B4C65
:10265000C4F80090232363602423A3602623E3604F
:1026600025232361C4F89880C4F89C50314604F1B6
:10267000B80003F0BBF884ED228BC4F85891204CCD
:102680004FF00509C4F800906760C4F8089006236D
:10269000E360C4F89880C4F89C50314604F1B80057
:1026A00003F0A4F884ED228BC4F84C71C4F858A14F
:1026B000144C25601D23636040F6FF73C4F8C830D6
:1026C000314604F1B80003F091F8C4F85891BDEC1C
:1026D000028BBDE8F08700BF0000000060E34641C8
:1026E0000000000060E33641FC06FF1F0822FF1FC8
:1026F000702EFF1FEC930000D02FFF1F3031FF1F03
:102700009032FF1FF033FF1F70B5ADF5327D06220A
:102710009A4BC3F858210722994BC3F85821082235
:10272000984BC3F858210922974BC3F858210A2225
:10273000964BC3F858210B22954BC3F858210C2215
:10274000944BC3F858210D22934BC3F858210E2205
:10275000924BC3F858210F22914BC3F858211022F5
:10276000904BC3F85821904D2C4654F8043B0293EB
:1027700084263246214603A801F056FAD5E92223E1
:10278000CDE92423D5E92423CDE92623D5F89830B3
:102790002893D5F89C302993D5E92823CDE92A231D
:1027A000D5E92A23CDE92C23D5E92C23CDE92E2305
:1027B00005F1B80130A803F005F8324605F1C8016B
:1027C00034A801F031FAD5F84C315593D5F8503191
:1027D0005693D5F854315793D5F85831589302AAE7
:1027E00072495AA8FEF750FA5A9B2B605BAA202325
:1027F0002146B3F1FF3F05D052F8040B41F8040B1A
:10280000013BF6E7684CDDE97C23C4E92223DDE9DE
:102810007E23C4E92423809BC4F89830819BC4F8AC
:102820009C30DDE98223C4E92823DDE98423C4E95F
:102830002A23DDE98623C4E92C2388A904F1B80002
:1028400002F0CCFF8CA9202304F1C802B3F1FF3FB2
:1028500005D051F8040B42F8040B013BF6E7524B4C
:10286000AD9AC3F84C21AE9AC3F85021AF9AC3F881
:102870005421B09AC3F8582188A802F00FFF30A85D
:1028800002F00CFF4A4D2C4654F8043B0293842678
:102890003246214603A801F0C7F9D5E92223CDE944
:1028A0002423D5E92423CDE92623D5F8983028938D
:1028B000D5F89C302993D5E92823CDE92A23D5E9F9
:1028C0002A23CDE92C23D5E92C23CDE92E2305F1AC
:1028D000B80130A802F076FF324605F1C80134A8ED
:1028E00001F0A2F9D5F84C315593D5F850315693F3
:1028F000D5F854315793D5F85831589302AA2D4939
:102900005AA8FEF7C1F95A9B2B605BAA20232146E7
:10291000B3F1FF3F05D052F8040B41F8040B013B23
:10292000F6E7234CDDE97C23C4E92223DDE97E239D
:10293000C4E92423809BC4F89830819BC4F89C3060
:10294000DDE98223C4E92823DDE98423C4E92A23BD
:10295000DDE98623C4E92C2388A904F1B80002F03C
:102960003DFF8CA9202304F1C802B3F1FF3F23D01F
:1029700051F8040B42F8040B013BF6E75035FF1FFA
:10298000B036FF1F1038FF1F7039FF1F6818FF1F78
:10299000C819FF1F281BFF1F881CFF1FE81DFF1FF2
:1029A000481FFF1FA820FF1F702EFF1F1022FF1FB0
:1029B000D02FFF1F7023FF1F8E4BAD9AC3F84C2101
:1029C000AE9AC3F85021AF9AC3F85421B09AC3F815
:1029D000582188A802F062FE30A802F05FFE864D02
:1029E0002C4654F8043B029384263246214603A821
:1029F00001F01AF9D5E92223CDE92423D5E92423CE
:102A0000CDE92623D5F898302893D5F89C30299322
:102A1000D5E92823CDE92A23D5E92A23CDE92C239A
:102A2000D5E92C23CDE92E2305F1B80130A802F019
:102A3000C9FE324605F1C80134A801F0F5F8D5F811
:102A40004C315593D5F850315693D5F854315793AE
:102A5000D5F85831589302AA68495AA8FEF714F9D4
:102A60005A9B2B605BAA20232146B3F1FF3F05D080
:102A700052F8040B41F8040B013BF6E75E4CDDE92C
:102A80007C23C4E92223DDE97E23C4E92423809B3F
:102A9000C4F89830819BC4F89C30DDE98223C4E9F6
:102AA0002823DDE98423C4E92A23DDE98623C4E958
:102AB0002C2388A904F1B80002F090FE8CA92023F1
:102AC00004F1C802B3F1FF3F05D051F8040B42F8FE
:102AD000040B013BF6E7484BAD9AC3F84C21AE9A84
:102AE000C3F85021AF9AC3F85421B09AC3F85821C3
:102AF00088A802F0D3FD30A802F0D0FD404D2C464E
:102B000054F8043B029384263246214603A801F080
:102B10008BF8D5E92223CDE92423D5E92423CDE977
:102B20002623D5F898302893D5F89C302993D5E9F9
:102B30002823CDE92A23D5E92A23CDE92C23D5E979
:102B40002C23CDE92E2305F1B80130A802F03AFE7E
:102B5000324605F1C80134A801F066F8D5F84C31C9
:102B60005593D5F850315693D5F854315793D5F83D
:102B70005831589302AA21495AA8FEF785F85A9B62
:102B80002B605BAA20232146B3F1FF3F05D052F80A
:102B9000040B41F8040B013BF6E7194CDDE97C23FB
:102BA000C4E92223DDE97E23C4E92423809BC4F801
:102BB0009830819BC4F89C30DDE98223C4E9282346
:102BC000DDE98423C4E92A23DDE98623C4E92C2333
:102BD00088A904F1B80002F001FE8CA9202304F1B9
:102BE000C802B3F1FF3F0DD051F8040B42F8040BBB
:102BF000013BF6E7D02FFF1F3031FF1F7023FF1F6F
:102C00009032FF1F8E4BAD9AC3F84C21AE9AC3F899
:102C10005021AF9AC3F85421B09AC3F8582188A81C
:102C200002F03CFD30A802F039FD864D2C4654F8E8
:102C3000043B029384263246214603A800F0F4FFA9
:102C4000D5E92223CDE92423D5E92423CDE9262380
:102C5000D5F898302893D5F89C302993D5E92823C6
:102C6000CDE92A23D5E92A23CDE92C23D5E92C2344
:102C7000CDE92E2305F1B80130A802F0A3FD3246BC
:102C800005F1C80134A800F0CFFFD5F84C315593B9
:102C9000D5F850315693D5F854315793D5F858316B
:102CA000589302AA68495AA8FDF7EEFF5A9B2B6079
:102CB0005BAA20232146B3F1FF3F05D052F8040B55
:102CC00041F8040B013BF6E75E4CDDE97C23C4E9E7
:102CD0002223DDE97E23C4E92423809BC4F89830B5
:102CE000819BC4F89C30DDE98223C4E92823DDE917
:102CF0008423C4E92A23DDE98623C4E92C2388A997
:102D000004F1B80002F06AFD8CA9202304F1C80286
:102D1000B3F1FF3F05D051F8040B42F8040B013B1F
:102D2000F6E7484BAD9AC3F84C21AE9AC3F8502150
:102D3000AF9AC3F85421B09AC3F8582188A802F07A
:102D4000ADFC30A802F0AAFC404D2C4654F8043BE0
:102D5000029384263246214603A800F065FFD5E998
:102D60002223CDE92423D5E92423CDE92623D5F850
:102D700098302893D5F89C302993D5E92823CDE9BC
:102D80002A23D5E92A23CDE92C23D5E92C23CDE923
:102D90002E2305F1B80130A802F014FD324605F1EA
:102DA000C80134A800F040FFD5F84C315593D5F850
:102DB00050315693D5F854315793D5F8583158932C
:102DC00002AA21495AA8FDF75FFF5A9B2B605BAA14
:102DD00020232146B3F1FF3F05D052F8040B41F800
:102DE000040B013BF6E7194CDDE97C23C4E92223FF
:102DF000DDE97E23C4E92423809BC4F89830819BBD
:102E0000C4F89C30DDE98223C4E92823DDE984236A
:102E1000C4E92A23DDE98623C4E92C2388A904F127
:102E2000B80002F0DBFC8CA9202304F1C802B3F146
:102E3000FF3F0DD051F8040B42F8040B013BF6E7BD
:102E40009032FF1FF033FF1F7023FF1F5035FF1F0D
:102E50008E4BAD9AC3F84C21AE9AC3F85021AF9A6D
:102E6000C3F85421B09AC3F8582188A802F016FC80
:102E700030A802F013FC864D2C4654F8043B029314
:102E800084263246214603A800F0CEFED5E922234F
:102E9000CDE92423D5E92423CDE92623D5F898309C
:102EA0002893D5F89C302993D5E92823CDE92A2306
:102EB000D5E92A23CDE92C23D5E92C23CDE92E23EE
:102EC00005F1B80130A802F07DFC324605F1C801D9
:102ED00034A800F0A9FED5F84C315593D5F85031FF
:102EE0005693D5F854315793D5F85831589302AAD0
:102EF00068495AA8FDF7C8FE5A9B2B605BAA20239D
:102F00002146B3F1FF3F05D052F8040B41F8040B02
:102F1000013BF6E75E4CDDE97C23C4E92223DDE9D1
:102F20007E23C4E92423809BC4F89830819BC4F895
:102F30009C30DDE98223C4E92823DDE98423C4E948
:102F40002A23DDE98623C4E92C2388A904F1B800EB
:102F500002F044FC8CA9202304F1C802B3F1FF3F26
:102F600005D051F8040B42F8040B013BF6E7484B3F
:102F7000AD9AC3F84C21AE9AC3F85021AF9AC3F86A
:102F80005421B09AC3F8582188A802F087FB30A8D2
:102F900002F084FB404D2C4654F8043B02938426F7
:102FA0003246214603A800F03FFED5E92223CDE9B1
:102FB0002423D5E92423CDE92623D5F89830289376
:102FC000D5F89C302993D5E92823CDE92A23D5E9E2
:102FD0002A23CDE92C23D5E92C23CDE92E2305F195
:102FE000B80130A802F0EEFB324605F1C80134A862
:102FF00000F01AFED5F84C315593D5F85031569360
:10300000D5F854315793D5F85831589302AA21492D
:103010005AA8FDF739FE5A9B2B605BAA2023214654
:10302000B3F1FF3F05D052F8040B41F8040B013B0C
:10303000F6E7194CDDE97C23C4E92223DDE97E2390
:10304000C4E92423809BC4F89830819BC4F89C3049
:10305000DDE98223C4E92823DDE98423C4E92A23A6
:10306000DDE98623C4E92C2388A904F1B80002F025
:10307000B5FB8CA9202304F1C802B3F1FF3F0DD0AA
:1030800051F8040B42F8040B013BF6E75035FF1FE3
:10309000B036FF1F7023FF1F1038FF1F8E4BAD9AF5
:1030A000C3F84C21AE9AC3F85021AF9AC3F854210B
:1030B000B09AC3F8582188A802F0F0FA30A802F0BC
:1030C000EDFA864D2C4654F8043B02938426324692
:1030D000214603A800F0A8FDD5E92223CDE9242349
:1030E000D5E92423CDE92623D5F898302893D5F8BF
:1030F0009C302993D5E92823CDE92A23D5E92A2331
:10310000CDE92C23D5E92C23CDE92E2305F1B801F7
:1031100030A802F057FB324605F1C80134A800F090
:1031200083FDD5F84C315593D5F850315693D5F8E9
:1031300054315793D5F85831589302AA68495AA880
:10314000FDF7A2FD5A9B2B605BAA20232146B3F119
:10315000FF3F05D052F8040B41F8040B013BF6E7A2
:103160005E4CDDE97C23C4E92223DDE97E23C4E94A
:103170002423809BC4F89830819BC4F89C30DDE9FF
:103180008223C4E92823DDE98423C4E92A23DDE975
:103190008623C4E92C2388A904F1B80002F01EFBA1
:1031A0008CA9202304F1C802B3F1FF3F05D051F8E8
:1031B000040B42F8040B013BF6E7484BAD9AC3F809
:1031C0004C21AE9AC3F85021AF9AC3F85421B09A5B
:1031D000C3F8582188A802F061FA30A802F05EFA1C
:1031E000404D2C4654F8043B029384263246214637
:1031F00003A800F019FDD5E92223CDE92423D5E960
:103200002423CDE92623D5F898302893D5F89C308F
:103210002993D5E92823CDE92A23D5E92A23CDE925
:103220002C23D5E92C23CDE92E2305F1B80130A8B4
:1032300002F0C8FA324605F1C80134A800F0F4FCE7
:10324000D5F84C315593D5F850315693D5F85431C3
:103250005793D5F85831589302AA21495AA8FDF737
:1032600013FD5A9B2B605BAA20232146B3F1FF3F3D
:1032700005D052F8040B41F8040B013BF6E7194C5A
:10328000DDE97C23C4E92223DDE97E23C4E924238C
:10329000809BC4F89830819BC4F89C30DDE9822380
:1032A000C4E92823DDE98423C4E92A23DDE9862350
:1032B000C4E92C2388A904F1B80002F08FFA8CA984
:1032C000202304F1C802B3F1FF3F0DD051F8040BE5
:1032D00042F8040B013BF6E71038FF1F7039FF1F5F
:1032E0007023FF1F6818FF1F8E4BAD9AC3F84C2147
:1032F000AE9AC3F85021AF9AC3F85421B09AC3F8DC
:10330000582188A802F0CAF930A802F0C7F9864D02
:103310002C4654F8043B029384263246214603A8E7
:1033200000F082FCD5E92223CDE92423D5E924232A
:10333000CDE92623D5F898302893D5F89C302993E9
:10334000D5E92823CDE92A23D5E92A23CDE92C2361
:10335000D5E92C23CDE92E2305F1B80130A802F0E0
:1033600031FA324605F1C80134A800F05DFCD5F809
:103370004C315593D5F850315693D5F85431579375
:10338000D5F85831589302AA68495AA8FDF77CFC31
:103390005A9B2B605BAA20232146B3F1FF3F05D047
:1033A00052F8040B41F8040B013BF6E75E4CDDE9F3
:1033B0007C23C4E92223DDE97E23C4E92423809B06
:1033C000C4F89830819BC4F89C30DDE98223C4E9BD
:1033D0002823DDE98423C4E92A23DDE98623C4E91F
:1033E0002C2388A904F1B80002F0F8F98CA9202355
:1033F00004F1C802B3F1FF3F05D051F8040B42F8C5
:10340000040B013BF6E7484BAD9AC3F84C21AE9A4A
:10341000C3F85021AF9AC3F85421B09AC3F8582189
:1034200088A802F03BF930A802F038F9404D2C464C
:1034300054F8043B029384263246214603A800F048
:10344000F3FBD5E92223CDE92423D5E92423CDE9D3
:103450002623D5F898302893D5F89C302993D5E9C0
:103460002823CDE92A23D5E92A23CDE92C23D5E940
:103470002C23CDE92E2305F1B80130A802F0A2F9E2
:10348000324605F1C80134A800F0CEFBD5F84C3126
:103490005593D5F850315693D5F854315793D5F804
:1034A0005831589302AA21495AA8FDF7EDFB5A9BBF
:1034B0002B605BAA20232146B3F1FF3F05D052F8D1
:1034C000040B41F8040B013BF6E7194CDDE97C23C2
:1034D000C4E92223DDE97E23C4E92423809BC4F8C8
:1034E0009830819BC4F89C30DDE98223C4E928230D
:1034F000DDE98423C4E92A23DDE98623C4E92C23FA
:1035000088A904F1B80002F069F98CA9202304F11C
:10351000C802B3F1FF3F0DD051F8040B42F8040B81
:10352000013BF6E76818FF1FC819FF1F7023FF1F34
:10353000281BFF1F8E4BAD9AC3F84C21AE9AC3F8DF
:103540005021AF9AC3F85421B09AC3F8582188A8E3
:1035500002F0A4F830A802F0A1F8864D2C4654F8E9
:10356000043B029384263246214603A800F05CFB0C
:10357000D5E92223CDE92423D5E92423CDE9262347
:10358000D5F898302893D5F89C302993D5E928238D
:10359000CDE92A23D5E92A23CDE92C23D5E92C230B
:1035A000CDE92E2305F1B80130A802F00BF932461F
:1035B00005F1C80134A800F037FBD5F84C3155931C
:1035C000D5F850315693D5F854315793D5F8583132
:1035D000589302AA68495AA8FDF756FB5A9B2B60DC
:1035E0005BAA20232146B3F1FF3F05D052F8040B1C
:1035F00041F8040B013BF6E75E4CDDE97C23C4E9AE
:103600002223DDE97E23C4E92423809BC4F898307B
:10361000819BC4F89C30DDE98223C4E92823DDE9DD
:103620008423C4E92A23DDE98623C4E92C2388A95D
:1036300004F1B80002F0D2F88CA9202304F1C802EA
:10364000B3F1FF3F05D051F8040B42F8040B013BE6
:10365000F6E7484BAD9AC3F84C21AE9AC3F8502117
:10366000AF9AC3F85421B09AC3F8582188A802F041
:1036700015F830A802F012F8404D2C4654F8043BDF
:10368000029384263246214603A800F0CDFAD5E9FC
:103690002223CDE92423D5E92423CDE92623D5F817
:1036A00098302893D5F89C302993D5E92823CDE983
:1036B0002A23D5E92A23CDE92C23D5E92C23CDE9EA
:1036C0002E2305F1B80130A802F07CF8324605F14E
:1036D000C80134A800F0A8FAD5F84C315593D5F8B4
:1036E00050315693D5F854315793D5F858315893F3
:1036F00002AA21495AA8FDF7C7FA5A9B2B605BAA78
:1037000020232146B3F1FF3F05D052F8040B41F8C6
:10371000040B013BF6E7194CDDE97C23C4E92223C5
:10372000DDE97E23C4E92423809BC4F89830819B83
:10373000C4F89C30DDE98223C4E92823DDE9842331
:10374000C4E92A23DDE98623C4E92C2388A904F1EE
:10375000B80002F043F88CA9202304F1C802B3F1A9
:10376000FF3F0DD051F8040B42F8040B013BF6E784
:10377000281BFF1F881CFF1F7023FF1FE81DFF1F52
:103780008E4BAD9AC3F84C21AE9AC3F85021AF9A34
:10379000C3F85421B09AC3F8582188A801F07EFFDD
:1037A00030A801F07BFF864D2C4654F8043B029371
:1037B00084263246214603A800F036FAD5E92223B2
:1037C000CDE92423D5E92423CDE92623D5F8983063
:1037D0002893D5F89C302993D5E92823CDE92A23CD
:1037E000D5E92A23CDE92C23D5E92C23CDE92E23B5
:1037F00005F1B80130A801F0E5FF324605F1C80136
:1038000034A800F011FAD5F84C315593D5F8503161
:103810005693D5F854315793D5F85831589302AA96
:1038200068495AA8FDF730FA5A9B2B605BAA2023FF
:103830002146B3F1FF3F05D052F8040B41F8040BC9
:10384000013BF6E75E4CDDE97C23C4E92223DDE998
:103850007E23C4E92423809BC4F89830819BC4F85C
:103860009C30DDE98223C4E92823DDE98423C4E90F
:103870002A23DDE98623C4E92C2388A904F1B800B2
:1038800001F0ACFF8CA9202304F1C802B3F1FF3F83
:1038900005D051F8040B42F8040B013BF6E7484B06
:1038A000AD9AC3F84C21AE9AC3F85021AF9AC3F831
:1038B0005421B09AC3F8582188A801F0EFFE30A82F
:1038C00001F0ECFE404D2C4654F8043B0293842654
:1038D0003246214603A800F0A7F9D5E92223CDE915
:1038E0002423D5E92423CDE92623D5F8983028933D
:1038F000D5F89C302993D5E92823CDE92A23D5E9A9
:103900002A23CDE92C23D5E92C23CDE92E2305F15B
:10391000B80130A801F056FF324605F1C80134A8BD
:1039200000F082F9D5F84C315593D5F850315693C3
:10393000D5F854315793D5F85831589302AA2149F4
:103940005AA8FDF7A1F95A9B2B605BAA20232146B8
:10395000B3F1FF3F05D052F8040B41F8040B013BD3
:10396000F6E7194CDDE97C23C4E92223DDE97E2357
:10397000C4E92423809BC4F89830819BC4F89C3010
:10398000DDE98223C4E92823DDE98423C4E92A236D
:10399000DDE98623C4E92C2388A904F1B80001F0ED
:1039A0001DFF8CA9202304F1C802B3F1FF3F0DD005
:1039B00051F8040B42F8040B013BF6E7E81DFF1F2A
:1039C000481FFF1F7023FF1FA820FF1F824CAD9BC5
:1039D000C4F84C31AE9BC4F85031AF9BC4F854319D
:1039E000B09BC4F8583188A801F058FE30A801F007
:1039F00055FE7A480368D0F84C2101920093D0F824
:103A00005431D0F8502100F1C8010430FEF7A6FD72
:103A100073480368D0F84C2101920093D0F85431D8
:103A2000D0F8502100F1C8010430FEF797FD6D4831
:103A30000368D0F84C2101920093D0F85431D0F8AB
:103A4000502100F1C8010430FEF788FD6648036884
:103A5000D0F84C2101920093D0F85431D0F8502185
:103A600000F1C8010430FEF779FD60480368D0F822
:103A70004C2101920093D0F85431D0F8502100F13C
:103A8000C8010430FEF76AFD59480368D0F84C219C
:103A900001920093D0F85431D0F8502100F1C801C0
:103AA0000430FEF75BFD53480368D0F84C210192C7
:103AB0000093D0F85431D0F8502100F1C8010430FF
:103AC000FEF74CFD4C480368D0F84C21019200935E
:103AD000D0F85431D0F8502100F1C8010430FEF77D
:103AE0003DFD46480368D0F84C2101920093D0F880
:103AF0005431D0F8502100F1C8010430FEF72EFDFA
:103B00003F480368D0F84C2101920093D0F854311B
:103B1000D0F8502100F1C8010430FEF71FFD3948EC
:103B20000368D0F84C2101920093D0F85431D0F8BA
:103B3000502100F1C8010430FEF710FD324803683F
:103B4000D0F84C2101920093D0F85431D0F8502194
:103B500000F1C8010430FEF701FD2C480368D0F8DD
:103B60004C2101920093D0F85431D0F8502100F14B
:103B7000C8010430FEF7F2FC25480368D0F84C2158
:103B800001920093D0F85431D0F8502100F1C801CF
:103B90000430FEF7E3FC1F480368D0F84C21019283
:103BA0000093D0F85431D0F8502100F1C80104300E
:103BB000FEF7D4FC2368D4F84C2101920093D4F88A
:103BC0005431D4F8502104F1C801201DFEF7C6FC81
:103BD0000DF5327D70BD00BFA820FF1F702EFF1FA6
:103BE000D02FFF1F3031FF1F9032FF1FF033FF1F18
:103BF0005035FF1FB036FF1F1038FF1F7039FF1FF1
:103C00006818FF1FC819FF1F281BFF1F881CFF1FF4
:103C1000E81DFF1F481FFF1F08B54FF6FF71012069
:103C2000FEF71EFB08BD00BF844641EA000313F007
:103C300003036DD1403A41D351F8043B40F8043BB3
:103C400051F8043B40F8043B51F8043B40F8043B76
:103C500051F8043B40F8043B51F8043B40F8043B66
:103C600051F8043B40F8043B51F8043B40F8043B56
:103C700051F8043B40F8043B51F8043B40F8043B46
:103C800051F8043B40F8043B51F8043B40F8043B36
:103C900051F8043B40F8043B51F8043B40F8043B26
:103CA00051F8043B40F8043B51F8043B40F8043B16
:103CB00051F8043B40F8043B403ABDD2303211D3B6
:103CC00051F8043B40F8043B51F8043B40F8043BF6
:103CD00051F8043B40F8043B51F8043B40F8043BE6
:103CE000103AEDD20C3205D351F8043B40F8043BB6
:103CF000043AF9D2043208D0D2071CBF11F8013BB4
:103D000000F8013B01D30B8803806046704700BF79
:103D1000082A13D38B078DD010F003038AD0C3F188
:103D20000403D21ADB071CBF11F8013B00F8013B6A
:103D300080D331F8023B20F8023B7BE7043AD9D329
:103D4000013A11F8013B00F8013BF9D20B780370FE
:103D50004B7843708B78837060467047044B002229
:103D60001A6004490A60044A106010221A60704701
:103D700014D0034004D0034000D00340034610B1E8
:103D8000102802D802E0012300E01023014A107835
:103D9000137070470007FF1F3F281ED80F4B53F8C2
:103DA000303093F8802212F0FF0F08D019B10122B1
:103DB00083F880207047012283F800217047074B69
:103DC00003EBC000436821B11A6842F003021A6095
:103DD00070471A6822F002021A607047F0930000E0
:103DE0003F2835D81B4B03EBC0035B68012901D08A
:103DF000042914D1174A52F83020012082F8800299
:103E00004FF4A2721A60042904D11A6842F0200209
:103E10001A6070471A6822F020021A6070470D4A33
:103E200052F83020002082F8800219B94FF48072D5
:103E30001A607047022903D140F203121A607047DA
:103E4000032903D14FF481721A60704700221A606F
:103E5000704700BFF093000038B50446A0F142035C
:103E6000DBB2012B15D8924B1B780B2B03D8C3F177
:103E70000C03994003E00C2B01D90C3B1941422C57
:103E800003D1084601F0DAFD38BD084601F0F4FD23
:103E900038BD874B1D780122AA40002907DC00218C
:103EA000FFF77AFF01212046FFF79AFF38BD0B4646
:103EB0008A4207D80121FFF76FFF01212046FFF753
:103EC0008FFF38BDC21ED2B2012A06D8794A1068C7
:103ED00000FB011222FA05F327E01D38C0B20128C9
:103EE00006D8754A106800FB011222FA05F31CE09F
:103EF000022C0DD00E2C0BD0072C09D0082C07D08B
:103F0000232C05D0242C03D0252C01D0262C06D11F
:103F10006A48006800FB033222FA05F305E0684AAC
:103F2000126802FB011222FA05F3A21E242A00F2F3
:103F3000B380DFE812F079005D00640056004100B4
:103F400087008E0033003A00B100B100B10080005C
:103F5000B100B100B100B100B10048004F00250030
:103F60002C00B100B100B100B100B1006B007200D3
:103F7000B100B100B100B10095009C00A300AA00FF
:103F8000504A136040F244424F4B1A6038BD4F4ACA
:103F9000136040F244424E4B1A6038BD4D4A1360E4
:103FA00040F244424C4B1A6038BD4C4A136040F218
:103FB00044424B4B1A6038BD4A4A136040F24442B7
:103FC000494B1A6038BD494A136040F24442484B9D
:103FD0001A6038BD474A136040F24442464B1A60AB
:103FE00038BD464A136040F24442454B1A6038BD22
:103FF000444A13604FF45172434B1A6038BD434A30
:1040000013604FF45172424B1A6038BD414A13603D
:104010004FF45172404B1A6038BD404A13604FF460
:1040200051723F4B1A6038BD3E4A136040F2444221
:104030003D4B1A6038BD3D4A136040F244423C4B50
:104040001A6038BD3B4A136040F244423A4B1A6052
:1040500038BD3A4A136040F24442394B1A6038BDC9
:10406000384A13604FF45172374B1A6038BD374AE3
:1040700013604FF45172364B1A6038BD354A1360E5
:104080004FF45172344B1A6038BD344A13604FF408
:104090005172334B1A6038BD7F29D4BF00210121F2
:1040A0002046FFF779FE01212046FFF799FE38BD33
:1040B0000007FF1F0890034008800B4008900B404A
:1040C000088003401080034004B00440188003407F
:1040D00008B00440208003400CB004402880034016
:1040E00010B004403080034010C0044038800340CA
:1040F00014C004404080034018C00440488003407E
:104100001CC00440109003403090044018900340BD
:104110003490044010800B4048A0044018800B40AD
:104120004CA0044010900B4000C0044018900B407D
:1041300004C0044020900B4008C0044028900B406D
:104140000CC0044030900B4020B0044038900B402D
:1041500024B0044040900B4028B0044048900B40ED
:104160002CB0044072B60C4B1B680C4A12680C4908
:10417000096862B611F0806F02D0322B00D901328B
:10418000C3F5EA33BF330748A0FB03139B094FF481
:104190007A7000FB0230704718E000E0303CFF1FEF
:1041A00004ED00E08988888838B50546FFF7DAFF16
:1041B000044625B938BD013D0AD004F57A74FFF7ED
:1041C000D1FF001BB0F57A7FF5D201F03BFBF6E79B
:1041D00038BD00BF70B5364B4FF000621A604FF02B
:1041E00080521A604FF000521A604FF080421A60FD
:1041F0004FF000421A6000202E4B18604EF6FF71FF
:104200000433196028232C4A1360083213600832E3
:1042100013600832136008321360083213600832EA
:10422000136008321360254D2B60254C236002F586
:10423000002202F6D872136008321360083213604D
:1042400008321360083213600832136009221D4ED1
:10425000326006F58056043630600436316004362C
:10426000336008363360143E326006F5FE260436AD
:104270003060043631600436336008363360143EF3
:10428000326006F58056043630600F4801602B60BE
:1042900023600E4B1A6001F035FB1920FFF784FFF5
:1042A00000F05CFE40F21310FFF77EFF70BD00BF10
:1042B00004E100E0048003400C8003400C900B40BC
:1042C00014900B400080034008900B4000900B407E
:1042D000431E032B14D872B60A4951F8230068B163
:1042E00070B4094C058834F81320466841F82360FF
:1042F000521B24F8132062B670BC704762B6704738
:10430000002070478C3CFF1F8040FF1F01380328AE
:104310000BD872B6074B53F8203043B100205B68CE
:104320000130002BFBD162B6704700207047184661
:10433000F9E700BFE03CFF1F30B472B62B4A137898
:104340001D0706D52A4B196A002936D0996A00291B
:1043500041D053781C0706D5254B196C00293ED057
:10436000996C002939D09378190705D5204B196E1F
:10437000002936D0996E89B1D3781B0707D51C4B1D
:10438000D3F880207AB3D3F8882011213AB162B6ED
:10439000184B00221A7030BC00F07ABE0D21154C6B
:1043A000154D227843F8315003EBC1030830013A30
:1043B0005860227062B630BC704704220D4C0F4D1D
:1043C000217843F8325003EBC20308304A1E58608C
:1043D000227062B6EFE70521E1E70921DFE7082255
:1043E000ECE70C22EAE71022E8E700BF289600007D
:1043F0000000FF1F093DFF1FC8004000880040006B
:10440000421E032A1FD81C4B800040F0020030B42B
:1044100003EBC00072B6194CA35C032B1CD8DFE879
:1044200003F002131618032501F10803436010F08E
:10443000080F0988A55414BFC823882343EA014301
:10444000036062B630BC704708300225ECE70525F2
:10445000EAE708300425E7E7094B53F8220038B1B2
:10446000084B53F82200416043F8221062B6E9E796
:1044700043F82210034BF7E70000FF1F183DFF1F12
:10448000E03CFF1FF03CFF1F2DE9F04FDFF810B3B9
:10449000DFF810A387B046E0AC4F4FEA930807EB74
:1044A000C809013ED9F8042003F00803F6B2A2F1CE
:1044B000080003F0FF04002B40F0048157F8383067
:1044C0001B0C99B222F8081C002B00F0F280A04DC2
:1044D00022F8064C42F8044C55F82630002B00F028
:1044E000C7829C4D55F82630586032F8081C9A4C0B
:1044F00045F8260034F81630194424F8161000F058
:10450000A7FD002800F0AD82944A954B19F0080FE2
:1045100000F1080018BF1346C9F8040047F8383006
:1045200008238BF800309BF80040E4B261071AD5ED
:104530008C4B1B78A3B18C490A7802F0FF0322B19F
:10454000013BDBB20B7003B900BE88490A7802F068
:10455000FF032AB1013BDBB20B70002B00F0578246
:1045600004238BF8003004F0080303F0FF02002B53
:1045700000F0CC809AF80030DBB21E098CD19C0888
:10458000DFF8C89159F8342009EBC401C2F3830263
:10459000013A49680C2A00F28880DFE802F07C7C4E
:1045A0008686868686864786868607000868704DDA
:1045B0004A68704F704E286081B240F28160674B4C
:1045C0006A604FF0010E0022814249F834303A60AF
:1045D000C9F81020C9F8182086F800E05B4C00F2FA
:1045E000E380B1F5D06F80F04683B1F5817F00F0B4
:1045F000FC8200F28D82802900F07783822940F0CE
:10460000FA82A98801F07F01042900F2F4825B4854
:104610005B4C89000844227062700278930740F175
:10462000588484F800E04FF0020E42E3514F3A689C
:1046300032B3544B504E5449188834780D78402882
:10464000864645F0020828BF4FF0400E002C84F04B
:1046500001043470CEEB00000CBF8824C82409EBA1
:10466000C80680B285F0010544EA0E4472601880E5
:1046700049F8384072440D70002800F045813A60D6
:104680003B4B1A88B2F5A06F0FD100219A78597070
:104690003E4B1A7009E0364A108842F221029042DD
:1046A00000F037812D4A49F83420394A012313702C
:1046B00036E72A4A2A4B19F0080F18BF134647F865
:1046C00038302DE700F0E4FC324A334952F8263006
:1046D000002B00F0D18158688C5D42F8260003F170
:1046E0000802C9F80420032C05D8DFE804F02C02E6
:1046F000292602228A551A8819F0080F0CBF882330
:10470000C82343EA024347F8383009E7E00700F1DD
:104710008181210600F1F281A20706D51F4A2049B6
:1047200013780220DBB213700870E30602D51C4B2D
:1047300010221A7007B0BDE8F08F04228A55DAE71C
:1047400005228A55D7E703228A55D4E70000FF1FC8
:104750008C3CFF1F383CFF1F8040FF1FC8004000FB
:1047600088004000143DFF1F9D3CFF1F1C3DFF1FA4
:10477000003DFF1F343CFF1F9C3CFF1FC020074033
:104780000C3DFF1F483CFF1F083DFF1F98200740BE
:1047900094200740E03CFF1F183DFF1F8820074082
:1047A000802007409020074042F22100814200F023
:1047B0002A8100F2D880B1F5086F00F07682B1F559
:1047C000106F40F01882226AB349A8780870120668
:1047D00000F13A83D9F82820B049130600F10C8380
:1047E000D9F83020AD49150600F10183D9F83820F9
:1047F000AA49140600F1F682D9F84020A74910060C
:1048000000F14A83D9F84820A449120600F13F83F9
:10481000D9F85020A149130600F13483D9F8582063
:104820009E49150600F12983D9F860209B4914069A
:1048300000F11E83D9F868209849100600F113830F
:10484000D9F870209549120600F10883D9F878202C
:104850009249130600F1FD82D9F880208F49150690
:1048600000F13183D9F888208C49140600F12583A2
:10487000D9F890208949100600F11983D9F89820B9
:104880008649120600F10D838548864A86490190C3
:104890008648874D874C04970023059602958046ED
:1048A0000F4616461D460394306828B1446800F050
:1048B000EFFB2046002CF9D100233360029B3868BF
:1048C0001A46002342F8253028B1446800F0E0FB86
:1048D0002046002CF9D100223A60019A98F8003065
:1048E0001146002241F8042B039A0191023B4FF03C
:1048F000000122F81510032B00F22B81DFE813F0E2
:104900007001250170012501BEF1400F18BF002282
:10491000B5E6694A0D784878157050708D78C8787A
:104920009570D07010680D79157186284D79897948
:104930005571917100F09B816049614E0A78307821
:1049400082F00105002842F002020D700CBF8821A0
:10495000C82149F8321009EBC20280F001000021A1
:10496000307051609EE642F22120814240F0CB81BE
:10497000544B554C5549A8781D682560CDF804E086
:104980000870002002908046844604464B490D780A
:1049900045F0020E09EBCE030393019B002B039B12
:1049A0005C600CBF8824C82444EA080385F0010435
:1049B00049F83E3032700C70DFF8E0E0404BDFF831
:1049C000FC80002840F01E81BCF1400F1BD144F058
:1049D000020C09EBCC03029CDFF8C0E05C60002A0B
:1049E00040F02681020442F088029DF804304EF81F
:1049F0003C20044433700D702346402803D100202E
:104A0000334A3B601080334A012313704DE600F0B7
:104A1000BBFCA5E5214B2F4828491A614FF0020E37
:104A200080F800E02C4F0A702C49196099602C4ED8
:104A30002C4D2D4C9A610D213970FF213170DFF81A
:104A4000B8E029702270294D294A8EF800109F275E
:104A5000012406F8047C5D600470DA6007B0BDE8EC
:104A6000F08F244A47F8380013780133137057E564
:104A700045F826000E4D3AE58B5D032B00F2F080E1
:104A800001A252F823F000BF21450000214500009B
:104A9000454B00003F4B0000143DFF1F0000FF1F6F
:104AA000F03CFF1F8C3CFF1FE03CFF1F183DFF1F29
:104AB000383CFF1F8040FF1F8840FF1F083DFF1F3D
:104AC0009C3CFF1F303CFF1F9040FF1F2C3DFF1FF1
:104AD000483CFF1F94200740C0200740880040004A
:104AE0008820074080200740982007404C3CFF1F4B
:104AF000A03CFF1F093DFF1F8C200740C149C24B4E
:104B000080220D2008701A70A2077FF50EAE05E610
:104B100040F20232914240F0EE80A98801F07F011C
:104B2000042968D86A88002A65D1B648CDF804E01F
:104B300089000844017841F00201017021E7012356
:104B40008B55EDE400238B55EAE44FF0010388F820
:104B500000300135042D06F1040607F1040708F1C1
:104B600001087FF4A1AEA94CA94B2278A94D049F5E
:104B7000059E002129701A70130700F105816278E3
:104B8000A549DFF8A0820A7010074FF00001C9F8AC
:104B90003010C9F8381000F1E080A049A2780A70FE
:104BA0000021C9F85010C9F858101107DFF87482B5
:104BB00000F10181E2789A499A4C0A7000211207AB
:104BC000C9F87010C9F8781000F1B08033780193FB
:104BD000002183F00102C9F89010C9F89810D0E6BE
:104BE0004FF0000388F80030B3E7A98801F07F0197
:104BF000042940F28D80834A0F2313708A4A0123CF
:104C0000137052E540287FF6E2AE44F002040EEB4A
:104C1000C401029E4E60BAB19DF80410834A197017
:104C20003346403888F8005040334EF83420E7E6E9
:104C30009DF8043033700204029B0D7042F0C802EC
:104C400003444EF83C20D8E69DF804101970029BEE
:104C5000774A88F80050403840334EF83420CFE689
:104C600019F0080F0CBF022303238B5558E4714A37
:104C70000F21117060E6704A5468002CBBD0688820
:104C8000B5F804E003E00C325468002CB3D013886C
:104C90008342F8D153887345F5D1000A03280CBF2D
:104CA00094F800E0B2F808E003E0644A644C12783B
:104CB0002270E888704580F03F8162490D78402875
:104CC000844645F0020E28BF4FF0400C04EB0C0365
:104CD00009EBCE02029301235460CCEB00004FEAB3
:104CE0000C4800220193C8245EE6554C4FF0020E9A
:104CF00022706270DDE7B1F5A06F7FF47CAF012315
:104D0000002201933DE642F221329142F7D072E750
:104D10006A88002A7FF46FAF3A48CDF804E0890032
:104D20000844017821F0020101702AE600F090F9B0
:104D3000002800F0EF8008303D4AC4F88400C4F831
:104D4000802000F085F9002800F0DE800830374A26
:104D5000C9F88C00C9F8882038E700F079F90028F4
:104D600000F0C0800830324AC8F84400C8F840203B
:104D700000F06EF9002800F0AF8008302B4AC9F827
:104D80004C00C9F8482008E700F062F9002800F05C
:104D9000CD800830264AC9F82400C9F8202000F048
:104DA00057F9002800F0BC800830204AC9F82C00D0
:104DB000C9F82820E3E600F04BF9002800F09E80B7
:104DC00008301B4AC8F86400C8F8602000F040F9B9
:104DD000002800F08D800830144AC9F86C00C9F82A
:104DE0006820E7E6C86B083800F052F904E5486B24
:104DF000083800F04DF9F9E4C86A083800F048F9BD
:104E0000EEE400BFC0200740802007402896000045
:104E1000C4200740093DFF1FC8200740CC200740A1
:104E2000D02007400000FF1F94200740C80040002A
:104E3000880040009D3CFF1F2C960000143DFF1F82
:104E40000C3DFF1F083DFF1F606A083800F020F985
:104E5000C0E4C86F083800F01BF9FDE4486F08385B
:104E600000F016F9F2E4C86E083800F011F9E7E432
:104E7000486E083800F00CF9DCE4C86D083800F022
:104E800007F9D1E4486D083800F002F9C6E4C86CAF
:104E9000083800F0FDF8BBE4486C083800F0F8F87A
:104EA000B0E4D1F89C00083800F0F2F8ECE4D1F856
:104EB0009400083800F0ECF8E0E4D1F88C000838F1
:104EC00000F0E6F8D4E4D1F88400083800F0E0F807
:104ED000C8E44FF0020EECE62A78C9F84800013227
:104EE0002A705AE62A78C8F8400001322A703FE753
:104EF0002A78C9F8680001322A705BE62A78C8F877
:104F0000600001322A7061E72A78C9F8880001320E
:104F10002A705BE62A78C4F8800001322A7010E714
:104F20002A78C9F8280001322A7028E62A78C9F8B8
:104F3000200001322A7032E7BEF1400FF44628BF4C
:104F40004FF0400C04EB0C0302930123CCEB0E005A
:104F50004FEA0C480022019318E500BF2DE9F0410B
:104F600001F062F92F4C304B3048DFF8D880304FD9
:104F7000304D314EDFF8D0C0DFF8D0E000221A60AB
:104F80005A609A60DA601A615A619A61DA611A624B
:104F90005A629A62DA621A635A639A63DA631A642B
:104FA0005A649A64DA641A655A659A65DA651A660B
:104FB0005A669A66DA661A675A679A67DA67C3F8B2
:104FC00080202168C3F8842041F480212160016899
:104FD00041F040710160C3F3072188F8001004F527
:104FE0002834C3F307411B0E3970CC342B7000F109
:104FF0002040FF238CF80030104D8EF8003000F672
:10500000041033700E49012308F8083C7026227002
:105010004FF40014102207F82C3C2E7004600A7024
:10502000BDE8F081348004400000FF1F00D800403C
:10503000B0200740B42007401020074035E400E0CE
:10504000082107409C200740802007408820074017
:1050500072B60D4B1A68B2FA82F30B2B02D962B604
:10506000002070474FF00041D94022EA0102064972
:105070000A6062B603EBC303DA0004498818002310
:105080008B504360704700BF0407FF1F9803FF1F4A
:1050900008B50F4BC31A0F4AA2FB03231B090B2BA6
:1050A00014D80D4A12783AB10C4A127812F0FF0F58
:1050B00002D0FFF741F908BD4FF0004222FA03F396
:1050C00072B6074A11680B43136062B608BD00BF91
:1050D0009803FF1F398EE338093DFF1F143DFF1F62
:1050E0000407FF1F10B5134B1B6853B9124B1B78F5
:1050F00013F0FF0F18D00320FFF7EAF80D4B1860EC
:10510000A8B10C4B186843885A1C03441C7A0388C6
:105110009A4206D3FFF7BCFF0022064B1A602046D6
:1051200010BD4280204610BD4FF0FF3010BD4FF043
:10513000FF3010BD283DFF1F143DFF1F08B50F4B6A
:105140001B6853B90E4B1B7813F0FF0F0CD00320D4
:10515000FFF7BEF8094B186048B1084B1B684BB10C
:105160005A881344187A08BD4FF0FF3008BD4FF03D
:10517000FF3008BD4FF0FF3008BD00BF283DFF1FC6
:10518000143DFF1F044B9888044B1B681BB11A8801
:105190005B88D31A184470478040FF1F283DFF1FCB
:1051A00008B50A4B1B7813F0FF0F0ED0084B186898
:1051B00020B1FFF76DFF0022054B1A600320FFF7B7
:1051C00087F810B1FFF764FFF8E708BD143DFF1F33
:1051D000283DFF1FF8B504460F460122314B1A70D7
:1051E0000E4657E0304B1B6863BB00252F4B1B78E6
:1051F00013F0FF0F05D100222A4B1A704FF0FF3039
:10520000F8BD0420FFF782F807280AD80122254BB1
:105210001A70FFF71DFF244B186098B90022214B2C
:105220001A7001354DF2E8039D4202D8204B1B78DD
:105230002BB101221E4B1A704FF0FF30F8BD00F069
:1052400001FBD3E700221A4B1A70174B19684888E4
:10525000C0F140039E4200D2334601F108020244ED
:1052600018444880F61A04E0237813702B46013264
:1052700001345D1E002BF7D14B883F2B07D940230B
:105280000B800420FFF7BCF80022074B1A600522B0
:10529000084B1A70002EA5D10022024B1A70384616
:1052A000F8BD00BF1D3DFF1F203DFF1F143DFF1F28
:1052B000243DFF1F1C3DFF1F00B583B002AB03F868
:1052C000010D01211846FFF785FF03B05DF804FBCF
:1052D00008B50122104B1A70104B1B6893B9104B84
:1052E0001B7813F0FF0F09D00420FFF70FF80728F1
:1052F00004D8FFF7ADFE094B186018B90020064B23
:10530000187008BD054B1B685888C0F1400000228A
:10531000014B1A7008BD00BF1D3DFF1F203DFF1F40
:10532000143DFF1F144B1B7813F0FF0F23D010B553
:105330000122124B1A70124B196851B10024114B03
:105340001C704B880B800420FFF75AF80C4B1C6034
:105350000DE0FFF77DFE014630B10022094B1A70C7
:105360000420FFF74DF802E00122064B1A700022DC
:10537000024B1A7010BD7047143DFF1F1D3DFF1FEB
:10538000203DFF1F1C3DFF1F08B50E4B1B7813F07F
:10539000FF0F16D10C4B196841B14B880B800420CC
:1053A000FFF72EF80022084B1A6008BDFFF750FEE9
:1053B000014618B10420FFF723F808BD0122034B72
:1053C0001A7008BD1D3DFF1F203DFF1F1C3DFF1F24
:1053D00008B5FDF7F1F8FDF797F900F033FAFAE7B1
:1053E00000B583B0054B1B88ADF8043003685B68DB
:1053F000022201A9984703B05DF804FBF095000074
:10540000F0B58BB022B903681B68C9B2984732E087
:105410001646012A00D10A2621B930228DF825200E
:10542000212419E021243746B1FBF6F206FB1212C3
:10543000D2B22546092A02D83032D2B201E0373240
:10544000D2B20DF1280E754405F8242CB1FBF7F10A
:1054500011B1013CE4B2E6E733B1013CE4B20AAB7E
:1054600023442D2203F8242C03685B68C4F1220234
:1054700001A9214498470BB0F0BD00BF08B5002931
:1054800002DA49422D2300E000230A22FFF7B8FF89
:1054900008BD00BFFFFFFFFF2DE9F04F85B00746B5
:1054A00059EC108B8A4610EE102A4B4610EE100A6B
:1054B000494602F02BFD38B13B685B6803225C492A
:1054C000384698478346ABE029F000454FF0FF325D
:1054D000584B4046294602F019FD48B94FF0FF32BB
:1054E000544B4046294602F0F3FC08B9012300E082
:1054F00000233BB13B685B6803224F49384698471D
:1055000083468DE04FF060424C4B4046494602F0E6
:10551000F3FC38B13B685B68032249493846984739
:1055200083467DE04FF06042464B4046494602F0DC
:10553000C5FC38B13B685B6803224149384698474F
:1055400083466DE0002200234046494602F0B6FC47
:1055500020B109F100439946012500E0002500240F
:1055600000203949544507D22FA3D3E9002302F084
:1055700033FA0134E4B2F5E702460B4640464946A9
:1055800002F078F88046894602F0FEFC044602F0FC
:10559000ADF902460B464046494602F069F880469E
:1055A00089462B460A2221463846FFF729FF8346C3
:1055B000BAF1000F34D02E238DF80030BAF10F0F5E
:1055C00001D94FF00F0A01240AF1FF35EDB2BAF10B
:1055D000000F1FD000221D4B4046494602F0FCF947
:1055E0008046894602F0D0FCC0B2661CF6B204AB1D
:1055F0001C4400F1300304F8103C02F087F9024625
:105600000B464046494602F033F880468946AA4692
:105610003446D9E73B685B68224669463846984776
:10562000584605B0BDE8F08F000000A09999B93F39
:10563000F4950000FFFFEF7FF8950000FFFFEF41BA
:10564000FC950000FFFFEFC10000E03F0000244098
:1056500008B5FFF7A5FD08BD08B5FFF76FFD08BD4C
:1056600008B5FFF73FFD08BD08B5FFF78BFD08BD86
:1056700008B5FFF757FE08BD08B5FFF729FE08BDBE
:1056800008B508461146FFF7A5FD08BD08B5084650
:10569000FFF712FE08BD00BF704700BF10B50446FB
:1056A000006802F0D3FC204610BD00BF38B50446A8
:1056B0000D460131006803F03FF818B120606560C5
:1056C000012038BD002038BD43688B420CD210B594
:1056D0000446FFF7EBFF034650B1A3683BB92368CC
:1056E00000221A70012303E00123184670470123AA
:1056F000184610BD70B504462AB9036803B11A7084
:105700000023A36014E00E4615461146FFF7DCFFA8
:1057100048B9206818B102F099FC002323600023E7
:105720006360A36004E0A5603146206803F086FB57
:10573000204670BD38B50446002303604360836093
:10574000037341B10D46084603F0DAFB02462946D1
:105750002046FFF7CFFF204638BD00BF38B50546CD
:105760000C46006868B16A688B689A4207D309687A
:1057700003F064FBA368AB600023A36038BD02F0B4
:1057800065FC23682B6063686B60A368AB600023D3
:1057900023606360A36038BD10B504460023036036
:1057A000436083600373FFF7D9FF204610BD00BF3D
:1057B000884205D008B58A680968FFF79BFF08BDD5
:1057C000704700BF10B50446002303604360836048
:1057D0000373FFF7EDFF204610BD00BF10B5044670
:1057E000884201D0FFF7BAFF204610BD38B5044605
:1057F00049B10D46084603F083FB02462946204680
:10580000FFF778FF01E000238360204638BD00BF2A
:1058100008B5836843B919B10B781BB9012008BDDD
:10582000012008BD002008BD29B903681878B0FA26
:1058300080F0400908BD006803F096F9B0FA80F0E6
:10584000400908BD2B4B1B78002B51D110B501220C
:10585000284B1A70FFF796FC08B1FFF71DFF00F008
:1058600093F908B100F0BCFD00F02EFA08B100F089
:10587000B9FD00F0C9FA08B100F0B6FD00F048FB30
:1058800008B100F0B3FD00F0C7FB08B100F0B0FDB7
:1058900000F046FC08B100F0ADFD0022154B1A7077
:1058A000EFF305831BBBEFF3108372B6124A106847
:1058B00010B9E3B962B610BD104A127812B1B3B98B
:1058C00062B610BD01210D4A117042690A490A6091
:1058D00012B10021916102E00021094A116003B96F
:1058E00062B60024447783689847044B1C7010BD4F
:1058F000704700BF2D3DFF1F4040FF1F4440FF1F6A
:105900003C40FF1F6022434B1A70E12201331A70A2
:10591000414B1B78082B10D1212203F1804303F562
:105920006C331A6013233D490B6001F5FF2101F22E
:10593000FC710A603A4A13602CE00A2B0DD139221F
:10594000384B1A60132335490B6001F5FF2101F232
:10595000FC710A60324A13601CE00C2B0DD1352219
:10596000304B1A6012232D490B6001F5FF2101F223
:10597000FC710A602A4A13600CE05D22294B1A6010
:10598000122326490B6001F5FF2101F2FC710A6028
:10599000234A1360244B1B7833B10123234A13603D
:1059A00002F50022136005E00023204A136002F58F
:1059B000002213601E4B1B78012B06D880231D4A42
:1059C000136002F50022136020E0042B06D8842324
:1059D000184A136002F50022136017E0082B06D85E
:1059E0008523144A136002F5002213600EE0102B89
:1059F00006D886230F4A136002F50022136005E0E3
:105A000087230C4A136002F50022136001220A4B1F
:105A10001A707047004007401807FF1F0CB0034082
:105A20000CB00B4008B003402F3DFF1F20B00340D7
:105A30001907FF1F24B003402E3DFF1F0A4A1368B9
:105A400043F480531360094B1B781BB18022084B31
:105A50001A7002E0C022064B1A7080F30C0000B2EC
:105A6000044B1880704700BF2C8004402F3DFF1F5F
:105A700021C00C4000C00C400A4A136843F4005394
:105A80001360094B1B781BB18022084B1A7002E08F
:105A9000C022064B1A7080F30C0000B2044B188031
:105AA000704700BF2C8004402F3DFF1F21D00C40C9
:105AB00000D00C4008B50E4B1B6813F4802F01D0AA
:105AC000FEF7E2FC0A4B1B6813F4806F01D000F074
:105AD0006DF8074B1B6813F4006F01D000F006F956
:105AE000034B1B6813F4805FE5D000F09FF9E2E7F9
:105AF0003480044008B5FFF7DDFF00BF1022014BE2
:105B00001A80704700200540704700BF08B50B4B56
:105B10001B6880B16A461818A2F50052904206D35D
:105B200002F05EFA0C2303604FF0FF3008BD034A19
:105B30001060184608BD184608BD00BF1C07FF1FAF
:105B400070B40024B0FBF2F302FB130326460D19D8
:105B5000092B02D83033DBB201E03733DBB22B70D4
:105B6000B0FBF2F008B10134ECE7013600238B55AD
:105B700005E0CA5C085DC8540A550133013C9C42EB
:105B8000F7DC084670BC7047064B1B78DBB2064A50
:105B90001078C0B2834201D3181A70471B1A03F160
:105BA00040007047B83DFF1F353DFF1F30B43C4BF0
:105BB0001B7913F0300F32D072B6394B9A7D02F058
:105BC000FF032AB9364BDA7940225A7462B626E0CE
:105BD00062B6344A1078C0B2334A1578EDB2304A12
:105BE000D279D1B2421C3F2A00D90022AA4202D067
:105BF0002E4CA1541046013B13F0FF03EFD1C3B26A
:105C0000284A13702A4B1B684BB1A84201D3401B92
:105C100001E0401B4030272801DD01221A70204B93
:105C2000DB78DBB213F0800F25D01D4A127912F019
:105C3000800F20D01F4A1478E4B21F4A1278D2B2E3
:105C4000A2420DD001323F2A00D90022144908791E
:105C50001A48805CC0B2C871097DC9B20729EFD962
:105C6000D2B215490A700E4A127912F0800F02D092
:105C70007C210B4AD17013F0400F0ED0084B1B79DA
:105C800013F0400F09D000220D4B1A700D4B1B680A
:105C900003B11A703C22024BDA7030BC704700BF6F
:105CA00000A00640B83DFF1F353DFF1F783DFF1F98
:105CB000303DFF1FC03DFF1FB93DFF1F383DFF1F97
:105CC000343DFF1FBC3DFF1F064B1B78DBB2064A6D
:105CD0001078C0B2834201D3181A70471B1A03F11F
:105CE00040007047343EFF1FC93DFF1F30B43C4B9E
:105CF0001B7913F0300F32D072B6394B9A7D02F017
:105D0000FF032AB9364BDA7940225A7462B626E08C
:105D100062B6344A1078C0B2334A1578EDB2304AD0
:105D2000D279D1B2421C3F2A00D90022AA4202D025
:105D30002E4CA1541046013B13F0FF03EFD1C3B228
:105D4000284A13702A4B1B684BB1A84201D3401B51
:105D500001E0401B4030272801DD01221A70204B52
:105D6000DB78DBB213F0800F25D01D4A127912F0D8
:105D7000800F20D01F4A1478E4B21F4A1278D2B2A2
:105D8000A2420DD00132272A00D9002214490879F5
:105D90001A48805CC0B2C871097DC9B20729EFD921
:105DA000D2B215490A700E4A127912F0800F02D051
:105DB0007C210B4AD17013F0400F0ED0084B1B7999
:105DC00013F0400F09D000220D4B1A700D4B1B68C9
:105DD00003B11A703C22024BDA7030BC704700BF2E
:105DE00000B00640343EFF1FC93DFF1FF43DFF1FBA
:105DF000C43DFF1F3C3EFF1F353EFF1FCC3DFF1F34
:105E0000C83DFF1F383EFF1F064B1B78DBB2064A1A
:105E10001078C0B2834201D3181A70471B1A03F1DD
:105E200040007047B03EFF1F453EFF1F2E4B1B79C1
:105E300013F0200F22D02C4BDB79D9B22B4B1B78DF
:105E400001333F2B00D90023294A1278D2B2934262
:105E500004D0284AD154DAB224490A70264A11687B
:105E600061B1264A1278D2B2934201D39B1A01E063
:105E70009B1A4033272B01DD01230B701A4BDB7873
:105E8000DBB213F0800F1CD0174A127912F0800F8A
:105E900017D01B4A1178C9B2184A1278D2B291426F
:105EA00003D16C21104AD1700BE00132272A00D9AE
:105EB00000221449895CC9B20B48C171D2B20F49A2
:105EC0000A7013F0400F0ED0074B1B7913F0400FF0
:105ED00009D000220C4B1A700C4B1B6803B11A70CE
:105EE0002C22014BDA70704700C00640B03EFF1F05
:105EF000453EFF1F703EFF1F403EFF1FB13EFF1F8C
:105F0000B83EFF1F483EFF1F443EFF1FB43EFF1F29
:105F1000064B1B78DBB2064A1078C0B2834201D32D
:105F2000181A70471B1A03F1400070472C3FFF1FDF
:105F3000C13EFF1F2E4B1B7913F0200F22D02C4B9C
:105F4000DB79D9B22B4B1B7801333F2B00D90023CF
:105F5000294A1278D2B2934204D0284AD154DAB2F4
:105F600024490A70264A116861B1264A1278D2B2D1
:105F7000934201D39B1A01E09B1A4033272B01DD8A
:105F800001230B701A4BDB78DBB213F0800F1CD0AF
:105F9000174A127912F0800F17D01B4A1178C9B234
:105FA000184A1278D2B2914203D16C21104AD170B2
:105FB0000BE00132272A00D900221449895CC9B2BA
:105FC0000B48C171D2B20F490A7013F0400F0ED0C6
:105FD000074B1B7913F0400F09D000220C4B1A70AD
:105FE0000C4B1B6803B11A702C22014BDA707047FE
:105FF00000D006402C3FFF1FC13EFF1FEC3EFF1F9D
:10600000BC3EFF1F2D3FFF1F343FFF1FC43EFF1F3D
:10601000C03EFF1F303FFF1F064B1B78DBB2064A16
:106020001078C0B2834201D3181A70471B1A03F1CB
:1060300040007047A83FFF1F3D3FFF1F2E4B1B79BD
:1060400013F0200F22D02C4BDB79D9B22B4B1B78CD
:1060500001333F2B00D90023294A1278D2B2934250
:1060600004D0284AD154DAB224490A70264A116869
:1060700061B1264A1278D2B2934201D39B1A01E051
:106080009B1A4033272B01DD01230B701A4BDB7861
:10609000DBB213F0800F1CD0174A127912F0800F78
:1060A00017D01B4A1178C9B2184A1278D2B291425D
:1060B00003D16C21104AD1700BE00132272A00D99C
:1060C00000221449895CC9B20B48C171D2B20F4990
:1060D0000A7013F0400F0ED0074B1B7913F0400FDE
:1060E00009D000220C4B1A700C4B1B6803B11A70BC
:1060F0002C22014BDA70704700A00E40A83FFF1F12
:106100003D3FFF1F683FFF1F383FFF1FA93FFF1F95
:10611000B03FFF1F403FFF1F3C3FFF1FAC3FFF1F33
:10612000064B1B78DBB2064A1078C0B2834201D31B
:10613000181A70471B1A03F1400070472440FF1FD4
:10614000B93FFF1F2E4B1B7913F0200F22D02C4B91
:10615000DB79D9B22B4B1B7801333F2B00D90023BD
:10616000294A1278D2B2934204D0284AD154DAB2E2
:1061700024490A70264A116861B1264A1278D2B2BF
:10618000934201D39B1A01E09B1A4033272B01DD78
:1061900001230B701A4BDB78DBB213F0800F1CD09D
:1061A000174A127912F0800F17D01B4A1178C9B222
:1061B000184A1278D2B2914203D16C21104AD170A0
:1061C0000BE00132272A00D900221449895CC9B2A8
:1061D0000B48C171D2B20F490A7013F0400F0ED0B4
:1061E000074B1B7913F0400F09D000220C4B1A709B
:1061F0000C4B1B6803B11A702C22014BDA707047EC
:1062000000B00E402440FF1FB93FFF1FE43FFF1FB7
:10621000B43FFF1F2540FF1F2C40FF1FBC3FFF1F47
:10622000B83FFF1F2840FF1F72B6184B70221A702C
:106230001749184A116080221A70144B1B7813F00A
:10624000800FFAD000B585B0134B186862B6134BB7
:10625000984202D800EB800358000A2201A9FFF7F8
:106260006FFC002309E004AA1A4412F80C1C31B197
:106270000B4A02EB430251800133092BF3D901335E
:106280005B00074A137005B05DF804FB0000024094
:1062900000000741040002400C0002407F96980075
:1062A000AC07FF1F08B5EFF3108272B60B4B1868EE
:1062B00080B1436909490B6013B10021996102E083
:1062C0000021074B196002B962B600234377836847
:1062D0009847E8E702B962B608BD00BF3040FF1F2B
:1062E0003440FF1F08B5FFF7DDFF08BD1C4B1B68DE
:1062F00023B98360C3601A4B18602DE001681A68E7
:1063000091420AD283600022C260D86001681A6894
:10631000521A1A60124B18601EE09A68A2B11968EE
:106320000268521A02609B6819688A42F5D283603B
:10633000DA68C260D860C268906001681A68521A50
:106340001A6002230375704719680268521A0260C6
:1063500000228260C360986002230375704700BF0B
:106360003840FF1F10B5174B1C68D4B1236813B118
:10637000013B236015E0A3680BB10022DA60114AEB
:10638000136000212175206903681B682246984725
:1063900063681BB123602046FFF7A8FF094B1C6808
:1063A000E3E7EFF3108372B6074A1068002111602B
:1063B00003B962B620B18468FFF798FF2046F9E779
:1063C00010BD00BF3840FF1F4840FF1F08B5034AFB
:1063D000136801331360FFF7C5FF08BD303CFF1F92
:1063E000704700BF704700BF704700BF704700BFD5
:1063F000704700BF704700BF2DE9F04F2DED028BB5
:10640000DFF824A38BB057EC106B55EC114B00F068
:106410008FF99AF90080B0EE408AF0EE608AB8F108
:10642000FF3F48D022462B462046294601F06EFD0C
:10643000834600283FD132463B463046394601F07C
:1064400065FD8146002840F09080304639460022A4
:10645000002301F029FD002836D000220023204629
:10646000294601F021FD8346B8B19FEDA57B0122AD
:10647000A94BCDF820900092CDE90267CDE9044503
:106480008DED067B0193B8F1000F5BD09FED9E0B65
:106490000BB0BDEC028BBDE8F08F45EC104B00F06B
:1064A000A7FF40B1002200232046294601F006FD47
:1064B000002840F0C580B0EE480AF0EE680A0BB044
:1064C000BDEC028BBDE8F08FB0EE480AF0EE680A32
:1064D00000F08EFF8046002861D04FF000084FF09A
:1064E000000951EC180B42464B4601F0DDFC002838
:1064F000E1D047EC106B00F07BFF0028DBD045ECCF
:10650000104B00F075FF0028D5D09AF90030824A70
:10651000019204210022022BCDE90267CDE9044556
:10652000CDE906890091089203D0684600F068FF23
:1065300070B901F055FD2223036009E09FED707BE7
:106540008DED067B684600F05BFF002800F08E8032
:10655000089B1BB101F044FD089B03609DED060BF9
:106560000BB0BDEC028BBDE8F08F0022002320466B
:10657000294601F099FC00289DD09FED630B664BE6
:10658000CDF820B00122B8F1020FCDE90267CDE9C4
:1065900004458DED060B8DE80C00D3D18FE747EC59
:1065A000106B00F025FF002897D045EC104B00F051
:1065B0001FFF002891D053EC182B18EE100A194633
:1065C00001F0A4FC00287CD103239AF900800093F9
:1065D000514B0890CDE90267CDE904450193B8F12C
:1065E000000F48D1DFF844914FF0604800220023AB
:1065F00030463946CDE9068901F060FC002894D088
:106600000022464B2046294601F0E6F904460D4695
:1066100045EC104B00F000FF204653EC102B2946B0
:1066200001F042FC002849D13D4B9AF900804FF01F
:106630006042CDE90623B8F1020F7FF476AF78E728
:10664000354A9AF90030CDF820B00121CDE9026732
:10665000CDE904458DE80600002B3FF46FAF3149CA
:106660000020022BCDE906017FF46CAF01F0B8FCED
:10667000212303606CE79FED267B00220023304638
:1066800039468DED067B01F019FC0028D3D000229D
:10669000224B2046294601F09FF904460D4645EC61
:1066A000104B00F0B9FE204653EC102B294601F0A8
:1066B000FBFB18B91B4B0022CDE906239AF9008099
:1066C000B9E7154B9AF90090CDF820800122CDE969
:1066D0000267CDE904458DE80C00B9F1000F3FF4E5
:1066E0002DAF002200231046194601F09FFAB9F1A0
:1066F000020FCDE90601B9D024E700BFAFF3008057
:106700000000000000000000000000000000F03F5A
:10671000000000000000F07F809600000000E03FD5
:10672000FFFFEFC70000F0FFC207FF1FFFFFEF47AB
:106730002DE9F04F51EC110B21F0004858EA00040C
:1067400093B03CD053EC102B6D4E23F00044B44278
:1067500010EE10AA1D462BDC894611EE10EA26D059
:10676000B04525DC664EB04577D0002D16461F4655
:10677000CDE9000175DB4FF0000BBEF1000F2DD10C
:106780005F4B984500F089805E4B98455ED0B9F12B
:10679000804F00F0DE835C4B99451FD1002D1DDB3F
:1067A00047EC106B13B0BDE8F04F00F049BD5AB193
:1067B00004F1404404F5801454EA0A0306D19FED25
:1067C0004A0B13B0BDE8F08FA045CBDD4F4813B0A6
:1067D000BDE8F04F00F018BE4FF0000B47EC106B17
:1067E00000F0FEFD51EC100BBAF1000F1ED0ED0FC2
:1067F00005F1FF3A5BEA0A0363D0454B984540F345
:106800008D8003F10473984540F33884414B9C42DA
:1068100062DDB9F1000F62DD35A3D3E90023104634
:10682000194601F0D9F841EC100BCAE724B1354BF9
:1068300025F040429A42DAD1B9F1000FC0F2CB8381
:10684000002DC0F2748341EC100BBAE7B9F1000FD0
:10685000C0F27A8447EC106BB3E7BEF1000F84D02E
:10686000A6E72D4B984529DCA3F15473984582DDAA
:106870004FEA2853A3F2FF33142B40F37F84C3F174
:1068800034032EFA03F202FA03F39E457FF473AF4A
:1068900002F00102C2F1020B6FE704F1404303F57D
:1068A000801353EA0A038AD01A4B9C4240F3858333
:1068B000B9F1000F13DB9DED000B82E74FF0020BE7
:1068C0005BE732463B461046194600F0D1FE0246D1
:1068D0000B4601F0ABF9B6E7B9F1000F9CDB9FED79
:1068E000060B6EE7AFF30080000000000000F03FF1
:1068F0009C7500883CE4377E00000000000000002A
:106900000000F07F0000F03F0000E03F54930000E3
:106910000000E041FFFFEF3FFFFF3F43B4F5801F62
:106920004FF0000205DAD64B01F056F86FF0340252
:106930000C462315D34EC4F31304A3F2FF331344C0
:1069400044F07F55B4421A460D9345F4401540F388
:106950004983CD4B9C4240F32D849FEDB37B8DED5D
:10696000087B8DED0E7B9FEDB27B13468DED067B94
:1069700001330D93A5F580154FF00008DDE90623DE
:106980002946CDE90A0100F073FEDDE9062306463B
:106990000F46DDE90A0100F06DFE02460B460020BD
:1069A000BA4901F043F903460C46CDE910340246DA
:1069B0000B463046394601F00FF86B1043F0005398
:1069C00003F5002303EB08050A4600230146CDE941
:1069D00002120293DDE902890024CDE904122B465C
:1069E00022464046494600F0F7FF02460B46304635
:1069F000394600F03DFEDDE9062306460F462046F7
:106A0000294600F035FE02460B46DDE90A0100F09A
:106A10002FFE42464B4600F0DFFF02460B46304653
:106A2000394600F025FEDDE9102300F0D5FFDDE951
:106A30000445CDE9060122462B462046294600F0B2
:106A4000CBFF7DA3D3E9002304460D4600F0C4FF2D
:106A50007BA3D3E9002300F00DFE22462B4600F075
:106A6000BBFF79A3D3E9002300F004FE22462B46A6
:106A700000F0B2FF76A3D3E9002300F0FBFD22462D
:106A80002B4600F0A9FF74A3D3E9002300F0F2FD28
:106A900022462B4600F0A0FF71A3D3E9002300F0AB
:106AA000E9FD224606460F462B462046294600F0C1
:106AB00093FF02460B463046394600F08DFF4246B2
:106AC00004460D464B46DDE9040100F0D3FDDDE947
:106AD000062300F081FF22462B4600F0CBFD424604
:106AE00006460F464B464046494600F075FF0022D9
:106AF000674BCDE90A0100F0BDFD32463B4600F090
:106B0000B9FD02980D46044622462B4640464946AA
:106B100000F062FF0022804689465D4B20462946F0
:106B200000F0A6FDDDE90A2300F0A2FD02460B46B7
:106B30003046394600F09CFDDDE9042300F04CFFAF
:106B4000224606460F462B46DDE9060100F044FFCB
:106B500002460B463046394600F08CFD06460F468D
:106B600002460B4640464946CDE9048900F082FDC5
:106B700002983DA3D3E9002304460D4600F02CFF04
:106B8000DDE90423804689462046294600F070FD51
:106B900002460B463046394600F06AFD34A3D3E97D
:106BA000002300F019FF34A3D3E9002306460F4663
:106BB0002046294600F010FF02460B463046394673
:106BC00000F058FDDDE90E2300F054FD06460D9857
:106BD0000F4600F09BFE324604460D463B464046BB
:106BE000494600F047FDDDE9082300F043FD224659
:106BF0002B4600F03FFD029822462B46CDE90201CC
:106C000000F036FDDDE9082300F032FD42464B4638
:106C100000F02EFD02460B463046394600F028FDB6
:106C20008046894636E000BF0000000000000000FA
:106C3000000000000000F03FEF4E454A287ECA3FAA
:106C400065DBC9934A86CD3F01411DA96074D13FE0
:106C50004D268F515555D53FFFAB6FDBB66DDB3FF2
:106C6000033333333333E33F000000E009C7EE3F23
:106C7000FD033ADC09C7EE3FF5015B14E02F3EBE91
:106C8000000040438E98030079B60B000000F03FEF
:106C9000000008400BF1FF3353EA0A0300F088813B
:106CA0009FEDD77B8DED067BDDE900AB53465C465F
:106CB000CDE9003400230093DDE90045504622462B
:106CC0002B46594600F0D4FCDDE9022300F084FE97
:106CD000524606460F465B464046494600F07CFE5B
:106CE00002460B463046394600F0C4FC2246804638
:106CF00089462B46DDE90201CDE9048900F06CFEEE
:106D00000B46024606460F464046494600F0B2FC96
:106D1000D54B994204460D468A4640F3238101F142
:106D20003F4303F5E003034340F01882B6A3D3E9E1
:106D30000023DDE9040100F09DFC324680468946CF
:106D40003B462046294600F093FC02460B4640464F
:106D5000494601F0D1F8002840F00082A8464FEAE9
:106D600028534FF48012A3F2FE3342FA03F3534444
:106D7000C3F30A52BD4DA2F2FF321541C3F3130B08
:106D80000020C2F1140423EA05014BF4801BBAF180
:106D9000000F02460B464BFA04FB30463946B8BF9B
:106DA000CBF1000B00F064FC02460B4606460F4692
:106DB000DDE9040100F05EFC4FEA0B5A002494A3C5
:106DC000D3E9002320460D4600F006FE32468046F9
:106DD00089463B462046294600F04AFC02460B46BF
:106DE000DDE9040100F044FC8BA3D3E9002300F0AB
:106DF000F3FD8BA3D3E9002306460F462046294620
:106E000000F0EAFD02460B463046394600F032FCFF
:106E100006460F4602460B464046494600F02AFC0D
:106E200042464B4604460D4600F022FC02460B4605
:106E30003046394600F01CFC2246804689462B46E7
:106E40002046294600F0C8FD77A3D3E90023064673
:106E50000F4600F0C1FD76A3D3E9002300F008FC43
:106E600032463B4600F0B8FD73A3D3E9002300F09F
:106E700001FC32463B4600F0AFFD71A3D3E900238D
:106E800000F0F6FB32463B4600F0A6FD6EA3D3E9C8
:106E9000002300F0EFFB32463B4600F09DFD02462A
:106EA0000B462046294600F0E3FB06460F46024605
:106EB0000B462046294600F08FFD0022CDE9000157
:106EC0004FF080433046394600F0D2FB02460B4675
:106ED000DDE9000100F0AAFE424606460F464B4699
:106EE0002046294600F078FD42464B4600F0C2FBA2
:106EF00002460B463046394600F0BAFB22462B4686
:106F000000F0B6FB02460B460020594900F0B0FBEA
:106F10008A44BAF5801F02460B46C0F25B81514697
:106F2000DDE9062300F058FD41EC100B49E404F1C3
:106F3000404404F5801454EA0B0300F03781BBF1A0
:106F4000010F7FF480AC024601F1004343EC102BAB
:106F500037E432463B463046394600F03DFD41ECD1
:106F6000100B2EE4434B21F00048984540F3158167
:106F7000414B0B4403430CD132463B4600F078FBB7
:106F800002460B46DDE9040100F0A2FF00283FF4B1
:106F9000E6AE2FA3D3E90023DDE9060100F01CFDD6
:106FA0002BA3D3E9002300F017FD41EC100B08E4FC
:106FB0009FED297B8DED067B76E6B9F1000FBFF6DC
:106FC0008EACDDE9003400EE103A04F1004300EE2F
:106FD000903AFFF7F6BB02460B460020244900F02A
:106FE00025FE2DE49FED1E7B8DED087B8DED0E7B48
:106FF0009FED037B4FF000088DED067BBEE400BFE4
:10700000000000000000F03FFE822B654715973C12
:1070100000000000432EE63FEF39FAFE422EE63F25
:10702000396CA80C615C20BED0A4BE726937663E84
:10703000F16BD2C541BDBB3E2CDE25AF6A56113F78
:1070400093BDBE166CC1663F3E5555555555C53F5F
:1070500059F3F8C21F6EA501000000000000F0BF48
:107060000000000000000000FFFF8F40FFFF0F0046
:107070000000F03FFFCB904000346F3F6C4B9C42D0
:107080007FF72AAC6B4B9C423FF7C3AB0022694BA6
:1070900000F0EEFA56A3D3E9002304460D4600F0B3
:1070A0009BFC55A3D3E90023804689462046294608
:1070B00000F092FC0022CDE902015F4B20462946F8
:1070C00000F08AFC02460B464DA1D1E9000100F018
:1070D000CFFA22462B4600F07FFC02460B460020EA
:1070E000564900F0C5FA22462B4606460F46204672
:1070F000294600F071FC02460B463046394600F046
:107100006BFC41A3D3E9002300F066FC02460B466A
:10711000DDE9020100F0ACFA02460B4604460D46DA
:107120004046494600F0A6FA42464B460020CDE9CB
:10713000020100F09DFA02460B462046294600F067
:1071400097FA80468946A5E532463B4600203949F4
:1071500000F06CFD41EC100BFFF733BB2CA3D3E91F
:107160000023DDE9060100F037FC29A3D3E9002361
:1071700000F032FC41EC100BFFF723BBBEF1000F17
:107180007FF42AABC3F1140348FA03F202FA03F3C3
:10719000984527D0F346FFF7F7BA284B98453FF7B5
:1071A000DEADDDE900349A469B4607E602460B4613
:1071B000FFF789BB9FED187B8DED087B9FED187B5A
:1071C0008DED0E7B9FED187B4FF480288DED067BB7
:1071D000FFF7D4BB584643EC102B00F0B1F951EC4B
:1071E000100B9DE602F00102C2F1020BFFF7CCBAD0
:1071F000000000604715F73F44DF5DF80BAE543EDA
:10720000555555555555D53FFE822B654715F73FCA
:107210009C7500883CE4377E0000004003B8E23FE4
:1072200006D0CF43EBFD4C3E000000000000F83FCD
:10723000FEFFEF3F0000F03F0000D03F0000E03FC6
:107240002DE9F041654955EC104B0E462940B142FD
:1072500000F09780002D2B4610EE102A74DD2F15BC
:107260007FD0A7F2FF37C3F31303F90743F480136A
:1072700065D403EBD27100260B447F105200B64652
:1072800016204FF400110EEB01049C424FEAD27518
:107290004FEA420203DC1B1B04EB010E0E440138D3
:1072A00005EB43034FEA5101EDD1844620244FF012
:1072B000004109E020D003EBD275013C4FEA5101B7
:1072C0002B444FEA420220D09E4501EB0C05F1DA37
:1072D000002D05EB010C09DBF0469542CEEB0303D4
:1072E00000D9013B521B0844C646E4E7BCF1000F3D
:1072F000F2DB0EF10108F0E795421ED8002D05EBF8
:10730000010C50DB98460023ECE7134304D0421CE9
:107310004DD000F00103184440087110F30701F14B
:107320007F5101F5001148BF40F0004001EB0753C9
:10733000024643EC102BBDE8F0817346BBE75B00CF
:1073400003EBD273520094E725F00041214328D08B
:10735000ADBB2F46D30A153F5205002BFAD0DD02F4
:1073600028D4002100E001465B00DC0201F10100AD
:10737000F9D5C0F1200422FA04F423437F1A824095
:107380006FE710EE102A2B4610EE100A294600F087
:1073900023FB22462B4600F06DF941EC100BBDE8B3
:1073A000F081BDE8F081BCF1000FA2DAAAE7013656
:1073B0002046B2E720244FF0FF310020DBE710EE3B
:1073C000102A2B462046294600F052F902460B4669
:1073D00000F02CFC41EC100BBDE8F0810000F07FC8
:1073E00053EC102B23F0004343EC102B704700BFED
:1073F00010EE903A43F0004000F58010C00F704747
:1074000000207047FFFFFFFF9FED010B704700BF9B
:10741000000000000000F87FF0B553EC102BC3F320
:107420000A56A6F2FF30132883B019464FEAD374E8
:1074300010EE105A2FDC002849DB3F4E064103EACC
:10744000060717432CD0760833401D430CD04FF469
:107450008023132821EA060643FA00F141EA0601D7
:107460000CBF4FF000450025344800EBC4042A4609
:10747000D4E9004510462B46224600F0FBF8CDE942
:10748000000122462B46DDE9000100F0F1F841EC55
:10749000100B03B0F0BD332806DDB0F5806F42D08D
:1074A00043EC102B03B0F0BDA6F213464FF0FF30B3
:1074B000F0400242F4D040080242D5D04FF0804361
:1074C00025EA000043FA06F646EA0005CCE723F079
:1074D0000040104310EE107AE2D0C3F313000743CC
:1074E000784207431548590C3F0B490407F400271D
:1074F00000EBC40047EA0103D0E9006719461046D3
:107500003B46324600F0B6F8CDE900013B46324634
:10751000DDE9000100F0ACF821F0004343EAC4715A
:1075200041EC100BBEE710EE100A194600F0A2F86D
:1075300041EC100BB6E700BFFFFF0F00889600007C
:1075400053EC102B70B5C3F30A541946054614BB0F
:1075500023F0004111432AD019460022384B394EFE
:1075600010EE100A00F038FAB54202460B461FDB57
:10757000C1F30A54363C2C4440F2FE7084421FDCB6
:10758000002C2DDD21F0FF4121F4E00141EA0453FC
:1075900043EC102B70BD40F2FF708442EBD110EE33
:1075A000100A194600F066F841EC100B70BD70BD72
:1075B0001FA3D3E9002300F00FFA41EC100B70BDBC
:1075C00043EC112B9FED1C0B00F040F81AA3D3E9FC
:1075D000002351EC100B00F0FFF941EC100B70BDD3
:1075E00014F1350F13DA4CF250318D4243EC112B6C
:1075F000E8DC9FED0F0B00F029F80DA3D3E9002381
:1076000051EC100B00F0E8F941EC100B70BD21F0CB
:10761000FF4121F4E001363441EA04531046194693
:107620000022094B00F0D8F941EC100B70BD00BFEF
:1076300059F3F8C21F6EA5019C7500883CE4377EA3
:1076400000005043B03CFFFF0000903C53EC102B77
:1076500011EE900A23F0004100F0004041EA0003DF
:1076600043EC102B704700BF81F0004102E000BFE7
:1076700083F0004330B54FEA41044FEA430594EAF2
:10768000050F08BF90EA020F1FBF54EA000C55EA2D
:10769000020C7FEA645C7FEA655C00F0E2804FEAFE
:1076A0005454D4EB5555B8BF6D420CDD2C4480EAE0
:1076B000020281EA030382EA000083EA010180EA10
:1076C000020281EA0303362D88BF30BD11F0004F5E
:1076D0004FEA01314FF4801C4CEA113102D0404294
:1076E00061EB410113F0004F4FEA03334CEA1333CF
:1076F00002D0524263EB430394EA050F00F0A780E7
:10770000A4F10104D5F1200E0DDB02FA0EFC22FAE1
:1077100005F2801841F1000103FA0EF2801843FAD5
:1077200005F359410EE0A5F120050EF1200E012AC6
:1077300003FA0EFC28BF4CF0020C43FA05F3C01804
:1077400051EBE37101F0004507D54FF0000EDCF17D
:10775000000C7EEB00006EEB0101B1F5801F1BD326
:10776000B1F5001F0CD349085FEA30004FEA3C0C2A
:1077700004F101044FEA445212F5800F80F09A8020
:10778000BCF1004F08BF5FEA500C50F1000041EB24
:10779000045141EA050130BD5FEA4C0C404141EB28
:1077A000010111F4801FA4F10104E9D191F0000F4F
:1077B00004BF01460020B1FA81F308BF2033A3F1D2
:1077C0000B03B3F120020CDA0C3208DD02F1140CC9
:1077D000C2F10C0201FA0CF021FA02F10CE002F104
:1077E0001402D8BFC2F1200C01FA02F120FA0CFCFD
:1077F000DCBF41EA0C019040E41AA2BF01EB045146
:10780000294330BD6FEA04041F3C1CDA0C340EDC43
:1078100004F11404C4F1200220FA04F001FA02F386
:1078200040EA030021FA04F345EA030130BDC4F144
:107830000C04C4F1200220FA02F001FA04F340EA39
:107840000300294630BD21FA04F0294630BD94F0EA
:10785000000F83F4801306BF81F480110134013DD1
:107860004EE77FEA645C18BF7FEA655C29D094EA42
:10787000050F08BF90EA020F05D054EA000C04BFC0
:107880001946104630BD91EA030F1EBF00210020AB
:1078900030BD5FEA545C05D14000494128BF41F04A
:1078A000004130BD14F580043CBF01F5801130BDAE
:1078B00001F0004545F0FE4141F470014FF0000039
:1078C00030BD7FEA645C1ABF194610467FEA655CEA
:1078D0001CBF0B46024650EA013406BF52EA03358C
:1078E00091EA030F41F4002130BD00BF90F0000F7A
:1078F00004BF0021704730B54FF4806404F13204B6
:107900004FF000054FF0000150E700BF90F0000F6E
:1079100004BF0021704730B54FF4806404F1320495
:1079200010F0004548BF40424FF000013EE700BF65
:1079300042004FEAE2014FEA31014FEA02701FBFF5
:1079400012F07F4393F07F4F81F06051704792F0C7
:10795000000F14BF93F07F4F704730B54FF4607441
:1079600001F0004521F0004120E700BF50EA01028C
:1079700008BF704730B54FF000050AE050EA010239
:1079800008BF704730B511F0004502D5404261EBA9
:1079900041014FF4806404F132045FEA915C3FF4EA
:1079A000DCAE4FF003025FEADC0C18BF03325FEA83
:1079B000DC0C18BF033202EBDC02C2F1200300FA38
:1079C00003FC20FA02F001FA03FE40EA0E0021FA5D
:1079D00002F11444C1E600BF70B54FF0FF0C4CF447
:1079E000E06C1CEA11541DBF1CEA135594EA0C0FFD
:1079F00095EA0C0F00F0DEF82C4481EA030621EA38
:107A00004C5123EA4C5350EA013518BF52EA033572
:107A100041F4801143F4801338D0A0FB02CE4FF024
:107A20000005E1FB02E506F00042E0FB03E54FF054
:107A30000006E1FB03569CF0000F18BF4EF0010E4C
:107A4000A4F1FF04B6F5007F64F5407404D25FEA48
:107A50004E0E6D4146EB060642EAC62141EA5551FB
:107A60004FEAC52040EA5E504FEACE2EB4F1FD0C3D
:107A700088BFBCF5E06F1ED8BEF1004F08BF5FEABB
:107A8000500E50F1000041EB045170BD06F000466D
:107A900046EA010140EA020081EA0301B4EB5C041A
:107AA000C2BFD4EB0C0541EA045170BD41F4801112
:107AB0004FF0000E013C00F3AB8014F1360FDEBF37
:107AC000002001F0004170BDC4F10004203C35DA13
:107AD0000C341BDC04F11404C4F1200500FA05F396
:107AE00020FA04F001FA05F240EA020001F0004237
:107AF00021F0004110EBD37021FA04F642EB0601AD
:107B00005EEA430E08BF20EAD37070BDC4F10C04D6
:107B1000C4F1200500FA04F320FA05F001FA04F29A
:107B200040EA020001F0004110EBD37041F1000186
:107B30005EEA430E08BF20EAD37070BDC4F1200591
:107B400000FA05F24EEA020E20FA04F301FA05F2F9
:107B500043EA020321FA04F001F0004121FA04F2A1
:107B600020EA020000EBD3705EEA430E08BF20EA71
:107B7000D37070BD94F0000F0FD101F000464000AB
:107B800041EB010111F4801F08BF013CF7D041EA2D
:107B9000060195F0000F18BF704703F00046520031
:107BA00043EB030313F4801F08BF013DF7D043EA02
:107BB0000603704794EA0C0F0CEA135518BF95EAB8
:107BC0000C0F0CD050EA410618BF52EA4306D1D13F
:107BD00081EA030101F000414FF0000070BD50EA5E
:107BE000410606BF1046194652EA430619D094EAE8
:107BF0000C0F02D150EA013613D195EA0C0F05D1D2
:107C000052EA03361CBF104619460AD181EA030125
:107C100001F0004141F0FE4141F470014FF00000DD
:107C200070BD41F0FE4141F4780170BD70B54FF078
:107C3000FF0C4CF4E06C1CEA11541DBF1CEA1355F8
:107C400094EA0C0F95EA0C0F00F0A7F8A4EB0504DA
:107C500081EA030E52EA03354FEA013100F08880D1
:107C60004FEA03334FF0805545EA131343EA12639A
:107C70004FEA022245EA111545EA10654FEA00264F
:107C80000EF000419D4208BF964244F1FD0404F508
:107C9000407402D25B084FEA3202B61A65EB030564
:107CA0005B084FEA32024FF480104FF4002CB6EB21
:107CB000020E75EB030E22BFB61A754640EA0C00A1
:107CC0005B084FEA3202B6EB020E75EB030E22BFE1
:107CD000B61A754640EA5C005B084FEA3202B6EB22
:107CE000020E75EB030E22BFB61A754640EA9C00E1
:107CF0005B084FEA3202B6EB020E75EB030E22BFB1
:107D0000B61A754640EADC0055EA060E18D04FEA6E
:107D1000051545EA16754FEA06164FEAC30343EA0E
:107D200052734FEAC2025FEA1C1CC0D111F4801FDB
:107D30000BD141EA00014FF000004FF0004CB6E7D4
:107D400011F4801F04BF01430020B4F1FD0C88BF73
:107D5000BCF5E06F3FF6AFAEB5EB030C04BFB6EB7E
:107D6000020C5FEA500C50F1000041EB045170BD71
:107D70000EF0004E4EEA113114EB5C04C2BFD4EB9E
:107D80000C0541EA045170BD41F480114FF0000E22
:107D9000013C90E645EA060E8DE60CEA135594EA9E
:107DA0000C0F08BF95EA0C0F3FF43BAF94EA0C0FA1
:107DB0000AD150EA01347FF434AF95EA0C0F7FF416
:107DC00025AF104619462CE795EA0C0F06D152EA6A
:107DD00003353FF4FDAE1046194622E750EA41064E
:107DE00018BF52EA43067FF4C5AE50EA41047FF45F
:107DF0000DAF52EA43057FF4EBAE12E74FF0FF3CC4
:107E000006E000BF4FF0010C02E000BF4FF0010C94
:107E10004DF804CD4FEA410C7FEA6C5C4FEA430C0D
:107E200018BF7FEA6C5C1BD001B050EA410C0CBF5C
:107E300052EA430C91EA030F02BF90EA020F0020BE
:107E4000704710F1000F91EA030F58BF994208BF25
:107E500090422CBFD8176FEAE37040F001007047E2
:107E60004FEA410C7FEA6C5C02D150EA013C07D139
:107E70004FEA430C7FEA6C5CD6D152EA033CD3D084
:107E80005DF8040B704700BF8446104662468C467E
:107E90001946634600E000BF01B5FFF7B7FF0028B1
:107EA00048BF10F1000F01BD4DF808EDFFF7F4FFDA
:107EB0000CBF012000205DF808FB00BF4DF808ED65
:107EC000FFF7EAFF34BF012000205DF808FB00BF88
:107ED0004DF808EDFFF7E0FF94BF012000205DF8AA
:107EE00008FB00BF4DF808EDFFF7CEFF94BF01205F
:107EF00000205DF808FB00BF4DF808EDFFF7C4FF58
:107F000034BF012000205DF808FB00BF4FEA410CA0
:107F10007FEA6C5C02D150EA013C0AD14FEA430C83
:107F20007FEA6C5C02D152EA033C02D14FF00000C0
:107F300070474FF0010070474FEA410212F50012FE
:107F400015D211D56FF47873B3EB625212D94FEAA0
:107F5000C12343F0004343EA505311F0004F23FA8A
:107F600002F018BF404270474FF00000704750EADF
:107F7000013005D111F0004008BF6FF0004070479C
:107F80004FF00000704700BF4A0011D212F50012F6
:107F900011D20DD56FF47873B3EB62520ED44FEA61
:107FA000C12343F0004343EA505323FA02F07047E1
:107FB0004FF00000704750EA013002D14FF0FF301F
:107FC00070474FF0000070470B460146184600F01E
:107FD00001B800BF13460A460146022000F0FEBF6A
:107FE000014B1868704700BFF00BFF1F70B50F4EB4
:107FF0000F4D761BB61018BF002405D0013455F87C
:10800000043B9847A642F9D10A4E0B4D761B01F06E
:1080100045FBB61018BF002406D0013455F8043BC8
:108020009847A642F9D170BD70BD00BFA896000068
:10803000A8960000B4960000A8960000024B0146E6
:10804000186800F00BB800BFF00BFF1F024B014691
:10805000186801F087B800BFF00BFF1F2DE9F04F43
:1080600001F10B05162D83B0064640F29F8035F0D6
:10807000070500F1BF80A94200F2BC8000F058FB68
:10808000B5F5FC7FC0F09C826B0A00F0BA80042B2F
:1080900000F28381A80900F1390E4FEA4E0338300F
:1080A000C44F07EB8303A3F108015C68A14207D129
:1080B000ACE0002A80F2AC80E468A14200F0A68027
:1080C000636823F003035A1B0F2AF2DDB9493C69A8
:1080D00001F1080E744500F0B381636823F00303D7
:1080E0005A1B0F2A00F39981002AC1F814E0C1F845
:1080F00010E080F29E80B3F5007F80F06781DB089E
:1081000003F1010C01229B1002FA03F34A6851F8B3
:108110003C80C4F8088001EBCC091A43A9F108039C
:10812000E3604A6041F83C40C8F80C4083100124E9
:108130009C40944200F28A80144206D120F0030051
:108140006400144200F10400FAD007EBC009CC46E9
:108150008046DCF80C108C4507D173E1002A80F2D0
:108160008181C9688C4500F06D814B6823F0030361
:108170005A1B0F2AF2DD0C46D1F80CC054F8088FB8
:108180004B1945F001054D6042F00101C8F80CC0E3
:108190003046CCF808807B613B61C3F80CE0C3F843
:1081A00008E059609A5000F0C5FA1FE0102921D864
:1081B00000F0BEFA1025062302207E4F07EB830352
:1081C000A3F108025C68944200F045816368E168AD
:1081D000A56823F00303234430465A68E96042F05F
:1081E00001028D605A6000F0A5FA0834204603B001
:1081F000BDE8F08F00240C232046336003B0BDE8B7
:10820000F08F80234FF0400E3F2049E770465DE736
:108210002344E1685A68A56842F00102E9603046EB
:108220008D605A6000F086FA0834204603B0BDE83D
:10823000F08F234430465A6842F001025A6000F041
:1082400079FA0834204603B0BDE8F08FBC68636853
:1082500023F00308A84504D3C5EB08030F2B00F354
:108260008C80554BDFF860911A68D9F800300133E3
:108270002A4404EB080A00F0608102F580520F32B4
:1082800022F47F6222F00F0211463046019200F084
:108290004BFCB0F1FF3F8346019A00F058818245C4
:1082A00000F2FC80454B1968DA451144196000F072
:1082B0005381D9F80000DFF810E101301BBFCAEB91
:1082C0000B0A5144CEF800B019601BF0070100F012
:1082D0001781C1F10800C1F58051834408315A4427
:1082E000C2F30B02C2EB010949463046019300F08C
:1082F0001BFC431C019B00F03F81CBEB00024A4476
:1083000042F001021968C7F808B04944BC42CBF8F2
:1083100004201960DFF8A49016D0B8F10F0F40F2D6
:10832000FD806268A8F10C0323F00703E01802F057
:1083300001024FF0050E1A430F2B6260C0F804E0F3
:10834000C0F808E000F21C811D4BBC681A6891421D
:1083500088BF19601B4B1A689142626888BF196018
:1083600022F003029542A2EB050301D80F2B04DC97
:10837000304600F0DFF9002438E7621943F00103CA
:1083800045F0010565603046BA60536000F0D2F9EF
:108390000834204603B0BDE8F08F142B71D9542B5C
:1083A00000F2A480280B00F16F0E4FEA4E036E30EE
:1083B00076E600BFF40BFF1F5440FF1F5840FF1F1D
:1083C0005040FF1F4C40FF1F0010FF1F5A0A042A95
:1083D0005ED9142A00F2B38002F15C0149005B32DD
:1083E00007EB810C57F82110DFF8DC81ACF1080CA9
:1083F0008C4500F088804A6822F00302934202D242
:1084000089688C45F7D1D1F80CC07A68C4F80CC0E3
:10841000A160CCF80840CC6088E6631942F00107FF
:1084200045F00105656030464B610B61C3F80CE017
:10843000C3F808E05F609A50083400F07BF9D5E695
:108440004A6873E608F1010818F0030F0CF1080CF4
:108450007FF47FAE30E0DC68A34208BF02303FF417
:1084600035AEB3E60B440C465A68C96854F8085F49
:1084700042F001025A603046E9608D6000F05AF91E
:10848000B4E603F15C0E03F15B004FEA4E0307E62E
:108490009A0902F1390149003832A1E7BC424A4B3E
:1084A0003FF400AF9C68626822F003025AE759F873
:1084B0000839994540F0828010F0030F00F1FF3039
:1084C000F5D17B6823EA04037B6064009C423FF69D
:1084D000BDAE002C3FF4BAAE1C4240467FF435AE30
:1084E00064001C4200F10400FAD02EE6B3F5AA7F26
:1084F00018D8E80B00F1780E4FEA4E037730CFE53D
:108500004FF48051EBE60121D8F80430921001FAC3
:1085100002F21A43C8F80420614677E70123CBF83A
:10852000043025E740F25452934220D8A80C00F1C1
:108530007D0E4FEA4E037C30B2E51032A4E6542A99
:1085400026D81A0B02F16F0149006E3248E7BC6869
:10855000626822F0030205E7CAF30B0000287FF4EB
:10856000A8AE4244BB6842F001025A60ECE6FE232A
:108570004FF07F0E7E2093E501224FF00009C1E607
:1085800004F10801304600F0EDFDD9F80010DBE6FB
:10859000B2F5AA7F05D8DA0B02F1780149007732EB
:1085A0001EE740F254518A4205D89A0C02F17D012F
:1085B00049007C3214E7FE217E2211E77B6884E7C4
:1085C000E808431C5B00F8E5F40BFF1F8842F0B598
:1085D0000DD98B1898420AD28118002A51D09A1AC4
:1085E00013F8014D01F8014D9342F9D1F0BD0F2A66
:1085F00048D941EA00039B0746D100F1100401F17C
:108600001003154653F8106C44F8106C53F80C6CBA
:1086100044F80C6C53F8086C44F8086C103D53F89F
:10862000046C44F8046C0F2D03F1100304F11004E2
:10863000E8D8A2F1100323F00F0302F00F0E10335D
:10864000BEF1030F1944034421D91E1F0D46744681
:10865000043C55F8047B46F8047F032CF8D8AEF1AF
:10866000040424F0030404342344214402F00302EC
:1086700062B1013B0A4411F8014B03F8014F8A42F1
:10868000F9D1F0BD0346F3E70346F2E7F0BD7246C9
:10869000EEE700BF70B4840746D0541E002A41D0D4
:1086A000CDB2034602E0621EE4B3144603F8015B58
:1086B0009A07F8D1032C2ED9CDB245EA05250F2C07
:1086C00045EA054519D903F110022646103E0F2E42
:1086D00042F8105C42F80C5C42F8085C42F8045C1A
:1086E00002F11002F2D8A4F1100222F00F0204F0FD
:1086F0000F041032032C13440DD91E462246043AAF
:10870000032A46F8045BFAD8221F22F0030204323F
:10871000134404F003042CB1C9B21C4403F8011B38
:10872000A342FBD170BC704714460346C2E700BFAA
:10873000704700BF704700BF024B0A4601461868E9
:1087400000F002B8F00BFF1F2DE9F04F174683B081
:10875000002900F0C1800E46814607F10B05FFF7A6
:10876000E7FF56F804EC162D2EF00304A6F10808D6
:1087700040D810221546AF4241D8944275DAC94B11
:10878000996808EB04008842416800F0D98021F024
:10879000010303445B68DB077DD51EF0010F35D074
:1087A00039464846FFF75AFC0746E0B156F8043C04
:1087B00023F001034344A0F108029A4200F04481EF
:1087C000221F242A00F23181132A00F20481034679
:1087D0003246116819605168596092689A60314652
:1087E000484600F0BFFC4846FFF7A4FF384603B0F8
:1087F000BDE8F08F25F00705002D2A46BBDA0C23D3
:108800000020C9F8003003B0BDE8F08F56F8083CEE
:10881000C3EB080ADAF8043023F0030C04EB0C0372
:108820009342BDDB5746DAF80C1057F8080F221FA9
:10883000242AC160886000F21781132A40F2128155
:108840003168CAF808107168CAF80C101B2A00F2C7
:108850002B8108360AF1100231681160716851608D
:10886000B16891603E461C46D046631B0F2B1DD855
:10887000D8F8043003F0010323434444C8F804301B
:10888000636843F0010363604846FFF753FF3046D7
:1088900003B0BDE8F08F21F003012144914221DBB8
:1088A000C36882680C46D3609A60DEE7D8F804207B
:1088B00008EB050102F00102154343F001020B44ED
:1088C000C8F804504A605A6842F0010208315A6000
:1088D000484600F047FCD7E7114603B0BDE8F04F2B
:1088E000FFF7BCBB1EF0010F7FF45AAF56F8083CEF
:1088F000C3EB080ADAF8043023F0030C01EB0C0E8A
:1089000096458BDBC36882685746D3609A6057F8F8
:10891000081FDAF80C30CB60221F242A996000F27D
:108920009980132A62D93368CAF808307368CAF884
:108930000C301B2A00F2A08008360AF1100356E022
:1089400021F0030BA34405F11000834559DA1EF012
:10895000010F7FF425AF56F8081CC1EB080ADAF8BE
:10896000041021F0030CE34458453FF757AF574636
:10897000DAF80C1057F8080F221F242AC16088600B
:1089800000F2B480132A40F2A5803168CAF80810BA
:108990007168CAF80C101B2A00F2AF8008360AF181
:1089A00010023168116071685160B16891600AEB22
:1089B0000501C5EB0B0242F0010299604A60DAF84A
:1089C000043003F001031D434846CAF80450FFF782
:1089D000B1FE38465CE733680360736843601B2A66
:1089E00027D800F1080306F10802F2E63B46326898
:1089F0001A6072685A60B2689A603E467446D04601
:108A000033E708EB0501C5EB0B0B4BF00102996056
:108A10004A6056F8043C03F001031D43484646F8FB
:108A2000045CFFF787FE304632E73146FFF7CEFDA4
:108A3000D5E6B3688360F368C360242A28D000F1C8
:108A4000100306F11002C4E650F8043C23F00303BF
:108A50001C440AE7314638467446D046FFF7B6FD57
:108A60003E4602E73A46F7E6314638461C46D046CF
:108A7000FFF7ACFD3E46F8E6B368CAF81030F3687D
:108A8000CAF81430242A1BD010360AF11803AEE7B6
:108A9000336903617369436106F1180200F1180339
:108AA00097E600BFF40BFF1FB168CAF81010F16819
:108AB000CAF81410242A0FD010360AF11802CBE697
:108AC0003369CAF818307369CAF81C3018360AF1CD
:108AD00020038CE73A4664E73269CAF818207269C5
:108AE000CAF81C2018360AF12002B5E6314638468D
:108AF0000193FFF76BFD019B59E7B168CAF81010AD
:108B0000F168CAF81410242A03D010360AF11802AA
:108B100047E73269CAF818207269CAF81C2018366B
:108B20000AF120023DE700BF38B5074C0023054697
:108B300008462360FCF7EAFF431C00D038BD2368D9
:108B4000002BFBD02B6038BD9440FF1FFFFFFFFFC1
:108B5000FFFFFFFFFFFFFFFFFFFFFFFFFFFFFFFF25
:108B6000A2EB0300704700BF02780B78012A28BFF0
:108B70009A42F5D16DE9044540EA0104CDE9026766
:108B80006FF0000C4FEA447212B380EA010414F053
:108B9000070F6AD100F0070420F0070004F0030576
:108BA00021F007014FEAC505F0E8042314F0040F93
:108BB000F1E804670CFA05F462EA040266EA0406C6
:108BC0000AD063EA0403624667EA0407664603E0E4
:108BD000F0E80423F1E8046782FA4CF582EA06041F
:108BE000A4FA8CF46CBB83FA4CF583EA0705A5FA6A
:108BF0008CF595B950E9022351E9026782FA4CF5E8
:108C000082EA0604A4FA8CF483FA4CF583EA070599
:108C1000A5FA8CF52543DBD09CB92DBAB5FA85F4BD
:108C200024F0070427FA04F1DDE9026723FA04F3CC
:108C300003F0FF0001F0FF01FDE80445A0EB010097
:108C4000704724BAB4FA84F424F0070426FA04F135
:108C5000DDE9026722FA04F202F0FF0001F0FF01F1
:108C6000FDE80445A0EB0100704714F0030F3CD170
:108C700010F0030428D150F8082B51F8083B82FA71
:108C80004CF582EA0305A5FA8CF55DB950F8042C81
:108C900051F8043C82FA4CF582EA0305A5FA8CF5FA
:108CA000002DE8D02DBAB5FA85F424F0070423FA94
:108CB00004F122FA04F202F0FF0001F0FF01FDE8E6
:108CC0000445A0EB010070474FEAC40420F0030004
:108CD00050F8082B21F0030151F8083B0CFA04F47A
:108CE00062EA040263EA0403C9E710F003041AD03D
:108CF000A1EB040120F00300E40750F8042B06D098
:108D00000FD28B785FFAA2F4E41A06D12BB1CB789C
:108D10005FFAB2F4E41A00D11BB920465DF8104B9B
:108D2000704701F1040150F8042BCC0721F0030136
:108D300051F8043B48D824D222F07F4482FA4CF503
:108D400094EA1325A5FA8CF50AD165B951F8043BCC
:108D500084EA0204B4EB036F0ED150F8042BEBE766
:108D60004FEA132355E035F07F454DD10878FDE8F3
:108D70000445C0F1000070474FEA126203F0FF03A0
:108D800047E002EA1C4482FA4CF594EA1345A5FA3E
:108D90008CF50AD165B951F8043B84EA0204B4EBBE
:108DA000034F0CD150F8042BEBE74FEA134330E0AC
:108DB00015EA1C4528D10B884FEA124229E04FEAF8
:108DC000124203EA1C4324E002F0FF0482FA4CF54D
:108DD00094EA1365A5FA8CF50AD165B951F8043BFC
:108DE00084EA0204B4EB032F09D150F8042BEBE71B
:108DF0004FEA13630DE015F0FF0F05D10B684FEA42
:108E0000122223F07F4304E04FF00000FDE8044508
:108E1000704712BA1BBA82FA4CF482EA0304A4FA2D
:108E20008CF5B5FA85F402FA04F203FA04F34FEA7A
:108E30001260FDE80445A0EB1360704780EA010270
:108E4000844612F0030F4FD111F0030F32D14DF8C9
:108E5000044D11F0040F51F8043B0BD0A3F1013283
:108E60009A4312F0803F04BF4CF8043B51F8043B96
:108E700016D100BF51F8044BA3F101329A4312F00E
:108E8000803FA4F101320BD14CF8043BA24312F015
:108E9000803F04BF51F8043B4CF8044BEAD0234612
:108EA0000CF8013B13F0FF0F4FEA3323F8D15DF8C4
:108EB000044B704711F0010F06D011F8012B0CF88C
:108EC000012B002A08BF704711F0020FBFD031F804
:108ED000022B12F0FF0F16BF2CF8022B8CF800208B
:108EE00012F47F4FB3D1704711F8012B0CF8012B0E
:108EF000002AF9D1704700BFFFFFFFFFFFFFFFFF10
:108F000090F800F06DE9024520F007016FF0000CC9
:108F100010F0070491F820F040F049804FF0000471
:108F20006FF00700D1E9002391F840F000F108004C
:108F300082FA4CF2A4FA8CF283FA4CF3A2FA8CF384
:108F40004BBBD1E9022382FA4CF200F10800A4FAEB
:108F50008CF283FA4CF3A2FA8CF3E3B9D1E904233F
:108F600082FA4CF200F10800A4FA8CF283FA4CF376
:108F7000A2FA8CF37BB9D1E9062301F1200182FA30
:108F80004CF200F10800A4FA8CF283FA4CF3A2FA36
:108F90008CF3002BC6D0002A04BF04301A4612BA44
:108FA000B2FA82F2FDE8024500EBD2007047D1E947
:108FB000002304F00305C4F100004FEAC50514F0D6
:108FC000040F91F840F00CFA05F562EA05021CBFA7
:108FD00063EA050362464FF00004A9E72DE9F04774
:108FE000254C2568D5F8484106468846924699465C
:108FF000C4B360681F2817DC431C76B104EB8005FE
:109000000122C5F888A0D4F8881182401143022EAD
:10901000C4F88811C5F808911ED00230636044F886
:1090200020800020BDE8F087144B03B34FF4C870D4
:10903000FFF704F80446D0B1D5F84831002780E89E
:109040008800C5F8484138460123C4F88871C4F83F
:109050008C71002EE1D0D1E7D4F88C110A43C4F80A
:109060008C21DAE705F5A674C5F84841C1E74FF051
:10907000FF30BDE8F08700BF989600003D800000FB
:10908000024B13B1024800F005B870470000000021
:10909000A1900000002301461A461846FFF79EBF24
:1090A00038B5074D074C2C1BA41005D0013C55F8D2
:1090B000043D9847002CF9D1BDE8384000F0FABAD9
:1090C0000000000000000000F8B5234F0C460646E3
:1090D000FFF72EFBBB685D6825F00305291B01F631
:1090E000EF7121F47F6121F00F01A1F58054B4F5F7
:1090F000805F07DB00213046FFF716FDBB682B447D
:10910000984204D03046FFF715FB0020F8BD6142BD
:109110003046FFF709FD01300DD0104BBA681968D1
:109120002D1B45F001053046091B55601960FFF7FE
:1091300001FB0120F8BD00213046FFF7F5FCBA68BD
:10914000831A0F2BDEDD064C0449246843F001032B
:10915000001B53600860D5E7F40BFF1F5840FF1F4A
:109160000010FF1F002945D02DE9F0410D46804633
:10917000FFF7DEFA55F8047C6A4927F00103A5F1F0
:109180000804E2188E685068B24220F0030062D0F2
:10919000FE0750600BD455F8087CE41B01F1080E63
:1091A000A56875453B446FD0E768EF60BD60151852
:1091B0006D68ED0742D543F001026260E350B3F5FC
:1091C000007F18D2DB085A1C4D6851F83270A76036
:1091D00001209B1000FA03F301EBC2001D43083885
:1091E000E0604D6041F83240FC604046BDE8F0412F
:1091F000FFF7A0BA70475A0A042A53D89A0902F115
:1092000039077F0002F1380501EB870051F827206C
:109210004449083890424DD0516821F003018B42F7
:1092200002D292689042F7D1D068E060A260846078
:10923000D4604046BDE8F041FFF77CBA95683A4FEC
:10924000BD4203443FD0D068E86043F0010285602E
:109250006260E350B3E7FF07034407D455F8082CD6
:10926000A41A1344A068E268C26090602F4A126892
:1092700043F00100934260608C60B6D32C4B4046B3
:109280001968FFF721FFB0E711184968C90744D4EE
:109290009168D268CA60034443F001009160606045
:1092A000E350A2E7142A17D802F15C077F0002F10D
:1092B0005B05A9E7AA104B68012505FA02F21343E2
:1092C0004B600246B1E743F001024C610C61E5607E
:1092D000A5606260E35088E7542A06D81A0B02F1B1
:1092E0006F077F0002F16E058EE7B2F5AA7F06D800
:1092F000DA0B02F178077F0002F1770584E740F28C
:109300005450824206D89A0C02F17D077F0002F188
:109310007C0579E7FE277E2576E743F0010262604F
:10932000E35062E7F40BFF1FFC0BFF1FFC0FFF1F56
:109330005440FF1F54696D65696E74657276616C87
:1093400073203D200000000054696D654C6170730E
:1093500065203D20000000006172726179206E7509
:109360006D6265722069203D2000000061727261AB
:10937000795B695D2076616C7565203D00000000B9
:1093800050574D31203D2000666164655570206363
:10939000686173652070776D6F75743D2000000003
:1093A0006172726179206E756D626572206A203D0E
:1093B0002000000061727261795B6A5D2076616CE9
:1093C0007565203D0000000050574D32203D2000C3
:1093D00066616465446F776E2063686173652070B1
:1093E000776D6F75743D20004E6F000059657300F6
:1093F0004008FE4340A004404408FE4344A004400B
:109400000018FE4300C004403000FE43309004408A
:109410003400FE43349004401C18FE431CC004403A
:109420001018FE4310C004400818FE4308C0044052
:109430000C18FE430CC004400C10FE430CB004405A
:109440001010FE4310B004401810FE4318B0044042
:109450001C10FE431CB004401410FE4314B0044022
:109460000418FE4304C004400010FE4300B0044052
:109470000008FE4300A004400408FE4304A004408A
:109480000C08FE430CA004400808FE4308A004405A
:109490001418FE4314C004401818FE4318C00440BA
:1094A0000410FE4304B004400810FE4308B004401A
:1094B0006820FE4368D004401400FE43149004402A
:1094C0003800FE43389004403C00FE433C9004408A
:1094D0004000FE43409004404808FE4348A004403A
:1094E0004C08FE434CA004402808FE4328A004403A
:1094F0002C08FE432CA004406020FE4360D00440B2
:109500006420FE4364D004402010FE4320B0044099
:109510002410FE4324B004402810FE4328B0044029
:109520002C10FE432CB004404400FE434490044001
:109530007000FE43709004407400FE437490044039
:109540006800FE43689004405008FE4350A0044069
:109550005808FE4358A004405C08FE435CA0044049
:109560005408FE4354A004402018FE4320C0044089
:109570002418FE4324C004401008FE4310A00440F9
:109580001408FE4314A004403818FE4338C00440B9
:109590003418FE4334C004403018FE4330C0044049
:1095A0003C18FE433CC004402C18FE432CC0044031
:1095B0002820FE4328D004402C20FE432CD0044019
:1095C0000020FE4300D004400420FE4304D00440A9
:1095D0000820FE4308D004400C20FE430CD0044079
:1095E0001020FE4310D004401420FE4314D0044049
:1095F0000D0AFFFF6E616E00696E66006F76660091
:1096000000000000000000008D56000081560000A0
:10961000795600007156000069560000615600003E
:1096200059560000515600000015191500010000A0
:109630002007FF1F12000000000200004C07FF1F60
:109640004300000000030000A807FF1F0000000007
:10965000010309043407FF1F00000000020309048E
:109660009007FF1F0000000003030904AC07FF1F61
:1096700000000000000000000000000000000000EA
:10968000706F7700FFFFFFFF000000000000304315
:1096900000000000000030C3C807FF1FF8B500BF7E
:1096A000F8BC08BC9E46704781900000350400005D
:0496B000193C000061
:0496B400F8B500BF46
:1096B800000000000C00000008000000FFFFFFFF92
:1096C8000896000000000000E80300000000000009
:1096D8000A0400009840FF1F120110010200004018
:1096E800C016830476020102030100001803540027
:1096F800650065006E0073007900640075006900FC
:109708006E006F0009024300020100C03209040024
:1097180000010202010005240010010524010101D5
:1097280004240206052406000107058203100040F0
:1097380009040100020A00000007050302400000B6
:10974800070584024000000016035500530042003C
:109758002000530065007200690061006C00000081
:10976800040309040C0300000000000000000000CE
:1097780000000000000000000000010000000000E0
:1097880000000000B40AFF1F1C0BFF1F840BFF1F03
:1097980000000000000000000000000000000000C1
:1097A80000000000000000000000000000000000B1
:1097B80000000000000000000000000000000000A1
:1097C8000000000000000000000000000000000091
:1097D8000000000000000000000000000000000081
:1097E8000000000000000000000000000000000071
:1097F8000000000000000000000000000000000061
:109808000000000000000000000000000000000050
:109818000000000000000000000000000000000040
:10982800000000000000000001000000000000002F
:109838000E33CDAB34126DE6ECDE05000B000000F4
:109848000000000000000000000000000000000010
:109858000000000000000000000000000000000000
:1098680000000000000000000000000000000000F0
:1098780000000000000000000000000000000000E0
:109BA8000000000000000000C807FF1F00000000C0
:109BB80000000000F40BFF1FF40BFF1FFC0BFF1F3E
:109BC800FC0BFF1F040CFF1F040CFF1F0C0CFF1FD6
:109BD8000C0CFF1F140CFF1F140CFF1F1C0CFF1F85
:109BE8001C0CFF1F240CFF1F240CFF1F2C0CFF1F35
:109BF8002C0CFF1F340CFF1F340CFF1F3C0CFF1FE5
:109C08003C0CFF1F440CFF1F440CFF1F4C0CFF1F94
:109C18004C0CFF1F540CFF1F540CFF1F5C0CFF1F44
:109C28005C0CFF1F640CFF1F640CFF1F6C0CFF1FF4
:109C38006C0CFF1F740CFF1F740CFF1F7C0CFF1FA4
:109C48007C0CFF1F840CFF1F840CFF1F8C0CFF1F54
:109C58008C0CFF1F940CFF1F940CFF1F9C0CFF1F04
:109C68009C0CFF1FA40CFF1FA40CFF1FAC0CFF1FB4
:109C7800AC0CFF1FB40CFF1FB40CFF1FBC0CFF1F64
:109C8800BC0CFF1FC40CFF1FC40CFF1FCC0CFF1F14
:109C9800CC0CFF1FD40CFF1FD40CFF1FDC0CFF1FC4
:109CA800DC0CFF1FE40CFF1FE40CFF1FEC0CFF1F74
:109CB800EC0CFF1FF40CFF1FF40CFF1FFC0CFF1F24
:109CC800FC0CFF1F040DFF1F040DFF1F0C0DFF1FD1
:109CD8000C0DFF1F140DFF1F140DFF1F1C0DFF1F80
:109CE8001C0DFF1F240DFF1F240DFF1F2C0DFF1F30
:109CF8002C0DFF1F340DFF1F340DFF1F3C0DFF1FE0
:109D08003C0DFF1F440DFF1F440DFF1F4C0DFF1F8F
:109D18004C0DFF1F540DFF1F540DFF1F5C0DFF1F3F
:109D28005C0DFF1F640DFF1F640DFF1F6C0DFF1FEF
:109D38006C0DFF1F740DFF1F740DFF1F7C0DFF1F9F
:109D48007C0DFF1F840DFF1F840DFF1F8C0DFF1F4F
:109D58008C0DFF1F940DFF1F940DFF1F9C0DFF1FFF
:109D68009C0DFF1FA40DFF1FA40DFF1FAC0DFF1FAF
:109D7800AC0DFF1FB40DFF1FB40DFF1FBC0DFF1F5F
:109D8800BC0DFF1FC40DFF1FC40DFF1FCC0DFF1F0F
:109D9800CC0DFF1FD40DFF1FD40DFF1FDC0DFF1FBF
:109DA800DC0DFF1FE40DFF1FE40DFF1FEC0DFF1F6F
:109DB800EC0DFF1FF40DFF1FF40DFF1FFC0DFF1F1F
:109DC800FC0DFF1F040EFF1F040EFF1F0C0EFF1FCC
:109DD8000C0EFF1F140EFF1F140EFF1F1C0EFF1F7B
:109DE8001C0EFF1F240EFF1F240EFF1F2C0EFF1F2B
:109DF8002C0EFF1F340EFF1F340EFF1F3C0EFF1FDB
:109E08003C0EFF1F440EFF1F440EFF1F4C0EFF1F8A
:109E18004C0EFF1F540EFF1F540EFF1F5C0EFF1F3A
:109E28005C0EFF1F640EFF1F640EFF1F6C0EFF1FEA
:109E38006C0EFF1F740EFF1F740EFF1F7C0EFF1F9A
:109E48007C0EFF1F840EFF1F840EFF1F8C0EFF1F4A
:109E58008C0EFF1F940EFF1F940EFF1F9C0EFF1FFA
:109E68009C0EFF1FA40EFF1FA40EFF1FAC0EFF1FAA
:109E7800AC0EFF1FB40EFF1FB40EFF1FBC0EFF1F5A
:109E8800BC0EFF1FC40EFF1FC40EFF1FCC0EFF1F0A
:109E9800CC0EFF1FD40EFF1FD40EFF1FDC0EFF1FBA
:109EA800DC0EFF1FE40EFF1FE40EFF1FEC0EFF1F6A
:109EB800EC0EFF1FF40EFF1FF40EFF1FFC0EFF1F1A
:109EC800FC0EFF1F040FFF1F040FFF1F0C0FFF1FC7
:109ED8000C0FFF1F140FFF1F140FFF1F1C0FFF1F76
:109EE8001C0FFF1F240FFF1F240FFF1F2C0FFF1F26
:109EF8002C0FFF1F340FFF1F340FFF1F3C0FFF1FD6
:109F08003C0FFF1F440FFF1F440FFF1F4C0FFF1F85
:109F18004C0FFF1F540FFF1F540FFF1F5C0FFF1F35
:109F28005C0FFF1F640FFF1F640FFF1F6C0FFF1FE5
:109F38006C0FFF1F740FFF1F740FFF1F7C0FFF1F95
:109F48007C0FFF1F840FFF1F840FFF1F8C0FFF1F45
:109F58008C0FFF1F940FFF1F940FFF1F9C0FFF1FF5
:109F68009C0FFF1FA40FFF1FA40FFF1FAC0FFF1FA5
:109F7800AC0FFF1FB40FFF1FB40FFF1FBC0FFF1F55
:109F8800BC0FFF1FC40FFF1FC40FFF1FCC0FFF1F05
:109F9800CC0FFF1FD40FFF1FD40FFF1FDC0FFF1FB5
:109FA800DC0FFF1FE40FFF1FE40FFF1FEC0FFF1F65
:0C9FB800EC0FFF1F00000200FFFFFFFF86
:00000001FF
