
C:\Users\b.obrien\AppData\Local\Temp\VMBuilds\LightControllerTest3\teensy35\Release/LightControllerTest3.ino.elf:     file format elf32-littlearm


Disassembly of section .text:

00000000 <_VectorsFlash>:
       0:	f8 ff 02 20 99 01 00 00 1d 28 00 00 d5 27 00 00     ... .....(...'..
      10:	d5 27 00 00 d5 27 00 00 d5 27 00 00 d5 27 00 00     .'...'...'...'..
      20:	d5 27 00 00 d5 27 00 00 d5 27 00 00 1d 28 00 00     .'...'...'...(..
      30:	1d 28 00 00 d5 27 00 00 41 30 00 00 45 31 00 00     .(...'..A0..E1..
      40:	1d 28 00 00 1d 28 00 00 1d 28 00 00 1d 28 00 00     .(...(...(...(..
      50:	1d 28 00 00 1d 28 00 00 1d 28 00 00 1d 28 00 00     .(...(...(...(..
      60:	1d 28 00 00 1d 28 00 00 1d 28 00 00 1d 28 00 00     .(...(...(...(..
      70:	1d 28 00 00 1d 28 00 00 1d 28 00 00 1d 28 00 00     .(...(...(...(..
      80:	1d 28 00 00 1d 28 00 00 1d 28 00 00 1d 28 00 00     .(...(...(...(..
      90:	1d 28 00 00 1d 28 00 00 1d 28 00 00 1d 28 00 00     .(...(...(...(..
      a0:	1d 28 00 00 1d 28 00 00 1d 28 00 00 1d 28 00 00     .(...(...(...(..
      b0:	1d 28 00 00 1d 28 00 00 1d 28 00 00 cd 28 00 00     .(...(...(...(..
      c0:	1d 28 00 00 f9 29 00 00 1d 28 00 00 25 2b 00 00     .(...)...(..%+..
      d0:	1d 28 00 00 1d 2c 00 00 1d 28 00 00 1d 28 00 00     .(...,...(...(..
      e0:	1d 28 00 00 1d 28 00 00 1d 28 00 00 1d 28 00 00     .(...(...(...(..
      f0:	1d 28 00 00 1d 28 00 00 1d 28 00 00 1d 28 00 00     .(...(...(...(..
     100:	1d 28 00 00 1d 28 00 00 1d 28 00 00 1d 28 00 00     .(...(...(...(..
     110:	1d 28 00 00 31 13 00 00 1d 28 00 00 1d 28 00 00     .(..1....(...(..
     120:	1d 28 00 00 1d 28 00 00 1d 28 00 00 1d 28 00 00     .(...(...(...(..
     130:	1d 28 00 00 1d 28 00 00 1d 28 00 00 1d 28 00 00     .(...(...(...(..
     140:	1d 28 00 00 1d 28 00 00 15 2d 00 00 1d 28 00 00     .(...(...-...(..
     150:	0d 2e 00 00 1d 28 00 00 1d 28 00 00 1d 28 00 00     .....(...(...(..
     160:	1d 28 00 00 1d 28 00 00 1d 28 00 00 99 0c 00 00     .(...(...(......
     170:	a5 0c 00 00 a9 0c 00 00 ad 0c 00 00 b1 0c 00 00     ................
     180:	b5 0c 00 00 1d 28 00 00 1d 28 00 00 1d 28 00 00     .....(...(...(..
     190:	1d 28 00 00 1d 28 00 00                             .(...(..

00000198 <ResetHandler>:
	volatile int n;
#endif
	//volatile int count;

#ifdef KINETISK
	WDOG_UNLOCK = WDOG_UNLOCK_SEQ1;
     198:	4b58      	ldr	r3, [pc, #352]	; (2fc <ResetHandler+0x164>)
     19a:	f24c 5220 	movw	r2, #50464	; 0xc520
#else
// hopefully all others fit into startup section (below 0x400)
__attribute__ ((section(".startup"),optimize("-Os")))
#endif
void ResetHandler(void)
{
     19e:	b510      	push	{r4, lr}
	volatile int n;
#endif
	//volatile int count;

#ifdef KINETISK
	WDOG_UNLOCK = WDOG_UNLOCK_SEQ1;
     1a0:	801a      	strh	r2, [r3, #0]
	WDOG_UNLOCK = WDOG_UNLOCK_SEQ2;
     1a2:	f64d 1228 	movw	r2, #55592	; 0xd928
     1a6:	801a      	strh	r2, [r3, #0]
	__asm__ volatile ("nop");
     1a8:	bf00      	nop
	__asm__ volatile ("nop");
     1aa:	bf00      	nop
#endif
	// programs using the watchdog timer or needing to initialize hardware as
	// early as possible can implement startup_early_hook()
	startup_early_hook();
     1ac:	f002 fb3a 	bl	2824 <startup_early_hook>
#elif defined(__MK20DX256__)
	SIM_SCGC3 = SIM_SCGC3_ADC1 | SIM_SCGC3_FTM2;
	SIM_SCGC5 = 0x00043F82;		// clocks active to all GPIO
	SIM_SCGC6 = SIM_SCGC6_RTC | SIM_SCGC6_FTM0 | SIM_SCGC6_FTM1 | SIM_SCGC6_ADC0 | SIM_SCGC6_FTFL;
#elif defined(__MK64FX512__) || defined(__MK66FX1M0__)
	SIM_SCGC3 = SIM_SCGC3_ADC1 | SIM_SCGC3_FTM2 | SIM_SCGC3_FTM3;
     1b0:	4b53      	ldr	r3, [pc, #332]	; (300 <ResetHandler+0x168>)
     1b2:	f04f 6230 	mov.w	r2, #184549376	; 0xb000000
     1b6:	601a      	str	r2, [r3, #0]
	SIM_SCGC5 = 0x00043F82;		// clocks active to all GPIO
     1b8:	4a52      	ldr	r2, [pc, #328]	; (304 <ResetHandler+0x16c>)
     1ba:	609a      	str	r2, [r3, #8]
	SIM_SCGC6 = SIM_SCGC6_RTC | SIM_SCGC6_FTM0 | SIM_SCGC6_FTM1 | SIM_SCGC6_ADC0 | SIM_SCGC6_FTFL;
     1bc:	4a52      	ldr	r2, [pc, #328]	; (308 <ResetHandler+0x170>)
     1be:	60da      	str	r2, [r3, #12]
	SIM_SCGC4 = SIM_SCGC4_USBOTG | 0xF0000030;
	SIM_SCGC5 = 0x00003F82;		// clocks active to all GPIO
	SIM_SCGC6 = SIM_SCGC6_ADC0 | SIM_SCGC6_TPM0 | SIM_SCGC6_TPM1 | SIM_SCGC6_TPM2 | SIM_SCGC6_FTFL;
#endif
#if defined(__MK64FX512__) || defined(__MK66FX1M0__)
	SCB_CPACR = 0x00F00000;
     1c0:	4b52      	ldr	r3, [pc, #328]	; (30c <ResetHandler+0x174>)
     1c2:	f44f 0270 	mov.w	r2, #15728640	; 0xf00000
     1c6:	601a      	str	r2, [r3, #0]
#endif
#if defined(KINETISK) && !defined(__MK66FX1M0__)
	// If the RTC oscillator isn't enabled, get it started early.
	// But don't do this early on Teensy 3.6 - RTC_CR depends on 3.3V+VBAT
	// which may be ~0.4V "behind" 3.3V if the power ramps up slowly.
	if (!(RTC_CR & RTC_CR_OSCE)) {
     1c8:	4a51      	ldr	r2, [pc, #324]	; (310 <ResetHandler+0x178>)
     1ca:	6813      	ldr	r3, [r2, #0]
     1cc:	f413 7380 	ands.w	r3, r3, #256	; 0x100
     1d0:	d104      	bne.n	1dc <ResetHandler+0x44>
		RTC_SR = 0;
     1d2:	4950      	ldr	r1, [pc, #320]	; (314 <ResetHandler+0x17c>)
     1d4:	600b      	str	r3, [r1, #0]
		RTC_CR = RTC_CR_SC16P | RTC_CR_SC4P | RTC_CR_OSCE;
     1d6:	f44f 53a8 	mov.w	r3, #5376	; 0x1500
     1da:	6013      	str	r3, [r2, #0]
	}
#endif
	// release I/O pins hold, if we woke up from VLLS mode
	if (PMC_REGSC & PMC_REGSC_ACKISO) PMC_REGSC |= PMC_REGSC_ACKISO;
     1dc:	4b4e      	ldr	r3, [pc, #312]	; (318 <ResetHandler+0x180>)
     1de:	781a      	ldrb	r2, [r3, #0]
     1e0:	0711      	lsls	r1, r2, #28
     1e2:	d503      	bpl.n	1ec <ResetHandler+0x54>
     1e4:	781a      	ldrb	r2, [r3, #0]
     1e6:	f042 0208 	orr.w	r2, r2, #8
     1ea:	701a      	strb	r2, [r3, #0]
    // since this is a write once register, make it visible to all F_CPU's
    // so we can into other sleep modes in the future at any speed
#if defined(__MK66FX1M0__)
	SMC_PMPROT = SMC_PMPROT_AHSRUN | SMC_PMPROT_AVLP | SMC_PMPROT_ALLS | SMC_PMPROT_AVLLS;
#else
	SMC_PMPROT = SMC_PMPROT_AVLP | SMC_PMPROT_ALLS | SMC_PMPROT_AVLLS;
     1ec:	4b4b      	ldr	r3, [pc, #300]	; (31c <ResetHandler+0x184>)
#endif
    
	// TODO: do this while the PLL is waiting to lock....
	while (dest < &_edata) *dest++ = *src++;
     1ee:	494c      	ldr	r1, [pc, #304]	; (320 <ResetHandler+0x188>)
    // since this is a write once register, make it visible to all F_CPU's
    // so we can into other sleep modes in the future at any speed
#if defined(__MK66FX1M0__)
	SMC_PMPROT = SMC_PMPROT_AHSRUN | SMC_PMPROT_AVLP | SMC_PMPROT_ALLS | SMC_PMPROT_AVLLS;
#else
	SMC_PMPROT = SMC_PMPROT_AVLP | SMC_PMPROT_ALLS | SMC_PMPROT_AVLLS;
     1f0:	222a      	movs	r2, #42	; 0x2a
     1f2:	701a      	strb	r2, [r3, #0]
     1f4:	4a4b      	ldr	r2, [pc, #300]	; (324 <ResetHandler+0x18c>)
     1f6:	4b4c      	ldr	r3, [pc, #304]	; (328 <ResetHandler+0x190>)
#endif
    
	// TODO: do this while the PLL is waiting to lock....
	while (dest < &_edata) *dest++ = *src++;
     1f8:	428b      	cmp	r3, r1
     1fa:	d204      	bcs.n	206 <ResetHandler+0x6e>
     1fc:	f852 0f04 	ldr.w	r0, [r2, #4]!
     200:	f843 0b04 	str.w	r0, [r3], #4
     204:	e7f8      	b.n	1f8 <ResetHandler+0x60>
     206:	4b49      	ldr	r3, [pc, #292]	; (32c <ResetHandler+0x194>)
	dest = &_sbss;
	while (dest < &_ebss) *dest++ = 0;
     208:	4949      	ldr	r1, [pc, #292]	; (330 <ResetHandler+0x198>)
     20a:	2200      	movs	r2, #0
     20c:	428b      	cmp	r3, r1
     20e:	d202      	bcs.n	216 <ResetHandler+0x7e>
     210:	f843 2b04 	str.w	r2, [r3], #4
     214:	e7fa      	b.n	20c <ResetHandler+0x74>

	// default all interrupts to medium priority level
	for (i=0; i < NVIC_NUM_INTERRUPTS + 16; i++) _VectorsRam[i] = _VectorsFlash[i];
     216:	4947      	ldr	r1, [pc, #284]	; (334 <ResetHandler+0x19c>)
     218:	4a47      	ldr	r2, [pc, #284]	; (338 <ResetHandler+0x1a0>)
     21a:	2300      	movs	r3, #0
     21c:	f852 0023 	ldr.w	r0, [r2, r3, lsl #2]
     220:	f841 0023 	str.w	r0, [r1, r3, lsl #2]
     224:	3301      	adds	r3, #1
     226:	2b66      	cmp	r3, #102	; 0x66
     228:	d1f8      	bne.n	21c <ResetHandler+0x84>
     22a:	4b44      	ldr	r3, [pc, #272]	; (33c <ResetHandler+0x1a4>)
	for (i=0; i < NVIC_NUM_INTERRUPTS; i++) NVIC_SET_PRIORITY(i, 128);
     22c:	4a44      	ldr	r2, [pc, #272]	; (340 <ResetHandler+0x1a8>)
     22e:	2180      	movs	r1, #128	; 0x80
     230:	f803 1b01 	strb.w	r1, [r3], #1
     234:	4293      	cmp	r3, r2
     236:	d1fb      	bne.n	230 <ResetHandler+0x98>
	SCB_VTOR = (uint32_t)_VectorsRam;	// use vector table in RAM
     238:	4b42      	ldr	r3, [pc, #264]	; (344 <ResetHandler+0x1ac>)
     23a:	4a3e      	ldr	r2, [pc, #248]	; (334 <ResetHandler+0x19c>)
     23c:	601a      	str	r2, [r3, #0]
	//  C6[PLLS] bit is written to 0
	//  C2[LP] bit is written to 1
#else
    #if defined(KINETISK)
    // enable capacitors for crystal
    OSC0_CR = OSC_SC8P | OSC_SC2P | OSC_ERCLKEN;
     23e:	4b42      	ldr	r3, [pc, #264]	; (348 <ResetHandler+0x1b0>)
     240:	228a      	movs	r2, #138	; 0x8a
     242:	701a      	strb	r2, [r3, #0]
    #elif defined(KINETISL)
    // enable capacitors for crystal
    OSC0_CR = OSC_SC8P | OSC_SC2P | OSC_ERCLKEN;
    #endif
	// enable osc, 8-32 MHz range, low power mode
	MCG_C2 = MCG_C2_RANGE0(2) | MCG_C2_EREFS;
     244:	f5a3 5380 	sub.w	r3, r3, #4096	; 0x1000
     248:	2224      	movs	r2, #36	; 0x24
     24a:	705a      	strb	r2, [r3, #1]
	// switch to crystal as clock source, FLL input = 16 MHz / 512
	MCG_C1 =  MCG_C1_CLKS(2) | MCG_C1_FRDIV(4);
     24c:	22a0      	movs	r2, #160	; 0xa0
     24e:	701a      	strb	r2, [r3, #0]
	// wait for crystal oscillator to begin
	while ((MCG_S & MCG_S_OSCINIT0) == 0) ;
     250:	799a      	ldrb	r2, [r3, #6]
     252:	0792      	lsls	r2, r2, #30
     254:	d5fc      	bpl.n	250 <ResetHandler+0xb8>
	// wait for FLL to use oscillator
	while ((MCG_S & MCG_S_IREFST) != 0) ;
     256:	799a      	ldrb	r2, [r3, #6]
     258:	06d4      	lsls	r4, r2, #27
     25a:	d4fc      	bmi.n	256 <ResetHandler+0xbe>
	// wait for MCGOUT to use oscillator
	while ((MCG_S & MCG_S_CLKST_MASK) != MCG_S_CLKST(2)) ;
     25c:	4a3b      	ldr	r2, [pc, #236]	; (34c <ResetHandler+0x1b4>)
     25e:	7993      	ldrb	r3, [r2, #6]
     260:	f003 030c 	and.w	r3, r3, #12
     264:	2b08      	cmp	r3, #8
     266:	4b39      	ldr	r3, [pc, #228]	; (34c <ResetHandler+0x1b4>)
     268:	d1f9      	bne.n	25e <ResetHandler+0xc6>
    #endif
   #else
    #if F_CPU == 72000000
	MCG_C5 = MCG_C5_PRDIV0(5);		 // config PLL input for 16 MHz Crystal / 6 = 2.667 Hz
    #else
	MCG_C5 = MCG_C5_PRDIV0(3);		 // config PLL input for 16 MHz Crystal / 4 = 4 MHz
     26a:	2203      	movs	r2, #3
     26c:	711a      	strb	r2, [r3, #4]
    #if F_CPU == 168000000
	MCG_C6 = MCG_C6_PLLS | MCG_C6_VDIV0(18); // config PLL for 168 MHz output
    #elif F_CPU == 144000000
	MCG_C6 = MCG_C6_PLLS | MCG_C6_VDIV0(12); // config PLL for 144 MHz output
    #elif F_CPU == 120000000
	MCG_C6 = MCG_C6_PLLS | MCG_C6_VDIV0(6); // config PLL for 120 MHz output
     26e:	2246      	movs	r2, #70	; 0x46
     270:	715a      	strb	r2, [r3, #5]
    #error "This clock speed isn't supported..."
    #endif
   #endif

	// wait for PLL to start using xtal as its input
	while (!(MCG_S & MCG_S_PLLST)) ;
     272:	799a      	ldrb	r2, [r3, #6]
     274:	0690      	lsls	r0, r2, #26
     276:	d5fc      	bpl.n	272 <ResetHandler+0xda>
	// wait for PLL to lock
	while (!(MCG_S & MCG_S_LOCK0)) ;
     278:	4a34      	ldr	r2, [pc, #208]	; (34c <ResetHandler+0x1b4>)
     27a:	7991      	ldrb	r1, [r2, #6]
     27c:	4b33      	ldr	r3, [pc, #204]	; (34c <ResetHandler+0x1b4>)
     27e:	0649      	lsls	r1, r1, #25
     280:	d5fb      	bpl.n	27a <ResetHandler+0xe2>
	#endif
	SIM_CLKDIV2 = SIM_CLKDIV2_USBDIV(2);
#elif F_CPU == 120000000
	// config divisors: 120 MHz core, 60 MHz bus, 24 MHz flash, USB = 128 * 2 / 5
	#if F_BUS == 60000000
	SIM_CLKDIV1 = SIM_CLKDIV1_OUTDIV1(0) | SIM_CLKDIV1_OUTDIV2(1) | SIM_CLKDIV1_OUTDIV4(4);
     282:	4a33      	ldr	r2, [pc, #204]	; (350 <ResetHandler+0x1b8>)
     284:	f04f 7182 	mov.w	r1, #17039360	; 0x1040000
     288:	6011      	str	r1, [r2, #0]
	#elif F_BUS == 120000000
	SIM_CLKDIV1 = SIM_CLKDIV1_OUTDIV1(0) | SIM_CLKDIV1_OUTDIV2(0) | SIM_CLKDIV1_OUTDIV4(4);
	#else
	#error "This F_CPU & F_BUS combination is not supported"
	#endif
	SIM_CLKDIV2 = SIM_CLKDIV2_USBDIV(4) | SIM_CLKDIV2_USBFRAC;
     28a:	2109      	movs	r1, #9
     28c:	6051      	str	r1, [r2, #4]
#error "Error, F_CPU must be 256, 240, 216, 192, 180, 168, 144, 120, 96, 72, 48, 24, 16, 8, 4, or 2 MHz"
#endif

#if F_CPU > 16000000
	// switch to PLL as clock source, FLL input = 16 MHz / 512
	MCG_C1 = MCG_C1_CLKS(0) | MCG_C1_FRDIV(4);
     28e:	2220      	movs	r2, #32
     290:	701a      	strb	r2, [r3, #0]
	// wait for PLL clock to be used
	while ((MCG_S & MCG_S_CLKST_MASK) != MCG_S_CLKST(3)) ;
     292:	799a      	ldrb	r2, [r3, #6]
     294:	f002 020c 	and.w	r2, r2, #12
     298:	2a0c      	cmp	r2, #12
     29a:	d1fa      	bne.n	292 <ResetHandler+0xfa>
	#if F_CPU == 256000000 || F_CPU == 216000000 || F_CPU == 180000000
	// USB uses IRC48
	SIM_SOPT2 = SIM_SOPT2_USBSRC | SIM_SOPT2_IRC48SEL | SIM_SOPT2_TRACECLKSEL | SIM_SOPT2_CLKOUTSEL(6);
	#else
	// USB uses PLL clock
	SIM_SOPT2 = SIM_SOPT2_USBSRC | SIM_SOPT2_PLLFLLSEL | SIM_SOPT2_TRACECLKSEL | SIM_SOPT2_CLKOUTSEL(6);
     29c:	4b2d      	ldr	r3, [pc, #180]	; (354 <ResetHandler+0x1bc>)
     29e:	4a2e      	ldr	r2, [pc, #184]	; (358 <ResetHandler+0x1c0>)
     2a0:	601a      	str	r2, [r3, #0]
		RTC_CR = RTC_CR_SC16P | RTC_CR_SC4P | RTC_CR_OSCE;
	}
#endif

	// initialize the SysTick counter
	SYST_RVR = (F_CPU / 1000) - 1;
     2a2:	4b2e      	ldr	r3, [pc, #184]	; (35c <ResetHandler+0x1c4>)
     2a4:	4a2e      	ldr	r2, [pc, #184]	; (360 <ResetHandler+0x1c8>)
     2a6:	601a      	str	r2, [r3, #0]
	SYST_CVR = 0;
     2a8:	2200      	movs	r2, #0
     2aa:	605a      	str	r2, [r3, #4]
	SYST_CSR = SYST_CSR_CLKSOURCE | SYST_CSR_TICKINT | SYST_CSR_ENABLE;
     2ac:	2207      	movs	r2, #7
     2ae:	f843 2c04 	str.w	r2, [r3, #-4]
	SCB_SHPR3 = 0x20200000;  // Systick = priority 32
     2b2:	4a2c      	ldr	r2, [pc, #176]	; (364 <ResetHandler+0x1cc>)
     2b4:	f8c3 2d0c 	str.w	r2, [r3, #3340]	; 0xd0c

	//init_pins();
	__enable_irq();
     2b8:	b662      	cpsie	i

	_init_Teensyduino_internal_();
     2ba:	f000 fecb 	bl	1054 <_init_Teensyduino_internal_>

#if defined(KINETISK)
	// RTC initialization
	if (RTC_SR & RTC_SR_TIF) {
     2be:	4b15      	ldr	r3, [pc, #84]	; (314 <ResetHandler+0x17c>)
     2c0:	681b      	ldr	r3, [r3, #0]
     2c2:	07da      	lsls	r2, r3, #31
     2c4:	d505      	bpl.n	2d2 <ResetHandler+0x13a>
		// compiled-in time will be stale.  Write a special
		// flag into the VBAT register file indicating the
		// RTC is set with known-stale time and should be
		// updated when fresh time is known.
		#if ARDUINO >= 10600
		rtc_set((uint32_t)&__rtc_localtime);
     2c6:	4828      	ldr	r0, [pc, #160]	; (368 <ResetHandler+0x1d0>)
     2c8:	f000 fdb0 	bl	e2c <rtc_set>
		#else
		rtc_set(TIME_T);
		#endif
		*(uint32_t *)0x4003E01C = 0x5A94C3A5;
     2cc:	4b27      	ldr	r3, [pc, #156]	; (36c <ResetHandler+0x1d4>)
     2ce:	4a28      	ldr	r2, [pc, #160]	; (370 <ResetHandler+0x1d8>)
     2d0:	601a      	str	r2, [r3, #0]
	}
	if ((RCM_SRS0 & RCM_SRS0_PIN) && (*(uint32_t *)0x4003E01C == 0x5A94C3A5)) {
     2d2:	4b28      	ldr	r3, [pc, #160]	; (374 <ResetHandler+0x1dc>)
     2d4:	781b      	ldrb	r3, [r3, #0]
     2d6:	065b      	lsls	r3, r3, #25
     2d8:	d509      	bpl.n	2ee <ResetHandler+0x156>
     2da:	4c24      	ldr	r4, [pc, #144]	; (36c <ResetHandler+0x1d4>)
     2dc:	4b24      	ldr	r3, [pc, #144]	; (370 <ResetHandler+0x1d8>)
     2de:	6822      	ldr	r2, [r4, #0]
     2e0:	429a      	cmp	r2, r3
     2e2:	d104      	bne.n	2ee <ResetHandler+0x156>
		// Our compiled-in time will be very fresh, so set
		// the RTC with this, and clear the VBAT resister file
		// data so we don't mess with the time after it's been
		// set well.
		#if ARDUINO >= 10600
		rtc_set((uint32_t)&__rtc_localtime);
     2e4:	4820      	ldr	r0, [pc, #128]	; (368 <ResetHandler+0x1d0>)
     2e6:	f000 fda1 	bl	e2c <rtc_set>
		#else
		rtc_set(TIME_T);
		#endif
		*(uint32_t *)0x4003E01C = 0;
     2ea:	2300      	movs	r3, #0
     2ec:	6023      	str	r3, [r4, #0]
	}
#endif

	__libc_init_array();
     2ee:	f003 fc27 	bl	3b40 <__libc_init_array>

	startup_late_hook();
     2f2:	f002 fa9d 	bl	2830 <startup_late_hook>
	main();
     2f6:	f001 ffad 	bl	2254 <main>
     2fa:	e7fe      	b.n	2fa <ResetHandler+0x162>
     2fc:	4005200e 	.word	0x4005200e
     300:	40048030 	.word	0x40048030
     304:	00043f82 	.word	0x00043f82
     308:	2b000001 	.word	0x2b000001
     30c:	e000ed88 	.word	0xe000ed88
     310:	4003d010 	.word	0x4003d010
     314:	4003d014 	.word	0x4003d014
     318:	4007d002 	.word	0x4007d002
     31c:	4007e000 	.word	0x4007e000
     320:	1fff1044 	.word	0x1fff1044
     324:	00004f54 	.word	0x00004f54
     328:	1fff06f8 	.word	0x1fff06f8
     32c:	1fff1048 	.word	0x1fff1048
     330:	1fff21d0 	.word	0x1fff21d0
     334:	1fff0200 	.word	0x1fff0200
     338:	00000000 	.word	0x00000000
     33c:	e000e400 	.word	0xe000e400
     340:	e000e456 	.word	0xe000e456
     344:	e000ed08 	.word	0xe000ed08
     348:	40065000 	.word	0x40065000
     34c:	40064000 	.word	0x40064000
     350:	40048044 	.word	0x40048044
     354:	40048004 	.word	0x40048004
     358:	000510c0 	.word	0x000510c0
     35c:	e000e014 	.word	0xe000e014
     360:	0001d4bf 	.word	0x0001d4bf
     364:	20200000 	.word	0x20200000
     368:	5d53e647 	.word	0x5d53e647
     36c:	4003e01c 	.word	0x4003e01c
     370:	5a94c3a5 	.word	0x5a94c3a5
     374:	4007f000 	.word	0x4007f000
     378:	ffffffff 	.word	0xffffffff
     37c:	ffffffff 	.word	0xffffffff
     380:	ffffffff 	.word	0xffffffff
     384:	ffffffff 	.word	0xffffffff
     388:	ffffffff 	.word	0xffffffff
     38c:	ffffffff 	.word	0xffffffff
     390:	ffffffff 	.word	0xffffffff
     394:	ffffffff 	.word	0xffffffff
     398:	ffffffff 	.word	0xffffffff
     39c:	ffffffff 	.word	0xffffffff
     3a0:	ffffffff 	.word	0xffffffff
     3a4:	ffffffff 	.word	0xffffffff
     3a8:	ffffffff 	.word	0xffffffff
     3ac:	ffffffff 	.word	0xffffffff
     3b0:	ffffffff 	.word	0xffffffff
     3b4:	ffffffff 	.word	0xffffffff
     3b8:	ffffffff 	.word	0xffffffff
     3bc:	ffffffff 	.word	0xffffffff
     3c0:	ffffffff 	.word	0xffffffff
     3c4:	ffffffff 	.word	0xffffffff
     3c8:	ffffffff 	.word	0xffffffff
     3cc:	ffffffff 	.word	0xffffffff
     3d0:	ffffffff 	.word	0xffffffff
     3d4:	ffffffff 	.word	0xffffffff
     3d8:	ffffffff 	.word	0xffffffff
     3dc:	ffffffff 	.word	0xffffffff
     3e0:	ffffffff 	.word	0xffffffff
     3e4:	ffffffff 	.word	0xffffffff
     3e8:	ffffffff 	.word	0xffffffff
     3ec:	ffffffff 	.word	0xffffffff
     3f0:	ffffffff 	.word	0xffffffff
     3f4:	ffffffff 	.word	0xffffffff
     3f8:	ffffffff 	.word	0xffffffff
     3fc:	ffffffff 	.word	0xffffffff

00000400 <flashconfigbytes>:
     400:	ffffffff ffffffff ffffffff fffff9de     ................

00000410 <__do_global_dtors_aux>:
     410:	b510      	push	{r4, lr}
     412:	4c05      	ldr	r4, [pc, #20]	; (428 <__do_global_dtors_aux+0x18>)
     414:	7823      	ldrb	r3, [r4, #0]
     416:	b933      	cbnz	r3, 426 <__do_global_dtors_aux+0x16>
     418:	4b04      	ldr	r3, [pc, #16]	; (42c <__do_global_dtors_aux+0x1c>)
     41a:	b113      	cbz	r3, 422 <__do_global_dtors_aux+0x12>
     41c:	4804      	ldr	r0, [pc, #16]	; (430 <__do_global_dtors_aux+0x20>)
     41e:	f3af 8000 	nop.w
     422:	2301      	movs	r3, #1
     424:	7023      	strb	r3, [r4, #0]
     426:	bd10      	pop	{r4, pc}
     428:	1fff1048 	.word	0x1fff1048
     42c:	00000000 	.word	0x00000000
     430:	00004f58 	.word	0x00004f58

00000434 <frame_dummy>:
     434:	4b08      	ldr	r3, [pc, #32]	; (458 <frame_dummy+0x24>)
     436:	b510      	push	{r4, lr}
     438:	b11b      	cbz	r3, 442 <frame_dummy+0xe>
     43a:	4908      	ldr	r1, [pc, #32]	; (45c <frame_dummy+0x28>)
     43c:	4808      	ldr	r0, [pc, #32]	; (460 <frame_dummy+0x2c>)
     43e:	f3af 8000 	nop.w
     442:	4808      	ldr	r0, [pc, #32]	; (464 <frame_dummy+0x30>)
     444:	6803      	ldr	r3, [r0, #0]
     446:	b903      	cbnz	r3, 44a <frame_dummy+0x16>
     448:	bd10      	pop	{r4, pc}
     44a:	4b07      	ldr	r3, [pc, #28]	; (468 <frame_dummy+0x34>)
     44c:	2b00      	cmp	r3, #0
     44e:	d0fb      	beq.n	448 <frame_dummy+0x14>
     450:	e8bd 4010 	ldmia.w	sp!, {r4, lr}
     454:	4718      	bx	r3
     456:	bf00      	nop
     458:	00000000 	.word	0x00000000
     45c:	1fff104c 	.word	0x1fff104c
     460:	00004f58 	.word	0x00004f58
     464:	1fff1044 	.word	0x1fff1044
     468:	00000000 	.word	0x00000000

0000046c <SequenceData::~SequenceData()>:
int PinsBrakeAll[] = { 35,36,38,37,0 }; //brake only
int PinsFootwell[] = { 29,0 };//footwell
int PinsHella[] = { 2,5,6,0 };//hela
int PinsAll[17] = { 8,7,9,10,21,22,20,14,35,36,38,37,29,2,5,6,0 }; //all

class SequenceData //this is a data object to store instances of the command requests from the can bus
     46c:	b510      	push	{r4, lr}
     46e:	4604      	mov	r4, r0
     470:	3078      	adds	r0, #120	; 0x78
     472:	f002 f843 	bl	24fc <String::~String()>
     476:	4620      	mov	r0, r4
     478:	bd10      	pop	{r4, pc}
     47a:	bf00      	nop

0000047c <SequenceData::SequenceData()>:
     47c:	b510      	push	{r4, lr}
     47e:	f04f 33ff 	mov.w	r3, #4294967295
     482:	4604      	mov	r4, r0
     484:	2244      	movs	r2, #68	; 0x44
     486:	f840 3b04 	str.w	r3, [r0], #4
     48a:	2100      	movs	r1, #0
     48c:	f003 feac 	bl	41e8 <memset>
     490:	4b08      	ldr	r3, [pc, #32]	; (4b4 <SequenceData::SequenceData()+0x38>)
     492:	2200      	movs	r2, #0
     494:	f104 0078 	add.w	r0, r4, #120	; 0x78
     498:	e9c4 2312 	strd	r2, r3, [r4, #72]	; 0x48
     49c:	e9c4 2318 	strd	r2, r3, [r4, #96]	; 0x60
     4a0:	e9c4 231a 	strd	r2, r3, [r4, #104]	; 0x68
     4a4:	e9c4 231c 	strd	r2, r3, [r4, #112]	; 0x70
     4a8:	2100      	movs	r1, #0
     4aa:	f002 f867 	bl	257c <String::String(char const*)>
     4ae:	4620      	mov	r0, r4
     4b0:	bd10      	pop	{r4, pc}
     4b2:	bf00      	nop
     4b4:	bff00000 	.word	0xbff00000

000004b8 <PWMFrequencySelect(int)>:
	case 15:
		PWMFrequency = 1831.055;
	case 16:
		PWMFrequency = 915.527;
	default:
		PWMFrequency = 234375; //if no value is set default to 8 bits
     4b8:	a104      	add	r1, pc, #16	; (adr r1, 4cc <PWMFrequencySelect(int)+0x14>)
     4ba:	e9d1 0100 	ldrd	r0, r1, [r1]
     4be:	4b02      	ldr	r3, [pc, #8]	; (4c8 <PWMFrequencySelect(int)+0x10>)
     4c0:	e9c3 0100 	strd	r0, r1, [r3]
     4c4:	4770      	bx	lr
     4c6:	bf00      	nop
     4c8:	1fff1068 	.word	0x1fff1068
     4cc:	00000000 	.word	0x00000000
     4d0:	410c9c38 	.word	0x410c9c38
     4d4:	ffffffff 	.word	0xffffffff

000004d8 <setup>:
}

int x = 1;
// the setup function runs once when you press reset or power the board
void setup() 
{
     4d8:	e92d 4ff8 	stmdb	sp!, {r3, r4, r5, r6, r7, r8, r9, sl, fp, lr}
	PWMFrequencySelect(PWMNumberOfBits);//set the frequency based on the number of required PWM bits
     4dc:	4b4e      	ldr	r3, [pc, #312]	; (618 <setup+0x140>)
	analogWriteFrequency(5, PWMFrequency);
     4de:	f8df 814c 	ldr.w	r8, [pc, #332]	; 62c <setup+0x154>

int x = 1;
// the setup function runs once when you press reset or power the board
void setup() 
{
	PWMFrequencySelect(PWMNumberOfBits);//set the frequency based on the number of required PWM bits
     4e2:	6818      	ldr	r0, [r3, #0]
	SequenceNumber = 0;
	Serial.begin(9600);

	//test set up only
	cmd1.FunctionType = 1;
	cmd1.LightSet[0] = PinsAll[0];
     4e4:	4c4d      	ldr	r4, [pc, #308]	; (61c <setup+0x144>)
	analogWriteFrequency(2, PWMFrequency);
	SequenceNumber = 0;
	Serial.begin(9600);

	//test set up only
	cmd1.FunctionType = 1;
     4e6:	4e4e      	ldr	r6, [pc, #312]	; (620 <setup+0x148>)
	cmd1.LightSet[14] = PinsAll[14];
	cmd1.LightSet[15] = PinsAll[15];
	cmd1.LightSet[16] = PinsAll[16];
	cmd1.PWMMaxPercent = 100;
	cmd1.PWMMinPercent = 0;
	cmd1.Repeat = "yes";
     4e8:	4f4e      	ldr	r7, [pc, #312]	; (624 <setup+0x14c>)
	cmd1.TimeTotal = 3 * 1000 * 1000; //3 seconds multiplied to get Milli then micro

	cmd2.FunctionType = 2;
     4ea:	4d4f      	ldr	r5, [pc, #316]	; (628 <setup+0x150>)

int x = 1;
// the setup function runs once when you press reset or power the board
void setup() 
{
	PWMFrequencySelect(PWMNumberOfBits);//set the frequency based on the number of required PWM bits
     4ec:	f7ff ffe4 	bl	4b8 <PWMFrequencySelect(int)>
	analogWriteFrequency(5, PWMFrequency);
     4f0:	e9d8 0100 	ldrd	r0, r1, [r8]
     4f4:	f003 fac2 	bl	3a7c <__aeabi_d2f>
     4f8:	ee00 0a10 	vmov	s0, r0
     4fc:	2005      	movs	r0, #5
     4fe:	f000 fca7 	bl	e50 <analogWriteFrequency>
	analogWriteFrequency(3, PWMFrequency);
     502:	e9d8 0100 	ldrd	r0, r1, [r8]
     506:	f003 fab9 	bl	3a7c <__aeabi_d2f>
     50a:	ee00 0a10 	vmov	s0, r0
     50e:	2003      	movs	r0, #3
     510:	f000 fc9e 	bl	e50 <analogWriteFrequency>
	analogWriteFrequency(29, PWMFrequency);
     514:	e9d8 0100 	ldrd	r0, r1, [r8]
     518:	f003 fab0 	bl	3a7c <__aeabi_d2f>
     51c:	ee00 0a10 	vmov	s0, r0
     520:	201d      	movs	r0, #29
     522:	f000 fc95 	bl	e50 <analogWriteFrequency>
	analogWriteFrequency(2, PWMFrequency);
     526:	e9d8 0100 	ldrd	r0, r1, [r8]
     52a:	f003 faa7 	bl	3a7c <__aeabi_d2f>
     52e:	ee00 0a10 	vmov	s0, r0
     532:	2002      	movs	r0, #2
     534:	f000 fc8c 	bl	e50 <analogWriteFrequency>
	SequenceNumber = 0;
	Serial.begin(9600);

	//test set up only
	cmd1.FunctionType = 1;
	cmd1.LightSet[0] = PinsAll[0];
     538:	6823      	ldr	r3, [r4, #0]
	cmd1.LightSet[1] = PinsAll[1];
     53a:	6860      	ldr	r0, [r4, #4]
	cmd1.LightSet[2] = PinsAll[2];
     53c:	68a1      	ldr	r1, [r4, #8]
	SequenceNumber = 0;
	Serial.begin(9600);

	//test set up only
	cmd1.FunctionType = 1;
	cmd1.LightSet[0] = PinsAll[0];
     53e:	6073      	str	r3, [r6, #4]
	analogWriteFrequency(2, PWMFrequency);
	SequenceNumber = 0;
	Serial.begin(9600);

	//test set up only
	cmd1.FunctionType = 1;
     540:	2301      	movs	r3, #1
	cmd1.LightSet[0] = PinsAll[0];
	cmd1.LightSet[1] = PinsAll[1];
	cmd1.LightSet[2] = PinsAll[2];
	cmd1.LightSet[3] = PinsAll[3];
     542:	68e2      	ldr	r2, [r4, #12]
	analogWriteFrequency(2, PWMFrequency);
	SequenceNumber = 0;
	Serial.begin(9600);

	//test set up only
	cmd1.FunctionType = 1;
     544:	6033      	str	r3, [r6, #0]
	cmd1.LightSet[0] = PinsAll[0];
	cmd1.LightSet[1] = PinsAll[1];
     546:	60b0      	str	r0, [r6, #8]
	cmd1.LightSet[2] = PinsAll[2];
	cmd1.LightSet[3] = PinsAll[3];
	cmd1.LightSet[4] = PinsAll[4];
     548:	6923      	ldr	r3, [r4, #16]
	cmd1.LightSet[5] = PinsAll[5];
     54a:	6960      	ldr	r0, [r4, #20]

	//test set up only
	cmd1.FunctionType = 1;
	cmd1.LightSet[0] = PinsAll[0];
	cmd1.LightSet[1] = PinsAll[1];
	cmd1.LightSet[2] = PinsAll[2];
     54c:	60f1      	str	r1, [r6, #12]
	cmd1.LightSet[3] = PinsAll[3];
	cmd1.LightSet[4] = PinsAll[4];
	cmd1.LightSet[5] = PinsAll[5];
	cmd1.LightSet[6] = PinsAll[6];
     54e:	69a1      	ldr	r1, [r4, #24]
	PWMFrequencySelect(PWMNumberOfBits);//set the frequency based on the number of required PWM bits
	analogWriteFrequency(5, PWMFrequency);
	analogWriteFrequency(3, PWMFrequency);
	analogWriteFrequency(29, PWMFrequency);
	analogWriteFrequency(2, PWMFrequency);
	SequenceNumber = 0;
     550:	f8df e0dc 	ldr.w	lr, [pc, #220]	; 630 <setup+0x158>
	//test set up only
	cmd1.FunctionType = 1;
	cmd1.LightSet[0] = PinsAll[0];
	cmd1.LightSet[1] = PinsAll[1];
	cmd1.LightSet[2] = PinsAll[2];
	cmd1.LightSet[3] = PinsAll[3];
     554:	6132      	str	r2, [r6, #16]
	cmd1.LightSet[4] = PinsAll[4];
     556:	6173      	str	r3, [r6, #20]
	cmd1.LightSet[5] = PinsAll[5];
	cmd1.LightSet[6] = PinsAll[6];
	cmd1.LightSet[7] = PinsAll[7];
     558:	69e2      	ldr	r2, [r4, #28]
	cmd1.LightSet[8] = PinsAll[8];
     55a:	6a23      	ldr	r3, [r4, #32]
	cmd1.LightSet[0] = PinsAll[0];
	cmd1.LightSet[1] = PinsAll[1];
	cmd1.LightSet[2] = PinsAll[2];
	cmd1.LightSet[3] = PinsAll[3];
	cmd1.LightSet[4] = PinsAll[4];
	cmd1.LightSet[5] = PinsAll[5];
     55c:	61b0      	str	r0, [r6, #24]
	cmd1.LightSet[6] = PinsAll[6];
     55e:	61f1      	str	r1, [r6, #28]
	cmd1.LightSet[7] = PinsAll[7];
	cmd1.LightSet[8] = PinsAll[8];
	cmd1.LightSet[9] = PinsAll[9];
     560:	6a60      	ldr	r0, [r4, #36]	; 0x24
	cmd1.LightSet[10] = PinsAll[10];
     562:	6aa1      	ldr	r1, [r4, #40]	; 0x28
	cmd1.LightSet[2] = PinsAll[2];
	cmd1.LightSet[3] = PinsAll[3];
	cmd1.LightSet[4] = PinsAll[4];
	cmd1.LightSet[5] = PinsAll[5];
	cmd1.LightSet[6] = PinsAll[6];
	cmd1.LightSet[7] = PinsAll[7];
     564:	6232      	str	r2, [r6, #32]
	PWMFrequencySelect(PWMNumberOfBits);//set the frequency based on the number of required PWM bits
	analogWriteFrequency(5, PWMFrequency);
	analogWriteFrequency(3, PWMFrequency);
	analogWriteFrequency(29, PWMFrequency);
	analogWriteFrequency(2, PWMFrequency);
	SequenceNumber = 0;
     566:	f04f 0800 	mov.w	r8, #0
	cmd1.LightSet[3] = PinsAll[3];
	cmd1.LightSet[4] = PinsAll[4];
	cmd1.LightSet[5] = PinsAll[5];
	cmd1.LightSet[6] = PinsAll[6];
	cmd1.LightSet[7] = PinsAll[7];
	cmd1.LightSet[8] = PinsAll[8];
     56a:	6273      	str	r3, [r6, #36]	; 0x24
	cmd1.LightSet[9] = PinsAll[9];
     56c:	62b0      	str	r0, [r6, #40]	; 0x28
	cmd1.LightSet[10] = PinsAll[10];
	cmd1.LightSet[11] = PinsAll[11];
	cmd1.LightSet[12] = PinsAll[12];
     56e:	6b23      	ldr	r3, [r4, #48]	; 0x30
	cmd1.LightSet[13] = PinsAll[13];
     570:	6b60      	ldr	r0, [r4, #52]	; 0x34
	cmd1.LightSet[5] = PinsAll[5];
	cmd1.LightSet[6] = PinsAll[6];
	cmd1.LightSet[7] = PinsAll[7];
	cmd1.LightSet[8] = PinsAll[8];
	cmd1.LightSet[9] = PinsAll[9];
	cmd1.LightSet[10] = PinsAll[10];
     572:	62f1      	str	r1, [r6, #44]	; 0x2c
	cmd1.LightSet[11] = PinsAll[11];
     574:	6ae2      	ldr	r2, [r4, #44]	; 0x2c
	cmd1.LightSet[12] = PinsAll[12];
	cmd1.LightSet[13] = PinsAll[13];
	cmd1.LightSet[14] = PinsAll[14];
     576:	6ba1      	ldr	r1, [r4, #56]	; 0x38
	PWMFrequencySelect(PWMNumberOfBits);//set the frequency based on the number of required PWM bits
	analogWriteFrequency(5, PWMFrequency);
	analogWriteFrequency(3, PWMFrequency);
	analogWriteFrequency(29, PWMFrequency);
	analogWriteFrequency(2, PWMFrequency);
	SequenceNumber = 0;
     578:	f8ce 8000 	str.w	r8, [lr]
	cmd1.LightSet[7] = PinsAll[7];
	cmd1.LightSet[8] = PinsAll[8];
	cmd1.LightSet[9] = PinsAll[9];
	cmd1.LightSet[10] = PinsAll[10];
	cmd1.LightSet[11] = PinsAll[11];
	cmd1.LightSet[12] = PinsAll[12];
     57c:	6373      	str	r3, [r6, #52]	; 0x34
	cmd1.LightSet[13] = PinsAll[13];
     57e:	63b0      	str	r0, [r6, #56]	; 0x38
	cmd1.LightSet[14] = PinsAll[14];
     580:	63f1      	str	r1, [r6, #60]	; 0x3c
	cmd1.LightSet[15] = PinsAll[15];
	cmd1.LightSet[16] = PinsAll[16];
	cmd1.PWMMaxPercent = 100;
     582:	f04f 0964 	mov.w	r9, #100	; 0x64
	cmd1.PWMMinPercent = 0;
	cmd1.Repeat = "yes";
     586:	4639      	mov	r1, r7
	cmd1.LightSet[6] = PinsAll[6];
	cmd1.LightSet[7] = PinsAll[7];
	cmd1.LightSet[8] = PinsAll[8];
	cmd1.LightSet[9] = PinsAll[9];
	cmd1.LightSet[10] = PinsAll[10];
	cmd1.LightSet[11] = PinsAll[11];
     588:	6332      	str	r2, [r6, #48]	; 0x30
	cmd1.LightSet[14] = PinsAll[14];
	cmd1.LightSet[15] = PinsAll[15];
	cmd1.LightSet[16] = PinsAll[16];
	cmd1.PWMMaxPercent = 100;
	cmd1.PWMMinPercent = 0;
	cmd1.Repeat = "yes";
     58a:	f106 0078 	add.w	r0, r6, #120	; 0x78
	cmd1.LightSet[10] = PinsAll[10];
	cmd1.LightSet[11] = PinsAll[11];
	cmd1.LightSet[12] = PinsAll[12];
	cmd1.LightSet[13] = PinsAll[13];
	cmd1.LightSet[14] = PinsAll[14];
	cmd1.LightSet[15] = PinsAll[15];
     58e:	6be2      	ldr	r2, [r4, #60]	; 0x3c
	cmd1.LightSet[16] = PinsAll[16];
     590:	6c23      	ldr	r3, [r4, #64]	; 0x40
	cmd1.LightSet[10] = PinsAll[10];
	cmd1.LightSet[11] = PinsAll[11];
	cmd1.LightSet[12] = PinsAll[12];
	cmd1.LightSet[13] = PinsAll[13];
	cmd1.LightSet[14] = PinsAll[14];
	cmd1.LightSet[15] = PinsAll[15];
     592:	6432      	str	r2, [r6, #64]	; 0x40
	cmd1.LightSet[16] = PinsAll[16];
     594:	6473      	str	r3, [r6, #68]	; 0x44
	cmd1.PWMMaxPercent = 100;
	cmd1.PWMMinPercent = 0;
     596:	f8c6 8058 	str.w	r8, [r6, #88]	; 0x58
	cmd1.LightSet[12] = PinsAll[12];
	cmd1.LightSet[13] = PinsAll[13];
	cmd1.LightSet[14] = PinsAll[14];
	cmd1.LightSet[15] = PinsAll[15];
	cmd1.LightSet[16] = PinsAll[16];
	cmd1.PWMMaxPercent = 100;
     59a:	f8c6 9054 	str.w	r9, [r6, #84]	; 0x54
	cmd1.PWMMinPercent = 0;
	cmd1.Repeat = "yes";
     59e:	f002 f827 	bl	25f0 <String::operator=(char const*)>
	cmd1.TimeTotal = 3 * 1000 * 1000; //3 seconds multiplied to get Milli then micro

	cmd2.FunctionType = 2;
     5a2:	2302      	movs	r3, #2
     5a4:	602b      	str	r3, [r5, #0]
	cmd2.LightSet[0] = PinsAll[0];
     5a6:	6823      	ldr	r3, [r4, #0]
     5a8:	606b      	str	r3, [r5, #4]
	cmd2.LightSet[1] = PinsAll[1];
     5aa:	6863      	ldr	r3, [r4, #4]
     5ac:	60ab      	str	r3, [r5, #8]
	cmd2.LightSet[2] = PinsAll[2];
     5ae:	68a3      	ldr	r3, [r4, #8]
     5b0:	60eb      	str	r3, [r5, #12]
	cmd2.LightSet[3] = PinsAll[3];
     5b2:	68e3      	ldr	r3, [r4, #12]
     5b4:	612b      	str	r3, [r5, #16]
	cmd2.LightSet[4] = PinsAll[4];
     5b6:	6923      	ldr	r3, [r4, #16]
     5b8:	616b      	str	r3, [r5, #20]
	cmd2.LightSet[5] = PinsAll[5];
     5ba:	6963      	ldr	r3, [r4, #20]
     5bc:	61ab      	str	r3, [r5, #24]
	cmd2.LightSet[6] = PinsAll[6];
     5be:	69a3      	ldr	r3, [r4, #24]
     5c0:	61eb      	str	r3, [r5, #28]
	cmd2.LightSet[7] = PinsAll[7];
     5c2:	69e3      	ldr	r3, [r4, #28]
     5c4:	622b      	str	r3, [r5, #32]
	cmd2.LightSet[8] = PinsAll[8];
     5c6:	6a23      	ldr	r3, [r4, #32]
     5c8:	626b      	str	r3, [r5, #36]	; 0x24
	cmd2.LightSet[9] = PinsAll[9];
     5ca:	6a63      	ldr	r3, [r4, #36]	; 0x24
     5cc:	62ab      	str	r3, [r5, #40]	; 0x28
	cmd2.LightSet[10] = PinsAll[10];
     5ce:	6aa3      	ldr	r3, [r4, #40]	; 0x28
     5d0:	62eb      	str	r3, [r5, #44]	; 0x2c
	cmd2.LightSet[11] = PinsAll[11];
     5d2:	6ae3      	ldr	r3, [r4, #44]	; 0x2c
     5d4:	632b      	str	r3, [r5, #48]	; 0x30
	cmd1.LightSet[15] = PinsAll[15];
	cmd1.LightSet[16] = PinsAll[16];
	cmd1.PWMMaxPercent = 100;
	cmd1.PWMMinPercent = 0;
	cmd1.Repeat = "yes";
	cmd1.TimeTotal = 3 * 1000 * 1000; //3 seconds multiplied to get Milli then micro
     5d6:	f20f 0b38 	addw	fp, pc, #56	; 0x38
     5da:	e9db ab00 	ldrd	sl, fp, [fp]
	cmd2.LightSet[7] = PinsAll[7];
	cmd2.LightSet[8] = PinsAll[8];
	cmd2.LightSet[9] = PinsAll[9];
	cmd2.LightSet[10] = PinsAll[10];
	cmd2.LightSet[11] = PinsAll[11];
	cmd2.LightSet[12] = PinsAll[12];
     5de:	6b23      	ldr	r3, [r4, #48]	; 0x30
     5e0:	636b      	str	r3, [r5, #52]	; 0x34
	cmd2.LightSet[13] = PinsAll[13];
     5e2:	6b63      	ldr	r3, [r4, #52]	; 0x34
     5e4:	63ab      	str	r3, [r5, #56]	; 0x38
	cmd2.LightSet[14] = PinsAll[14];
     5e6:	6ba3      	ldr	r3, [r4, #56]	; 0x38
     5e8:	63eb      	str	r3, [r5, #60]	; 0x3c
	cmd2.LightSet[15] = PinsAll[15];
	cmd2.LightSet[16] = PinsAll[16];
	cmd2.PWMMaxPercent = 100;
	cmd2.PWMMinPercent = 0;
	cmd2.Repeat = "yes";
     5ea:	4639      	mov	r1, r7
	cmd1.LightSet[15] = PinsAll[15];
	cmd1.LightSet[16] = PinsAll[16];
	cmd1.PWMMaxPercent = 100;
	cmd1.PWMMinPercent = 0;
	cmd1.Repeat = "yes";
	cmd1.TimeTotal = 3 * 1000 * 1000; //3 seconds multiplied to get Milli then micro
     5ec:	e9c6 ab12 	strd	sl, fp, [r6, #72]	; 0x48
	cmd2.LightSet[14] = PinsAll[14];
	cmd2.LightSet[15] = PinsAll[15];
	cmd2.LightSet[16] = PinsAll[16];
	cmd2.PWMMaxPercent = 100;
	cmd2.PWMMinPercent = 0;
	cmd2.Repeat = "yes";
     5f0:	f105 0078 	add.w	r0, r5, #120	; 0x78
	cmd2.LightSet[10] = PinsAll[10];
	cmd2.LightSet[11] = PinsAll[11];
	cmd2.LightSet[12] = PinsAll[12];
	cmd2.LightSet[13] = PinsAll[13];
	cmd2.LightSet[14] = PinsAll[14];
	cmd2.LightSet[15] = PinsAll[15];
     5f4:	6be2      	ldr	r2, [r4, #60]	; 0x3c
	cmd2.LightSet[16] = PinsAll[16];
     5f6:	6c23      	ldr	r3, [r4, #64]	; 0x40
	cmd2.PWMMaxPercent = 100;
	cmd2.PWMMinPercent = 0;
     5f8:	f8c5 8058 	str.w	r8, [r5, #88]	; 0x58
	cmd2.LightSet[10] = PinsAll[10];
	cmd2.LightSet[11] = PinsAll[11];
	cmd2.LightSet[12] = PinsAll[12];
	cmd2.LightSet[13] = PinsAll[13];
	cmd2.LightSet[14] = PinsAll[14];
	cmd2.LightSet[15] = PinsAll[15];
     5fc:	642a      	str	r2, [r5, #64]	; 0x40
	cmd2.LightSet[16] = PinsAll[16];
     5fe:	646b      	str	r3, [r5, #68]	; 0x44
	cmd2.PWMMaxPercent = 100;
     600:	f8c5 9054 	str.w	r9, [r5, #84]	; 0x54
	cmd2.PWMMinPercent = 0;
	cmd2.Repeat = "yes";
     604:	f001 fff4 	bl	25f0 <String::operator=(char const*)>
	cmd2.TimeTotal = 3 * 1000 * 1000; //3 seconds multiplied to get Milli then micro
     608:	e9c5 ab12 	strd	sl, fp, [r5, #72]	; 0x48
     60c:	e8bd 8ff8 	ldmia.w	sp!, {r3, r4, r5, r6, r7, r8, r9, sl, fp, pc}
     610:	00000000 	.word	0x00000000
     614:	4146e360 	.word	0x4146e360
     618:	1fff0744 	.word	0x1fff0744
     61c:	1fff06fc 	.word	0x1fff06fc
     620:	1fff1438 	.word	0x1fff1438
     624:	00004e74 	.word	0x00004e74
     628:	1fff14c0 	.word	0x1fff14c0
     62c:	1fff1068 	.word	0x1fff1068
     630:	1fff1208 	.word	0x1fff1208
     634:	ffffffff 	.word	0xffffffff

00000638 <loop>:
	
}

// the loop function runs over and over again until power down or reset
void loop() 
{
     638:	e92d 4f70 	stmdb	sp!, {r4, r5, r6, r8, r9, sl, fp, lr}
        virtual int read() { return usb_serial_getchar(); }
        virtual int peek() { return usb_serial_peekchar(); }
        virtual void flush() { usb_serial_flush_output(); }  // TODO: actually wait for data to leave USB...
        virtual void clear(void) { usb_serial_flush_input(); }
        virtual size_t write(uint8_t c) { return usb_serial_putchar(c); }
        virtual size_t write(const uint8_t *buffer, size_t size) { return usb_serial_write(buffer, size); }
     63c:	2105      	movs	r1, #5
     63e:	b0c4      	sub	sp, #272	; 0x110
     640:	486d      	ldr	r0, [pc, #436]	; (7f8 <L_600_delayMicroseconds+0x98>)
	
	Serial.println("Test ");
  Serial.println (x);
     642:	4e6e      	ldr	r6, [pc, #440]	; (7fc <L_600_delayMicroseconds+0x9c>)
int PinsBrakeAll[] = { 35,36,38,37,0 }; //brake only
int PinsFootwell[] = { 29,0 };//footwell
int PinsHella[] = { 2,5,6,0 };//hela
int PinsAll[17] = { 8,7,9,10,21,22,20,14,35,36,38,37,29,2,5,6,0 }; //all

class SequenceData //this is a data object to store instances of the command requests from the can bus
     644:	4c6e      	ldr	r4, [pc, #440]	; (800 <L_600_delayMicroseconds+0xa0>)
     646:	4d6f      	ldr	r5, [pc, #444]	; (804 <L_600_delayMicroseconds+0xa4>)
     648:	f001 fd00 	bl	204c <usb_serial_write>
	size_t print(double n, int digits = 2)		{ return printFloat(n, digits); }
	size_t print(const Printable &obj)		{ return obj.printTo(*this); }
	size_t println(void);
	size_t println(const String &s)			{ return print(s) + println(); }
	size_t println(char c)				{ return print(c) + println(); }
	size_t println(const char s[])			{ return print(s) + println(); }
     64c:	486e      	ldr	r0, [pc, #440]	; (808 <L_600_delayMicroseconds+0xa8>)
     64e:	f001 fe09 	bl	2264 <Print::println()>
	size_t print(char c)				{ return write((uint8_t)c); }
	size_t print(const char s[])			{ return write(s); }
	size_t print(const __FlashStringHelper *f)	{ return write((const char *)f); }

	size_t print(uint8_t b)				{ return printNumber(b, 10, 0); }
	size_t print(int n)				{ return print((long)n); }
     652:	6831      	ldr	r1, [r6, #0]
     654:	486c      	ldr	r0, [pc, #432]	; (808 <L_600_delayMicroseconds+0xa8>)
     656:	f001 fe55 	bl	2304 <Print::print(long)>
	size_t println(char c)				{ return print(c) + println(); }
	size_t println(const char s[])			{ return print(s) + println(); }
	size_t println(const __FlashStringHelper *f)	{ return print(f) + println(); }

	size_t println(uint8_t b)			{ return print(b) + println(); }
	size_t println(int n)				{ return print(n) + println(); }
     65a:	486b      	ldr	r0, [pc, #428]	; (808 <L_600_delayMicroseconds+0xa8>)
     65c:	f001 fe02 	bl	2264 <Print::println()>
     660:	4621      	mov	r1, r4
     662:	2244      	movs	r2, #68	; 0x44
     664:	f851 3b04 	ldr.w	r3, [r1], #4
     668:	9300      	str	r3, [sp, #0]
     66a:	a801      	add	r0, sp, #4
     66c:	f000 fb44 	bl	cf8 <memcpy>
     670:	e9d4 2312 	ldrd	r2, r3, [r4, #72]	; 0x48
     674:	6d21      	ldr	r1, [r4, #80]	; 0x50
     676:	9114      	str	r1, [sp, #80]	; 0x50
     678:	e9d4 ab18 	ldrd	sl, fp, [r4, #96]	; 0x60
     67c:	6d61      	ldr	r1, [r4, #84]	; 0x54
     67e:	9115      	str	r1, [sp, #84]	; 0x54
     680:	e9d4 891a 	ldrd	r8, r9, [r4, #104]	; 0x68
     684:	e9cd 2312 	strd	r2, r3, [sp, #72]	; 0x48
     688:	e9d4 231c 	ldrd	r2, r3, [r4, #112]	; 0x70
     68c:	6da1      	ldr	r1, [r4, #88]	; 0x58
     68e:	9116      	str	r1, [sp, #88]	; 0x58
     690:	a81e      	add	r0, sp, #120	; 0x78
     692:	f104 0178 	add.w	r1, r4, #120	; 0x78
     696:	e9cd 231c 	strd	r2, r3, [sp, #112]	; 0x70
     69a:	e9cd ab18 	strd	sl, fp, [sp, #96]	; 0x60
     69e:	e9cd 891a 	strd	r8, r9, [sp, #104]	; 0x68
     6a2:	f001 ff7f 	bl	25a4 <String::String(String const&)>
     6a6:	f04f 33ff 	mov.w	r3, #4294967295
     6aa:	2244      	movs	r2, #68	; 0x44
     6ac:	2100      	movs	r1, #0
     6ae:	a823      	add	r0, sp, #140	; 0x8c
     6b0:	2400      	movs	r4, #0
     6b2:	9322      	str	r3, [sp, #136]	; 0x88
     6b4:	f003 fd98 	bl	41e8 <memset>
     6b8:	2100      	movs	r1, #0
     6ba:	a840      	add	r0, sp, #256	; 0x100
     6bc:	e9cd 4534 	strd	r4, r5, [sp, #208]	; 0xd0
     6c0:	e9cd 453a 	strd	r4, r5, [sp, #232]	; 0xe8
     6c4:	e9cd 453c 	strd	r4, r5, [sp, #240]	; 0xf0
     6c8:	e9cd 453e 	strd	r4, r5, [sp, #248]	; 0xf8
     6cc:	f001 ff56 	bl	257c <String::String(char const*)>
	void RunSequence(SequenceData _sequencedata)
	{
	
		SequenceData Clean;
		//set the start time of the sequence this is used to determine how far into the sequence the software is on each loop
		if (_sequencedata.StartTime == -1)
     6d0:	4622      	mov	r2, r4
     6d2:	462b      	mov	r3, r5
     6d4:	e9dd 0118 	ldrd	r0, r1, [sp, #96]	; 0x60
     6d8:	f003 f968 	bl	39ac <__aeabi_dcmpeq>
     6dc:	2800      	cmp	r0, #0
     6de:	d17d      	bne.n	7dc <L_600_delayMicroseconds+0x7c>
		{
			_sequencedata.StartTime = micros();
			_sequencedata.TimeCount2 = _sequencedata.StartTime;
			
		}
		_sequencedata.TimeCount1 = micros();
     6e0:	f000 fc48 	bl	f74 <micros>
     6e4:	f002 fe84 	bl	33f0 <__aeabi_ui2d>
     6e8:	e9cd 011a 	strd	r0, r1, [sp, #104]	; 0x68
     6ec:	210c      	movs	r1, #12
     6ee:	4847      	ldr	r0, [pc, #284]	; (80c <L_600_delayMicroseconds+0xac>)
     6f0:	f001 fcac 	bl	204c <usb_serial_write>
	size_t print(double n, int digits = 2)		{ return printFloat(n, digits); }
	size_t print(const Printable &obj)		{ return obj.printTo(*this); }
	size_t println(void);
	size_t println(const String &s)			{ return print(s) + println(); }
	size_t println(char c)				{ return print(c) + println(); }
	size_t println(const char s[])			{ return print(s) + println(); }
     6f4:	4844      	ldr	r0, [pc, #272]	; (808 <L_600_delayMicroseconds+0xa8>)
     6f6:	f001 fdb5 	bl	2264 <Print::println()>
	size_t print(int n, int base)			{ return (base == 10) ? print(n) : printNumber(n, base, 0); }
	size_t print(unsigned int n, int base)		{ return printNumber(n, base, 0); }
	size_t print(long n, int base)			{ return (base == 10) ? print(n) : printNumber(n, base, 0); }
	size_t print(unsigned long n, int base)		{ return printNumber(n, base, 0); }

	size_t print(double n, int digits = 2)		{ return printFloat(n, digits); }
     6fa:	2102      	movs	r1, #2
     6fc:	ed9d 0b1a 	vldr	d0, [sp, #104]	; 0x68
     700:	4841      	ldr	r0, [pc, #260]	; (808 <L_600_delayMicroseconds+0xa8>)
     702:	f001 fe09 	bl	2318 <Print::printFloat(double, unsigned char)>
    Serial.println("TimeCount1= ");
    Serial.print(_sequencedata.TimeCount1);

		//when 10 milliseconds or more has passed update the pwm value being written to the pins
		if ((_sequencedata.TimeCount1 - _sequencedata.TimeCount2) >= 10000)
     706:	e9dd 451a 	ldrd	r4, r5, [sp, #104]	; 0x68
     70a:	e9dd 231c 	ldrd	r2, r3, [sp, #112]	; 0x70
     70e:	4620      	mov	r0, r4
     710:	4629      	mov	r1, r5
     712:	f002 fd2f 	bl	3174 <__aeabi_dsub>
     716:	a336      	add	r3, pc, #216	; (adr r3, 7f0 <L_600_delayMicroseconds+0x90>)
     718:	e9d3 2300 	ldrd	r2, r3, [r3]
     71c:	f003 f964 	bl	39e8 <__aeabi_dcmpge>
     720:	2800      	cmp	r0, #0
     722:	d149      	bne.n	7b8 <L_600_delayMicroseconds+0x58>
			Serial.println("TimeCount2 = ");
      Serial.print(_sequencedata.TimeCount2);
		}

		//when the sequence is completed replace the cmd values with the default
		if (((_sequencedata.TimeCount1 - _sequencedata.StartTime) >= _sequencedata.TimeTotal)&_sequencedata.Repeat=="No")
     724:	e9dd 2318 	ldrd	r2, r3, [sp, #96]	; 0x60
     728:	4620      	mov	r0, r4
     72a:	4629      	mov	r1, r5
     72c:	f002 fd22 	bl	3174 <__aeabi_dsub>
     730:	e9dd 2312 	ldrd	r2, r3, [sp, #72]	; 0x48
     734:	f003 f958 	bl	39e8 <__aeabi_dcmpge>
	int compareTo(const String &s) const;
	unsigned char equals(const String &s) const;
	unsigned char equals(const char *cstr) const;
	//unsigned char equals(const __FlashStringHelper *pgmstr) const;
	unsigned char operator == (const String &rhs) const {return equals(rhs);}
	unsigned char operator == (const char *cstr) const {return equals(cstr);}
     738:	4935      	ldr	r1, [pc, #212]	; (810 <L_600_delayMicroseconds+0xb0>)
     73a:	1c04      	adds	r4, r0, #0
     73c:	a81e      	add	r0, sp, #120	; 0x78
     73e:	bf18      	it	ne
     740:	2401      	movne	r4, #1
     742:	f001 ff5f 	bl	2604 <String::equals(char const*) const>
     746:	4220      	tst	r0, r4
     748:	d10f      	bne.n	76a <L_600_delayMicroseconds+0xa>
int PinsBrakeAll[] = { 35,36,38,37,0 }; //brake only
int PinsFootwell[] = { 29,0 };//footwell
int PinsHella[] = { 2,5,6,0 };//hela
int PinsAll[17] = { 8,7,9,10,21,22,20,14,35,36,38,37,29,2,5,6,0 }; //all

class SequenceData //this is a data object to store instances of the command requests from the can bus
     74a:	a840      	add	r0, sp, #256	; 0x100
     74c:	f001 fed6 	bl	24fc <String::~String()>
     750:	a81e      	add	r0, sp, #120	; 0x78
     752:	f001 fed3 	bl	24fc <String::~String()>
	
	Serial.println("Test ");
  Serial.println (x);

	SF1.RunSequence(cmd1);
	x++;
     756:	6832      	ldr	r2, [r6, #0]
     758:	3201      	adds	r2, #1
#else
		"subs   %0, #1"				"\n\t"
		"bne    L_%=_delayMicroseconds"		"\n"
		: "+r" (n) :
#endif
	);
     75a:	f649 4340 	movw	r3, #40000	; 0x9c40
     75e:	6032      	str	r2, [r6, #0]

00000760 <L_600_delayMicroseconds>:
     760:	3b01      	subs	r3, #1
     762:	d1fd      	bne.n	760 <L_600_delayMicroseconds>
	delayMicroseconds(1000);
}
     764:	b044      	add	sp, #272	; 0x110
     766:	e8bd 8f70 	ldmia.w	sp!, {r4, r5, r6, r8, r9, sl, fp, pc}
int PinsBrakeAll[] = { 35,36,38,37,0 }; //brake only
int PinsFootwell[] = { 29,0 };//footwell
int PinsHella[] = { 2,5,6,0 };//hela
int PinsAll[17] = { 8,7,9,10,21,22,20,14,35,36,38,37,29,2,5,6,0 }; //all

class SequenceData //this is a data object to store instances of the command requests from the can bus
     76a:	aa44      	add	r2, sp, #272	; 0x110
     76c:	ab01      	add	r3, sp, #4
     76e:	f852 1d88 	ldr.w	r1, [r2, #-136]!
     772:	9100      	str	r1, [sp, #0]
     774:	a812      	add	r0, sp, #72	; 0x48
     776:	f852 1f04 	ldr.w	r1, [r2, #4]!
     77a:	f843 1b04 	str.w	r1, [r3], #4
     77e:	4283      	cmp	r3, r0
     780:	d1f9      	bne.n	776 <L_600_delayMicroseconds+0x16>
     782:	e9dd 2334 	ldrd	r2, r3, [sp, #208]	; 0xd0
     786:	e9cd 2312 	strd	r2, r3, [sp, #72]	; 0x48
     78a:	e9dd 233c 	ldrd	r2, r3, [sp, #240]	; 0xf0
     78e:	e9dd 013a 	ldrd	r0, r1, [sp, #232]	; 0xe8
     792:	e9dd 453e 	ldrd	r4, r5, [sp, #248]	; 0xf8
     796:	e9cd 231a 	strd	r2, r3, [sp, #104]	; 0x68
     79a:	9b36      	ldr	r3, [sp, #216]	; 0xd8
     79c:	9a37      	ldr	r2, [sp, #220]	; 0xdc
     79e:	9314      	str	r3, [sp, #80]	; 0x50
     7a0:	e9cd 0118 	strd	r0, r1, [sp, #96]	; 0x60
     7a4:	9b38      	ldr	r3, [sp, #224]	; 0xe0
     7a6:	9215      	str	r2, [sp, #84]	; 0x54
     7a8:	a940      	add	r1, sp, #256	; 0x100
     7aa:	a81e      	add	r0, sp, #120	; 0x78
     7ac:	e9cd 451c 	strd	r4, r5, [sp, #112]	; 0x70
     7b0:	9316      	str	r3, [sp, #88]	; 0x58
     7b2:	f001 ff15 	bl	25e0 <String::operator=(String const&)>
     7b6:	e7c8      	b.n	74a <loop+0x112>
     7b8:	210d      	movs	r1, #13
     7ba:	4816      	ldr	r0, [pc, #88]	; (814 <L_600_delayMicroseconds+0xb4>)
    Serial.print(_sequencedata.TimeCount1);

		//when 10 milliseconds or more has passed update the pwm value being written to the pins
		if ((_sequencedata.TimeCount1 - _sequencedata.TimeCount2) >= 10000)
		{
			_sequencedata.TimeCount2 = _sequencedata.TimeCount1;//as 10millisecons has passed store the time stamp
     7bc:	e9cd 451c 	strd	r4, r5, [sp, #112]	; 0x70
     7c0:	f001 fc44 	bl	204c <usb_serial_write>
	size_t print(const Printable &obj)		{ return obj.printTo(*this); }
	size_t println(void);
	size_t println(const String &s)			{ return print(s) + println(); }
	size_t println(char c)				{ return print(c) + println(); }
	size_t println(const char s[])			{ return print(s) + println(); }
     7c4:	4810      	ldr	r0, [pc, #64]	; (808 <L_600_delayMicroseconds+0xa8>)
     7c6:	f001 fd4d 	bl	2264 <Print::println()>
	size_t print(int n, int base)			{ return (base == 10) ? print(n) : printNumber(n, base, 0); }
	size_t print(unsigned int n, int base)		{ return printNumber(n, base, 0); }
	size_t print(long n, int base)			{ return (base == 10) ? print(n) : printNumber(n, base, 0); }
	size_t print(unsigned long n, int base)		{ return printNumber(n, base, 0); }

	size_t print(double n, int digits = 2)		{ return printFloat(n, digits); }
     7ca:	2102      	movs	r1, #2
     7cc:	ed9d 0b1c 	vldr	d0, [sp, #112]	; 0x70
     7d0:	480d      	ldr	r0, [pc, #52]	; (808 <L_600_delayMicroseconds+0xa8>)
     7d2:	f001 fda1 	bl	2318 <Print::printFloat(double, unsigned char)>
     7d6:	e9dd 451a 	ldrd	r4, r5, [sp, #104]	; 0x68
     7da:	e7a3      	b.n	724 <loop+0xec>
	
		SequenceData Clean;
		//set the start time of the sequence this is used to determine how far into the sequence the software is on each loop
		if (_sequencedata.StartTime == -1)
		{
			_sequencedata.StartTime = micros();
     7dc:	f000 fbca 	bl	f74 <micros>
     7e0:	f002 fe06 	bl	33f0 <__aeabi_ui2d>
     7e4:	e9cd 0118 	strd	r0, r1, [sp, #96]	; 0x60
			_sequencedata.TimeCount2 = _sequencedata.StartTime;
     7e8:	e9cd 011c 	strd	r0, r1, [sp, #112]	; 0x70
     7ec:	e778      	b.n	6e0 <loop+0xa8>
     7ee:	bf00      	nop
     7f0:	00000000 	.word	0x00000000
     7f4:	40c38800 	.word	0x40c38800
     7f8:	00004e78 	.word	0x00004e78
     7fc:	1fff0740 	.word	0x1fff0740
     800:	1fff1438 	.word	0x1fff1438
     804:	bff00000 	.word	0xbff00000
     808:	1fff074c 	.word	0x1fff074c
     80c:	00004e80 	.word	0x00004e80
     810:	00004ea0 	.word	0x00004ea0
     814:	00004e90 	.word	0x00004e90

00000818 <_GLOBAL__sub_I_PWMNumberOfBits>:
  Serial.println (x);

	SF1.RunSequence(cmd1);
	x++;
	delayMicroseconds(1000);
}
     818:	e92d 43f8 	stmdb	sp!, {r3, r4, r5, r6, r7, r8, r9, lr}

//set up data objects

//set up variables
int PWMNumberOfBits = 6;
int PWMValMax = (2 ^ PWMNumberOfBits);
     81c:	4b4f      	ldr	r3, [pc, #316]	; (95c <_GLOBAL__sub_I_PWMNumberOfBits+0x144>)

SequenceFunctions SF1;

//set up command data sets
//It is possible to control each individual light with 16 commands
SequenceData cmd1;
     81e:	f8df 9174 	ldr.w	r9, [pc, #372]	; 994 <_GLOBAL__sub_I_PWMNumberOfBits+0x17c>

//set up data objects

//set up variables
int PWMNumberOfBits = 6;
int PWMValMax = (2 ^ PWMNumberOfBits);
     822:	681b      	ldr	r3, [r3, #0]

SequenceFunctions SF1;

//set up command data sets
//It is possible to control each individual light with 16 commands
SequenceData cmd1;
     824:	4d4e      	ldr	r5, [pc, #312]	; (960 <_GLOBAL__sub_I_PWMNumberOfBits+0x148>)
     826:	4c4f      	ldr	r4, [pc, #316]	; (964 <_GLOBAL__sub_I_PWMNumberOfBits+0x14c>)

//set up data objects

//set up variables
int PWMNumberOfBits = 6;
int PWMValMax = (2 ^ PWMNumberOfBits);
     828:	4a4f      	ldr	r2, [pc, #316]	; (968 <_GLOBAL__sub_I_PWMNumberOfBits+0x150>)
SequenceFunctions SF1;

//set up command data sets
//It is possible to control each individual light with 16 commands
SequenceData cmd1;
SequenceData cmd2;
     82a:	4f50      	ldr	r7, [pc, #320]	; (96c <_GLOBAL__sub_I_PWMNumberOfBits+0x154>)
SequenceData cmd3;
     82c:	4e50      	ldr	r6, [pc, #320]	; (970 <_GLOBAL__sub_I_PWMNumberOfBits+0x158>)
SequenceData cmd4;
     82e:	f8df 8168 	ldr.w	r8, [pc, #360]	; 998 <_GLOBAL__sub_I_PWMNumberOfBits+0x180>

//set up data objects

//set up variables
int PWMNumberOfBits = 6;
int PWMValMax = (2 ^ PWMNumberOfBits);
     832:	f083 0302 	eor.w	r3, r3, #2

SequenceFunctions SF1;

//set up command data sets
//It is possible to control each individual light with 16 commands
SequenceData cmd1;
     836:	4648      	mov	r0, r9

//set up data objects

//set up variables
int PWMNumberOfBits = 6;
int PWMValMax = (2 ^ PWMNumberOfBits);
     838:	6013      	str	r3, [r2, #0]

SequenceFunctions SF1;

//set up command data sets
//It is possible to control each individual light with 16 commands
SequenceData cmd1;
     83a:	f7ff fe1f 	bl	47c <SequenceData::SequenceData()>
     83e:	462a      	mov	r2, r5
     840:	4621      	mov	r1, r4
     842:	4648      	mov	r0, r9
     844:	f003 f96a 	bl	3b1c <__aeabi_atexit>
SequenceData cmd2;
     848:	4638      	mov	r0, r7
     84a:	f7ff fe17 	bl	47c <SequenceData::SequenceData()>
     84e:	462a      	mov	r2, r5
     850:	4621      	mov	r1, r4
     852:	4638      	mov	r0, r7
     854:	f003 f962 	bl	3b1c <__aeabi_atexit>
SequenceData cmd3;
     858:	4630      	mov	r0, r6
     85a:	f7ff fe0f 	bl	47c <SequenceData::SequenceData()>
     85e:	462a      	mov	r2, r5
     860:	4621      	mov	r1, r4
     862:	4630      	mov	r0, r6
     864:	f003 f95a 	bl	3b1c <__aeabi_atexit>
SequenceData cmd4;
SequenceData cmd5;
     868:	4f42      	ldr	r7, [pc, #264]	; (974 <_GLOBAL__sub_I_PWMNumberOfBits+0x15c>)
SequenceData cmd6;
     86a:	4e43      	ldr	r6, [pc, #268]	; (978 <_GLOBAL__sub_I_PWMNumberOfBits+0x160>)
SequenceData cmd7;
     86c:	f8df 912c 	ldr.w	r9, [pc, #300]	; 99c <_GLOBAL__sub_I_PWMNumberOfBits+0x184>
//set up command data sets
//It is possible to control each individual light with 16 commands
SequenceData cmd1;
SequenceData cmd2;
SequenceData cmd3;
SequenceData cmd4;
     870:	4640      	mov	r0, r8
     872:	f7ff fe03 	bl	47c <SequenceData::SequenceData()>
     876:	462a      	mov	r2, r5
     878:	4621      	mov	r1, r4
     87a:	4640      	mov	r0, r8
     87c:	f003 f94e 	bl	3b1c <__aeabi_atexit>
SequenceData cmd5;
     880:	4638      	mov	r0, r7
     882:	f7ff fdfb 	bl	47c <SequenceData::SequenceData()>
     886:	462a      	mov	r2, r5
     888:	4621      	mov	r1, r4
     88a:	4638      	mov	r0, r7
     88c:	f003 f946 	bl	3b1c <__aeabi_atexit>
SequenceData cmd6;
     890:	4630      	mov	r0, r6
     892:	f7ff fdf3 	bl	47c <SequenceData::SequenceData()>
     896:	462a      	mov	r2, r5
     898:	4621      	mov	r1, r4
     89a:	4630      	mov	r0, r6
     89c:	f003 f93e 	bl	3b1c <__aeabi_atexit>
SequenceData cmd7;
SequenceData cmd8;
     8a0:	4f36      	ldr	r7, [pc, #216]	; (97c <_GLOBAL__sub_I_PWMNumberOfBits+0x164>)
SequenceData cmd9;
     8a2:	4e37      	ldr	r6, [pc, #220]	; (980 <_GLOBAL__sub_I_PWMNumberOfBits+0x168>)
SequenceData cmd10;
     8a4:	f8df 80f8 	ldr.w	r8, [pc, #248]	; 9a0 <_GLOBAL__sub_I_PWMNumberOfBits+0x188>
SequenceData cmd2;
SequenceData cmd3;
SequenceData cmd4;
SequenceData cmd5;
SequenceData cmd6;
SequenceData cmd7;
     8a8:	4648      	mov	r0, r9
     8aa:	f7ff fde7 	bl	47c <SequenceData::SequenceData()>
     8ae:	462a      	mov	r2, r5
     8b0:	4621      	mov	r1, r4
     8b2:	4648      	mov	r0, r9
     8b4:	f003 f932 	bl	3b1c <__aeabi_atexit>
SequenceData cmd8;
     8b8:	4638      	mov	r0, r7
     8ba:	f7ff fddf 	bl	47c <SequenceData::SequenceData()>
     8be:	462a      	mov	r2, r5
     8c0:	4621      	mov	r1, r4
     8c2:	4638      	mov	r0, r7
     8c4:	f003 f92a 	bl	3b1c <__aeabi_atexit>
SequenceData cmd9;
     8c8:	4630      	mov	r0, r6
     8ca:	f7ff fdd7 	bl	47c <SequenceData::SequenceData()>
     8ce:	462a      	mov	r2, r5
     8d0:	4621      	mov	r1, r4
     8d2:	4630      	mov	r0, r6
     8d4:	f003 f922 	bl	3b1c <__aeabi_atexit>
SequenceData cmd10;
SequenceData cmd11;
     8d8:	4f2a      	ldr	r7, [pc, #168]	; (984 <_GLOBAL__sub_I_PWMNumberOfBits+0x16c>)
SequenceData cmd12;
     8da:	4e2b      	ldr	r6, [pc, #172]	; (988 <_GLOBAL__sub_I_PWMNumberOfBits+0x170>)
SequenceData cmd13;
     8dc:	f8df 90c4 	ldr.w	r9, [pc, #196]	; 9a4 <_GLOBAL__sub_I_PWMNumberOfBits+0x18c>
SequenceData cmd5;
SequenceData cmd6;
SequenceData cmd7;
SequenceData cmd8;
SequenceData cmd9;
SequenceData cmd10;
     8e0:	4640      	mov	r0, r8
     8e2:	f7ff fdcb 	bl	47c <SequenceData::SequenceData()>
     8e6:	462a      	mov	r2, r5
     8e8:	4621      	mov	r1, r4
     8ea:	4640      	mov	r0, r8
     8ec:	f003 f916 	bl	3b1c <__aeabi_atexit>
SequenceData cmd11;
     8f0:	4638      	mov	r0, r7
     8f2:	f7ff fdc3 	bl	47c <SequenceData::SequenceData()>
     8f6:	462a      	mov	r2, r5
     8f8:	4621      	mov	r1, r4
     8fa:	4638      	mov	r0, r7
     8fc:	f003 f90e 	bl	3b1c <__aeabi_atexit>
SequenceData cmd12;
     900:	4630      	mov	r0, r6
     902:	f7ff fdbb 	bl	47c <SequenceData::SequenceData()>
     906:	462a      	mov	r2, r5
     908:	4621      	mov	r1, r4
     90a:	4630      	mov	r0, r6
     90c:	f003 f906 	bl	3b1c <__aeabi_atexit>
SequenceData cmd13;
SequenceData cmd14;
     910:	f8df 8094 	ldr.w	r8, [pc, #148]	; 9a8 <_GLOBAL__sub_I_PWMNumberOfBits+0x190>
SequenceData cmd15;
     914:	4f1d      	ldr	r7, [pc, #116]	; (98c <_GLOBAL__sub_I_PWMNumberOfBits+0x174>)
SequenceData cmd16;
     916:	4e1e      	ldr	r6, [pc, #120]	; (990 <_GLOBAL__sub_I_PWMNumberOfBits+0x178>)
SequenceData cmd8;
SequenceData cmd9;
SequenceData cmd10;
SequenceData cmd11;
SequenceData cmd12;
SequenceData cmd13;
     918:	4648      	mov	r0, r9
     91a:	f7ff fdaf 	bl	47c <SequenceData::SequenceData()>
     91e:	462a      	mov	r2, r5
     920:	4621      	mov	r1, r4
     922:	4648      	mov	r0, r9
     924:	f003 f8fa 	bl	3b1c <__aeabi_atexit>
SequenceData cmd14;
     928:	4640      	mov	r0, r8
     92a:	f7ff fda7 	bl	47c <SequenceData::SequenceData()>
     92e:	462a      	mov	r2, r5
     930:	4621      	mov	r1, r4
     932:	4640      	mov	r0, r8
     934:	f003 f8f2 	bl	3b1c <__aeabi_atexit>
SequenceData cmd15;
     938:	4638      	mov	r0, r7
     93a:	f7ff fd9f 	bl	47c <SequenceData::SequenceData()>
     93e:	462a      	mov	r2, r5
     940:	4621      	mov	r1, r4
     942:	4638      	mov	r0, r7
     944:	f003 f8ea 	bl	3b1c <__aeabi_atexit>
SequenceData cmd16;
     948:	4630      	mov	r0, r6
     94a:	f7ff fd97 	bl	47c <SequenceData::SequenceData()>
     94e:	462a      	mov	r2, r5
     950:	4621      	mov	r1, r4
     952:	4630      	mov	r0, r6
  Serial.println (x);

	SF1.RunSequence(cmd1);
	x++;
	delayMicroseconds(1000);
}
     954:	e8bd 43f8 	ldmia.w	sp!, {r3, r4, r5, r6, r7, r8, r9, lr}
SequenceData cmd11;
SequenceData cmd12;
SequenceData cmd13;
SequenceData cmd14;
SequenceData cmd15;
SequenceData cmd16;
     958:	f003 b8e0 	b.w	3b1c <__aeabi_atexit>
     95c:	1fff0744 	.word	0x1fff0744
     960:	1fff06f8 	.word	0x1fff06f8
     964:	0000046d 	.word	0x0000046d
     968:	1fff13a8 	.word	0x1fff13a8
     96c:	1fff14c0 	.word	0x1fff14c0
     970:	1fff10f8 	.word	0x1fff10f8
     974:	1fff1658 	.word	0x1fff1658
     978:	1fff16e0 	.word	0x1fff16e0
     97c:	1fff1180 	.word	0x1fff1180
     980:	1fff1878 	.word	0x1fff1878
     984:	1fff1548 	.word	0x1fff1548
     988:	1fff1298 	.word	0x1fff1298
     98c:	1fff13b0 	.word	0x1fff13b0
     990:	1fff17f0 	.word	0x1fff17f0
     994:	1fff1438 	.word	0x1fff1438
     998:	1fff15d0 	.word	0x1fff15d0
     99c:	1fff1768 	.word	0x1fff1768
     9a0:	1fff1210 	.word	0x1fff1210
     9a4:	1fff1070 	.word	0x1fff1070
     9a8:	1fff1320 	.word	0x1fff1320

000009ac <CANListener::gotFrame(CAN_message_t&, int)>:
    callbacksActive = 0; //none. Bitfield were bits 0-15 are the mailboxes and bit 31 is the general callback
}

//an empty version so that the linker doesn't complain that no implementation exists.
void CANListener::gotFrame(CAN_message_t &frame, int mailbox)
{
     9ac:	4770      	bx	lr
     9ae:	bf00      	nop

000009b0 <FlexCAN::writeTxRegisters(CAN_message_t const&, unsigned char)>:

  return 0; //could not send the frame!
}

void FlexCAN::writeTxRegisters(const CAN_message_t &msg, uint8_t buffer)
{
     9b0:	b4f0      	push	{r4, r5, r6, r7}
  // transmit the frame
  FLEXCANb_MBn_CS(flexcanBase, buffer) = FLEXCAN_MB_CS_CODE(FLEXCAN_MB_CODE_TX_INACTIVE);
     9b2:	6804      	ldr	r4, [r0, #0]
     9b4:	2310      	movs	r3, #16
     9b6:	3480      	adds	r4, #128	; 0x80
     9b8:	fb13 4402 	smlabb	r4, r3, r2, r4
     9bc:	f04f 6500 	mov.w	r5, #134217728	; 0x8000000
     9c0:	6025      	str	r5, [r4, #0]
  if(msg.ext) {
     9c2:	790c      	ldrb	r4, [r1, #4]
     9c4:	2c00      	cmp	r4, #0
     9c6:	d036      	beq.n	a36 <FlexCAN::writeTxRegisters(CAN_message_t const&, unsigned char)+0x86>
    FLEXCANb_MBn_ID(flexcanBase, buffer) = (msg.id & FLEXCAN_MB_ID_EXT_MASK);
     9c8:	6804      	ldr	r4, [r0, #0]
     9ca:	680d      	ldr	r5, [r1, #0]
     9cc:	3484      	adds	r4, #132	; 0x84
     9ce:	fb13 4402 	smlabb	r4, r3, r2, r4
     9d2:	f025 4560 	bic.w	r5, r5, #3758096384	; 0xe0000000
     9d6:	6025      	str	r5, [r4, #0]
  } else {
    FLEXCANb_MBn_ID(flexcanBase, buffer) = FLEXCAN_MB_ID_IDSTD(msg.id);
  }
  FLEXCANb_MBn_WORD0(flexcanBase, buffer) = (msg.buf[0]<<24)|(msg.buf[1]<<16)|(msg.buf[2]<<8)|msg.buf[3];
     9d8:	7acd      	ldrb	r5, [r1, #11]
     9da:	7a8f      	ldrb	r7, [r1, #10]
     9dc:	6804      	ldr	r4, [r0, #0]
     9de:	7b4e      	ldrb	r6, [r1, #13]
     9e0:	042d      	lsls	r5, r5, #16
     9e2:	ea45 6507 	orr.w	r5, r5, r7, lsl #24
     9e6:	3488      	adds	r4, #136	; 0x88
     9e8:	7b0f      	ldrb	r7, [r1, #12]
     9ea:	4335      	orrs	r5, r6
     9ec:	fb13 4402 	smlabb	r4, r3, r2, r4
     9f0:	ea45 2507 	orr.w	r5, r5, r7, lsl #8
     9f4:	6025      	str	r5, [r4, #0]
  FLEXCANb_MBn_WORD1(flexcanBase, buffer) = (msg.buf[4]<<24)|(msg.buf[5]<<16)|(msg.buf[6]<<8)|msg.buf[7];
     9f6:	7bcd      	ldrb	r5, [r1, #15]
     9f8:	7b8f      	ldrb	r7, [r1, #14]
     9fa:	6804      	ldr	r4, [r0, #0]
     9fc:	7c4e      	ldrb	r6, [r1, #17]
     9fe:	042d      	lsls	r5, r5, #16
     a00:	ea45 6507 	orr.w	r5, r5, r7, lsl #24
     a04:	348c      	adds	r4, #140	; 0x8c
     a06:	7c0f      	ldrb	r7, [r1, #16]
     a08:	fb13 4402 	smlabb	r4, r3, r2, r4
     a0c:	4335      	orrs	r5, r6
     a0e:	ea45 2507 	orr.w	r5, r5, r7, lsl #8
     a12:	6025      	str	r5, [r4, #0]

  if(msg.ext) {
     a14:	790c      	ldrb	r4, [r1, #4]
     a16:	b1c4      	cbz	r4, a4a <FlexCAN::writeTxRegisters(CAN_message_t const&, unsigned char)+0x9a>
    if(msg.rtr) {
     a18:	794c      	ldrb	r4, [r1, #5]
        FLEXCANb_MBn_CS(flexcanBase, buffer) = FLEXCAN_MB_CS_CODE(FLEXCAN_MB_CODE_TX_ONCE)
                                         | FLEXCAN_MB_CS_LENGTH(msg.len) | FLEXCAN_MB_CS_SRR | FLEXCAN_MB_CS_IDE | FLEXCAN_MB_CS_RTR;
     a1a:	6800      	ldr	r0, [r0, #0]
     a1c:	7989      	ldrb	r1, [r1, #6]
     a1e:	3080      	adds	r0, #128	; 0x80
     a20:	0409      	lsls	r1, r1, #16
     a22:	f401 2170 	and.w	r1, r1, #983040	; 0xf0000
     a26:	fb13 0302 	smlabb	r3, r3, r2, r0
  }
  FLEXCANb_MBn_WORD0(flexcanBase, buffer) = (msg.buf[0]<<24)|(msg.buf[1]<<16)|(msg.buf[2]<<8)|msg.buf[3];
  FLEXCANb_MBn_WORD1(flexcanBase, buffer) = (msg.buf[4]<<24)|(msg.buf[5]<<16)|(msg.buf[6]<<8)|msg.buf[7];

  if(msg.ext) {
    if(msg.rtr) {
     a2a:	b1ec      	cbz	r4, a68 <FlexCAN::writeTxRegisters(CAN_message_t const&, unsigned char)+0xb8>
        FLEXCANb_MBn_CS(flexcanBase, buffer) = FLEXCAN_MB_CS_CODE(FLEXCAN_MB_CODE_TX_ONCE)
                                         | FLEXCAN_MB_CS_LENGTH(msg.len) | FLEXCAN_MB_CS_SRR | FLEXCAN_MB_CS_IDE | FLEXCAN_MB_CS_RTR;
     a2c:	f041 6147 	orr.w	r1, r1, #208666624	; 0xc700000
     a30:	6019      	str	r1, [r3, #0]
    } else {
        FLEXCANb_MBn_CS(flexcanBase, buffer) = FLEXCAN_MB_CS_CODE(FLEXCAN_MB_CODE_TX_ONCE)
                                         | FLEXCAN_MB_CS_LENGTH(msg.len);
    }
  }    
}
     a32:	bcf0      	pop	{r4, r5, r6, r7}
     a34:	4770      	bx	lr
  // transmit the frame
  FLEXCANb_MBn_CS(flexcanBase, buffer) = FLEXCAN_MB_CS_CODE(FLEXCAN_MB_CODE_TX_INACTIVE);
  if(msg.ext) {
    FLEXCANb_MBn_ID(flexcanBase, buffer) = (msg.id & FLEXCAN_MB_ID_EXT_MASK);
  } else {
    FLEXCANb_MBn_ID(flexcanBase, buffer) = FLEXCAN_MB_ID_IDSTD(msg.id);
     a36:	6804      	ldr	r4, [r0, #0]
     a38:	680d      	ldr	r5, [r1, #0]
     a3a:	4e10      	ldr	r6, [pc, #64]	; (a7c <FlexCAN::writeTxRegisters(CAN_message_t const&, unsigned char)+0xcc>)
     a3c:	3484      	adds	r4, #132	; 0x84
     a3e:	fb13 4402 	smlabb	r4, r3, r2, r4
     a42:	04ad      	lsls	r5, r5, #18
     a44:	402e      	ands	r6, r5
     a46:	6026      	str	r6, [r4, #0]
     a48:	e7c6      	b.n	9d8 <FlexCAN::writeTxRegisters(CAN_message_t const&, unsigned char)+0x28>
    } else {
        FLEXCANb_MBn_CS(flexcanBase, buffer) = FLEXCAN_MB_CS_CODE(FLEXCAN_MB_CODE_TX_ONCE)
                                         | FLEXCAN_MB_CS_LENGTH(msg.len) | FLEXCAN_MB_CS_SRR | FLEXCAN_MB_CS_IDE;
    }
  } else {
    if(msg.rtr) {
     a4a:	794c      	ldrb	r4, [r1, #5]
        FLEXCANb_MBn_CS(flexcanBase, buffer) = FLEXCAN_MB_CS_CODE(FLEXCAN_MB_CODE_TX_ONCE)
                                         | FLEXCAN_MB_CS_LENGTH(msg.len) | FLEXCAN_MB_CS_RTR;
     a4c:	6800      	ldr	r0, [r0, #0]
     a4e:	7989      	ldrb	r1, [r1, #6]
     a50:	3080      	adds	r0, #128	; 0x80
     a52:	0409      	lsls	r1, r1, #16
     a54:	f401 2170 	and.w	r1, r1, #983040	; 0xf0000
     a58:	fb13 0302 	smlabb	r3, r3, r2, r0
    } else {
        FLEXCANb_MBn_CS(flexcanBase, buffer) = FLEXCAN_MB_CS_CODE(FLEXCAN_MB_CODE_TX_ONCE)
                                         | FLEXCAN_MB_CS_LENGTH(msg.len) | FLEXCAN_MB_CS_SRR | FLEXCAN_MB_CS_IDE;
    }
  } else {
    if(msg.rtr) {
     a5c:	b94c      	cbnz	r4, a72 <FlexCAN::writeTxRegisters(CAN_message_t const&, unsigned char)+0xc2>
        FLEXCANb_MBn_CS(flexcanBase, buffer) = FLEXCAN_MB_CS_CODE(FLEXCAN_MB_CODE_TX_ONCE)
                                         | FLEXCAN_MB_CS_LENGTH(msg.len) | FLEXCAN_MB_CS_RTR;
    } else {
        FLEXCANb_MBn_CS(flexcanBase, buffer) = FLEXCAN_MB_CS_CODE(FLEXCAN_MB_CODE_TX_ONCE)
                                         | FLEXCAN_MB_CS_LENGTH(msg.len);
     a5e:	f041 6240 	orr.w	r2, r1, #201326592	; 0xc000000
     a62:	601a      	str	r2, [r3, #0]
    }
  }    
}
     a64:	bcf0      	pop	{r4, r5, r6, r7}
     a66:	4770      	bx	lr
    if(msg.rtr) {
        FLEXCANb_MBn_CS(flexcanBase, buffer) = FLEXCAN_MB_CS_CODE(FLEXCAN_MB_CODE_TX_ONCE)
                                         | FLEXCAN_MB_CS_LENGTH(msg.len) | FLEXCAN_MB_CS_SRR | FLEXCAN_MB_CS_IDE | FLEXCAN_MB_CS_RTR;
    } else {
        FLEXCANb_MBn_CS(flexcanBase, buffer) = FLEXCAN_MB_CS_CODE(FLEXCAN_MB_CODE_TX_ONCE)
                                         | FLEXCAN_MB_CS_LENGTH(msg.len) | FLEXCAN_MB_CS_SRR | FLEXCAN_MB_CS_IDE;
     a68:	f041 6146 	orr.w	r1, r1, #207618048	; 0xc600000
     a6c:	6019      	str	r1, [r3, #0]
    } else {
        FLEXCANb_MBn_CS(flexcanBase, buffer) = FLEXCAN_MB_CS_CODE(FLEXCAN_MB_CODE_TX_ONCE)
                                         | FLEXCAN_MB_CS_LENGTH(msg.len);
    }
  }    
}
     a6e:	bcf0      	pop	{r4, r5, r6, r7}
     a70:	4770      	bx	lr
                                         | FLEXCAN_MB_CS_LENGTH(msg.len) | FLEXCAN_MB_CS_SRR | FLEXCAN_MB_CS_IDE;
    }
  } else {
    if(msg.rtr) {
        FLEXCANb_MBn_CS(flexcanBase, buffer) = FLEXCAN_MB_CS_CODE(FLEXCAN_MB_CODE_TX_ONCE)
                                         | FLEXCAN_MB_CS_LENGTH(msg.len) | FLEXCAN_MB_CS_RTR;
     a72:	f041 6141 	orr.w	r1, r1, #202375168	; 0xc100000
     a76:	6019      	str	r1, [r3, #0]
    } else {
        FLEXCANb_MBn_CS(flexcanBase, buffer) = FLEXCAN_MB_CS_CODE(FLEXCAN_MB_CODE_TX_ONCE)
                                         | FLEXCAN_MB_CS_LENGTH(msg.len);
    }
  }    
}
     a78:	bcf0      	pop	{r4, r5, r6, r7}
     a7a:	4770      	bx	lr
     a7c:	1ffc0000 	.word	0x1ffc0000

00000a80 <FlexCAN::readRxRegisters(CAN_message_t&, unsigned char)>:

void FlexCAN::readRxRegisters(CAN_message_t& msg, uint8_t buffer)
{
  // get identifier and dlc
  msg.len = FLEXCAN_get_length(FLEXCANb_MBn_CS(flexcanBase, buffer));
     a80:	6803      	ldr	r3, [r0, #0]
    }
  }    
}

void FlexCAN::readRxRegisters(CAN_message_t& msg, uint8_t buffer)
{
     a82:	b4f0      	push	{r4, r5, r6, r7}
  // get identifier and dlc
  msg.len = FLEXCAN_get_length(FLEXCANb_MBn_CS(flexcanBase, buffer));
     a84:	3380      	adds	r3, #128	; 0x80
     a86:	2510      	movs	r5, #16
     a88:	fb15 3302 	smlabb	r3, r5, r2, r3
     a8c:	681b      	ldr	r3, [r3, #0]
     a8e:	f3c3 4303 	ubfx	r3, r3, #16, #4
     a92:	718b      	strb	r3, [r1, #6]
  msg.ext = (FLEXCANb_MBn_CS(flexcanBase, buffer) & FLEXCAN_MB_CS_IDE)? 1:0;
     a94:	6804      	ldr	r4, [r0, #0]
     a96:	3480      	adds	r4, #128	; 0x80
     a98:	fb15 4402 	smlabb	r4, r5, r2, r4
     a9c:	6824      	ldr	r4, [r4, #0]
     a9e:	f404 1400 	and.w	r4, r4, #2097152	; 0x200000
     aa2:	2c00      	cmp	r4, #0
     aa4:	bf14      	ite	ne
     aa6:	2401      	movne	r4, #1
     aa8:	2400      	moveq	r4, #0
     aaa:	710c      	strb	r4, [r1, #4]
  msg.rtr = (FLEXCANb_MBn_CS(flexcanBase, buffer) & FLEXCAN_MB_CS_RTR)? 1:0;
     aac:	6804      	ldr	r4, [r0, #0]
     aae:	f104 0480 	add.w	r4, r4, #128	; 0x80
     ab2:	fb15 4402 	smlabb	r4, r5, r2, r4
     ab6:	6824      	ldr	r4, [r4, #0]
     ab8:	f3c4 5400 	ubfx	r4, r4, #20, #1
     abc:	714c      	strb	r4, [r1, #5]
  msg.id  = (FLEXCANb_MBn_ID(flexcanBase, buffer) & FLEXCAN_MB_ID_EXT_MASK);
     abe:	6804      	ldr	r4, [r0, #0]
     ac0:	fb15 4402 	smlabb	r4, r5, r2, r4
     ac4:	f8d4 6084 	ldr.w	r6, [r4, #132]	; 0x84
     ac8:	f026 4660 	bic.w	r6, r6, #3758096384	; 0xe0000000
  if(!msg.ext) {
    msg.id >>= FLEXCAN_MB_ID_STD_BIT_NO;
     acc:	bf08      	it	eq
     ace:	0cb6      	lsreq	r6, r6, #18
     ad0:	600e      	str	r6, [r1, #0]
  }

  // copy out message
  uint32_t dataIn = FLEXCANb_MBn_WORD0(flexcanBase, buffer);
     ad2:	f8d4 4088 	ldr.w	r4, [r4, #136]	; 0x88
  msg.buf[3] = dataIn;
     ad6:	734c      	strb	r4, [r1, #13]
  dataIn >>=8;
     ad8:	0a27      	lsrs	r7, r4, #8
  msg.buf[2] = dataIn;
  dataIn >>=8;
     ada:	0c26      	lsrs	r6, r4, #16
  msg.buf[1] = dataIn;
  dataIn >>=8;
  msg.buf[0] = dataIn;
  if ( 4 < msg.len ) {
     adc:	2b04      	cmp	r3, #4
  dataIn >>=8;
  msg.buf[2] = dataIn;
  dataIn >>=8;
  msg.buf[1] = dataIn;
  dataIn >>=8;
  msg.buf[0] = dataIn;
     ade:	ea4f 6414 	mov.w	r4, r4, lsr #24

  // copy out message
  uint32_t dataIn = FLEXCANb_MBn_WORD0(flexcanBase, buffer);
  msg.buf[3] = dataIn;
  dataIn >>=8;
  msg.buf[2] = dataIn;
     ae2:	730f      	strb	r7, [r1, #12]
  dataIn >>=8;
  msg.buf[1] = dataIn;
     ae4:	72ce      	strb	r6, [r1, #11]
  dataIn >>=8;
  msg.buf[0] = dataIn;
     ae6:	728c      	strb	r4, [r1, #10]
  if ( 4 < msg.len ) {
     ae8:	d910      	bls.n	b0c <FlexCAN::readRxRegisters(CAN_message_t&, unsigned char)+0x8c>
    dataIn = FLEXCANb_MBn_WORD1(flexcanBase, buffer);
     aea:	6800      	ldr	r0, [r0, #0]
     aec:	308c      	adds	r0, #140	; 0x8c
     aee:	fb15 0502 	smlabb	r5, r5, r2, r0
    dataIn >>=8;
    msg.buf[5] = dataIn;
    dataIn >>=8;
    msg.buf[4] = dataIn;
  }
  for( int loop=msg.len; loop<8; ++loop ) {
     af2:	2b07      	cmp	r3, #7
  dataIn >>=8;
  msg.buf[1] = dataIn;
  dataIn >>=8;
  msg.buf[0] = dataIn;
  if ( 4 < msg.len ) {
    dataIn = FLEXCANb_MBn_WORD1(flexcanBase, buffer);
     af4:	682a      	ldr	r2, [r5, #0]
    msg.buf[7] = dataIn;
     af6:	744a      	strb	r2, [r1, #17]
    dataIn >>=8;
     af8:	ea4f 2412 	mov.w	r4, r2, lsr #8
    msg.buf[6] = dataIn;
    dataIn >>=8;
     afc:	ea4f 4012 	mov.w	r0, r2, lsr #16
    msg.buf[5] = dataIn;
    dataIn >>=8;
    msg.buf[4] = dataIn;
     b00:	ea4f 6212 	mov.w	r2, r2, lsr #24
  msg.buf[0] = dataIn;
  if ( 4 < msg.len ) {
    dataIn = FLEXCANb_MBn_WORD1(flexcanBase, buffer);
    msg.buf[7] = dataIn;
    dataIn >>=8;
    msg.buf[6] = dataIn;
     b04:	740c      	strb	r4, [r1, #16]
    dataIn >>=8;
    msg.buf[5] = dataIn;
     b06:	73c8      	strb	r0, [r1, #15]
    dataIn >>=8;
    msg.buf[4] = dataIn;
     b08:	738a      	strb	r2, [r1, #14]
  }
  for( int loop=msg.len; loop<8; ++loop ) {
     b0a:	d807      	bhi.n	b1c <FlexCAN::readRxRegisters(CAN_message_t&, unsigned char)+0x9c>
     b0c:	330a      	adds	r3, #10
     b0e:	440b      	add	r3, r1
    msg.buf[loop] = 0;
     b10:	2200      	movs	r2, #0
     b12:	3112      	adds	r1, #18
     b14:	f803 2b01 	strb.w	r2, [r3], #1
    dataIn >>=8;
    msg.buf[5] = dataIn;
    dataIn >>=8;
    msg.buf[4] = dataIn;
  }
  for( int loop=msg.len; loop<8; ++loop ) {
     b18:	428b      	cmp	r3, r1
     b1a:	d1fb      	bne.n	b14 <FlexCAN::readRxRegisters(CAN_message_t&, unsigned char)+0x94>
    msg.buf[loop] = 0;
  }
}
     b1c:	bcf0      	pop	{r4, r5, r6, r7}
     b1e:	4770      	bx	lr

00000b20 <FlexCAN::message_isr()>:


//a message either came in or was freshly sent. Figure out which and act accordingly.
void FlexCAN::message_isr(void) 
{
     b20:	e92d 4ff0 	stmdb	sp!, {r4, r5, r6, r7, r8, r9, sl, fp, lr}
    uint8_t temp;
    uint32_t status = FLEXCANb_IFLAG1(flexcanBase);
     b24:	6802      	ldr	r2, [r0, #0]
}


//a message either came in or was freshly sent. Figure out which and act accordingly.
void FlexCAN::message_isr(void) 
{
     b26:	b089      	sub	sp, #36	; 0x24
     b28:	4680      	mov	r8, r0
    uint8_t temp;
    uint32_t status = FLEXCANb_IFLAG1(flexcanBase);
     b2a:	f8d2 a030 	ldr.w	sl, [r2, #48]	; 0x30
     b2e:	4606      	mov	r6, r0
    CAN_message_t readMesg;
    bool caughtFrame;
    CANListener *thisListener;
    
    for (int i = 0; i < 16; i++) if (status & (1 << i)) //has this mailbox triggered an interrupt?
     b30:	2400      	movs	r4, #0
     b32:	f04f 0b01 	mov.w	fp, #1
     b36:	e006      	b.n	b46 <FlexCAN::message_isr()+0x26>
    {        
        uint32_t code = FLEXCAN_get_code(FLEXCANb_MBn_CS(flexcanBase, i));
        switch (code)
     b38:	2b02      	cmp	r3, #2
     b3a:	d03d      	beq.n	bb8 <FlexCAN::message_isr()+0x98>
    uint32_t status = FLEXCANb_IFLAG1(flexcanBase);
    CAN_message_t readMesg;
    bool caughtFrame;
    CANListener *thisListener;
    
    for (int i = 0; i < 16; i++) if (status & (1 << i)) //has this mailbox triggered an interrupt?
     b3c:	3401      	adds	r4, #1
     b3e:	2c10      	cmp	r4, #16
     b40:	f106 0608 	add.w	r6, r6, #8
     b44:	d033      	beq.n	bae <FlexCAN::message_isr()+0x8e>
     b46:	fa0b f504 	lsl.w	r5, fp, r4
     b4a:	ea15 0f0a 	tst.w	r5, sl
     b4e:	d0f5      	beq.n	b3c <FlexCAN::message_isr()+0x1c>
     b50:	ea4f 1904 	mov.w	r9, r4, lsl #4
    {        
        uint32_t code = FLEXCAN_get_code(FLEXCANb_MBn_CS(flexcanBase, i));
     b54:	f102 0380 	add.w	r3, r2, #128	; 0x80
     b58:	f853 3009 	ldr.w	r3, [r3, r9]
        switch (code)
     b5c:	f3c3 6303 	ubfx	r3, r3, #24, #4
     b60:	2b06      	cmp	r3, #6
     b62:	d029      	beq.n	bb8 <FlexCAN::message_isr()+0x98>
     b64:	2b08      	cmp	r3, #8
     b66:	d1e7      	bne.n	b38 <FlexCAN::message_isr()+0x18>
            } else {
                FLEXCANb_MBn_ID(flexcanBase, i) = FLEXCAN_MB_ID_IDSTD(MBFilters[i].id);
            }
            break;
        case 8: //TX inactive. Just chillin' waiting for a message to send. Let's see if we've got one.
            if (tx_buffer_head != tx_buffer_tail) 
     b68:	f8b8 1448 	ldrh.w	r1, [r8, #1096]	; 0x448
     b6c:	f8b8 344a 	ldrh.w	r3, [r8, #1098]	; 0x44a
     b70:	b289      	uxth	r1, r1
     b72:	b29b      	uxth	r3, r3
     b74:	4299      	cmp	r1, r3
     b76:	d0e1      	beq.n	b3c <FlexCAN::message_isr()+0x1c>
            { //if there is a frame in the queue to send
                writeTxRegisters((CAN_message_t &)tx_frame_buff[tx_buffer_head], i);                
     b78:	f8b8 1448 	ldrh.w	r1, [r8, #1096]	; 0x448
     b7c:	b289      	uxth	r1, r1
     b7e:	eb01 0181 	add.w	r1, r1, r1, lsl #2
     b82:	eb08 0181 	add.w	r1, r8, r1, lsl #2
     b86:	b2e2      	uxtb	r2, r4
     b88:	f501 7141 	add.w	r1, r1, #772	; 0x304
     b8c:	4640      	mov	r0, r8
     b8e:	f7ff ff0f 	bl	9b0 <FlexCAN::writeTxRegisters(CAN_message_t const&, unsigned char)>
                tx_buffer_head = (tx_buffer_head + 1) % SIZE_TX_BUFFER;
     b92:	f8b8 3448 	ldrh.w	r3, [r8, #1096]	; 0x448
     b96:	f8d8 2000 	ldr.w	r2, [r8]
     b9a:	3301      	adds	r3, #1
    uint32_t status = FLEXCANb_IFLAG1(flexcanBase);
    CAN_message_t readMesg;
    bool caughtFrame;
    CANListener *thisListener;
    
    for (int i = 0; i < 16; i++) if (status & (1 << i)) //has this mailbox triggered an interrupt?
     b9c:	3401      	adds	r4, #1
            break;
        case 8: //TX inactive. Just chillin' waiting for a message to send. Let's see if we've got one.
            if (tx_buffer_head != tx_buffer_tail) 
            { //if there is a frame in the queue to send
                writeTxRegisters((CAN_message_t &)tx_frame_buff[tx_buffer_head], i);                
                tx_buffer_head = (tx_buffer_head + 1) % SIZE_TX_BUFFER;
     b9e:	f003 030f 	and.w	r3, r3, #15
    uint32_t status = FLEXCANb_IFLAG1(flexcanBase);
    CAN_message_t readMesg;
    bool caughtFrame;
    CANListener *thisListener;
    
    for (int i = 0; i < 16; i++) if (status & (1 << i)) //has this mailbox triggered an interrupt?
     ba2:	2c10      	cmp	r4, #16
            break;
        case 8: //TX inactive. Just chillin' waiting for a message to send. Let's see if we've got one.
            if (tx_buffer_head != tx_buffer_tail) 
            { //if there is a frame in the queue to send
                writeTxRegisters((CAN_message_t &)tx_frame_buff[tx_buffer_head], i);                
                tx_buffer_head = (tx_buffer_head + 1) % SIZE_TX_BUFFER;
     ba4:	f8a8 3448 	strh.w	r3, [r8, #1096]	; 0x448
     ba8:	f106 0608 	add.w	r6, r6, #8
    uint32_t status = FLEXCANb_IFLAG1(flexcanBase);
    CAN_message_t readMesg;
    bool caughtFrame;
    CANListener *thisListener;
    
    for (int i = 0; i < 16; i++) if (status & (1 << i)) //has this mailbox triggered an interrupt?
     bac:	d1cb      	bne.n	b46 <FlexCAN::message_isr()+0x26>
            }
            break;
        }
    }
    
    FLEXCANb_IFLAG1(flexcanBase) = status; //writing its value back to itself clears all flags
     bae:	f8c2 a030 	str.w	sl, [r2, #48]	; 0x30
}
     bb2:	b009      	add	sp, #36	; 0x24
     bb4:	e8bd 8ff0 	ldmia.w	sp!, {r4, r5, r6, r7, r8, r9, sl, fp, pc}
        case 0xE: //remote request junk again. Go away.
            break;
        */    
        case 2: //rx full, that's more like it. Copy the frame to RX buffer
        case 6: //rx overrun. We didn't get there in time and a second frame tried to enter the MB. Whoops... Can probably still grab the frame though.
            readRxRegisters(readMesg, i);            
     bb8:	b2e2      	uxtb	r2, r4
     bba:	a903      	add	r1, sp, #12
     bbc:	4640      	mov	r0, r8
     bbe:	f7ff ff5f 	bl	a80 <FlexCAN::readRxRegisters(CAN_message_t&, unsigned char)>
     bc2:	f508 638b 	add.w	r3, r8, #1112	; 0x458
            caughtFrame = false;
     bc6:	9601      	str	r6, [sp, #4]
     bc8:	f508 6789 	add.w	r7, r8, #1096	; 0x448
     bcc:	2200      	movs	r2, #0
     bce:	461e      	mov	r6, r3
            //First, try to send a callback. If no callback registered then buffer the frame.
            for (int listenerPos = 0; listenerPos < SIZE_LISTENERS; listenerPos++)
            {
                thisListener = listener[listenerPos];
     bd0:	f857 0f04 	ldr.w	r0, [r7, #4]!
                if (thisListener != NULL)
     bd4:	b120      	cbz	r0, be0 <FlexCAN::message_isr()+0xc0>
                {
                    if (thisListener->callbacksActive & (1 << i)) 
     bd6:	6843      	ldr	r3, [r0, #4]
     bd8:	421d      	tst	r5, r3
     bda:	d135      	bne.n	c48 <FlexCAN::message_isr()+0x128>
                    {
                        caughtFrame = true;
                        thisListener->gotFrame(readMesg, i);
                    }
                    else if (thisListener->callbacksActive & (1 << 31)) 
     bdc:	2b00      	cmp	r3, #0
     bde:	db46      	blt.n	c6e <FlexCAN::message_isr()+0x14e>
        case 2: //rx full, that's more like it. Copy the frame to RX buffer
        case 6: //rx overrun. We didn't get there in time and a second frame tried to enter the MB. Whoops... Can probably still grab the frame though.
            readRxRegisters(readMesg, i);            
            caughtFrame = false;
            //First, try to send a callback. If no callback registered then buffer the frame.
            for (int listenerPos = 0; listenerPos < SIZE_LISTENERS; listenerPos++)
     be0:	42be      	cmp	r6, r7
     be2:	d1f5      	bne.n	bd0 <FlexCAN::message_isr()+0xb0>
     be4:	9e01      	ldr	r6, [sp, #4]
                        thisListener->gotFrame(readMesg, -1);
                    }
                }
            }
            
            if (!caughtFrame) //if no objects caught this frame then queue it in the buffer
     be6:	bb12      	cbnz	r2, c2e <FlexCAN::message_isr()+0x10e>
            {
                temp = (rx_buffer_head + 1) % SIZE_RX_BUFFER;
     be8:	f8b8 7444 	ldrh.w	r7, [r8, #1092]	; 0x444
                if (temp != rx_buffer_tail) 
     bec:	f8b8 3446 	ldrh.w	r3, [r8, #1094]	; 0x446
     bf0:	3701      	adds	r7, #1
     bf2:	f007 071f 	and.w	r7, r7, #31
     bf6:	b29b      	uxth	r3, r3
     bf8:	429f      	cmp	r7, r3
     bfa:	d018      	beq.n	c2e <FlexCAN::message_isr()+0x10e>
                {
                    memcpy((void *) &rx_frame_buff[rx_buffer_head], &readMesg, sizeof(CAN_message_t));                    
     bfc:	f8b8 e444 	ldrh.w	lr, [r8, #1092]	; 0x444
     c00:	ad03      	add	r5, sp, #12
     c02:	cd0f      	ldmia	r5!, {r0, r1, r2, r3}
     c04:	fa1f fe8e 	uxth.w	lr, lr
     c08:	eb0e 0e8e 	add.w	lr, lr, lr, lsl #2
     c0c:	eb08 0e8e 	add.w	lr, r8, lr, lsl #2
     c10:	f10e 0e80 	add.w	lr, lr, #128	; 0x80
     c14:	f8ce 0004 	str.w	r0, [lr, #4]
     c18:	6828      	ldr	r0, [r5, #0]
     c1a:	f8ce 1008 	str.w	r1, [lr, #8]
     c1e:	f8ce 200c 	str.w	r2, [lr, #12]
     c22:	f8ce 3010 	str.w	r3, [lr, #16]
     c26:	f8ce 0014 	str.w	r0, [lr, #20]
                    rx_buffer_head = temp;
     c2a:	f8a8 7444 	strh.w	r7, [r8, #1092]	; 0x444
            }            
                        
            //it seems filtering works by matching against the ID stored in the mailbox
            //so after a frame comes in we've got to refresh the ID field to be the filter ID and not the ID
            //that just came in.
            if(MBFilters[i].ext) {
     c2e:	7973      	ldrb	r3, [r6, #5]
     c30:	b18b      	cbz	r3, c56 <FlexCAN::message_isr()+0x136>
                FLEXCANb_MBn_ID(flexcanBase, i) = (MBFilters[i].id & FLEXCAN_MB_ID_EXT_MASK);
     c32:	f8d8 3000 	ldr.w	r3, [r8]
     c36:	68b2      	ldr	r2, [r6, #8]
     c38:	3384      	adds	r3, #132	; 0x84
     c3a:	f022 4260 	bic.w	r2, r2, #3758096384	; 0xe0000000
     c3e:	f843 2009 	str.w	r2, [r3, r9]
     c42:	f8d8 2000 	ldr.w	r2, [r8]
     c46:	e779      	b.n	b3c <FlexCAN::message_isr()+0x1c>
                if (thisListener != NULL)
                {
                    if (thisListener->callbacksActive & (1 << i)) 
                    {
                        caughtFrame = true;
                        thisListener->gotFrame(readMesg, i);
     c48:	6803      	ldr	r3, [r0, #0]
     c4a:	4a11      	ldr	r2, [pc, #68]	; (c90 <FlexCAN::message_isr()+0x170>)
     c4c:	681b      	ldr	r3, [r3, #0]
     c4e:	4293      	cmp	r3, r2
     c50:	d118      	bne.n	c84 <FlexCAN::message_isr()+0x164>
                thisListener = listener[listenerPos];
                if (thisListener != NULL)
                {
                    if (thisListener->callbacksActive & (1 << i)) 
                    {
                        caughtFrame = true;
     c52:	2201      	movs	r2, #1
     c54:	e7c4      	b.n	be0 <FlexCAN::message_isr()+0xc0>
            //so after a frame comes in we've got to refresh the ID field to be the filter ID and not the ID
            //that just came in.
            if(MBFilters[i].ext) {
                FLEXCANb_MBn_ID(flexcanBase, i) = (MBFilters[i].id & FLEXCAN_MB_ID_EXT_MASK);
            } else {
                FLEXCANb_MBn_ID(flexcanBase, i) = FLEXCAN_MB_ID_IDSTD(MBFilters[i].id);
     c56:	68b1      	ldr	r1, [r6, #8]
     c58:	f8d8 3000 	ldr.w	r3, [r8]
     c5c:	4a0d      	ldr	r2, [pc, #52]	; (c94 <FlexCAN::message_isr()+0x174>)
     c5e:	0489      	lsls	r1, r1, #18
     c60:	3384      	adds	r3, #132	; 0x84
     c62:	400a      	ands	r2, r1
     c64:	f843 2009 	str.w	r2, [r3, r9]
     c68:	f8d8 2000 	ldr.w	r2, [r8]
     c6c:	e766      	b.n	b3c <FlexCAN::message_isr()+0x1c>
                        thisListener->gotFrame(readMesg, i);
                    }
                    else if (thisListener->callbacksActive & (1 << 31)) 
                    {
                        caughtFrame = true;
                        thisListener->gotFrame(readMesg, -1);
     c6e:	6803      	ldr	r3, [r0, #0]
     c70:	4a07      	ldr	r2, [pc, #28]	; (c90 <FlexCAN::message_isr()+0x170>)
     c72:	681b      	ldr	r3, [r3, #0]
     c74:	4293      	cmp	r3, r2
     c76:	d0ec      	beq.n	c52 <FlexCAN::message_isr()+0x132>
     c78:	f04f 32ff 	mov.w	r2, #4294967295
     c7c:	a903      	add	r1, sp, #12
     c7e:	4798      	blx	r3
                        caughtFrame = true;
                        thisListener->gotFrame(readMesg, i);
                    }
                    else if (thisListener->callbacksActive & (1 << 31)) 
                    {
                        caughtFrame = true;
     c80:	2201      	movs	r2, #1
     c82:	e7ad      	b.n	be0 <FlexCAN::message_isr()+0xc0>
                if (thisListener != NULL)
                {
                    if (thisListener->callbacksActive & (1 << i)) 
                    {
                        caughtFrame = true;
                        thisListener->gotFrame(readMesg, i);
     c84:	4622      	mov	r2, r4
     c86:	a903      	add	r1, sp, #12
     c88:	4798      	blx	r3
                thisListener = listener[listenerPos];
                if (thisListener != NULL)
                {
                    if (thisListener->callbacksActive & (1 << i)) 
                    {
                        caughtFrame = true;
     c8a:	2201      	movs	r2, #1
     c8c:	e7a8      	b.n	be0 <FlexCAN::message_isr()+0xc0>
     c8e:	bf00      	nop
     c90:	000009ad 	.word	0x000009ad
     c94:	1ffc0000 	.word	0x1ffc0000

00000c98 <can0_message_isr>:
{
    
}

void can0_message_isr(void) {
    Can0.message_isr();
     c98:	4801      	ldr	r0, [pc, #4]	; (ca0 <can0_message_isr+0x8>)
     c9a:	f7ff bf41 	b.w	b20 <FlexCAN::message_isr()>
     c9e:	bf00      	nop
     ca0:	1fff1900 	.word	0x1fff1900

00000ca4 <can0_bus_off_isr>:
     ca4:	4770      	bx	lr
     ca6:	bf00      	nop

00000ca8 <can0_error_isr>:
     ca8:	4770      	bx	lr
     caa:	bf00      	nop

00000cac <can0_tx_warn_isr>:
     cac:	4770      	bx	lr
     cae:	bf00      	nop

00000cb0 <can0_rx_warn_isr>:
     cb0:	4770      	bx	lr
     cb2:	bf00      	nop

00000cb4 <can0_wakeup_isr>:

void can0_rx_warn_isr(void) {
    Can0.rx_warn_isr();
}

void can0_wakeup_isr(void) {
     cb4:	4770      	bx	lr
     cb6:	bf00      	nop

00000cb8 <_GLOBAL__sub_I__ZN7FlexCAN11defaultMaskE>:
};

// -------------------------------------------------------------
FlexCAN::FlexCAN(uint8_t id)
{
  flexcanBase = FLEXCAN0_BASE;
     cb8:	4a0c      	ldr	r2, [pc, #48]	; (cec <_GLOBAL__sub_I__ZN7FlexCAN11defaultMaskE+0x34>)
#ifdef __MK66FX1M0__
  if(id > 0) flexcanBase = FLEXCAN1_BASE;
#endif

  // Default mask is allow everything
  defaultMask.rtr = 0;
     cba:	490d      	ldr	r1, [pc, #52]	; (cf0 <_GLOBAL__sub_I__ZN7FlexCAN11defaultMaskE+0x38>)
};

// -------------------------------------------------------------
FlexCAN::FlexCAN(uint8_t id)
{
  flexcanBase = FLEXCAN0_BASE;
     cbc:	4b0d      	ldr	r3, [pc, #52]	; (cf4 <_GLOBAL__sub_I__ZN7FlexCAN11defaultMaskE+0x3c>)
     cbe:	6013      	str	r3, [r2, #0]
#ifdef __MK66FX1M0__
  if(id > 0) flexcanBase = FLEXCAN1_BASE;
#endif

  // Default mask is allow everything
  defaultMask.rtr = 0;
     cc0:	2300      	movs	r3, #0
  defaultMask.ext = 0;
  defaultMask.id = 0;
  
  rx_buffer_head = 0;
     cc2:	f8a2 3444 	strh.w	r3, [r2, #1092]	; 0x444
  rx_buffer_tail = 0;
  tx_buffer_head = 0;
  tx_buffer_tail = 0;
  
  for (int i = 0; i < SIZE_LISTENERS; i++) listener[i] = NULL;
     cc6:	f8c2 344c 	str.w	r3, [r2, #1100]	; 0x44c
  defaultMask.rtr = 0;
  defaultMask.ext = 0;
  defaultMask.id = 0;
  
  rx_buffer_head = 0;
  rx_buffer_tail = 0;
     cca:	f8a2 3446 	strh.w	r3, [r2, #1094]	; 0x446
  tx_buffer_head = 0;
  tx_buffer_tail = 0;
  
  for (int i = 0; i < SIZE_LISTENERS; i++) listener[i] = NULL;
     cce:	f8c2 3450 	str.w	r3, [r2, #1104]	; 0x450
  defaultMask.ext = 0;
  defaultMask.id = 0;
  
  rx_buffer_head = 0;
  rx_buffer_tail = 0;
  tx_buffer_head = 0;
     cd2:	f8a2 3448 	strh.w	r3, [r2, #1096]	; 0x448
  tx_buffer_tail = 0;
  
  for (int i = 0; i < SIZE_LISTENERS; i++) listener[i] = NULL;
     cd6:	f8c2 3454 	str.w	r3, [r2, #1108]	; 0x454
  defaultMask.id = 0;
  
  rx_buffer_head = 0;
  rx_buffer_tail = 0;
  tx_buffer_head = 0;
  tx_buffer_tail = 0;
     cda:	f8a2 344a 	strh.w	r3, [r2, #1098]	; 0x44a
  
  for (int i = 0; i < SIZE_LISTENERS; i++) listener[i] = NULL;
     cde:	f8c2 3458 	str.w	r3, [r2, #1112]	; 0x458
#ifdef __MK66FX1M0__
  if(id > 0) flexcanBase = FLEXCAN1_BASE;
#endif

  // Default mask is allow everything
  defaultMask.rtr = 0;
     ce2:	700b      	strb	r3, [r1, #0]
  defaultMask.ext = 0;
     ce4:	704b      	strb	r3, [r1, #1]
  defaultMask.id = 0;
     ce6:	604b      	str	r3, [r1, #4]
     ce8:	4770      	bx	lr
     cea:	bf00      	nop
     cec:	1fff1900 	.word	0x1fff1900
     cf0:	1fff1d60 	.word	0x1fff1d60
     cf4:	40024000 	.word	0x40024000

00000cf8 <memcpy>:
	@ r1: src
	@ r2: len
#ifdef __ARM_FEATURE_UNALIGNED
	/* In case of UNALIGNED access supported, ip is not used in
	   function body.  */
	mov	ip, r0
     cf8:	4684      	mov	ip, r0
#else
	push	{r0}
#endif
	orr	r3, r1, r0
     cfa:	ea41 0300 	orr.w	r3, r1, r0
	ands	r3, r3, #3
     cfe:	f013 0303 	ands.w	r3, r3, #3
	bne	.Lmisaligned_copy
     d02:	d16d      	bne.n	de0 <memcpy+0xe8>

.Lbig_block:
	subs	r2, __OPT_BIG_BLOCK_SIZE
     d04:	3a40      	subs	r2, #64	; 0x40
	blo	.Lmid_block
     d06:	d341      	bcc.n	d8c <memcpy+0x94>
.Lbig_block_loop:
	BEGIN_UNROLL_BIG_BLOCK
#ifdef __ARM_ARCH_7EM__
	ldr	r3, [r1], #4
	str	r3, [r0], #4
	END_UNROLL
     d08:	f851 3b04 	ldr.w	r3, [r1], #4
     d0c:	f840 3b04 	str.w	r3, [r0], #4
     d10:	f851 3b04 	ldr.w	r3, [r1], #4
     d14:	f840 3b04 	str.w	r3, [r0], #4
     d18:	f851 3b04 	ldr.w	r3, [r1], #4
     d1c:	f840 3b04 	str.w	r3, [r0], #4
     d20:	f851 3b04 	ldr.w	r3, [r1], #4
     d24:	f840 3b04 	str.w	r3, [r0], #4
     d28:	f851 3b04 	ldr.w	r3, [r1], #4
     d2c:	f840 3b04 	str.w	r3, [r0], #4
     d30:	f851 3b04 	ldr.w	r3, [r1], #4
     d34:	f840 3b04 	str.w	r3, [r0], #4
     d38:	f851 3b04 	ldr.w	r3, [r1], #4
     d3c:	f840 3b04 	str.w	r3, [r0], #4
     d40:	f851 3b04 	ldr.w	r3, [r1], #4
     d44:	f840 3b04 	str.w	r3, [r0], #4
     d48:	f851 3b04 	ldr.w	r3, [r1], #4
     d4c:	f840 3b04 	str.w	r3, [r0], #4
     d50:	f851 3b04 	ldr.w	r3, [r1], #4
     d54:	f840 3b04 	str.w	r3, [r0], #4
     d58:	f851 3b04 	ldr.w	r3, [r1], #4
     d5c:	f840 3b04 	str.w	r3, [r0], #4
     d60:	f851 3b04 	ldr.w	r3, [r1], #4
     d64:	f840 3b04 	str.w	r3, [r0], #4
     d68:	f851 3b04 	ldr.w	r3, [r1], #4
     d6c:	f840 3b04 	str.w	r3, [r0], #4
     d70:	f851 3b04 	ldr.w	r3, [r1], #4
     d74:	f840 3b04 	str.w	r3, [r0], #4
     d78:	f851 3b04 	ldr.w	r3, [r1], #4
     d7c:	f840 3b04 	str.w	r3, [r0], #4
     d80:	f851 3b04 	ldr.w	r3, [r1], #4
     d84:	f840 3b04 	str.w	r3, [r0], #4
	str	r3, [r0, \offset]
	END_UNROLL
	adds	r0, __OPT_BIG_BLOCK_SIZE
	adds	r1, __OPT_BIG_BLOCK_SIZE
#endif
	subs	r2, __OPT_BIG_BLOCK_SIZE
     d88:	3a40      	subs	r2, #64	; 0x40
	bhs .Lbig_block_loop
     d8a:	d2bd      	bcs.n	d08 <memcpy+0x10>

.Lmid_block:
	adds	r2, __OPT_BIG_BLOCK_SIZE - __OPT_MID_BLOCK_SIZE
     d8c:	3230      	adds	r2, #48	; 0x30
	blo	.Lcopy_word_by_word
     d8e:	d311      	bcc.n	db4 <memcpy+0xbc>
.Lmid_block_loop:
	BEGIN_UNROLL_MID_BLOCK
#ifdef __ARM_ARCH_7EM__
	ldr	r3, [r1], #4
	str	r3, [r0], #4
	END_UNROLL
     d90:	f851 3b04 	ldr.w	r3, [r1], #4
     d94:	f840 3b04 	str.w	r3, [r0], #4
     d98:	f851 3b04 	ldr.w	r3, [r1], #4
     d9c:	f840 3b04 	str.w	r3, [r0], #4
     da0:	f851 3b04 	ldr.w	r3, [r1], #4
     da4:	f840 3b04 	str.w	r3, [r0], #4
     da8:	f851 3b04 	ldr.w	r3, [r1], #4
     dac:	f840 3b04 	str.w	r3, [r0], #4
	str	r3, [r0, \offset]
	END_UNROLL
	adds    r0, __OPT_MID_BLOCK_SIZE
	adds    r1, __OPT_MID_BLOCK_SIZE
#endif
	subs	r2, __OPT_MID_BLOCK_SIZE
     db0:	3a10      	subs	r2, #16
	bhs	.Lmid_block_loop
     db2:	d2ed      	bcs.n	d90 <memcpy+0x98>

.Lcopy_word_by_word:
	adds	r2, __OPT_MID_BLOCK_SIZE - 4
     db4:	320c      	adds	r2, #12
	blo	.Lcopy_less_than_4
     db6:	d305      	bcc.n	dc4 <memcpy+0xcc>

	/* Kernel loop for small block copy */
	.align 2
.Lcopy_word_by_word_loop:
	ldr	r3, [r1], #4
     db8:	f851 3b04 	ldr.w	r3, [r1], #4
	str	r3, [r0], #4
     dbc:	f840 3b04 	str.w	r3, [r0], #4
	subs	r2, #4
     dc0:	3a04      	subs	r2, #4
	bhs	.Lcopy_word_by_word_loop
     dc2:	d2f9      	bcs.n	db8 <memcpy+0xc0>

.Lcopy_less_than_4:
	adds	r2, #4
     dc4:	3204      	adds	r2, #4
	beq	.Ldone
     dc6:	d008      	beq.n	dda <memcpy+0xe2>

	lsls	r2, r2, #31
     dc8:	07d2      	lsls	r2, r2, #31
	itt ne
     dca:	bf1c      	itt	ne
	ldrbne  r3, [r1], #1
     dcc:	f811 3b01 	ldrbne.w	r3, [r1], #1
	strbne  r3, [r0], #1
     dd0:	f800 3b01 	strbne.w	r3, [r0], #1

	bcc	.Ldone
     dd4:	d301      	bcc.n	dda <memcpy+0xe2>
#ifdef __ARM_FEATURE_UNALIGNED
	ldrh	r3, [r1]
     dd6:	880b      	ldrh	r3, [r1, #0]
	strh	r3, [r0]
     dd8:	8003      	strh	r3, [r0, #0]
	strb	r3, [r0, #1]
#endif /* __ARM_FEATURE_UNALIGNED */

.Ldone:
#ifdef __ARM_FEATURE_UNALIGNED
	mov	r0, ip
     dda:	4660      	mov	r0, ip
#else
	pop	{r0}
#endif
	bx	lr
     ddc:	4770      	bx	lr
     dde:	bf00      	nop
#define Ldst_aligned Lbig_block

	/* Copy word by word using LDR when alignment can be done in hardware,
	i.e., SCTLR.A is set, supporting unaligned access in LDR and STR.  */

	cmp	r2, #8
     de0:	2a08      	cmp	r2, #8
	blo	.Lbyte_copy
     de2:	d313      	bcc.n	e0c <memcpy+0x114>

	/* if src is aligned, just go to the big block loop.  */
	lsls	r3, r1, #30
     de4:	078b      	lsls	r3, r1, #30
	beq	.Ldst_aligned
     de6:	d08d      	beq.n	d04 <memcpy+0xc>
	handling of aligned src and misaligned dst need more overhead than
	otherwise.  By doing this the worst case is when initial src is aligned,
	additional up to 4 byte additional copy will executed, which is
	acceptable.  */

	ands	r3, r0, #3
     de8:	f010 0303 	ands.w	r3, r0, #3
	beq	.Ldst_aligned
     dec:	d08a      	beq.n	d04 <memcpy+0xc>

	rsb	r3, #4
     dee:	f1c3 0304 	rsb	r3, r3, #4
	subs	r2, r3
     df2:	1ad2      	subs	r2, r2, r3

	lsls    r3, r3, #31
     df4:	07db      	lsls	r3, r3, #31
	itt ne
     df6:	bf1c      	itt	ne
	ldrbne  r3, [r1], #1
     df8:	f811 3b01 	ldrbne.w	r3, [r1], #1
	strbne  r3, [r0], #1
     dfc:	f800 3b01 	strbne.w	r3, [r0], #1

	bcc .Ldst_aligned
     e00:	d380      	bcc.n	d04 <memcpy+0xc>

#ifdef __ARM_FEATURE_UNALIGNED
	ldrh    r3, [r1], #2
     e02:	f831 3b02 	ldrh.w	r3, [r1], #2
	strh    r3, [r0], #2
     e06:	f820 3b02 	strh.w	r3, [r0], #2
	b	.Ldst_aligned
     e0a:	e77b      	b.n	d04 <memcpy+0xc>
	pop	{r4, r5}

#endif /* __ARM_FEATURE_UNALIGNED */

.Lbyte_copy:
	subs	r2, #4
     e0c:	3a04      	subs	r2, #4
	blo	.Lcopy_less_than_4
     e0e:	d3d9      	bcc.n	dc4 <memcpy+0xcc>

.Lbyte_copy_loop:
	subs    r2, #1
     e10:	3a01      	subs	r2, #1
	ldrb    r3, [r1], #1
     e12:	f811 3b01 	ldrb.w	r3, [r1], #1
	strb    r3, [r0], #1
     e16:	f800 3b01 	strb.w	r3, [r0], #1
	bhs	.Lbyte_copy_loop
     e1a:	d2f9      	bcs.n	e10 <memcpy+0x118>

	ldrb	r3, [r1]
     e1c:	780b      	ldrb	r3, [r1, #0]
	strb	r3, [r0]
     e1e:	7003      	strb	r3, [r0, #0]
	ldrb	r3, [r1, #1]
     e20:	784b      	ldrb	r3, [r1, #1]
	strb	r3, [r0, #1]
     e22:	7043      	strb	r3, [r0, #1]
	ldrb	r3, [r1, #2]
     e24:	788b      	ldrb	r3, [r1, #2]
	strb	r3, [r0, #2]
     e26:	7083      	strb	r3, [r0, #2]

#ifdef __ARM_FEATURE_UNALIGNED
	mov	r0, ip
     e28:	4660      	mov	r0, ip
#else
	pop	{r0}
#endif
	bx	lr
     e2a:	4770      	bx	lr

00000e2c <rtc_set>:
{
	return RTC_TSR;
}

void rtc_set(unsigned long t)
{
     e2c:	b430      	push	{r4, r5}
	RTC_SR = 0;
     e2e:	4b05      	ldr	r3, [pc, #20]	; (e44 <rtc_set+0x18>)
	RTC_TPR = 0;
     e30:	4d05      	ldr	r5, [pc, #20]	; (e48 <rtc_set+0x1c>)
	RTC_TSR = t;
     e32:	4c06      	ldr	r4, [pc, #24]	; (e4c <rtc_set+0x20>)
	return RTC_TSR;
}

void rtc_set(unsigned long t)
{
	RTC_SR = 0;
     e34:	2200      	movs	r2, #0
	RTC_TPR = 0;
	RTC_TSR = t;
	RTC_SR = RTC_SR_TCE;
     e36:	2110      	movs	r1, #16
	return RTC_TSR;
}

void rtc_set(unsigned long t)
{
	RTC_SR = 0;
     e38:	601a      	str	r2, [r3, #0]
	RTC_TPR = 0;
     e3a:	602a      	str	r2, [r5, #0]
	RTC_TSR = t;
     e3c:	6020      	str	r0, [r4, #0]
	RTC_SR = RTC_SR_TCE;
     e3e:	6019      	str	r1, [r3, #0]
}
     e40:	bc30      	pop	{r4, r5}
     e42:	4770      	bx	lr
     e44:	4003d014 	.word	0x4003d014
     e48:	4003d004 	.word	0x4003d004
     e4c:	4003d000 	.word	0x4003d000

00000e50 <analogWriteFrequency>:
#if defined(__MKL26Z64__)
	// Teensy LC does not support slow clock source (ftmClockSource = 2)
	ftmClockSource = 1; 	// Use default F_TIMER clock source
	ftmClock = F_TIMER;	// Set variable for the actual timer clock frequency
#else
	if (frequency < (float)(F_TIMER >> 7) / 65536.0f) {
     e50:	eddf 7a38 	vldr	s15, [pc, #224]	; f34 <analogWriteFrequency+0xe4>
#endif

	
	for (prescale = 0; prescale < 7; prescale++) {
		minfreq = (float)(ftmClock >> prescale) / 65536.0f;	//Use ftmClock instead of F_TIMER
		if (frequency >= minfreq) break;
     e54:	eddf 6a38 	vldr	s13, [pc, #224]	; f38 <analogWriteFrequency+0xe8>
	if (frequency < (float)(F_TIMER >> 7) / 65536.0f) {
		// frequency is too low for working with F_TIMER:
		ftmClockSource = 2; 	// Use alternative 31250Hz clock source
		ftmClock = 31250;   	// Set variable for the actual timer clock frequency
	} else {
		ftmClockSource = 1; 	// Use default F_TIMER clock source
     e58:	4a38      	ldr	r2, [pc, #224]	; (f3c <analogWriteFrequency+0xec>)
     e5a:	eeb4 0ae7 	vcmpe.f32	s0, s15
     e5e:	eef1 fa10 	vmrs	APSR_nzcv, fpscr
     e62:	f647 2312 	movw	r3, #31250	; 0x7a12
	return prior_res;
}


void analogWriteFrequency(uint8_t pin, float frequency)
{
     e66:	b470      	push	{r4, r5, r6}
	if (frequency < (float)(F_TIMER >> 7) / 65536.0f) {
		// frequency is too low for working with F_TIMER:
		ftmClockSource = 2; 	// Use alternative 31250Hz clock source
		ftmClock = 31250;   	// Set variable for the actual timer clock frequency
	} else {
		ftmClockSource = 1; 	// Use default F_TIMER clock source
     e68:	bf46      	itte	mi
     e6a:	461a      	movmi	r2, r3
     e6c:	2402      	movmi	r4, #2
     e6e:	2401      	movpl	r4, #1
		ftmClock = F_TIMER;	// Set variable for the actual timer clock frequency
	}
#endif

	
	for (prescale = 0; prescale < 7; prescale++) {
     e70:	2300      	movs	r3, #0
		minfreq = (float)(ftmClock >> prescale) / 65536.0f;	//Use ftmClock instead of F_TIMER
     e72:	fa22 f103 	lsr.w	r1, r2, r3
     e76:	ee07 1a90 	vmov	s15, r1
     e7a:	eef8 7ae7 	vcvt.f32.s32	s15, s15
		if (frequency >= minfreq) break;
     e7e:	ee27 7aa6 	vmul.f32	s14, s15, s13
     e82:	eeb4 0ac7 	vcmpe.f32	s0, s14
     e86:	eef1 fa10 	vmrs	APSR_nzcv, fpscr
     e8a:	da07      	bge.n	e9c <analogWriteFrequency+0x4c>
		ftmClock = F_TIMER;	// Set variable for the actual timer clock frequency
	}
#endif

	
	for (prescale = 0; prescale < 7; prescale++) {
     e8c:	3301      	adds	r3, #1
     e8e:	2b07      	cmp	r3, #7
     e90:	d1ef      	bne.n	e72 <analogWriteFrequency+0x22>
     e92:	09d2      	lsrs	r2, r2, #7
     e94:	ee07 2a90 	vmov	s15, r2
     e98:	eef8 7ae7 	vcvt.f32.s32	s15, s15
	//serial_phex32(ftmClock >> prescale);
	//serial_print("\n");
	//serial_print("prescale = ");
	//serial_phex(prescale);
	//serial_print("\n");
	mod = (float)(ftmClock >> prescale) / frequency - 0.5f;	//Use ftmClock instead of F_TIMER
     e9c:	ee87 7a80 	vdiv.f32	s14, s15, s0
     ea0:	f64f 71ff 	movw	r1, #65535	; 0xffff
	if (mod > 65535) mod = 65535;
	//serial_print("mod = ");
	//serial_phex32(mod);
	//serial_print("\n");
	if (pin == FTM1_CH0_PIN || pin == FTM1_CH1_PIN) {
     ea4:	1ec2      	subs	r2, r0, #3
	//serial_phex32(ftmClock >> prescale);
	//serial_print("\n");
	//serial_print("prescale = ");
	//serial_phex(prescale);
	//serial_print("\n");
	mod = (float)(ftmClock >> prescale) / frequency - 0.5f;	//Use ftmClock instead of F_TIMER
     ea6:	eef6 7a00 	vmov.f32	s15, #96	; 0x3f000000  0.5
     eaa:	ee77 7a67 	vsub.f32	s15, s14, s15
     eae:	eefc 7ae7 	vcvt.u32.f32	s15, s15
     eb2:	ee17 5a90 	vmov	r5, s15
     eb6:	428d      	cmp	r5, r1
     eb8:	bf28      	it	cs
     eba:	460d      	movcs	r5, r1
	if (mod > 65535) mod = 65535;
	//serial_print("mod = ");
	//serial_phex32(mod);
	//serial_print("\n");
	if (pin == FTM1_CH0_PIN || pin == FTM1_CH1_PIN) {
     ebc:	2a01      	cmp	r2, #1
     ebe:	4629      	mov	r1, r5
     ec0:	d92a      	bls.n	f18 <analogWriteFrequency+0xc8>
		FTM1_SC = FTM_SC_CLKS(ftmClockSource) | FTM_SC_PS(prescale);	//Use ftmClockSource instead of 1
	} else if (pin == FTM0_CH0_PIN || pin == FTM0_CH1_PIN
	  || pin == FTM0_CH2_PIN || pin == FTM0_CH3_PIN
	  || pin == FTM0_CH4_PIN || pin == FTM0_CH5_PIN
#ifdef FTM0_CH6_PIN
	  || pin == FTM0_CH6_PIN || pin == FTM0_CH7_PIN
     ec2:	2817      	cmp	r0, #23
     ec4:	d915      	bls.n	ef2 <analogWriteFrequency+0xa2>
		FTM0_CNT = 0;
		FTM0_MOD = mod;
		FTM0_SC = FTM_SC_CLKS(ftmClockSource) | FTM_SC_PS(prescale);	//Use ftmClockSource instead of 1
	}
#ifdef FTM2_CH0_PIN
	  else if (pin == FTM2_CH0_PIN || pin == FTM2_CH1_PIN) {
     ec6:	f1a0 021d 	sub.w	r2, r0, #29
     eca:	2a01      	cmp	r2, #1
     ecc:	d92e      	bls.n	f2c <analogWriteFrequency+0xdc>
		FTM2_MOD = mod;
		FTM2_SC = FTM_SC_CLKS(ftmClockSource) | FTM_SC_PS(prescale);	//Use ftmClockSource instead of 1
	}
#endif
#ifdef FTM3_CH0_PIN
	  else if (pin == FTM3_CH0_PIN || pin == FTM3_CH1_PIN
     ece:	280e      	cmp	r0, #14
     ed0:	d926      	bls.n	f20 <analogWriteFrequency+0xd0>
	  || pin == FTM3_CH2_PIN || pin == FTM3_CH3_PIN
	  || pin == FTM3_CH4_PIN || pin == FTM3_CH5_PIN
     ed2:	f1a0 0223 	sub.w	r2, r0, #35	; 0x23
     ed6:	2a03      	cmp	r2, #3
     ed8:	d81c      	bhi.n	f14 <analogWriteFrequency+0xc4>
	  || pin == FTM3_CH6_PIN || pin == FTM3_CH7_PIN) {
		FTM3_SC = 0;
     eda:	4a19      	ldr	r2, [pc, #100]	; (f40 <analogWriteFrequency+0xf0>)
		FTM3_CNT = 0;
     edc:	4e19      	ldr	r6, [pc, #100]	; (f44 <analogWriteFrequency+0xf4>)
		FTM3_MOD = mod;
     ede:	4d1a      	ldr	r5, [pc, #104]	; (f48 <analogWriteFrequency+0xf8>)
		FTM3_SC = FTM_SC_CLKS(ftmClockSource) | FTM_SC_PS(prescale);	//Use the new ftmClockSource instead of 1
     ee0:	ea43 03c4 	orr.w	r3, r3, r4, lsl #3
#ifdef FTM3_CH0_PIN
	  else if (pin == FTM3_CH0_PIN || pin == FTM3_CH1_PIN
	  || pin == FTM3_CH2_PIN || pin == FTM3_CH3_PIN
	  || pin == FTM3_CH4_PIN || pin == FTM3_CH5_PIN
	  || pin == FTM3_CH6_PIN || pin == FTM3_CH7_PIN) {
		FTM3_SC = 0;
     ee4:	2000      	movs	r0, #0
     ee6:	6010      	str	r0, [r2, #0]
		FTM3_CNT = 0;
     ee8:	6030      	str	r0, [r6, #0]
		FTM3_MOD = mod;
     eea:	6029      	str	r1, [r5, #0]
		FTM3_SC = FTM_SC_CLKS(ftmClockSource) | FTM_SC_PS(prescale);	//Use the new ftmClockSource instead of 1
     eec:	6013      	str	r3, [r2, #0]
		TPM1_CNT = 0;
		TPM1_MOD = mod;
		TPM1_SC = FTM_SC_CLKS(ftmClockSource) | FTM_SC_PS(prescale);
	}
#endif
}
     eee:	bc70      	pop	{r4, r5, r6}
     ef0:	4770      	bx	lr
		FTM1_SC = FTM_SC_CLKS(ftmClockSource) | FTM_SC_PS(prescale);	//Use ftmClockSource instead of 1
	} else if (pin == FTM0_CH0_PIN || pin == FTM0_CH1_PIN
	  || pin == FTM0_CH2_PIN || pin == FTM0_CH3_PIN
	  || pin == FTM0_CH4_PIN || pin == FTM0_CH5_PIN
#ifdef FTM0_CH6_PIN
	  || pin == FTM0_CH6_PIN || pin == FTM0_CH7_PIN
     ef2:	4a16      	ldr	r2, [pc, #88]	; (f4c <analogWriteFrequency+0xfc>)
     ef4:	40c2      	lsrs	r2, r0
     ef6:	f002 0201 	and.w	r2, r2, #1
     efa:	f082 0501 	eor.w	r5, r2, #1
     efe:	2a00      	cmp	r2, #0
     f00:	d0e1      	beq.n	ec6 <analogWriteFrequency+0x76>
#endif
	  ) {
		FTM0_SC = 0;
     f02:	4a13      	ldr	r2, [pc, #76]	; (f50 <analogWriteFrequency+0x100>)
		FTM0_CNT = 0;
     f04:	4e13      	ldr	r6, [pc, #76]	; (f54 <analogWriteFrequency+0x104>)
		FTM0_MOD = mod;
     f06:	4814      	ldr	r0, [pc, #80]	; (f58 <analogWriteFrequency+0x108>)
	  || pin == FTM0_CH4_PIN || pin == FTM0_CH5_PIN
#ifdef FTM0_CH6_PIN
	  || pin == FTM0_CH6_PIN || pin == FTM0_CH7_PIN
#endif
	  ) {
		FTM0_SC = 0;
     f08:	6015      	str	r5, [r2, #0]
		FTM0_CNT = 0;
		FTM0_MOD = mod;
		FTM0_SC = FTM_SC_CLKS(ftmClockSource) | FTM_SC_PS(prescale);	//Use ftmClockSource instead of 1
     f0a:	ea43 03c4 	orr.w	r3, r3, r4, lsl #3
#ifdef FTM0_CH6_PIN
	  || pin == FTM0_CH6_PIN || pin == FTM0_CH7_PIN
#endif
	  ) {
		FTM0_SC = 0;
		FTM0_CNT = 0;
     f0e:	6035      	str	r5, [r6, #0]
		FTM0_MOD = mod;
     f10:	6001      	str	r1, [r0, #0]
		FTM0_SC = FTM_SC_CLKS(ftmClockSource) | FTM_SC_PS(prescale);	//Use ftmClockSource instead of 1
     f12:	6013      	str	r3, [r2, #0]
		TPM1_CNT = 0;
		TPM1_MOD = mod;
		TPM1_SC = FTM_SC_CLKS(ftmClockSource) | FTM_SC_PS(prescale);
	}
#endif
}
     f14:	bc70      	pop	{r4, r5, r6}
     f16:	4770      	bx	lr
	if (mod > 65535) mod = 65535;
	//serial_print("mod = ");
	//serial_phex32(mod);
	//serial_print("\n");
	if (pin == FTM1_CH0_PIN || pin == FTM1_CH1_PIN) {
		FTM1_SC = 0;
     f18:	4a10      	ldr	r2, [pc, #64]	; (f5c <analogWriteFrequency+0x10c>)
		FTM1_CNT = 0;
     f1a:	4e11      	ldr	r6, [pc, #68]	; (f60 <analogWriteFrequency+0x110>)
		FTM1_MOD = mod;
     f1c:	4d11      	ldr	r5, [pc, #68]	; (f64 <analogWriteFrequency+0x114>)
     f1e:	e7df      	b.n	ee0 <analogWriteFrequency+0x90>
		FTM2_MOD = mod;
		FTM2_SC = FTM_SC_CLKS(ftmClockSource) | FTM_SC_PS(prescale);	//Use ftmClockSource instead of 1
	}
#endif
#ifdef FTM3_CH0_PIN
	  else if (pin == FTM3_CH0_PIN || pin == FTM3_CH1_PIN
     f20:	f244 1284 	movw	r2, #16772	; 0x4184
     f24:	40c2      	lsrs	r2, r0
     f26:	07d2      	lsls	r2, r2, #31
     f28:	d4d7      	bmi.n	eda <analogWriteFrequency+0x8a>
     f2a:	e7d2      	b.n	ed2 <analogWriteFrequency+0x82>
		FTM0_MOD = mod;
		FTM0_SC = FTM_SC_CLKS(ftmClockSource) | FTM_SC_PS(prescale);	//Use ftmClockSource instead of 1
	}
#ifdef FTM2_CH0_PIN
	  else if (pin == FTM2_CH0_PIN || pin == FTM2_CH1_PIN) {
		FTM2_SC = 0;
     f2c:	4a0e      	ldr	r2, [pc, #56]	; (f68 <analogWriteFrequency+0x118>)
		FTM2_CNT = 0;
     f2e:	4e0f      	ldr	r6, [pc, #60]	; (f6c <analogWriteFrequency+0x11c>)
		FTM2_MOD = mod;
     f30:	4d0f      	ldr	r5, [pc, #60]	; (f70 <analogWriteFrequency+0x120>)
     f32:	e7d5      	b.n	ee0 <analogWriteFrequency+0x90>
     f34:	40e4e1c0 	.word	0x40e4e1c0
     f38:	37800000 	.word	0x37800000
     f3c:	03938700 	.word	0x03938700
     f40:	400b9000 	.word	0x400b9000
     f44:	400b9004 	.word	0x400b9004
     f48:	400b9008 	.word	0x400b9008
     f4c:	00f00660 	.word	0x00f00660
     f50:	40038000 	.word	0x40038000
     f54:	40038004 	.word	0x40038004
     f58:	40038008 	.word	0x40038008
     f5c:	40039000 	.word	0x40039000
     f60:	40039004 	.word	0x40039004
     f64:	40039008 	.word	0x40039008
     f68:	400b8000 	.word	0x400b8000
     f6c:	400b8004 	.word	0x400b8004
     f70:	400b8008 	.word	0x400b8008

00000f74 <micros>:

uint32_t micros(void)
{
	uint32_t count, current, istatus;

	__disable_irq();
     f74:	b672      	cpsid	i
	current = SYST_CVR;
	count = systick_millis_count;
     f76:	490c      	ldr	r1, [pc, #48]	; (fa8 <micros+0x34>)
uint32_t micros(void)
{
	uint32_t count, current, istatus;

	__disable_irq();
	current = SYST_CVR;
     f78:	4b0c      	ldr	r3, [pc, #48]	; (fac <micros+0x38>)
	count = systick_millis_count;
	istatus = SCB_ICSR;	// bit 26 indicates if systick exception pending
     f7a:	4a0d      	ldr	r2, [pc, #52]	; (fb0 <micros+0x3c>)
uint32_t micros(void)
{
	uint32_t count, current, istatus;

	__disable_irq();
	current = SYST_CVR;
     f7c:	681b      	ldr	r3, [r3, #0]
	count = systick_millis_count;
     f7e:	6808      	ldr	r0, [r1, #0]
	istatus = SCB_ICSR;	// bit 26 indicates if systick exception pending
     f80:	6812      	ldr	r2, [r2, #0]
	__enable_irq();
     f82:	b662      	cpsie	i
	 //systick_current = current;
	 //systick_count = count;
	 //systick_istatus = istatus & SCB_ICSR_PENDSTSET ? 1 : 0;
	if ((istatus & SCB_ICSR_PENDSTSET) && current > 50) count++;
     f84:	0152      	lsls	r2, r2, #5
     f86:	d502      	bpl.n	f8e <micros+0x1a>
     f88:	2b32      	cmp	r3, #50	; 0x32
     f8a:	bf88      	it	hi
     f8c:	3001      	addhi	r0, #1
#if defined(KINETISL) && F_CPU == 48000000
	return count * 1000 + ((current * (uint32_t)87381) >> 22);
#elif defined(KINETISL) && F_CPU == 24000000
	return count * 1000 + ((current * (uint32_t)174763) >> 22);
#endif
	return count * 1000 + current / (F_CPU / 1000000);
     f8e:	4909      	ldr	r1, [pc, #36]	; (fb4 <micros+0x40>)
     f90:	f5c3 33ea 	rsb	r3, r3, #119808	; 0x1d400
     f94:	f44f 727a 	mov.w	r2, #1000	; 0x3e8
     f98:	33bf      	adds	r3, #191	; 0xbf
     f9a:	fba1 1303 	umull	r1, r3, r1, r3
     f9e:	fb02 f000 	mul.w	r0, r2, r0
}
     fa2:	eb00 1093 	add.w	r0, r0, r3, lsr #6
     fa6:	4770      	bx	lr
     fa8:	1fff1d68 	.word	0x1fff1d68
     fac:	e000e018 	.word	0xe000e018
     fb0:	e000ed04 	.word	0xe000ed04
     fb4:	88888889 	.word	0x88888889

00000fb8 <delay>:

void delay(uint32_t ms)
{
     fb8:	e92d 43f8 	stmdb	sp!, {r3, r4, r5, r6, r7, r8, r9, lr}
     fbc:	4605      	mov	r5, r0

uint32_t micros(void)
{
	uint32_t count, current, istatus;

	__disable_irq();
     fbe:	b672      	cpsid	i
	current = SYST_CVR;
	count = systick_millis_count;
     fc0:	4f20      	ldr	r7, [pc, #128]	; (1044 <delay+0x8c>)
uint32_t micros(void)
{
	uint32_t count, current, istatus;

	__disable_irq();
	current = SYST_CVR;
     fc2:	4b21      	ldr	r3, [pc, #132]	; (1048 <delay+0x90>)
	count = systick_millis_count;
	istatus = SCB_ICSR;	// bit 26 indicates if systick exception pending
     fc4:	4a21      	ldr	r2, [pc, #132]	; (104c <delay+0x94>)
uint32_t micros(void)
{
	uint32_t count, current, istatus;

	__disable_irq();
	current = SYST_CVR;
     fc6:	681b      	ldr	r3, [r3, #0]
	count = systick_millis_count;
     fc8:	683c      	ldr	r4, [r7, #0]
	istatus = SCB_ICSR;	// bit 26 indicates if systick exception pending
     fca:	6812      	ldr	r2, [r2, #0]
	__enable_irq();
     fcc:	b662      	cpsie	i
	 //systick_current = current;
	 //systick_count = count;
	 //systick_istatus = istatus & SCB_ICSR_PENDSTSET ? 1 : 0;
	if ((istatus & SCB_ICSR_PENDSTSET) && current > 50) count++;
     fce:	0152      	lsls	r2, r2, #5
     fd0:	d502      	bpl.n	fd8 <delay+0x20>
     fd2:	2b32      	cmp	r3, #50	; 0x32
     fd4:	bf88      	it	hi
     fd6:	3401      	addhi	r4, #1

void delay(uint32_t ms)
{
	uint32_t start = micros();

	if (ms > 0) {
     fd8:	b395      	cbz	r5, 1040 <delay+0x88>
#if defined(KINETISL) && F_CPU == 48000000
	return count * 1000 + ((current * (uint32_t)87381) >> 22);
#elif defined(KINETISL) && F_CPU == 24000000
	return count * 1000 + ((current * (uint32_t)174763) >> 22);
#endif
	return count * 1000 + current / (F_CPU / 1000000);
     fda:	f5c3 33ea 	rsb	r3, r3, #119808	; 0x1d400
     fde:	4e1c      	ldr	r6, [pc, #112]	; (1050 <delay+0x98>)
uint32_t micros(void)
{
	uint32_t count, current, istatus;

	__disable_irq();
	current = SYST_CVR;
     fe0:	f8df 9064 	ldr.w	r9, [pc, #100]	; 1048 <delay+0x90>
	count = systick_millis_count;
	istatus = SCB_ICSR;	// bit 26 indicates if systick exception pending
     fe4:	f8df 8064 	ldr.w	r8, [pc, #100]	; 104c <delay+0x94>
#if defined(KINETISL) && F_CPU == 48000000
	return count * 1000 + ((current * (uint32_t)87381) >> 22);
#elif defined(KINETISL) && F_CPU == 24000000
	return count * 1000 + ((current * (uint32_t)174763) >> 22);
#endif
	return count * 1000 + current / (F_CPU / 1000000);
     fe8:	33bf      	adds	r3, #191	; 0xbf
     fea:	f44f 727a 	mov.w	r2, #1000	; 0x3e8
     fee:	fba6 1303 	umull	r1, r3, r6, r3
     ff2:	fb02 f404 	mul.w	r4, r2, r4
     ff6:	eb04 1493 	add.w	r4, r4, r3, lsr #6

uint32_t micros(void)
{
	uint32_t count, current, istatus;

	__disable_irq();
     ffa:	b672      	cpsid	i
	current = SYST_CVR;
     ffc:	f8d9 1000 	ldr.w	r1, [r9]
	count = systick_millis_count;
    1000:	683a      	ldr	r2, [r7, #0]
	istatus = SCB_ICSR;	// bit 26 indicates if systick exception pending
    1002:	f8d8 e000 	ldr.w	lr, [r8]
	__enable_irq();
    1006:	b662      	cpsie	i
{
	uint32_t start = micros();

	if (ms > 0) {
		while (1) {
			while ((micros() - start) >= 1000) {
    1008:	f5c1 33ea 	rsb	r3, r1, #119808	; 0x1d400
    100c:	33bf      	adds	r3, #191	; 0xbf
    100e:	fba6 0303 	umull	r0, r3, r6, r3
	istatus = SCB_ICSR;	// bit 26 indicates if systick exception pending
	__enable_irq();
	 //systick_current = current;
	 //systick_count = count;
	 //systick_istatus = istatus & SCB_ICSR_PENDSTSET ? 1 : 0;
	if ((istatus & SCB_ICSR_PENDSTSET) && current > 50) count++;
    1012:	f01e 6f80 	tst.w	lr, #67108864	; 0x4000000
{
	uint32_t start = micros();

	if (ms > 0) {
		while (1) {
			while ((micros() - start) >= 1000) {
    1016:	ebc4 1393 	rsb	r3, r4, r3, lsr #6
    101a:	f44f 707a 	mov.w	r0, #1000	; 0x3e8
	istatus = SCB_ICSR;	// bit 26 indicates if systick exception pending
	__enable_irq();
	 //systick_current = current;
	 //systick_count = count;
	 //systick_istatus = istatus & SCB_ICSR_PENDSTSET ? 1 : 0;
	if ((istatus & SCB_ICSR_PENDSTSET) && current > 50) count++;
    101e:	d002      	beq.n	1026 <delay+0x6e>
    1020:	2932      	cmp	r1, #50	; 0x32
    1022:	bf88      	it	hi
    1024:	3201      	addhi	r2, #1
{
	uint32_t start = micros();

	if (ms > 0) {
		while (1) {
			while ((micros() - start) >= 1000) {
    1026:	fb00 3302 	mla	r3, r0, r2, r3
    102a:	f5b3 7f7a 	cmp.w	r3, #1000	; 0x3e8
    102e:	d304      	bcc.n	103a <delay+0x82>
				ms--;
				if (ms == 0) return;
    1030:	3d01      	subs	r5, #1
    1032:	d005      	beq.n	1040 <delay+0x88>
				start += 1000;
    1034:	f504 747a 	add.w	r4, r4, #1000	; 0x3e8
    1038:	e7df      	b.n	ffa <delay+0x42>
			}
			yield();
    103a:	f001 faf9 	bl	2630 <yield>
		}
    103e:	e7dc      	b.n	ffa <delay+0x42>
    1040:	e8bd 83f8 	ldmia.w	sp!, {r3, r4, r5, r6, r7, r8, r9, pc}
    1044:	1fff1d68 	.word	0x1fff1d68
    1048:	e000e018 	.word	0xe000e018
    104c:	e000ed04 	.word	0xe000ed04
    1050:	88888889 	.word	0x88888889

00001054 <_init_Teensyduino_internal_>:
#endif

//void init_pins(void)
__attribute__((noinline))
void _init_Teensyduino_internal_(void)
{
    1054:	b5f8      	push	{r3, r4, r5, r6, r7, lr}
#if defined(__MK20DX128__) || defined(__MK20DX256__) || defined(__MK64FX512__) || defined(__MK66FX1M0__)
	NVIC_ENABLE_IRQ(IRQ_PORTA);
    1056:	4b3e      	ldr	r3, [pc, #248]	; (1150 <_init_Teensyduino_internal_+0xfc>)
	NVIC_ENABLE_IRQ(IRQ_PORTA);
	NVIC_ENABLE_IRQ(IRQ_PORTCD);
#endif
	//SIM_SCGC6 |= SIM_SCGC6_FTM0;	// TODO: use bitband for atomic read-mod-write
	//SIM_SCGC6 |= SIM_SCGC6_FTM1;
	FTM0_CNT = 0;
    1058:	493e      	ldr	r1, [pc, #248]	; (1154 <_init_Teensyduino_internal_+0x100>)
	FTM0_MOD = DEFAULT_FTM_MOD;
    105a:	f8df c118 	ldr.w	ip, [pc, #280]	; 1174 <_init_Teensyduino_internal_+0x120>
	FTM0_C0SC = 0x28; // MSnB:MSnA = 10, ELSnB:ELSnA = 10
	FTM0_C1SC = 0x28;
    105e:	4e3e      	ldr	r6, [pc, #248]	; (1158 <_init_Teensyduino_internal_+0x104>)
	FTM0_C2SC = 0x28;
    1060:	4a3e      	ldr	r2, [pc, #248]	; (115c <_init_Teensyduino_internal_+0x108>)
#endif
	//SIM_SCGC6 |= SIM_SCGC6_FTM0;	// TODO: use bitband for atomic read-mod-write
	//SIM_SCGC6 |= SIM_SCGC6_FTM1;
	FTM0_CNT = 0;
	FTM0_MOD = DEFAULT_FTM_MOD;
	FTM0_C0SC = 0x28; // MSnB:MSnA = 10, ELSnB:ELSnA = 10
    1062:	f8df e114 	ldr.w	lr, [pc, #276]	; 1178 <_init_Teensyduino_internal_+0x124>
	FTM0_C1SC = 0x28;
	FTM0_C2SC = 0x28;
	FTM0_C3SC = 0x28;
    1066:	4d3e      	ldr	r5, [pc, #248]	; (1160 <_init_Teensyduino_internal_+0x10c>)
	FTM0_C4SC = 0x28;
    1068:	4c3e      	ldr	r4, [pc, #248]	; (1164 <_init_Teensyduino_internal_+0x110>)
	FTM0_C5SC = 0x28;
    106a:	4f3f      	ldr	r7, [pc, #252]	; (1168 <_init_Teensyduino_internal_+0x114>)
//void init_pins(void)
__attribute__((noinline))
void _init_Teensyduino_internal_(void)
{
#if defined(__MK20DX128__) || defined(__MK20DX256__) || defined(__MK64FX512__) || defined(__MK66FX1M0__)
	NVIC_ENABLE_IRQ(IRQ_PORTA);
    106c:	f04f 6000 	mov.w	r0, #134217728	; 0x8000000
    1070:	6018      	str	r0, [r3, #0]
	NVIC_ENABLE_IRQ(IRQ_PORTB);
    1072:	f04f 5080 	mov.w	r0, #268435456	; 0x10000000
    1076:	6018      	str	r0, [r3, #0]
	NVIC_ENABLE_IRQ(IRQ_PORTC);
    1078:	f04f 5000 	mov.w	r0, #536870912	; 0x20000000
    107c:	6018      	str	r0, [r3, #0]
	NVIC_ENABLE_IRQ(IRQ_PORTD);
    107e:	f04f 4080 	mov.w	r0, #1073741824	; 0x40000000
    1082:	6018      	str	r0, [r3, #0]
	NVIC_ENABLE_IRQ(IRQ_PORTE);
    1084:	f04f 4000 	mov.w	r0, #2147483648	; 0x80000000
    1088:	6018      	str	r0, [r3, #0]
	NVIC_ENABLE_IRQ(IRQ_PORTA);
	NVIC_ENABLE_IRQ(IRQ_PORTCD);
#endif
	//SIM_SCGC6 |= SIM_SCGC6_FTM0;	// TODO: use bitband for atomic read-mod-write
	//SIM_SCGC6 |= SIM_SCGC6_FTM1;
	FTM0_CNT = 0;
    108a:	2000      	movs	r0, #0
    108c:	6008      	str	r0, [r1, #0]
	FTM0_MOD = DEFAULT_FTM_MOD;
	FTM0_C0SC = 0x28; // MSnB:MSnA = 10, ELSnB:ELSnA = 10
    108e:	2328      	movs	r3, #40	; 0x28
	NVIC_ENABLE_IRQ(IRQ_PORTCD);
#endif
	//SIM_SCGC6 |= SIM_SCGC6_FTM0;	// TODO: use bitband for atomic read-mod-write
	//SIM_SCGC6 |= SIM_SCGC6_FTM1;
	FTM0_CNT = 0;
	FTM0_MOD = DEFAULT_FTM_MOD;
    1090:	f64e 71ff 	movw	r1, #61439	; 0xefff
    1094:	f8cc 1000 	str.w	r1, [ip]
	FTM0_C0SC = 0x28; // MSnB:MSnA = 10, ELSnB:ELSnA = 10
    1098:	f8ce 3000 	str.w	r3, [lr]
	FTM0_C1SC = 0x28;
    109c:	6033      	str	r3, [r6, #0]
	FTM0_C7SC = 0x28;
#endif
#if defined(__MK64FX512__) || defined(__MK66FX1M0__)
	FTM3_C0SC = 0x28;
	FTM3_C1SC = 0x28;
	FTM3_C2SC = 0x28;
    109e:	f50e 2e01 	add.w	lr, lr, #528384	; 0x81000
	//SIM_SCGC6 |= SIM_SCGC6_FTM1;
	FTM0_CNT = 0;
	FTM0_MOD = DEFAULT_FTM_MOD;
	FTM0_C0SC = 0x28; // MSnB:MSnA = 10, ELSnB:ELSnA = 10
	FTM0_C1SC = 0x28;
	FTM0_C2SC = 0x28;
    10a2:	6013      	str	r3, [r2, #0]
	FTM0_C3SC = 0x28;
    10a4:	602b      	str	r3, [r5, #0]
	FTM0_C4SC = 0x28;
    10a6:	6023      	str	r3, [r4, #0]
#if defined(__MK20DX128__) || defined(__MK20DX256__) || defined(__MK64FX512__) || defined(__MK66FX1M0__)
	FTM0_C6SC = 0x28;
	FTM0_C7SC = 0x28;
#endif
#if defined(__MK64FX512__) || defined(__MK66FX1M0__)
	FTM3_C0SC = 0x28;
    10a8:	f505 2500 	add.w	r5, r5, #524288	; 0x80000
	FTM0_C0SC = 0x28; // MSnB:MSnA = 10, ELSnB:ELSnA = 10
	FTM0_C1SC = 0x28;
	FTM0_C2SC = 0x28;
	FTM0_C3SC = 0x28;
	FTM0_C4SC = 0x28;
	FTM0_C5SC = 0x28;
    10ac:	603b      	str	r3, [r7, #0]
	FTM0_C6SC = 0x28;
	FTM0_C7SC = 0x28;
#endif
#if defined(__MK64FX512__) || defined(__MK66FX1M0__)
	FTM3_C0SC = 0x28;
	FTM3_C1SC = 0x28;
    10ae:	f504 2400 	add.w	r4, r4, #524288	; 0x80000
	FTM0_C2SC = 0x28;
	FTM0_C3SC = 0x28;
	FTM0_C4SC = 0x28;
	FTM0_C5SC = 0x28;
#if defined(__MK20DX128__) || defined(__MK20DX256__) || defined(__MK64FX512__) || defined(__MK66FX1M0__)
	FTM0_C6SC = 0x28;
    10b2:	62b3      	str	r3, [r6, #40]	; 0x28
#endif
#if defined(__MK64FX512__) || defined(__MK66FX1M0__)
	FTM3_C0SC = 0x28;
	FTM3_C1SC = 0x28;
	FTM3_C2SC = 0x28;
	FTM3_C3SC = 0x28;
    10b4:	f507 2700 	add.w	r7, r7, #524288	; 0x80000
	FTM0_C3SC = 0x28;
	FTM0_C4SC = 0x28;
	FTM0_C5SC = 0x28;
#if defined(__MK20DX128__) || defined(__MK20DX256__) || defined(__MK64FX512__) || defined(__MK66FX1M0__)
	FTM0_C6SC = 0x28;
	FTM0_C7SC = 0x28;
    10b8:	6293      	str	r3, [r2, #40]	; 0x28
	FTM3_C0SC = 0x28;
	FTM3_C1SC = 0x28;
	FTM3_C2SC = 0x28;
	FTM3_C3SC = 0x28;
	FTM3_C4SC = 0x28;
	FTM3_C5SC = 0x28;
    10ba:	f506 2601 	add.w	r6, r6, #528384	; 0x81000
#if defined(__MK64FX512__) || defined(__MK66FX1M0__)
	FTM3_C0SC = 0x28;
	FTM3_C1SC = 0x28;
	FTM3_C2SC = 0x28;
	FTM3_C3SC = 0x28;
	FTM3_C4SC = 0x28;
    10be:	f502 2201 	add.w	r2, r2, #528384	; 0x81000
	FTM0_C7SC = 0x28;
#endif
#if defined(__MK64FX512__) || defined(__MK66FX1M0__)
	FTM3_C0SC = 0x28;
	FTM3_C1SC = 0x28;
	FTM3_C2SC = 0x28;
    10c2:	f10e 0e10 	add.w	lr, lr, #16
#if defined(__MK20DX128__) || defined(__MK20DX256__) || defined(__MK64FX512__) || defined(__MK66FX1M0__)
	FTM0_C6SC = 0x28;
	FTM0_C7SC = 0x28;
#endif
#if defined(__MK64FX512__) || defined(__MK66FX1M0__)
	FTM3_C0SC = 0x28;
    10c6:	f605 75e8 	addw	r5, r5, #4072	; 0xfe8
	FTM3_C1SC = 0x28;
    10ca:	f604 74e8 	addw	r4, r4, #4072	; 0xfe8
	FTM3_C2SC = 0x28;
	FTM3_C3SC = 0x28;
    10ce:	f507 677f 	add.w	r7, r7, #4080	; 0xff0
	FTM3_C4SC = 0x28;
    10d2:	3210      	adds	r2, #16
	FTM3_C5SC = 0x28;
    10d4:	3620      	adds	r6, #32
#if defined(__MK20DX128__) || defined(__MK20DX256__) || defined(__MK64FX512__) || defined(__MK66FX1M0__)
	FTM0_C6SC = 0x28;
	FTM0_C7SC = 0x28;
#endif
#if defined(__MK64FX512__) || defined(__MK66FX1M0__)
	FTM3_C0SC = 0x28;
    10d6:	602b      	str	r3, [r5, #0]
	FTM3_C1SC = 0x28;
    10d8:	6023      	str	r3, [r4, #0]
	FTM3_C2SC = 0x28;
    10da:	f8ce 3000 	str.w	r3, [lr]
	FTM3_C3SC = 0x28;
    10de:	603b      	str	r3, [r7, #0]
	FTM3_C4SC = 0x28;
    10e0:	6013      	str	r3, [r2, #0]
	FTM3_C5SC = 0x28;
    10e2:	6033      	str	r3, [r6, #0]
	FTM3_C6SC = 0x28;
	FTM3_C7SC = 0x28;
#endif
	FTM0_SC = FTM_SC_CLKS(1) | FTM_SC_PS(DEFAULT_FTM_PRESCALE);
    10e4:	4e21      	ldr	r6, [pc, #132]	; (116c <_init_Teensyduino_internal_+0x118>)
	FTM3_C1SC = 0x28;
	FTM3_C2SC = 0x28;
	FTM3_C3SC = 0x28;
	FTM3_C4SC = 0x28;
	FTM3_C5SC = 0x28;
	FTM3_C6SC = 0x28;
    10e6:	61bb      	str	r3, [r7, #24]
	FTM3_C7SC = 0x28;
    10e8:	6193      	str	r3, [r2, #24]
#endif
	FTM0_SC = FTM_SC_CLKS(1) | FTM_SC_PS(DEFAULT_FTM_PRESCALE);
    10ea:	2209      	movs	r2, #9
    10ec:	6032      	str	r2, [r6, #0]
	FTM1_CNT = 0;
    10ee:	f5a7 2700 	sub.w	r7, r7, #524288	; 0x80000
	FTM1_MOD = DEFAULT_FTM_MOD;
    10f2:	f506 5680 	add.w	r6, r6, #4096	; 0x1000
	FTM3_C5SC = 0x28;
	FTM3_C6SC = 0x28;
	FTM3_C7SC = 0x28;
#endif
	FTM0_SC = FTM_SC_CLKS(1) | FTM_SC_PS(DEFAULT_FTM_PRESCALE);
	FTM1_CNT = 0;
    10f6:	3f20      	subs	r7, #32
	FTM1_MOD = DEFAULT_FTM_MOD;
    10f8:	3608      	adds	r6, #8
	FTM3_C5SC = 0x28;
	FTM3_C6SC = 0x28;
	FTM3_C7SC = 0x28;
#endif
	FTM0_SC = FTM_SC_CLKS(1) | FTM_SC_PS(DEFAULT_FTM_PRESCALE);
	FTM1_CNT = 0;
    10fa:	6038      	str	r0, [r7, #0]
	FTM1_MOD = DEFAULT_FTM_MOD;
    10fc:	6031      	str	r1, [r6, #0]
	FTM1_C0SC = 0x28;
    10fe:	60bb      	str	r3, [r7, #8]
	FTM1_C1SC = 0x28;
    1100:	60f3      	str	r3, [r6, #12]
	FTM1_SC = FTM_SC_CLKS(1) | FTM_SC_PS(DEFAULT_FTM_PRESCALE);
    1102:	f847 2c04 	str.w	r2, [r7, #-4]
#if defined(__MK20DX256__) || defined(__MK64FX512__) || defined(__MK66FX1M0__) || defined(__MKL26Z64__)
	FTM2_CNT = 0;
    1106:	f506 26fd 	add.w	r6, r6, #518144	; 0x7e800
	FTM2_MOD = DEFAULT_FTM_MOD;
    110a:	f507 27fe 	add.w	r7, r7, #520192	; 0x7f000
	FTM1_MOD = DEFAULT_FTM_MOD;
	FTM1_C0SC = 0x28;
	FTM1_C1SC = 0x28;
	FTM1_SC = FTM_SC_CLKS(1) | FTM_SC_PS(DEFAULT_FTM_PRESCALE);
#if defined(__MK20DX256__) || defined(__MK64FX512__) || defined(__MK66FX1M0__) || defined(__MKL26Z64__)
	FTM2_CNT = 0;
    110e:	f206 76fc 	addw	r6, r6, #2044	; 0x7fc
	FTM2_MOD = DEFAULT_FTM_MOD;
    1112:	3704      	adds	r7, #4
	FTM1_MOD = DEFAULT_FTM_MOD;
	FTM1_C0SC = 0x28;
	FTM1_C1SC = 0x28;
	FTM1_SC = FTM_SC_CLKS(1) | FTM_SC_PS(DEFAULT_FTM_PRESCALE);
#if defined(__MK20DX256__) || defined(__MK64FX512__) || defined(__MK66FX1M0__) || defined(__MKL26Z64__)
	FTM2_CNT = 0;
    1114:	6030      	str	r0, [r6, #0]
	FTM2_MOD = DEFAULT_FTM_MOD;
    1116:	6039      	str	r1, [r7, #0]
	FTM2_C0SC = 0x28;
    1118:	60b3      	str	r3, [r6, #8]
	FTM2_C1SC = 0x28;
    111a:	60fb      	str	r3, [r7, #12]
	FTM2_SC = FTM_SC_CLKS(1) | FTM_SC_PS(DEFAULT_FTM_PRESCALE);
    111c:	f846 2c04 	str.w	r2, [r6, #-4]
	FTM1_C1SC = 0x28;
	FTM1_SC = FTM_SC_CLKS(1) | FTM_SC_PS(DEFAULT_FTM_PRESCALE);
#if defined(__MK20DX256__) || defined(__MK64FX512__) || defined(__MK66FX1M0__) || defined(__MKL26Z64__)
	FTM2_CNT = 0;
	FTM2_MOD = DEFAULT_FTM_MOD;
	FTM2_C0SC = 0x28;
    1120:	3608      	adds	r6, #8
	FTM2_C1SC = 0x28;
	FTM2_SC = FTM_SC_CLKS(1) | FTM_SC_PS(DEFAULT_FTM_PRESCALE);
#endif
#if defined(__MK64FX512__) || defined(__MK66FX1M0__)
	FTM3_CNT = 0;
    1122:	f8c7 0ffc 	str.w	r0, [r7, #4092]	; 0xffc
	FTM3_MOD = DEFAULT_FTM_MOD;
    1126:	f606 76fc 	addw	r6, r6, #4092	; 0xffc
	FTM3_C0SC = 0x28;
	FTM3_C1SC = 0x28;
	FTM3_SC = FTM_SC_CLKS(1) | FTM_SC_PS(DEFAULT_FTM_PRESCALE);
    112a:	4811      	ldr	r0, [pc, #68]	; (1170 <_init_Teensyduino_internal_+0x11c>)
	FTM2_C1SC = 0x28;
	FTM2_SC = FTM_SC_CLKS(1) | FTM_SC_PS(DEFAULT_FTM_PRESCALE);
#endif
#if defined(__MK64FX512__) || defined(__MK66FX1M0__)
	FTM3_CNT = 0;
	FTM3_MOD = DEFAULT_FTM_MOD;
    112c:	6031      	str	r1, [r6, #0]
	FTM3_C0SC = 0x28;
    112e:	602b      	str	r3, [r5, #0]
	FTM3_C1SC = 0x28;
    1130:	6023      	str	r3, [r4, #0]
	FTM3_SC = FTM_SC_CLKS(1) | FTM_SC_PS(DEFAULT_FTM_PRESCALE);
    1132:	6002      	str	r2, [r0, #0]
	TPM1_MOD = 32767;
	TPM1_C0SC = 0x28;
	TPM1_C1SC = 0x28;
	TPM1_SC = FTM_SC_CLKS(1) | FTM_SC_PS(0);
#endif
	analog_init();
    1134:	f001 fade 	bl	26f4 <analog_init>
	// for background about this startup delay, please see these conversations
	// https://forum.pjrc.com/threads/36606-startup-time-(400ms)?p=113980&viewfull=1#post113980
	// https://forum.pjrc.com/threads/31290-Teensey-3-2-Teensey-Loader-1-24-Issues?p=87273&viewfull=1#post87273
#if TEENSYDUINO >= 142
	delay(25);
    1138:	2019      	movs	r0, #25
    113a:	f7ff ff3d 	bl	fb8 <delay>
	usb_init();
    113e:	f000 fe5f 	bl	1e00 <usb_init>
	delay(275);
    1142:	f240 1013 	movw	r0, #275	; 0x113
#else
	delay(50);
	usb_init();
	delay(350);
#endif
}
    1146:	e8bd 40f8 	ldmia.w	sp!, {r3, r4, r5, r6, r7, lr}
	// https://forum.pjrc.com/threads/36606-startup-time-(400ms)?p=113980&viewfull=1#post113980
	// https://forum.pjrc.com/threads/31290-Teensey-3-2-Teensey-Loader-1-24-Issues?p=87273&viewfull=1#post87273
#if TEENSYDUINO >= 142
	delay(25);
	usb_init();
	delay(275);
    114a:	f7ff bf35 	b.w	fb8 <delay>
    114e:	bf00      	nop
    1150:	e000e104 	.word	0xe000e104
    1154:	40038004 	.word	0x40038004
    1158:	40038014 	.word	0x40038014
    115c:	4003801c 	.word	0x4003801c
    1160:	40038024 	.word	0x40038024
    1164:	4003802c 	.word	0x4003802c
    1168:	40038034 	.word	0x40038034
    116c:	40038000 	.word	0x40038000
    1170:	400b9000 	.word	0x400b9000
    1174:	40038008 	.word	0x40038008
    1178:	4003800c 	.word	0x4003800c

0000117c <usb_rx>:


usb_packet_t *usb_rx(uint32_t endpoint)
{
	usb_packet_t *ret;
	endpoint--;
    117c:	1e43      	subs	r3, r0, #1
	if (endpoint >= NUM_ENDPOINTS) return NULL;
    117e:	2b03      	cmp	r3, #3
    1180:	d814      	bhi.n	11ac <usb_rx+0x30>
	__disable_irq();
    1182:	b672      	cpsid	i
	ret = rx_first[endpoint];
    1184:	490a      	ldr	r1, [pc, #40]	; (11b0 <usb_rx+0x34>)
    1186:	f851 0023 	ldr.w	r0, [r1, r3, lsl #2]
	if (ret) {
    118a:	b168      	cbz	r0, 11a8 <usb_rx+0x2c>




usb_packet_t *usb_rx(uint32_t endpoint)
{
    118c:	b470      	push	{r4, r5, r6}
	if (endpoint >= NUM_ENDPOINTS) return NULL;
	__disable_irq();
	ret = rx_first[endpoint];
	if (ret) {
		rx_first[endpoint] = ret->next;
		usb_rx_byte_count_data[endpoint] -= ret->len;
    118e:	4c09      	ldr	r4, [pc, #36]	; (11b4 <usb_rx+0x38>)
    1190:	8805      	ldrh	r5, [r0, #0]
    1192:	f834 2013 	ldrh.w	r2, [r4, r3, lsl #1]
	endpoint--;
	if (endpoint >= NUM_ENDPOINTS) return NULL;
	__disable_irq();
	ret = rx_first[endpoint];
	if (ret) {
		rx_first[endpoint] = ret->next;
    1196:	6846      	ldr	r6, [r0, #4]
    1198:	f841 6023 	str.w	r6, [r1, r3, lsl #2]
		usb_rx_byte_count_data[endpoint] -= ret->len;
    119c:	1b52      	subs	r2, r2, r5
    119e:	f824 2013 	strh.w	r2, [r4, r3, lsl #1]
	}
	__enable_irq();
    11a2:	b662      	cpsie	i
	//serial_phex(endpoint);
	//serial_print(", packet=");
	//serial_phex32(ret);
	//serial_print("\n");
	return ret;
}
    11a4:	bc70      	pop	{r4, r5, r6}
    11a6:	4770      	bx	lr
	ret = rx_first[endpoint];
	if (ret) {
		rx_first[endpoint] = ret->next;
		usb_rx_byte_count_data[endpoint] -= ret->len;
	}
	__enable_irq();
    11a8:	b662      	cpsie	i
	//serial_phex(endpoint);
	//serial_print(", packet=");
	//serial_phex32(ret);
	//serial_print("\n");
	return ret;
}
    11aa:	4770      	bx	lr

usb_packet_t *usb_rx(uint32_t endpoint)
{
	usb_packet_t *ret;
	endpoint--;
	if (endpoint >= NUM_ENDPOINTS) return NULL;
    11ac:	2000      	movs	r0, #0
    11ae:	4770      	bx	lr
    11b0:	1fff1dc4 	.word	0x1fff1dc4
    11b4:	1fff21b8 	.word	0x1fff21b8

000011b8 <usb_tx_packet_count>:
uint32_t usb_tx_packet_count(uint32_t endpoint)
{
	const usb_packet_t *p;
	uint32_t count=0;

	endpoint--;
    11b8:	3801      	subs	r0, #1
	if (endpoint >= NUM_ENDPOINTS) return 0;
    11ba:	2803      	cmp	r0, #3
    11bc:	d80b      	bhi.n	11d6 <usb_tx_packet_count+0x1e>
	__disable_irq();
    11be:	b672      	cpsid	i
	for (p = tx_first[endpoint]; p; p = p->next) count++;
    11c0:	4b07      	ldr	r3, [pc, #28]	; (11e0 <usb_tx_packet_count+0x28>)
    11c2:	f853 3020 	ldr.w	r3, [r3, r0, lsl #2]
    11c6:	b143      	cbz	r3, 11da <usb_tx_packet_count+0x22>
    11c8:	2000      	movs	r0, #0
    11ca:	685b      	ldr	r3, [r3, #4]
    11cc:	3001      	adds	r0, #1
    11ce:	2b00      	cmp	r3, #0
    11d0:	d1fb      	bne.n	11ca <usb_tx_packet_count+0x12>
	__enable_irq();
    11d2:	b662      	cpsie	i
	return count;
    11d4:	4770      	bx	lr
{
	const usb_packet_t *p;
	uint32_t count=0;

	endpoint--;
	if (endpoint >= NUM_ENDPOINTS) return 0;
    11d6:	2000      	movs	r0, #0
	__disable_irq();
	for (p = tx_first[endpoint]; p; p = p->next) count++;
	__enable_irq();
	return count;
}
    11d8:	4770      	bx	lr
}

uint32_t usb_tx_packet_count(uint32_t endpoint)
{
	const usb_packet_t *p;
	uint32_t count=0;
    11da:	4618      	mov	r0, r3
    11dc:	e7f9      	b.n	11d2 <usb_tx_packet_count+0x1a>
    11de:	bf00      	nop
    11e0:	1fff1e18 	.word	0x1fff1e18

000011e4 <usb_rx_memory>:
// user is creating data very quickly, their consumption could starve reception
// without this prioritization.  The packet buffer (input) is assigned to the
// first endpoint needing memory.
//
void usb_rx_memory(usb_packet_t *packet)
{
    11e4:	b430      	push	{r4, r5}
	unsigned int i;
	const uint8_t *cfg;

	cfg = usb_endpoint_config_table;
	//serial_print("rx_mem:");
	__disable_irq();
    11e6:	b672      	cpsid	i
	for (i=1; i <= NUM_ENDPOINTS; i++) {
#ifdef AUDIO_INTERFACE
		if (i == AUDIO_RX_ENDPOINT) continue;
#endif
		if (*cfg++ & USB_ENDPT_EPRXEN) {
    11e8:	4a2b      	ldr	r2, [pc, #172]	; (1298 <usb_rx_memory+0xb4>)
    11ea:	7813      	ldrb	r3, [r2, #0]
    11ec:	071d      	lsls	r5, r3, #28
    11ee:	d506      	bpl.n	11fe <usb_rx_memory+0x1a>
			if (table[index(i, RX, EVEN)].desc == 0) {
    11f0:	4b2a      	ldr	r3, [pc, #168]	; (129c <usb_rx_memory+0xb8>)
    11f2:	6a19      	ldr	r1, [r3, #32]
    11f4:	2900      	cmp	r1, #0
    11f6:	d036      	beq.n	1266 <usb_rx_memory+0x82>
				__enable_irq();
				//serial_phex(i);
				//serial_print(",even\n");
				return;
			}
			if (table[index(i, RX, ODD)].desc == 0) {
    11f8:	6a99      	ldr	r1, [r3, #40]	; 0x28
    11fa:	2900      	cmp	r1, #0
    11fc:	d041      	beq.n	1282 <usb_rx_memory+0x9e>
	__disable_irq();
	for (i=1; i <= NUM_ENDPOINTS; i++) {
#ifdef AUDIO_INTERFACE
		if (i == AUDIO_RX_ENDPOINT) continue;
#endif
		if (*cfg++ & USB_ENDPT_EPRXEN) {
    11fe:	7853      	ldrb	r3, [r2, #1]
    1200:	071c      	lsls	r4, r3, #28
    1202:	d506      	bpl.n	1212 <usb_rx_memory+0x2e>
			if (table[index(i, RX, EVEN)].desc == 0) {
    1204:	4b25      	ldr	r3, [pc, #148]	; (129c <usb_rx_memory+0xb8>)
    1206:	6c19      	ldr	r1, [r3, #64]	; 0x40
    1208:	2900      	cmp	r1, #0
    120a:	d03e      	beq.n	128a <usb_rx_memory+0xa6>
				__enable_irq();
				//serial_phex(i);
				//serial_print(",even\n");
				return;
			}
			if (table[index(i, RX, ODD)].desc == 0) {
    120c:	6c99      	ldr	r1, [r3, #72]	; 0x48
    120e:	2900      	cmp	r1, #0
    1210:	d039      	beq.n	1286 <usb_rx_memory+0xa2>
	__disable_irq();
	for (i=1; i <= NUM_ENDPOINTS; i++) {
#ifdef AUDIO_INTERFACE
		if (i == AUDIO_RX_ENDPOINT) continue;
#endif
		if (*cfg++ & USB_ENDPT_EPRXEN) {
    1212:	7893      	ldrb	r3, [r2, #2]
    1214:	0719      	lsls	r1, r3, #28
    1216:	d505      	bpl.n	1224 <usb_rx_memory+0x40>
			if (table[index(i, RX, EVEN)].desc == 0) {
    1218:	4b20      	ldr	r3, [pc, #128]	; (129c <usb_rx_memory+0xb8>)
    121a:	6e19      	ldr	r1, [r3, #96]	; 0x60
    121c:	2900      	cmp	r1, #0
    121e:	d036      	beq.n	128e <usb_rx_memory+0xaa>
				__enable_irq();
				//serial_phex(i);
				//serial_print(",even\n");
				return;
			}
			if (table[index(i, RX, ODD)].desc == 0) {
    1220:	6e99      	ldr	r1, [r3, #104]	; 0x68
    1222:	b189      	cbz	r1, 1248 <usb_rx_memory+0x64>
	__disable_irq();
	for (i=1; i <= NUM_ENDPOINTS; i++) {
#ifdef AUDIO_INTERFACE
		if (i == AUDIO_RX_ENDPOINT) continue;
#endif
		if (*cfg++ & USB_ENDPT_EPRXEN) {
    1224:	78d3      	ldrb	r3, [r2, #3]
    1226:	071b      	lsls	r3, r3, #28
    1228:	d507      	bpl.n	123a <usb_rx_memory+0x56>
			if (table[index(i, RX, EVEN)].desc == 0) {
    122a:	4b1c      	ldr	r3, [pc, #112]	; (129c <usb_rx_memory+0xb8>)
    122c:	f8d3 2080 	ldr.w	r2, [r3, #128]	; 0x80
    1230:	b37a      	cbz	r2, 1292 <usb_rx_memory+0xae>
				__enable_irq();
				//serial_phex(i);
				//serial_print(",even\n");
				return;
			}
			if (table[index(i, RX, ODD)].desc == 0) {
    1232:	f8d3 2088 	ldr.w	r2, [r3, #136]	; 0x88
    1236:	2111      	movs	r1, #17
    1238:	b13a      	cbz	r2, 124a <usb_rx_memory+0x66>
				//serial_print(",odd\n");
				return;
			}
		}
	}
	__enable_irq();
    123a:	b662      	cpsie	i
	// we should never reach this point.  If we get here, it means
	// usb_rx_memory_needed was set greater than zero, but no memory
	// was actually needed.
	usb_rx_memory_needed = 0;
    123c:	4b18      	ldr	r3, [pc, #96]	; (12a0 <usb_rx_memory+0xbc>)
    123e:	2200      	movs	r2, #0
    1240:	701a      	strb	r2, [r3, #0]
	usb_free(packet);
	return;
}
    1242:	bc30      	pop	{r4, r5}
	__enable_irq();
	// we should never reach this point.  If we get here, it means
	// usb_rx_memory_needed was set greater than zero, but no memory
	// was actually needed.
	usb_rx_memory_needed = 0;
	usb_free(packet);
    1244:	f000 be76 	b.w	1f34 <usb_free>
				__enable_irq();
				//serial_phex(i);
				//serial_print(",even\n");
				return;
			}
			if (table[index(i, RX, ODD)].desc == 0) {
    1248:	210d      	movs	r1, #13
				table[index(i, RX, ODD)].addr = packet->buf;
				table[index(i, RX, ODD)].desc = BDT_DESC(64, 1);
				usb_rx_memory_needed--;
    124a:	4c15      	ldr	r4, [pc, #84]	; (12a0 <usb_rx_memory+0xbc>)
				//serial_print(",even\n");
				return;
			}
			if (table[index(i, RX, ODD)].desc == 0) {
				table[index(i, RX, ODD)].addr = packet->buf;
				table[index(i, RX, ODD)].desc = BDT_DESC(64, 1);
    124c:	4d15      	ldr	r5, [pc, #84]	; (12a4 <usb_rx_memory+0xc0>)
				usb_rx_memory_needed--;
    124e:	7822      	ldrb	r2, [r4, #0]
				//serial_print(",even\n");
				return;
			}
			if (table[index(i, RX, ODD)].desc == 0) {
				table[index(i, RX, ODD)].addr = packet->buf;
				table[index(i, RX, ODD)].desc = BDT_DESC(64, 1);
    1250:	f843 5031 	str.w	r5, [r3, r1, lsl #3]
				//serial_phex(i);
				//serial_print(",even\n");
				return;
			}
			if (table[index(i, RX, ODD)].desc == 0) {
				table[index(i, RX, ODD)].addr = packet->buf;
    1254:	eb03 03c1 	add.w	r3, r3, r1, lsl #3
    1258:	3008      	adds	r0, #8
				table[index(i, RX, ODD)].desc = BDT_DESC(64, 1);
				usb_rx_memory_needed--;
    125a:	3a01      	subs	r2, #1
				//serial_phex(i);
				//serial_print(",even\n");
				return;
			}
			if (table[index(i, RX, ODD)].desc == 0) {
				table[index(i, RX, ODD)].addr = packet->buf;
    125c:	6058      	str	r0, [r3, #4]
				table[index(i, RX, ODD)].desc = BDT_DESC(64, 1);
				usb_rx_memory_needed--;
    125e:	7022      	strb	r2, [r4, #0]
				__enable_irq();
    1260:	b662      	cpsie	i
	// usb_rx_memory_needed was set greater than zero, but no memory
	// was actually needed.
	usb_rx_memory_needed = 0;
	usb_free(packet);
	return;
}
    1262:	bc30      	pop	{r4, r5}
    1264:	4770      	bx	lr
	for (i=1; i <= NUM_ENDPOINTS; i++) {
#ifdef AUDIO_INTERFACE
		if (i == AUDIO_RX_ENDPOINT) continue;
#endif
		if (*cfg++ & USB_ENDPT_EPRXEN) {
			if (table[index(i, RX, EVEN)].desc == 0) {
    1266:	2204      	movs	r2, #4
				table[index(i, RX, EVEN)].addr = packet->buf;
				table[index(i, RX, EVEN)].desc = BDT_DESC(64, 0);
				usb_rx_memory_needed--;
    1268:	4c0d      	ldr	r4, [pc, #52]	; (12a0 <usb_rx_memory+0xbc>)
		if (i == AUDIO_RX_ENDPOINT) continue;
#endif
		if (*cfg++ & USB_ENDPT_EPRXEN) {
			if (table[index(i, RX, EVEN)].desc == 0) {
				table[index(i, RX, EVEN)].addr = packet->buf;
				table[index(i, RX, EVEN)].desc = BDT_DESC(64, 0);
    126a:	4d0f      	ldr	r5, [pc, #60]	; (12a8 <usb_rx_memory+0xc4>)
				usb_rx_memory_needed--;
    126c:	7821      	ldrb	r1, [r4, #0]
		if (i == AUDIO_RX_ENDPOINT) continue;
#endif
		if (*cfg++ & USB_ENDPT_EPRXEN) {
			if (table[index(i, RX, EVEN)].desc == 0) {
				table[index(i, RX, EVEN)].addr = packet->buf;
				table[index(i, RX, EVEN)].desc = BDT_DESC(64, 0);
    126e:	f843 5032 	str.w	r5, [r3, r2, lsl #3]
#ifdef AUDIO_INTERFACE
		if (i == AUDIO_RX_ENDPOINT) continue;
#endif
		if (*cfg++ & USB_ENDPT_EPRXEN) {
			if (table[index(i, RX, EVEN)].desc == 0) {
				table[index(i, RX, EVEN)].addr = packet->buf;
    1272:	eb03 03c2 	add.w	r3, r3, r2, lsl #3
    1276:	3008      	adds	r0, #8
				table[index(i, RX, EVEN)].desc = BDT_DESC(64, 0);
				usb_rx_memory_needed--;
    1278:	1e4a      	subs	r2, r1, #1
#ifdef AUDIO_INTERFACE
		if (i == AUDIO_RX_ENDPOINT) continue;
#endif
		if (*cfg++ & USB_ENDPT_EPRXEN) {
			if (table[index(i, RX, EVEN)].desc == 0) {
				table[index(i, RX, EVEN)].addr = packet->buf;
    127a:	6058      	str	r0, [r3, #4]
				table[index(i, RX, EVEN)].desc = BDT_DESC(64, 0);
				usb_rx_memory_needed--;
    127c:	7022      	strb	r2, [r4, #0]
				__enable_irq();
    127e:	b662      	cpsie	i
				//serial_phex(i);
				//serial_print(",even\n");
				return;
    1280:	e7ef      	b.n	1262 <usb_rx_memory+0x7e>
			}
			if (table[index(i, RX, ODD)].desc == 0) {
    1282:	2105      	movs	r1, #5
    1284:	e7e1      	b.n	124a <usb_rx_memory+0x66>
    1286:	2109      	movs	r1, #9
    1288:	e7df      	b.n	124a <usb_rx_memory+0x66>
	for (i=1; i <= NUM_ENDPOINTS; i++) {
#ifdef AUDIO_INTERFACE
		if (i == AUDIO_RX_ENDPOINT) continue;
#endif
		if (*cfg++ & USB_ENDPT_EPRXEN) {
			if (table[index(i, RX, EVEN)].desc == 0) {
    128a:	2208      	movs	r2, #8
    128c:	e7ec      	b.n	1268 <usb_rx_memory+0x84>
    128e:	220c      	movs	r2, #12
    1290:	e7ea      	b.n	1268 <usb_rx_memory+0x84>
    1292:	2210      	movs	r2, #16
    1294:	e7e8      	b.n	1268 <usb_rx_memory+0x84>
    1296:	bf00      	nop
    1298:	00004edc 	.word	0x00004edc
    129c:	1fff0000 	.word	0x1fff0000
    12a0:	1fff1e41 	.word	0x1fff1e41
    12a4:	004000c8 	.word	0x004000c8
    12a8:	00400088 	.word	0x00400088

000012ac <usb_tx>:
void usb_tx(uint32_t endpoint, usb_packet_t *packet)
{
	bdt_t *b = &table[index(endpoint, TX, EVEN)];
	uint8_t next;

	endpoint--;
    12ac:	1e43      	subs	r3, r0, #1
	if (endpoint >= NUM_ENDPOINTS) return;
    12ae:	2b03      	cmp	r3, #3
    12b0:	d81d      	bhi.n	12ee <usb_tx+0x42>
//#define index(endpoint, tx, odd) (((endpoint) << 2) | ((tx) << 1) | (odd))
//#define stat2bufferdescriptor(stat) (table + ((stat) >> 2))

void usb_tx(uint32_t endpoint, usb_packet_t *packet)
{
	bdt_t *b = &table[index(endpoint, TX, EVEN)];
    12b2:	4a1b      	ldr	r2, [pc, #108]	; (1320 <usb_tx+0x74>)
    12b4:	0140      	lsls	r0, r0, #5
    12b6:	f040 0010 	orr.w	r0, r0, #16

//#define index(endpoint, tx, odd) (((endpoint) << 2) | ((tx) << 1) | (odd))
//#define stat2bufferdescriptor(stat) (table + ((stat) >> 2))

void usb_tx(uint32_t endpoint, usb_packet_t *packet)
{
    12ba:	b430      	push	{r4, r5}
	bdt_t *b = &table[index(endpoint, TX, EVEN)];
    12bc:	4410      	add	r0, r2
	uint8_t next;

	endpoint--;
	if (endpoint >= NUM_ENDPOINTS) return;
	__disable_irq();
    12be:	b672      	cpsid	i
	//serial_print("txstate=");
	//serial_phex(tx_state[endpoint]);
	//serial_print("\n");
	switch (tx_state[endpoint]) {
    12c0:	4c18      	ldr	r4, [pc, #96]	; (1324 <usb_tx+0x78>)
    12c2:	5ce2      	ldrb	r2, [r4, r3]
    12c4:	2a03      	cmp	r2, #3
    12c6:	d81b      	bhi.n	1300 <usb_tx+0x54>
    12c8:	e8df f002 	tbb	[pc, r2]
    12cc:	17151202 	.word	0x17151202
	  case TX_STATE_BOTH_FREE_EVEN_FIRST:
		next = TX_STATE_ODD_FREE;
    12d0:	2203      	movs	r2, #3
		__enable_irq();
		return;
	}
	tx_state[endpoint] = next;
	b->addr = packet->buf;
	b->desc = BDT_DESC(packet->len, ((uint32_t)b & 8) ? DATA1 : DATA0);
    12d2:	880d      	ldrh	r5, [r1, #0]
		}
		tx_last[endpoint] = packet;
		__enable_irq();
		return;
	}
	tx_state[endpoint] = next;
    12d4:	54e2      	strb	r2, [r4, r3]
	b->addr = packet->buf;
	b->desc = BDT_DESC(packet->len, ((uint32_t)b & 8) ? DATA1 : DATA0);
    12d6:	f010 0f08 	tst.w	r0, #8
    12da:	bf14      	ite	ne
    12dc:	23c8      	movne	r3, #200	; 0xc8
    12de:	2388      	moveq	r3, #136	; 0x88
    12e0:	ea43 4305 	orr.w	r3, r3, r5, lsl #16
		tx_last[endpoint] = packet;
		__enable_irq();
		return;
	}
	tx_state[endpoint] = next;
	b->addr = packet->buf;
    12e4:	3108      	adds	r1, #8
	b->desc = BDT_DESC(packet->len, ((uint32_t)b & 8) ? DATA1 : DATA0);
    12e6:	6003      	str	r3, [r0, #0]
		tx_last[endpoint] = packet;
		__enable_irq();
		return;
	}
	tx_state[endpoint] = next;
	b->addr = packet->buf;
    12e8:	6041      	str	r1, [r0, #4]
	b->desc = BDT_DESC(packet->len, ((uint32_t)b & 8) ? DATA1 : DATA0);
	__enable_irq();
    12ea:	b662      	cpsie	i
}
    12ec:	bc30      	pop	{r4, r5}
    12ee:	4770      	bx	lr
	switch (tx_state[endpoint]) {
	  case TX_STATE_BOTH_FREE_EVEN_FIRST:
		next = TX_STATE_ODD_FREE;
		break;
	  case TX_STATE_BOTH_FREE_ODD_FIRST:
		b++;
    12f0:	3008      	adds	r0, #8
		next = TX_STATE_EVEN_FREE;
    12f2:	2202      	movs	r2, #2
		break;
    12f4:	e7ed      	b.n	12d2 <usb_tx+0x26>
	  case TX_STATE_EVEN_FREE:
		next = TX_STATE_NONE_FREE_ODD_FIRST;
    12f6:	2205      	movs	r2, #5
    12f8:	e7eb      	b.n	12d2 <usb_tx+0x26>
		break;
	  case TX_STATE_ODD_FREE:
		b++;
    12fa:	3008      	adds	r0, #8
		next = TX_STATE_NONE_FREE_EVEN_FIRST;
    12fc:	2204      	movs	r2, #4
		break;
    12fe:	e7e8      	b.n	12d2 <usb_tx+0x26>
	  default:
		if (tx_first[endpoint] == NULL) {
    1300:	4a09      	ldr	r2, [pc, #36]	; (1328 <usb_tx+0x7c>)
    1302:	f852 0023 	ldr.w	r0, [r2, r3, lsl #2]
    1306:	b138      	cbz	r0, 1318 <usb_tx+0x6c>
			tx_first[endpoint] = packet;
		} else {
			tx_last[endpoint]->next = packet;
    1308:	4a08      	ldr	r2, [pc, #32]	; (132c <usb_tx+0x80>)
    130a:	f852 0023 	ldr.w	r0, [r2, r3, lsl #2]
    130e:	6041      	str	r1, [r0, #4]
		}
		tx_last[endpoint] = packet;
    1310:	f842 1023 	str.w	r1, [r2, r3, lsl #2]
		__enable_irq();
    1314:	b662      	cpsie	i
		return;
    1316:	e7e9      	b.n	12ec <usb_tx+0x40>
		b++;
		next = TX_STATE_NONE_FREE_EVEN_FIRST;
		break;
	  default:
		if (tx_first[endpoint] == NULL) {
			tx_first[endpoint] = packet;
    1318:	f842 1023 	str.w	r1, [r2, r3, lsl #2]
    131c:	4a03      	ldr	r2, [pc, #12]	; (132c <usb_tx+0x80>)
    131e:	e7f7      	b.n	1310 <usb_tx+0x64>
    1320:	1fff0000 	.word	0x1fff0000
    1324:	1fff1e50 	.word	0x1fff1e50
    1328:	1fff1e18 	.word	0x1fff1e18
    132c:	1fff1e28 	.word	0x1fff1e28

00001330 <usb_isr>:
}



void usb_isr(void)
{
    1330:	e92d 4ff0 	stmdb	sp!, {r4, r5, r6, r7, r8, r9, sl, fp, lr}
	//serial_print("isr");
	//status = USB0_ISTAT;
	//serial_phex(status);
	//serial_print("\n");
	restart:
	status = USB0_ISTAT;
    1334:	f8df b30c 	ldr.w	fp, [pc, #780]	; 1644 <usb_isr+0x314>
		USB0_ISTAT = USB_ISTAT_SOFTOK;
	}

	if ((status & USB_ISTAT_TOKDNE /* 08 */ )) {
		uint8_t endpoint;
		stat = USB0_STAT;
    1338:	f8df a30c 	ldr.w	sl, [pc, #780]	; 1648 <usb_isr+0x318>
}



void usb_isr(void)
{
    133c:	b087      	sub	sp, #28
    133e:	e044      	b.n	13ca <usb_isr+0x9a>
		//serial_print(stat & 0x04 ? ",odd\n" : ",even\n");
		endpoint = stat >> 4;
		if (endpoint == 0) {
			usb_control(stat);
		} else {
			bdt_t *b = stat2bufferdescriptor(stat);
    1340:	4fab      	ldr	r7, [pc, #684]	; (15f0 <usb_isr+0x2c0>)
    1342:	ea4f 0893 	mov.w	r8, r3, lsr #2
    1346:	eb07 09c8 	add.w	r9, r7, r8, lsl #3
			serial_print(((uint32_t)b & 8) ? ", odd" : ", even");
			serial_print(", count:");
			serial_phex(b->desc >> 16);
			serial_print("\n");
#endif
			endpoint--;	// endpoint is index to zero-based arrays
    134a:	3e01      	subs	r6, #1
		endpoint = stat >> 4;
		if (endpoint == 0) {
			usb_control(stat);
		} else {
			bdt_t *b = stat2bufferdescriptor(stat);
			usb_packet_t *packet = (usb_packet_t *)((uint8_t *)(b->addr) - 8);
    134c:	f8d9 2004 	ldr.w	r2, [r9, #4]
				b->addr = &usb_audio_sync_feedback;
				b->desc = (3 << 16) | BDT_OWN;
				tx_state[endpoint] ^= 1;
			} else
#endif
			if (stat & 0x08) { // transmit
    1350:	f003 0308 	and.w	r3, r3, #8
			serial_print(((uint32_t)b & 8) ? ", odd" : ", even");
			serial_print(", count:");
			serial_phex(b->desc >> 16);
			serial_print("\n");
#endif
			endpoint--;	// endpoint is index to zero-based arrays
    1354:	b2f6      	uxtb	r6, r6
		endpoint = stat >> 4;
		if (endpoint == 0) {
			usb_control(stat);
		} else {
			bdt_t *b = stat2bufferdescriptor(stat);
			usb_packet_t *packet = (usb_packet_t *)((uint8_t *)(b->addr) - 8);
    1356:	f1a2 0008 	sub.w	r0, r2, #8
				b->addr = &usb_audio_sync_feedback;
				b->desc = (3 << 16) | BDT_OWN;
				tx_state[endpoint] ^= 1;
			} else
#endif
			if (stat & 0x08) { // transmit
    135a:	f003 04ff 	and.w	r4, r3, #255	; 0xff
    135e:	2b00      	cmp	r3, #0
    1360:	f040 8102 	bne.w	1568 <usb_isr+0x238>
						  TX_STATE_ODD_FREE : TX_STATE_EVEN_FREE;
						break;
					}
				}
			} else { // receive
				packet->len = b->desc >> 16;
    1364:	f857 3038 	ldr.w	r3, [r7, r8, lsl #3]
    1368:	0c1b      	lsrs	r3, r3, #16
    136a:	b299      	uxth	r1, r3
    136c:	f822 1c08 	strh.w	r1, [r2, #-8]
				if (packet->len > 0) {
    1370:	2b00      	cmp	r3, #0
    1372:	f000 80f0 	beq.w	1556 <usb_isr+0x226>
					packet->index = 0;
					packet->next = NULL;
					if (rx_first[endpoint] == NULL) {
    1376:	4b9f      	ldr	r3, [pc, #636]	; (15f4 <usb_isr+0x2c4>)
					}
				}
			} else { // receive
				packet->len = b->desc >> 16;
				if (packet->len > 0) {
					packet->index = 0;
    1378:	f822 4c06 	strh.w	r4, [r2, #-6]
					packet->next = NULL;
    137c:	f842 4c04 	str.w	r4, [r2, #-4]
					if (rx_first[endpoint] == NULL) {
    1380:	f853 2026 	ldr.w	r2, [r3, r6, lsl #2]
    1384:	2a00      	cmp	r2, #0
    1386:	f000 82c5 	beq.w	1914 <usb_isr+0x5e4>
						//serial_print("rx Nth, epidx=");
						//serial_phex(endpoint);
						//serial_print(", packet=");
						//serial_phex32((uint32_t)packet);
						//serial_print("\n");
						rx_last[endpoint]->next = packet;
    138a:	4d9b      	ldr	r5, [pc, #620]	; (15f8 <usb_isr+0x2c8>)
    138c:	f855 3026 	ldr.w	r3, [r5, r6, lsl #2]
    1390:	6058      	str	r0, [r3, #4]
					}
					rx_last[endpoint] = packet;
					usb_rx_byte_count_data[endpoint] += packet->len;
    1392:	4c9a      	ldr	r4, [pc, #616]	; (15fc <usb_isr+0x2cc>)
						//serial_print(", packet=");
						//serial_phex32((uint32_t)packet);
						//serial_print("\n");
						rx_last[endpoint]->next = packet;
					}
					rx_last[endpoint] = packet;
    1394:	f845 0026 	str.w	r0, [r5, r6, lsl #2]
					usb_rx_byte_count_data[endpoint] += packet->len;
    1398:	f834 3016 	ldrh.w	r3, [r4, r6, lsl #1]
    139c:	4419      	add	r1, r3
    139e:	f824 1016 	strh.w	r1, [r4, r6, lsl #1]
					// TODO: implement a per-endpoint maximum # of allocated
					// packets, so a flood of incoming data on 1 endpoint
					// doesn't starve the others if the user isn't reading
					// it regularly
					packet = usb_malloc();
    13a2:	f000 fda7 	bl	1ef4 <usb_malloc>
					if (packet) {
    13a6:	2800      	cmp	r0, #0
    13a8:	f000 82ad 	beq.w	1906 <usb_isr+0x5d6>
						b->addr = packet->buf;
						b->desc = BDT_DESC(64,
    13ac:	4a94      	ldr	r2, [pc, #592]	; (1600 <usb_isr+0x2d0>)
    13ae:	4b95      	ldr	r3, [pc, #596]	; (1604 <usb_isr+0x2d4>)
    13b0:	f019 0f08 	tst.w	r9, #8
					// packets, so a flood of incoming data on 1 endpoint
					// doesn't starve the others if the user isn't reading
					// it regularly
					packet = usb_malloc();
					if (packet) {
						b->addr = packet->buf;
    13b4:	f100 0008 	add.w	r0, r0, #8
						b->desc = BDT_DESC(64,
    13b8:	bf18      	it	ne
    13ba:	4613      	movne	r3, r2
					// packets, so a flood of incoming data on 1 endpoint
					// doesn't starve the others if the user isn't reading
					// it regularly
					packet = usb_malloc();
					if (packet) {
						b->addr = packet->buf;
    13bc:	f8c9 0004 	str.w	r0, [r9, #4]
						b->desc = BDT_DESC(64,
    13c0:	f847 3038 	str.w	r3, [r7, r8, lsl #3]
					b->desc = BDT_DESC(64, ((uint32_t)b & 8) ? DATA1 : DATA0);
				}
			}

		}
		USB0_ISTAT = USB_ISTAT_TOKDNE;
    13c4:	2308      	movs	r3, #8
    13c6:	f88b 3000 	strb.w	r3, [fp]
	//serial_print("isr");
	//status = USB0_ISTAT;
	//serial_phex(status);
	//serial_print("\n");
	restart:
	status = USB0_ISTAT;
    13ca:	f89b 4000 	ldrb.w	r4, [fp]
    13ce:	b2e4      	uxtb	r4, r4

	if ((status & USB_ISTAT_SOFTOK /* 04 */ )) {
    13d0:	0761      	lsls	r1, r4, #29
    13d2:	d51a      	bpl.n	140a <usb_isr+0xda>
		if (usb_configuration) {
    13d4:	4b8c      	ldr	r3, [pc, #560]	; (1608 <usb_isr+0x2d8>)
    13d6:	781b      	ldrb	r3, [r3, #0]
    13d8:	b1a3      	cbz	r3, 1404 <usb_isr+0xd4>
			t = usb_reboot_timer;
    13da:	498c      	ldr	r1, [pc, #560]	; (160c <usb_isr+0x2dc>)
    13dc:	780a      	ldrb	r2, [r1, #0]
			if (t) {
    13de:	f002 03ff 	and.w	r3, r2, #255	; 0xff
    13e2:	b122      	cbz	r2, 13ee <usb_isr+0xbe>
				usb_reboot_timer = --t;
    13e4:	3b01      	subs	r3, #1
    13e6:	b2db      	uxtb	r3, r3
    13e8:	700b      	strb	r3, [r1, #0]
				if (!t) _reboot_Teensyduino_();
    13ea:	b903      	cbnz	r3, 13ee <usb_isr+0xbe>


void _reboot_Teensyduino_(void)
{
	// TODO: initialize R0 with a code....
	__asm__ volatile("bkpt");
    13ec:	be00      	bkpt	0x0000
			if (t) {
				usb_reboot_timer = --t;
				if (!t) _reboot_Teensyduino_();
			}
#ifdef CDC_DATA_INTERFACE
			t = usb_cdc_transmit_flush_timer;
    13ee:	4988      	ldr	r1, [pc, #544]	; (1610 <usb_isr+0x2e0>)
    13f0:	780a      	ldrb	r2, [r1, #0]
			if (t) {
    13f2:	f002 03ff 	and.w	r3, r2, #255	; 0xff
    13f6:	b12a      	cbz	r2, 1404 <usb_isr+0xd4>
				usb_cdc_transmit_flush_timer = --t;
    13f8:	3b01      	subs	r3, #1
    13fa:	b2db      	uxtb	r3, r3
    13fc:	700b      	strb	r3, [r1, #0]
				if (t == 0) usb_serial_flush_callback();
    13fe:	2b00      	cmp	r3, #0
    1400:	f000 8257 	beq.w	18b2 <usb_isr+0x582>
#endif
#ifdef MULTITOUCH_INTERFACE
			usb_touchscreen_update_callback();
#endif
		}
		USB0_ISTAT = USB_ISTAT_SOFTOK;
    1404:	2304      	movs	r3, #4
    1406:	f88b 3000 	strb.w	r3, [fp]
	}

	if ((status & USB_ISTAT_TOKDNE /* 08 */ )) {
    140a:	f004 0308 	and.w	r3, r4, #8
    140e:	f003 02ff 	and.w	r2, r3, #255	; 0xff
    1412:	2b00      	cmp	r3, #0
    1414:	f000 80cc 	beq.w	15b0 <usb_isr+0x280>
		uint8_t endpoint;
		stat = USB0_STAT;
    1418:	f89a 3000 	ldrb.w	r3, [sl]
    141c:	b2db      	uxtb	r3, r3
		//serial_print("token: ep=");
		//serial_phex(stat >> 4);
		//serial_print(stat & 0x08 ? ",tx" : ",rx");
		//serial_print(stat & 0x04 ? ",odd\n" : ",even\n");
		endpoint = stat >> 4;
		if (endpoint == 0) {
    141e:	091e      	lsrs	r6, r3, #4
    1420:	d18e      	bne.n	1340 <usb_isr+0x10>
	bdt_t *b;
	uint32_t pid, size;
	uint8_t *buf;
	const uint8_t *data;

	b = stat2bufferdescriptor(stat);
    1422:	089c      	lsrs	r4, r3, #2
    1424:	f8df 91c8 	ldr.w	r9, [pc, #456]	; 15f0 <usb_isr+0x2c0>
	//serial_phex(pid);
	//serial_print(", count:");
	//serial_phex(count);
	//serial_print("\n");

	switch (pid) {
    1428:	f859 2034 	ldr.w	r2, [r9, r4, lsl #3]
	bdt_t *b;
	uint32_t pid, size;
	uint8_t *buf;
	const uint8_t *data;

	b = stat2bufferdescriptor(stat);
    142c:	eb09 01c4 	add.w	r1, r9, r4, lsl #3
	//serial_phex(pid);
	//serial_print(", count:");
	//serial_phex(count);
	//serial_print("\n");

	switch (pid) {
    1430:	f3c2 0283 	ubfx	r2, r2, #2, #4
    1434:	3a01      	subs	r2, #1
	const uint8_t *data;

	b = stat2bufferdescriptor(stat);
	pid = BDT_PID(b->desc);
	//count = b->desc >> 16;
	buf = b->addr;
    1436:	6849      	ldr	r1, [r1, #4]
	//serial_phex(pid);
	//serial_print(", count:");
	//serial_phex(count);
	//serial_print("\n");

	switch (pid) {
    1438:	2a0c      	cmp	r2, #12
    143a:	f200 8088 	bhi.w	154e <usb_isr+0x21e>
    143e:	e8df f002 	tbb	[pc, r2]
    1442:	7c7c      	.short	0x7c7c
    1444:	86868686 	.word	0x86868686
    1448:	86478686 	.word	0x86478686
    144c:	8686      	.short	0x8686
    144e:	07          	.byte	0x07
    144f:	00          	.byte	0x00
	case 0x0D: // Setup received from host
		//serial_print("PID=Setup\n");
		//if (count != 8) ; // panic?
		// grab the 8 byte setup info
		setup.word1 = *(uint32_t *)(buf);
    1450:	6808      	ldr	r0, [r1, #0]
    1452:	4d70      	ldr	r5, [pc, #448]	; (1614 <usb_isr+0x2e4>)
		setup.word2 = *(uint32_t *)(buf + 4);
    1454:	684a      	ldr	r2, [r1, #4]
		b->desc = BDT_DESC(EP0_SIZE, DATA1);
		//table[index(0, RX, EVEN)].desc = BDT_DESC(EP0_SIZE, 1);
		//table[index(0, RX, ODD)].desc = BDT_DESC(EP0_SIZE, 1);

		// clear any leftover pending IN transactions
		ep0_tx_ptr = NULL;
    1456:	4f70      	ldr	r7, [pc, #448]	; (1618 <usb_isr+0x2e8>)
			//serial_print("leftover tx odd\n");
		//}
		table[index(0, TX, EVEN)].desc = 0;
		table[index(0, TX, ODD)].desc = 0;
		// first IN after Setup is always DATA1
		ep0_tx_data_toggle = 1;
    1458:	4e70      	ldr	r6, [pc, #448]	; (161c <usb_isr+0x2ec>)
	switch (pid) {
	case 0x0D: // Setup received from host
		//serial_print("PID=Setup\n");
		//if (count != 8) ; // panic?
		// grab the 8 byte setup info
		setup.word1 = *(uint32_t *)(buf);
    145a:	6028      	str	r0, [r5, #0]
	volatile uint8_t *reg;
	uint8_t epconf;
	const uint8_t *cfg;
	int i;

	switch (setup.wRequestAndType) {
    145c:	b281      	uxth	r1, r0
    145e:	f240 6081 	movw	r0, #1665	; 0x681
		// grab the 8 byte setup info
		setup.word1 = *(uint32_t *)(buf);
		setup.word2 = *(uint32_t *)(buf + 4);

		// give the buffer back
		b->desc = BDT_DESC(EP0_SIZE, DATA1);
    1462:	4b67      	ldr	r3, [pc, #412]	; (1600 <usb_isr+0x2d0>)
	case 0x0D: // Setup received from host
		//serial_print("PID=Setup\n");
		//if (count != 8) ; // panic?
		// grab the 8 byte setup info
		setup.word1 = *(uint32_t *)(buf);
		setup.word2 = *(uint32_t *)(buf + 4);
    1464:	606a      	str	r2, [r5, #4]
			//serial_print("leftover tx odd\n");
		//}
		table[index(0, TX, EVEN)].desc = 0;
		table[index(0, TX, ODD)].desc = 0;
		// first IN after Setup is always DATA1
		ep0_tx_data_toggle = 1;
    1466:	f04f 0e01 	mov.w	lr, #1
		b->desc = BDT_DESC(EP0_SIZE, DATA1);
		//table[index(0, RX, EVEN)].desc = BDT_DESC(EP0_SIZE, 1);
		//table[index(0, RX, ODD)].desc = BDT_DESC(EP0_SIZE, 1);

		// clear any leftover pending IN transactions
		ep0_tx_ptr = NULL;
    146a:	2200      	movs	r2, #0
	volatile uint8_t *reg;
	uint8_t epconf;
	const uint8_t *cfg;
	int i;

	switch (setup.wRequestAndType) {
    146c:	4281      	cmp	r1, r0
		// grab the 8 byte setup info
		setup.word1 = *(uint32_t *)(buf);
		setup.word2 = *(uint32_t *)(buf + 4);

		// give the buffer back
		b->desc = BDT_DESC(EP0_SIZE, DATA1);
    146e:	f849 3034 	str.w	r3, [r9, r4, lsl #3]
		//table[index(0, RX, EVEN)].desc = BDT_DESC(EP0_SIZE, 1);
		//table[index(0, RX, ODD)].desc = BDT_DESC(EP0_SIZE, 1);

		// clear any leftover pending IN transactions
		ep0_tx_ptr = NULL;
    1472:	603a      	str	r2, [r7, #0]
			//serial_print("leftover tx even\n");
		//}
		//if (table[index(0, TX, ODD)].desc & 0x80) {
			//serial_print("leftover tx odd\n");
		//}
		table[index(0, TX, EVEN)].desc = 0;
    1474:	f8c9 2010 	str.w	r2, [r9, #16]
		table[index(0, TX, ODD)].desc = 0;
    1478:	f8c9 2018 	str.w	r2, [r9, #24]
		// first IN after Setup is always DATA1
		ep0_tx_data_toggle = 1;
    147c:	f886 e000 	strb.w	lr, [r6]
			//serial_print("leftover tx even\n");
		//}
		//if (table[index(0, TX, ODD)].desc & 0x80) {
			//serial_print("leftover tx odd\n");
		//}
		table[index(0, TX, EVEN)].desc = 0;
    1480:	4c5b      	ldr	r4, [pc, #364]	; (15f0 <usb_isr+0x2c0>)
	volatile uint8_t *reg;
	uint8_t epconf;
	const uint8_t *cfg;
	int i;

	switch (setup.wRequestAndType) {
    1482:	f200 80e3 	bhi.w	164c <usb_isr+0x31c>
    1486:	f5b1 6fd0 	cmp.w	r1, #1664	; 0x680
    148a:	f080 8346 	bcs.w	1b1a <usb_isr+0x7ea>
    148e:	f5b1 7f81 	cmp.w	r1, #258	; 0x102
    1492:	f000 82fc 	beq.w	1a8e <usb_isr+0x75e>
    1496:	f200 828d 	bhi.w	19b4 <usb_isr+0x684>
    149a:	2980      	cmp	r1, #128	; 0x80
    149c:	f000 8377 	beq.w	1b8e <usb_isr+0x85e>
    14a0:	2982      	cmp	r1, #130	; 0x82
    14a2:	f040 82fa 	bne.w	1a9a <usb_isr+0x76a>
    14a6:	88a9      	ldrh	r1, [r5, #4]
    14a8:	f001 017f 	and.w	r1, r1, #127	; 0x7f
		datalen = 2;
		data = reply_buffer;
		break;
	  case 0x0082: // GET_STATUS (endpoint)
		i = setup.wIndex & 0x7F;
		if (i > NUM_ENDPOINTS) {
    14ac:	2904      	cmp	r1, #4
    14ae:	f200 82f4 	bhi.w	1a9a <usb_isr+0x76a>
			endpoint0_stall();
			return;
		}
		reply_buffer[0] = 0;
		reply_buffer[1] = 0;
		if (*(uint8_t *)(&USB0_ENDPT0 + i * 4) & 0x02) reply_buffer[0] = 1;
    14b2:	485b      	ldr	r0, [pc, #364]	; (1620 <usb_isr+0x2f0>)
		if (i > NUM_ENDPOINTS) {
			// TODO: do we need to handle IN vs OUT here?
			endpoint0_stall();
			return;
		}
		reply_buffer[0] = 0;
    14b4:	4c5b      	ldr	r4, [pc, #364]	; (1624 <usb_isr+0x2f4>)
		reply_buffer[1] = 0;
		if (*(uint8_t *)(&USB0_ENDPT0 + i * 4) & 0x02) reply_buffer[0] = 1;
    14b6:	0089      	lsls	r1, r1, #2
    14b8:	4408      	add	r0, r1
		if (i > NUM_ENDPOINTS) {
			// TODO: do we need to handle IN vs OUT here?
			endpoint0_stall();
			return;
		}
		reply_buffer[0] = 0;
    14ba:	7022      	strb	r2, [r4, #0]
		reply_buffer[1] = 0;
    14bc:	7062      	strb	r2, [r4, #1]
		if (*(uint8_t *)(&USB0_ENDPT0 + i * 4) & 0x02) reply_buffer[0] = 1;
    14be:	7802      	ldrb	r2, [r0, #0]
    14c0:	0793      	lsls	r3, r2, #30
    14c2:	f140 8458 	bpl.w	1d76 <usb_isr+0xa46>
    14c6:	f884 e000 	strb.w	lr, [r4]
		data = reply_buffer;
		datalen = 2;
    14ca:	f04f 0e02 	mov.w	lr, #2
    14ce:	e342      	b.n	1b56 <usb_isr+0x826>
		//serial_print("PID=IN:");
		//serial_phex(stat);
		//serial_print("\n");

		// send remaining data, if any...
		data = ep0_tx_ptr;
    14d0:	4f51      	ldr	r7, [pc, #324]	; (1618 <usb_isr+0x2e8>)
    14d2:	683a      	ldr	r2, [r7, #0]
		if (data) {
    14d4:	b332      	cbz	r2, 1524 <usb_isr+0x1f4>
			size = ep0_tx_len;
    14d6:	4b54      	ldr	r3, [pc, #336]	; (1628 <usb_isr+0x2f8>)
	serial_phex16(len);
	serial_print(ep0_tx_bdt_bank ? ", odd" : ", even");
	serial_print(ep0_tx_data_toggle ? ", d1\n" : ", d0\n");
#endif
	table[index(0, TX, ep0_tx_bdt_bank)].addr = (void *)data;
	table[index(0, TX, ep0_tx_bdt_bank)].desc = BDT_DESC(len, ep0_tx_data_toggle);
    14d8:	4e50      	ldr	r6, [pc, #320]	; (161c <usb_isr+0x2ec>)
	serial_print(",");
	serial_phex16(len);
	serial_print(ep0_tx_bdt_bank ? ", odd" : ", even");
	serial_print(ep0_tx_data_toggle ? ", d1\n" : ", d0\n");
#endif
	table[index(0, TX, ep0_tx_bdt_bank)].addr = (void *)data;
    14da:	4954      	ldr	r1, [pc, #336]	; (162c <usb_isr+0x2fc>)
		//serial_print("\n");

		// send remaining data, if any...
		data = ep0_tx_ptr;
		if (data) {
			size = ep0_tx_len;
    14dc:	8818      	ldrh	r0, [r3, #0]
	serial_phex16(len);
	serial_print(ep0_tx_bdt_bank ? ", odd" : ", even");
	serial_print(ep0_tx_data_toggle ? ", d1\n" : ", d0\n");
#endif
	table[index(0, TX, ep0_tx_bdt_bank)].addr = (void *)data;
	table[index(0, TX, ep0_tx_bdt_bank)].desc = BDT_DESC(len, ep0_tx_data_toggle);
    14de:	7834      	ldrb	r4, [r6, #0]
	serial_print(",");
	serial_phex16(len);
	serial_print(ep0_tx_bdt_bank ? ", odd" : ", even");
	serial_print(ep0_tx_data_toggle ? ", d1\n" : ", d0\n");
#endif
	table[index(0, TX, ep0_tx_bdt_bank)].addr = (void *)data;
    14e0:	780d      	ldrb	r5, [r1, #0]
    14e2:	2840      	cmp	r0, #64	; 0x40
    14e4:	4686      	mov	lr, r0
    14e6:	f045 0802 	orr.w	r8, r5, #2
    14ea:	bf28      	it	cs
    14ec:	f04f 0e40 	movcs.w	lr, #64	; 0x40
	table[index(0, TX, ep0_tx_bdt_bank)].desc = BDT_DESC(len, ep0_tx_data_toggle);
    14f0:	2c00      	cmp	r4, #0
	ep0_tx_data_toggle ^= 1;
    14f2:	f084 0401 	eor.w	r4, r4, #1
    14f6:	7034      	strb	r4, [r6, #0]
		if (data) {
			size = ep0_tx_len;
			if (size > EP0_SIZE) size = EP0_SIZE;
			endpoint0_transmit(data, size);
			data += size;
			ep0_tx_len -= size;
    14f8:	ebce 0000 	rsb	r0, lr, r0
	serial_phex16(len);
	serial_print(ep0_tx_bdt_bank ? ", odd" : ", even");
	serial_print(ep0_tx_data_toggle ? ", d1\n" : ", d0\n");
#endif
	table[index(0, TX, ep0_tx_bdt_bank)].addr = (void *)data;
	table[index(0, TX, ep0_tx_bdt_bank)].desc = BDT_DESC(len, ep0_tx_data_toggle);
    14fc:	bf0c      	ite	eq
    14fe:	2488      	moveq	r4, #136	; 0x88
    1500:	24c8      	movne	r4, #200	; 0xc8
	serial_print(",");
	serial_phex16(len);
	serial_print(ep0_tx_bdt_bank ? ", odd" : ", even");
	serial_print(ep0_tx_data_toggle ? ", d1\n" : ", d0\n");
#endif
	table[index(0, TX, ep0_tx_bdt_bank)].addr = (void *)data;
    1502:	eb09 06c8 	add.w	r6, r9, r8, lsl #3
		if (data) {
			size = ep0_tx_len;
			if (size > EP0_SIZE) size = EP0_SIZE;
			endpoint0_transmit(data, size);
			data += size;
			ep0_tx_len -= size;
    1506:	b280      	uxth	r0, r0
	serial_print(ep0_tx_data_toggle ? ", d1\n" : ", d0\n");
#endif
	table[index(0, TX, ep0_tx_bdt_bank)].addr = (void *)data;
	table[index(0, TX, ep0_tx_bdt_bank)].desc = BDT_DESC(len, ep0_tx_data_toggle);
	ep0_tx_data_toggle ^= 1;
	ep0_tx_bdt_bank ^= 1;
    1508:	f085 0501 	eor.w	r5, r5, #1
	serial_phex16(len);
	serial_print(ep0_tx_bdt_bank ? ", odd" : ", even");
	serial_print(ep0_tx_data_toggle ? ", d1\n" : ", d0\n");
#endif
	table[index(0, TX, ep0_tx_bdt_bank)].addr = (void *)data;
	table[index(0, TX, ep0_tx_bdt_bank)].desc = BDT_DESC(len, ep0_tx_data_toggle);
    150c:	ea44 440e 	orr.w	r4, r4, lr, lsl #16
	serial_print(",");
	serial_phex16(len);
	serial_print(ep0_tx_bdt_bank ? ", odd" : ", even");
	serial_print(ep0_tx_data_toggle ? ", d1\n" : ", d0\n");
#endif
	table[index(0, TX, ep0_tx_bdt_bank)].addr = (void *)data;
    1510:	6072      	str	r2, [r6, #4]
		if (data) {
			size = ep0_tx_len;
			if (size > EP0_SIZE) size = EP0_SIZE;
			endpoint0_transmit(data, size);
			data += size;
			ep0_tx_len -= size;
    1512:	8018      	strh	r0, [r3, #0]
	serial_phex16(len);
	serial_print(ep0_tx_bdt_bank ? ", odd" : ", even");
	serial_print(ep0_tx_data_toggle ? ", d1\n" : ", d0\n");
#endif
	table[index(0, TX, ep0_tx_bdt_bank)].addr = (void *)data;
	table[index(0, TX, ep0_tx_bdt_bank)].desc = BDT_DESC(len, ep0_tx_data_toggle);
    1514:	f849 4038 	str.w	r4, [r9, r8, lsl #3]
		data = ep0_tx_ptr;
		if (data) {
			size = ep0_tx_len;
			if (size > EP0_SIZE) size = EP0_SIZE;
			endpoint0_transmit(data, size);
			data += size;
    1518:	4472      	add	r2, lr
	serial_print(ep0_tx_data_toggle ? ", d1\n" : ", d0\n");
#endif
	table[index(0, TX, ep0_tx_bdt_bank)].addr = (void *)data;
	table[index(0, TX, ep0_tx_bdt_bank)].desc = BDT_DESC(len, ep0_tx_data_toggle);
	ep0_tx_data_toggle ^= 1;
	ep0_tx_bdt_bank ^= 1;
    151a:	700d      	strb	r5, [r1, #0]
			size = ep0_tx_len;
			if (size > EP0_SIZE) size = EP0_SIZE;
			endpoint0_transmit(data, size);
			data += size;
			ep0_tx_len -= size;
			ep0_tx_ptr = (ep0_tx_len > 0 || size == EP0_SIZE) ? data : NULL;
    151c:	2800      	cmp	r0, #0
    151e:	f000 8145 	beq.w	17ac <usb_isr+0x47c>
    1522:	603a      	str	r2, [r7, #0]
		}

		if (setup.bRequest == 5 && setup.bmRequestType == 0) {
    1524:	4b3b      	ldr	r3, [pc, #236]	; (1614 <usb_isr+0x2e4>)
    1526:	881a      	ldrh	r2, [r3, #0]
    1528:	f5b2 6fa0 	cmp.w	r2, #1280	; 0x500
    152c:	d10f      	bne.n	154e <usb_isr+0x21e>
			setup.bRequest = 0;
    152e:	2100      	movs	r1, #0
			//serial_print("set address: ");
			//serial_phex16(setup.wValue);
			//serial_print("\n");
			USB0_ADDR = setup.wValue;
    1530:	789a      	ldrb	r2, [r3, #2]
			ep0_tx_len -= size;
			ep0_tx_ptr = (ep0_tx_len > 0 || size == EP0_SIZE) ? data : NULL;
		}

		if (setup.bRequest == 5 && setup.bmRequestType == 0) {
			setup.bRequest = 0;
    1532:	7059      	strb	r1, [r3, #1]
			//serial_print("set address: ");
			//serial_phex16(setup.wValue);
			//serial_print("\n");
			USB0_ADDR = setup.wValue;
    1534:	4b3e      	ldr	r3, [pc, #248]	; (1630 <usb_isr+0x300>)
    1536:	701a      	strb	r2, [r3, #0]
    1538:	e009      	b.n	154e <usb_isr+0x21e>
		break;
	case 0x01:  // OUT transaction received from host
	case 0x02:
		//serial_print("PID=OUT\n");
#ifdef CDC_STATUS_INTERFACE
		if (setup.wRequestAndType == 0x2021 /*CDC_SET_LINE_CODING*/) {
    153a:	4a36      	ldr	r2, [pc, #216]	; (1614 <usb_isr+0x2e4>)
    153c:	8810      	ldrh	r0, [r2, #0]
    153e:	f242 0221 	movw	r2, #8225	; 0x2021
    1542:	4290      	cmp	r0, r2
    1544:	f000 8137 	beq.w	17b6 <usb_isr+0x486>
		if (usb_audio_set_feature(&setup, buf)) {
			endpoint0_transmit(NULL, 0);
		}
#endif
		// give the buffer back
		b->desc = BDT_DESC(EP0_SIZE, DATA1);
    1548:	4a2d      	ldr	r2, [pc, #180]	; (1600 <usb_isr+0x2d0>)
    154a:	f849 2034 	str.w	r2, [r9, r4, lsl #3]
	//default:
		//serial_print("PID=unknown:");
		//serial_phex(pid);
		//serial_print("\n");
	}
	USB0_CTL = USB_CTL_USBENSOFEN; // clear TXSUSPENDTOKENBUSY bit
    154e:	4a39      	ldr	r2, [pc, #228]	; (1634 <usb_isr+0x304>)
    1550:	2301      	movs	r3, #1
    1552:	7013      	strb	r3, [r2, #0]
    1554:	e736      	b.n	13c4 <usb_isr+0x94>
						//serial_phex(endpoint + 1);
						b->desc = 0;
						usb_rx_memory_needed++;
					}
				} else {
					b->desc = BDT_DESC(64, ((uint32_t)b & 8) ? DATA1 : DATA0);
    1556:	4a2a      	ldr	r2, [pc, #168]	; (1600 <usb_isr+0x2d0>)
    1558:	4b2a      	ldr	r3, [pc, #168]	; (1604 <usb_isr+0x2d4>)
    155a:	f019 0f08 	tst.w	r9, #8
    155e:	bf18      	it	ne
    1560:	4613      	movne	r3, r2
    1562:	f847 3038 	str.w	r3, [r7, r8, lsl #3]
    1566:	e72d      	b.n	13c4 <usb_isr+0x94>
				b->desc = (3 << 16) | BDT_OWN;
				tx_state[endpoint] ^= 1;
			} else
#endif
			if (stat & 0x08) { // transmit
				usb_free(packet);
    1568:	f000 fce4 	bl	1f34 <usb_free>
				packet = tx_first[endpoint];
    156c:	4a32      	ldr	r2, [pc, #200]	; (1638 <usb_isr+0x308>)
				if (packet) {
					//serial_print("tx packet\n");
					tx_first[endpoint] = packet->next;
					b->addr = packet->buf;
					switch (tx_state[endpoint]) {
    156e:	4933      	ldr	r1, [pc, #204]	; (163c <usb_isr+0x30c>)
				tx_state[endpoint] ^= 1;
			} else
#endif
			if (stat & 0x08) { // transmit
				usb_free(packet);
				packet = tx_first[endpoint];
    1570:	f852 3026 	ldr.w	r3, [r2, r6, lsl #2]
				if (packet) {
    1574:	2b00      	cmp	r3, #0
    1576:	f000 81d1 	beq.w	191c <usb_isr+0x5ec>
					//serial_print("tx packet\n");
					tx_first[endpoint] = packet->next;
    157a:	6858      	ldr	r0, [r3, #4]
					b->addr = packet->buf;
					switch (tx_state[endpoint]) {
    157c:	5d8c      	ldrb	r4, [r1, r6]
			if (stat & 0x08) { // transmit
				usb_free(packet);
				packet = tx_first[endpoint];
				if (packet) {
					//serial_print("tx packet\n");
					tx_first[endpoint] = packet->next;
    157e:	f842 0026 	str.w	r0, [r2, r6, lsl #2]
					b->addr = packet->buf;
    1582:	f103 0208 	add.w	r2, r3, #8
    1586:	f8c9 2004 	str.w	r2, [r9, #4]
					switch (tx_state[endpoint]) {
    158a:	2c03      	cmp	r4, #3
    158c:	d805      	bhi.n	159a <usb_isr+0x26a>
    158e:	e8df f004 	tbb	[pc, r4]
    1592:	022c      	.short	0x022c
    1594:	2629      	.short	0x2629
					  case TX_STATE_BOTH_FREE_EVEN_FIRST:
						tx_state[endpoint] = TX_STATE_ODD_FREE;
						break;
					  case TX_STATE_BOTH_FREE_ODD_FIRST:
						tx_state[endpoint] = TX_STATE_EVEN_FREE;
    1596:	2202      	movs	r2, #2
    1598:	558a      	strb	r2, [r1, r6]
						tx_state[endpoint] = TX_STATE_NONE_FREE_EVEN_FIRST;
						break;
					  default:
						break;
					}
					b->desc = BDT_DESC(packet->len,
    159a:	881a      	ldrh	r2, [r3, #0]
    159c:	f019 0f08 	tst.w	r9, #8
    15a0:	bf0c      	ite	eq
    15a2:	2388      	moveq	r3, #136	; 0x88
    15a4:	23c8      	movne	r3, #200	; 0xc8
    15a6:	ea43 4302 	orr.w	r3, r3, r2, lsl #16
    15aa:	f847 3038 	str.w	r3, [r7, r8, lsl #3]
    15ae:	e709      	b.n	13c4 <usb_isr+0x94>
		goto restart;
	}



	if (status & USB_ISTAT_USBRST /* 01 */ ) {
    15b0:	07e0      	lsls	r0, r4, #31
    15b2:	f100 8181 	bmi.w	18b8 <usb_isr+0x588>
		USB0_CTL = USB_CTL_USBENSOFEN;
		return;
	}


	if ((status & USB_ISTAT_STALL /* 80 */ )) {
    15b6:	0621      	lsls	r1, r4, #24
    15b8:	f100 81f2 	bmi.w	19a0 <usb_isr+0x670>
		//serial_print("stall:\n");
		USB0_ENDPT0 = USB_ENDPT_EPRXEN | USB_ENDPT_EPTXEN | USB_ENDPT_EPHSHK;
		USB0_ISTAT = USB_ISTAT_STALL;
	}
	if ((status & USB_ISTAT_ERROR /* 02 */ )) {
    15bc:	07a2      	lsls	r2, r4, #30
    15be:	d506      	bpl.n	15ce <usb_isr+0x29e>
		uint8_t err = USB0_ERRSTAT;
    15c0:	4a1f      	ldr	r2, [pc, #124]	; (1640 <usb_isr+0x310>)
		USB0_ERRSTAT = err;
		//serial_print("err:");
		//serial_phex(err);
		//serial_print("\n");
		USB0_ISTAT = USB_ISTAT_ERROR;
    15c2:	4920      	ldr	r1, [pc, #128]	; (1644 <usb_isr+0x314>)
		//serial_print("stall:\n");
		USB0_ENDPT0 = USB_ENDPT_EPRXEN | USB_ENDPT_EPTXEN | USB_ENDPT_EPHSHK;
		USB0_ISTAT = USB_ISTAT_STALL;
	}
	if ((status & USB_ISTAT_ERROR /* 02 */ )) {
		uint8_t err = USB0_ERRSTAT;
    15c4:	7813      	ldrb	r3, [r2, #0]
		USB0_ERRSTAT = err;
		//serial_print("err:");
		//serial_phex(err);
		//serial_print("\n");
		USB0_ISTAT = USB_ISTAT_ERROR;
    15c6:	2002      	movs	r0, #2
		//serial_print("stall:\n");
		USB0_ENDPT0 = USB_ENDPT_EPRXEN | USB_ENDPT_EPTXEN | USB_ENDPT_EPHSHK;
		USB0_ISTAT = USB_ISTAT_STALL;
	}
	if ((status & USB_ISTAT_ERROR /* 02 */ )) {
		uint8_t err = USB0_ERRSTAT;
    15c8:	b2db      	uxtb	r3, r3
		USB0_ERRSTAT = err;
    15ca:	7013      	strb	r3, [r2, #0]
		//serial_print("err:");
		//serial_phex(err);
		//serial_print("\n");
		USB0_ISTAT = USB_ISTAT_ERROR;
    15cc:	7008      	strb	r0, [r1, #0]
	}

	if ((status & USB_ISTAT_SLEEP /* 10 */ )) {
    15ce:	06e3      	lsls	r3, r4, #27
    15d0:	d502      	bpl.n	15d8 <usb_isr+0x2a8>
		//serial_print("sleep\n");
		USB0_ISTAT = USB_ISTAT_SLEEP;
    15d2:	4b1c      	ldr	r3, [pc, #112]	; (1644 <usb_isr+0x314>)
    15d4:	2210      	movs	r2, #16
    15d6:	701a      	strb	r2, [r3, #0]
	}

}
    15d8:	b007      	add	sp, #28
    15da:	e8bd 8ff0 	ldmia.w	sp!, {r4, r5, r6, r7, r8, r9, sl, fp, pc}
						break;
					  case TX_STATE_EVEN_FREE:
						tx_state[endpoint] = TX_STATE_NONE_FREE_ODD_FIRST;
						break;
					  case TX_STATE_ODD_FREE:
						tx_state[endpoint] = TX_STATE_NONE_FREE_EVEN_FIRST;
    15de:	2204      	movs	r2, #4
    15e0:	558a      	strb	r2, [r1, r6]
						break;
    15e2:	e7da      	b.n	159a <usb_isr+0x26a>
						break;
					  case TX_STATE_BOTH_FREE_ODD_FIRST:
						tx_state[endpoint] = TX_STATE_EVEN_FREE;
						break;
					  case TX_STATE_EVEN_FREE:
						tx_state[endpoint] = TX_STATE_NONE_FREE_ODD_FIRST;
    15e4:	2205      	movs	r2, #5
    15e6:	558a      	strb	r2, [r1, r6]
						break;
    15e8:	e7d7      	b.n	159a <usb_isr+0x26a>
					//serial_print("tx packet\n");
					tx_first[endpoint] = packet->next;
					b->addr = packet->buf;
					switch (tx_state[endpoint]) {
					  case TX_STATE_BOTH_FREE_EVEN_FIRST:
						tx_state[endpoint] = TX_STATE_ODD_FREE;
    15ea:	2203      	movs	r2, #3
    15ec:	558a      	strb	r2, [r1, r6]
						break;
    15ee:	e7d4      	b.n	159a <usb_isr+0x26a>
    15f0:	1fff0000 	.word	0x1fff0000
    15f4:	1fff1dc4 	.word	0x1fff1dc4
    15f8:	1fff1d70 	.word	0x1fff1d70
    15fc:	1fff21b8 	.word	0x1fff21b8
    1600:	004000c8 	.word	0x004000c8
    1604:	00400088 	.word	0x00400088
    1608:	1fff1e4c 	.word	0x1fff1e4c
    160c:	1fff1dd5 	.word	0x1fff1dd5
    1610:	1fff1e54 	.word	0x1fff1e54
    1614:	1fff1e38 	.word	0x1fff1e38
    1618:	1fff1d6c 	.word	0x1fff1d6c
    161c:	1fff1dd4 	.word	0x1fff1dd4
    1620:	400720c0 	.word	0x400720c0
    1624:	1fff1e44 	.word	0x1fff1e44
    1628:	1fff1d80 	.word	0x1fff1d80
    162c:	1fff1e40 	.word	0x1fff1e40
    1630:	40072098 	.word	0x40072098
    1634:	40072094 	.word	0x40072094
    1638:	1fff1e18 	.word	0x1fff1e18
    163c:	1fff1e50 	.word	0x1fff1e50
    1640:	40072088 	.word	0x40072088
    1644:	40072080 	.word	0x40072080
    1648:	40072090 	.word	0x40072090
	volatile uint8_t *reg;
	uint8_t epconf;
	const uint8_t *cfg;
	int i;

	switch (setup.wRequestAndType) {
    164c:	f242 0021 	movw	r0, #8225	; 0x2021
    1650:	4281      	cmp	r1, r0
    1652:	f000 812a 	beq.w	18aa <usb_isr+0x57a>
    1656:	f200 80d8 	bhi.w	180a <usb_isr+0x4da>
    165a:	f5b1 6f08 	cmp.w	r1, #2176	; 0x880
    165e:	f000 8276 	beq.w	1b4e <usb_isr+0x81e>
    1662:	f5b1 6f10 	cmp.w	r1, #2304	; 0x900
    1666:	f040 8218 	bne.w	1a9a <usb_isr+0x76a>
		usb_configuration = setup.wValue;
		reg = &USB0_ENDPT1;
		cfg = usb_endpoint_config_table;
		// clear all BDT entries, free any allocated memory...
		for (i=4; i < (NUM_ENDPOINTS+1)*4; i++) {
			if (table[i].desc & BDT_OWN) {
    166a:	6a22      	ldr	r2, [r4, #32]
	switch (setup.wRequestAndType) {
	  case 0x0500: // SET_ADDRESS
		break;
	  case 0x0900: // SET_CONFIGURATION
		//serial_print("configure\n");
		usb_configuration = setup.wValue;
    166c:	49b3      	ldr	r1, [pc, #716]	; (193c <usb_isr+0x60c>)
    166e:	78a8      	ldrb	r0, [r5, #2]
    1670:	7008      	strb	r0, [r1, #0]
		reg = &USB0_ENDPT1;
		cfg = usb_endpoint_config_table;
		// clear all BDT entries, free any allocated memory...
		for (i=4; i < (NUM_ENDPOINTS+1)*4; i++) {
			if (table[i].desc & BDT_OWN) {
    1672:	0612      	lsls	r2, r2, #24
    1674:	f100 833a 	bmi.w	1cec <usb_isr+0x9bc>
    1678:	f8d9 2028 	ldr.w	r2, [r9, #40]	; 0x28
    167c:	49b0      	ldr	r1, [pc, #704]	; (1940 <usb_isr+0x610>)
    167e:	0613      	lsls	r3, r2, #24
    1680:	f100 830c 	bmi.w	1c9c <usb_isr+0x96c>
    1684:	f8d9 2030 	ldr.w	r2, [r9, #48]	; 0x30
    1688:	49ad      	ldr	r1, [pc, #692]	; (1940 <usb_isr+0x610>)
    168a:	0615      	lsls	r5, r2, #24
    168c:	f100 8301 	bmi.w	1c92 <usb_isr+0x962>
    1690:	f8d9 2038 	ldr.w	r2, [r9, #56]	; 0x38
    1694:	49aa      	ldr	r1, [pc, #680]	; (1940 <usb_isr+0x610>)
    1696:	0614      	lsls	r4, r2, #24
    1698:	f100 82f6 	bmi.w	1c88 <usb_isr+0x958>
    169c:	f8d9 2040 	ldr.w	r2, [r9, #64]	; 0x40
    16a0:	49a7      	ldr	r1, [pc, #668]	; (1940 <usb_isr+0x610>)
    16a2:	0610      	lsls	r0, r2, #24
    16a4:	f100 834a 	bmi.w	1d3c <usb_isr+0xa0c>
    16a8:	f8d9 2048 	ldr.w	r2, [r9, #72]	; 0x48
    16ac:	49a4      	ldr	r1, [pc, #656]	; (1940 <usb_isr+0x610>)
    16ae:	0612      	lsls	r2, r2, #24
    16b0:	f100 833f 	bmi.w	1d32 <usb_isr+0xa02>
    16b4:	f8d9 2050 	ldr.w	r2, [r9, #80]	; 0x50
    16b8:	49a1      	ldr	r1, [pc, #644]	; (1940 <usb_isr+0x610>)
    16ba:	0613      	lsls	r3, r2, #24
    16bc:	f100 8334 	bmi.w	1d28 <usb_isr+0x9f8>
    16c0:	f8d9 2058 	ldr.w	r2, [r9, #88]	; 0x58
    16c4:	499e      	ldr	r1, [pc, #632]	; (1940 <usb_isr+0x610>)
    16c6:	0615      	lsls	r5, r2, #24
    16c8:	f100 8329 	bmi.w	1d1e <usb_isr+0x9ee>
    16cc:	f8d9 2060 	ldr.w	r2, [r9, #96]	; 0x60
    16d0:	499b      	ldr	r1, [pc, #620]	; (1940 <usb_isr+0x610>)
    16d2:	0614      	lsls	r4, r2, #24
    16d4:	f100 831e 	bmi.w	1d14 <usb_isr+0x9e4>
    16d8:	f8d9 2068 	ldr.w	r2, [r9, #104]	; 0x68
    16dc:	4998      	ldr	r1, [pc, #608]	; (1940 <usb_isr+0x610>)
    16de:	0610      	lsls	r0, r2, #24
    16e0:	f100 8313 	bmi.w	1d0a <usb_isr+0x9da>
    16e4:	f8d9 2070 	ldr.w	r2, [r9, #112]	; 0x70
    16e8:	4995      	ldr	r1, [pc, #596]	; (1940 <usb_isr+0x610>)
    16ea:	0612      	lsls	r2, r2, #24
    16ec:	f100 8308 	bmi.w	1d00 <usb_isr+0x9d0>
    16f0:	f8d9 2078 	ldr.w	r2, [r9, #120]	; 0x78
    16f4:	4992      	ldr	r1, [pc, #584]	; (1940 <usb_isr+0x610>)
    16f6:	0613      	lsls	r3, r2, #24
    16f8:	f100 82fd 	bmi.w	1cf6 <usb_isr+0x9c6>
    16fc:	f8d9 2080 	ldr.w	r2, [r9, #128]	; 0x80
    1700:	498f      	ldr	r1, [pc, #572]	; (1940 <usb_isr+0x610>)
    1702:	0615      	lsls	r5, r2, #24
    1704:	f100 8331 	bmi.w	1d6a <usb_isr+0xa3a>
    1708:	f8d9 2088 	ldr.w	r2, [r9, #136]	; 0x88
    170c:	498c      	ldr	r1, [pc, #560]	; (1940 <usb_isr+0x610>)
    170e:	0614      	lsls	r4, r2, #24
    1710:	f100 8325 	bmi.w	1d5e <usb_isr+0xa2e>
    1714:	f8d9 2090 	ldr.w	r2, [r9, #144]	; 0x90
    1718:	4989      	ldr	r1, [pc, #548]	; (1940 <usb_isr+0x610>)
    171a:	0610      	lsls	r0, r2, #24
    171c:	f100 8319 	bmi.w	1d52 <usb_isr+0xa22>
    1720:	f8d9 2098 	ldr.w	r2, [r9, #152]	; 0x98
    1724:	4986      	ldr	r1, [pc, #536]	; (1940 <usb_isr+0x610>)
    1726:	0612      	lsls	r2, r2, #24
    1728:	f100 830d 	bmi.w	1d46 <usb_isr+0xa16>
    172c:	4885      	ldr	r0, [pc, #532]	; (1944 <usb_isr+0x614>)
    172e:	4a86      	ldr	r2, [pc, #536]	; (1948 <usb_isr+0x618>)
    1730:	4986      	ldr	r1, [pc, #536]	; (194c <usb_isr+0x61c>)
    1732:	9001      	str	r0, [sp, #4]
    1734:	4886      	ldr	r0, [pc, #536]	; (1950 <usb_isr+0x620>)
    1736:	4d87      	ldr	r5, [pc, #540]	; (1954 <usb_isr+0x624>)
    1738:	4c87      	ldr	r4, [pc, #540]	; (1958 <usb_isr+0x628>)
			  case TX_STATE_NONE_FREE_EVEN_FIRST:
				tx_state[i] = TX_STATE_BOTH_FREE_EVEN_FIRST;
				break;
			  case TX_STATE_ODD_FREE:
			  case TX_STATE_NONE_FREE_ODD_FIRST:
				tx_state[i] = TX_STATE_BOTH_FREE_ODD_FIRST;
    173a:	9704      	str	r7, [sp, #16]
}



void usb_isr(void)
{
    173c:	2300      	movs	r3, #0
			  case TX_STATE_NONE_FREE_EVEN_FIRST:
				tx_state[i] = TX_STATE_BOTH_FREE_EVEN_FIRST;
				break;
			  case TX_STATE_ODD_FREE:
			  case TX_STATE_NONE_FREE_ODD_FIRST:
				tx_state[i] = TX_STATE_BOTH_FREE_ODD_FIRST;
    173e:	9605      	str	r6, [sp, #20]
    1740:	9502      	str	r5, [sp, #8]
    1742:	4680      	mov	r8, r0
    1744:	460f      	mov	r7, r1
    1746:	4616      	mov	r6, r2
    1748:	461d      	mov	r5, r3
    174a:	9403      	str	r4, [sp, #12]
			}
		}
		// free all queued packets
		for (i=0; i < NUM_ENDPOINTS; i++) {
			usb_packet_t *p, *n;
			p = rx_first[i];
    174c:	6830      	ldr	r0, [r6, #0]
			while (p) {
    174e:	b128      	cbz	r0, 175c <usb_isr+0x42c>
				n = p->next;
    1750:	6844      	ldr	r4, [r0, #4]
				usb_free(p);
    1752:	f000 fbef 	bl	1f34 <usb_free>
		}
		// free all queued packets
		for (i=0; i < NUM_ENDPOINTS; i++) {
			usb_packet_t *p, *n;
			p = rx_first[i];
			while (p) {
    1756:	4620      	mov	r0, r4
    1758:	2c00      	cmp	r4, #0
    175a:	d1f9      	bne.n	1750 <usb_isr+0x420>
				n = p->next;
				usb_free(p);
				p = n;
			}
			rx_first[i] = NULL;
    175c:	2300      	movs	r3, #0
    175e:	6033      	str	r3, [r6, #0]
			rx_last[i] = NULL;
    1760:	9b02      	ldr	r3, [sp, #8]
			p = tx_first[i];
    1762:	6838      	ldr	r0, [r7, #0]
				n = p->next;
				usb_free(p);
				p = n;
			}
			rx_first[i] = NULL;
			rx_last[i] = NULL;
    1764:	461a      	mov	r2, r3
    1766:	2300      	movs	r3, #0
    1768:	f842 3025 	str.w	r3, [r2, r5, lsl #2]
			p = tx_first[i];
			while (p) {
    176c:	b128      	cbz	r0, 177a <usb_isr+0x44a>
				n = p->next;
    176e:	6844      	ldr	r4, [r0, #4]
				usb_free(p);
    1770:	f000 fbe0 	bl	1f34 <usb_free>
				p = n;
			}
			rx_first[i] = NULL;
			rx_last[i] = NULL;
			p = tx_first[i];
			while (p) {
    1774:	4620      	mov	r0, r4
    1776:	2c00      	cmp	r4, #0
    1778:	d1f9      	bne.n	176e <usb_isr+0x43e>
				n = p->next;
				usb_free(p);
				p = n;
			}
			tx_first[i] = NULL;
    177a:	2200      	movs	r2, #0
    177c:	603a      	str	r2, [r7, #0]
			tx_last[i] = NULL;
    177e:	9a01      	ldr	r2, [sp, #4]
			usb_rx_byte_count_data[i] = 0;
			switch (tx_state[i]) {
    1780:	f898 3000 	ldrb.w	r3, [r8]
				n = p->next;
				usb_free(p);
				p = n;
			}
			tx_first[i] = NULL;
			tx_last[i] = NULL;
    1784:	4611      	mov	r1, r2
    1786:	2200      	movs	r2, #0
    1788:	f841 2b04 	str.w	r2, [r1], #4
			usb_rx_byte_count_data[i] = 0;
    178c:	9a03      	ldr	r2, [sp, #12]
				n = p->next;
				usb_free(p);
				p = n;
			}
			tx_first[i] = NULL;
			tx_last[i] = NULL;
    178e:	9101      	str	r1, [sp, #4]
			usb_rx_byte_count_data[i] = 0;
			switch (tx_state[i]) {
    1790:	3b02      	subs	r3, #2
				usb_free(p);
				p = n;
			}
			tx_first[i] = NULL;
			tx_last[i] = NULL;
			usb_rx_byte_count_data[i] = 0;
    1792:	f04f 0100 	mov.w	r1, #0
    1796:	f822 1015 	strh.w	r1, [r2, r5, lsl #1]
			switch (tx_state[i]) {
    179a:	2b03      	cmp	r3, #3
    179c:	f200 812b 	bhi.w	19f6 <usb_isr+0x6c6>
    17a0:	e8df f013 	tbh	[pc, r3, lsl #1]
    17a4:	01250170 	.word	0x01250170
    17a8:	01250170 	.word	0x01250170
			size = ep0_tx_len;
			if (size > EP0_SIZE) size = EP0_SIZE;
			endpoint0_transmit(data, size);
			data += size;
			ep0_tx_len -= size;
			ep0_tx_ptr = (ep0_tx_len > 0 || size == EP0_SIZE) ? data : NULL;
    17ac:	f1be 0f40 	cmp.w	lr, #64	; 0x40
    17b0:	bf18      	it	ne
    17b2:	2200      	movne	r2, #0
    17b4:	e6b5      	b.n	1522 <usb_isr+0x1f2>
			int i;
			uint8_t *dst = (uint8_t *)usb_cdc_line_coding;
			//serial_print("set line coding ");
			for (i=0; i<7; i++) {
				//serial_phex(*buf);
				*dst++ = *buf++;
    17b6:	4a69      	ldr	r2, [pc, #420]	; (195c <usb_isr+0x62c>)
    17b8:	780d      	ldrb	r5, [r1, #0]
    17ba:	7848      	ldrb	r0, [r1, #1]
    17bc:	7015      	strb	r5, [r2, #0]
    17be:	7050      	strb	r0, [r2, #1]
    17c0:	788d      	ldrb	r5, [r1, #2]
    17c2:	78c8      	ldrb	r0, [r1, #3]
    17c4:	7095      	strb	r5, [r2, #2]
    17c6:	70d0      	strb	r0, [r2, #3]
			}
			//serial_phex32(usb_cdc_line_coding[0]);
			//serial_print("\n");
			if (usb_cdc_line_coding[0] == 134) usb_reboot_timer = 15;
    17c8:	6810      	ldr	r0, [r2, #0]
			int i;
			uint8_t *dst = (uint8_t *)usb_cdc_line_coding;
			//serial_print("set line coding ");
			for (i=0; i<7; i++) {
				//serial_phex(*buf);
				*dst++ = *buf++;
    17ca:	790d      	ldrb	r5, [r1, #4]
    17cc:	7115      	strb	r5, [r2, #4]
			}
			//serial_phex32(usb_cdc_line_coding[0]);
			//serial_print("\n");
			if (usb_cdc_line_coding[0] == 134) usb_reboot_timer = 15;
    17ce:	2886      	cmp	r0, #134	; 0x86
			int i;
			uint8_t *dst = (uint8_t *)usb_cdc_line_coding;
			//serial_print("set line coding ");
			for (i=0; i<7; i++) {
				//serial_phex(*buf);
				*dst++ = *buf++;
    17d0:	794d      	ldrb	r5, [r1, #5]
    17d2:	7989      	ldrb	r1, [r1, #6]
    17d4:	7155      	strb	r5, [r2, #5]
    17d6:	7191      	strb	r1, [r2, #6]
			}
			//serial_phex32(usb_cdc_line_coding[0]);
			//serial_print("\n");
			if (usb_cdc_line_coding[0] == 134) usb_reboot_timer = 15;
    17d8:	f000 819b 	beq.w	1b12 <usb_isr+0x7e2>
	serial_print(",");
	serial_phex16(len);
	serial_print(ep0_tx_bdt_bank ? ", odd" : ", even");
	serial_print(ep0_tx_data_toggle ? ", d1\n" : ", d0\n");
#endif
	table[index(0, TX, ep0_tx_bdt_bank)].addr = (void *)data;
    17dc:	4960      	ldr	r1, [pc, #384]	; (1960 <usb_isr+0x630>)
	table[index(0, TX, ep0_tx_bdt_bank)].desc = BDT_DESC(len, ep0_tx_data_toggle);
    17de:	4e61      	ldr	r6, [pc, #388]	; (1964 <usb_isr+0x634>)
	serial_print(",");
	serial_phex16(len);
	serial_print(ep0_tx_bdt_bank ? ", odd" : ", even");
	serial_print(ep0_tx_data_toggle ? ", d1\n" : ", d0\n");
#endif
	table[index(0, TX, ep0_tx_bdt_bank)].addr = (void *)data;
    17e0:	780a      	ldrb	r2, [r1, #0]
	table[index(0, TX, ep0_tx_bdt_bank)].desc = BDT_DESC(len, ep0_tx_data_toggle);
    17e2:	7830      	ldrb	r0, [r6, #0]
	ep0_tx_data_toggle ^= 1;
	ep0_tx_bdt_bank ^= 1;
    17e4:	f082 0501 	eor.w	r5, r2, #1
	serial_phex16(len);
	serial_print(ep0_tx_bdt_bank ? ", odd" : ", even");
	serial_print(ep0_tx_data_toggle ? ", d1\n" : ", d0\n");
#endif
	table[index(0, TX, ep0_tx_bdt_bank)].addr = (void *)data;
	table[index(0, TX, ep0_tx_bdt_bank)].desc = BDT_DESC(len, ep0_tx_data_toggle);
    17e8:	2800      	cmp	r0, #0
	serial_print(",");
	serial_phex16(len);
	serial_print(ep0_tx_bdt_bank ? ", odd" : ", even");
	serial_print(ep0_tx_data_toggle ? ", d1\n" : ", d0\n");
#endif
	table[index(0, TX, ep0_tx_bdt_bank)].addr = (void *)data;
    17ea:	f042 0202 	orr.w	r2, r2, #2
	table[index(0, TX, ep0_tx_bdt_bank)].desc = BDT_DESC(len, ep0_tx_data_toggle);
	ep0_tx_data_toggle ^= 1;
	ep0_tx_bdt_bank ^= 1;
    17ee:	700d      	strb	r5, [r1, #0]
	serial_phex16(len);
	serial_print(ep0_tx_bdt_bank ? ", odd" : ", even");
	serial_print(ep0_tx_data_toggle ? ", d1\n" : ", d0\n");
#endif
	table[index(0, TX, ep0_tx_bdt_bank)].addr = (void *)data;
	table[index(0, TX, ep0_tx_bdt_bank)].desc = BDT_DESC(len, ep0_tx_data_toggle);
    17f0:	bf0c      	ite	eq
    17f2:	2188      	moveq	r1, #136	; 0x88
    17f4:	21c8      	movne	r1, #200	; 0xc8
    17f6:	f849 1032 	str.w	r1, [r9, r2, lsl #3]
	serial_print(",");
	serial_phex16(len);
	serial_print(ep0_tx_bdt_bank ? ", odd" : ", even");
	serial_print(ep0_tx_data_toggle ? ", d1\n" : ", d0\n");
#endif
	table[index(0, TX, ep0_tx_bdt_bank)].addr = (void *)data;
    17fa:	eb09 02c2 	add.w	r2, r9, r2, lsl #3
	table[index(0, TX, ep0_tx_bdt_bank)].desc = BDT_DESC(len, ep0_tx_data_toggle);
	ep0_tx_data_toggle ^= 1;
    17fe:	f080 0001 	eor.w	r0, r0, #1
	serial_print(",");
	serial_phex16(len);
	serial_print(ep0_tx_bdt_bank ? ", odd" : ", even");
	serial_print(ep0_tx_data_toggle ? ", d1\n" : ", d0\n");
#endif
	table[index(0, TX, ep0_tx_bdt_bank)].addr = (void *)data;
    1802:	2100      	movs	r1, #0
	table[index(0, TX, ep0_tx_bdt_bank)].desc = BDT_DESC(len, ep0_tx_data_toggle);
	ep0_tx_data_toggle ^= 1;
    1804:	7030      	strb	r0, [r6, #0]
	serial_print(",");
	serial_phex16(len);
	serial_print(ep0_tx_bdt_bank ? ", odd" : ", even");
	serial_print(ep0_tx_data_toggle ? ", d1\n" : ", d0\n");
#endif
	table[index(0, TX, ep0_tx_bdt_bank)].addr = (void *)data;
    1806:	6051      	str	r1, [r2, #4]
    1808:	e69e      	b.n	1548 <usb_isr+0x218>
	volatile uint8_t *reg;
	uint8_t epconf;
	const uint8_t *cfg;
	int i;

	switch (setup.wRequestAndType) {
    180a:	f242 2021 	movw	r0, #8737	; 0x2221
    180e:	4281      	cmp	r1, r0
    1810:	f040 81cb 	bne.w	1baa <usb_isr+0x87a>
		//serial_print("desc: not found\n");
		endpoint0_stall();
		return;
#if defined(CDC_STATUS_INTERFACE)
	  case 0x2221: // CDC_SET_CONTROL_LINE_STATE
		usb_cdc_line_rtsdtr_millis = systick_millis_count;
    1814:	4b54      	ldr	r3, [pc, #336]	; (1968 <usb_isr+0x638>)
    1816:	4c55      	ldr	r4, [pc, #340]	; (196c <usb_isr+0x63c>)
		usb_cdc_line_rtsdtr = setup.wValue;
    1818:	4955      	ldr	r1, [pc, #340]	; (1970 <usb_isr+0x640>)
    181a:	78a8      	ldrb	r0, [r5, #2]
		//serial_print("desc: not found\n");
		endpoint0_stall();
		return;
#if defined(CDC_STATUS_INTERFACE)
	  case 0x2221: // CDC_SET_CONTROL_LINE_STATE
		usb_cdc_line_rtsdtr_millis = systick_millis_count;
    181c:	681d      	ldr	r5, [r3, #0]
    181e:	6025      	str	r5, [r4, #0]
		usb_cdc_line_rtsdtr = setup.wValue;
    1820:	f8cd e004 	str.w	lr, [sp, #4]
    1824:	7008      	strb	r0, [r1, #0]
	//serial_phex32(data);
	//serial_print(",");
	//serial_phex16(datalen);
	//serial_print("\n");

	if (datalen > setup.wLength) datalen = setup.wLength;
    1826:	2000      	movs	r0, #0
    1828:	9002      	str	r0, [sp, #8]
    182a:	4680      	mov	r8, r0
    182c:	4684      	mov	ip, r0
    182e:	4604      	mov	r4, r0
	serial_print(",");
	serial_phex16(len);
	serial_print(ep0_tx_bdt_bank ? ", odd" : ", even");
	serial_print(ep0_tx_data_toggle ? ", d1\n" : ", d0\n");
#endif
	table[index(0, TX, ep0_tx_bdt_bank)].addr = (void *)data;
    1830:	494b      	ldr	r1, [pc, #300]	; (1960 <usb_isr+0x630>)
    1832:	780d      	ldrb	r5, [r1, #0]
    1834:	f045 0e02 	orr.w	lr, r5, #2
    1838:	eb09 03ce 	add.w	r3, r9, lr, lsl #3
    183c:	9303      	str	r3, [sp, #12]
	table[index(0, TX, ep0_tx_bdt_bank)].desc = BDT_DESC(len, ep0_tx_data_toggle);
    183e:	9b01      	ldr	r3, [sp, #4]
    1840:	2b00      	cmp	r3, #0
	serial_print(",");
	serial_phex16(len);
	serial_print(ep0_tx_bdt_bank ? ", odd" : ", even");
	serial_print(ep0_tx_data_toggle ? ", d1\n" : ", d0\n");
#endif
	table[index(0, TX, ep0_tx_bdt_bank)].addr = (void *)data;
    1842:	9b03      	ldr	r3, [sp, #12]
    1844:	605c      	str	r4, [r3, #4]
	table[index(0, TX, ep0_tx_bdt_bank)].desc = BDT_DESC(len, ep0_tx_data_toggle);
    1846:	bf0c      	ite	eq
    1848:	2488      	moveq	r4, #136	; 0x88
    184a:	24c8      	movne	r4, #200	; 0xc8
    184c:	ea44 0308 	orr.w	r3, r4, r8
	ep0_tx_data_toggle ^= 1;
	ep0_tx_bdt_bank ^= 1;
    1850:	f085 0401 	eor.w	r4, r5, #1
	serial_phex16(len);
	serial_print(ep0_tx_bdt_bank ? ", odd" : ", even");
	serial_print(ep0_tx_data_toggle ? ", d1\n" : ", d0\n");
#endif
	table[index(0, TX, ep0_tx_bdt_bank)].addr = (void *)data;
	table[index(0, TX, ep0_tx_bdt_bank)].desc = BDT_DESC(len, ep0_tx_data_toggle);
    1854:	f849 303e 	str.w	r3, [r9, lr, lsl #3]
	ep0_tx_data_toggle ^= 1;
    1858:	7032      	strb	r2, [r6, #0]
	ep0_tx_bdt_bank ^= 1;
    185a:	700c      	strb	r4, [r1, #0]
	serial_phex16(len);
	serial_print(ep0_tx_bdt_bank ? ", odd" : ", even");
	serial_print(ep0_tx_data_toggle ? ", d1\n" : ", d0\n");
#endif
	table[index(0, TX, ep0_tx_bdt_bank)].addr = (void *)data;
	table[index(0, TX, ep0_tx_bdt_bank)].desc = BDT_DESC(len, ep0_tx_data_toggle);
    185c:	f8df e0e0 	ldr.w	lr, [pc, #224]	; 1940 <usb_isr+0x610>
	ep0_tx_data_toggle ^= 1;
    1860:	4b40      	ldr	r3, [pc, #256]	; (1964 <usb_isr+0x634>)
	ep0_tx_bdt_bank ^= 1;
    1862:	f8df 80fc 	ldr.w	r8, [pc, #252]	; 1960 <usb_isr+0x630>
	size = datalen;
	if (size > EP0_SIZE) size = EP0_SIZE;
	endpoint0_transmit(data, size);
	data += size;
	datalen -= size;
	if (datalen == 0 && size < EP0_SIZE) return;
    1866:	2800      	cmp	r0, #0
    1868:	f040 811e 	bne.w	1aa8 <usb_isr+0x778>
    186c:	f1bc 0f40 	cmp.w	ip, #64	; 0x40
    1870:	d11b      	bne.n	18aa <usb_isr+0x57a>
	serial_print(",");
	serial_phex16(len);
	serial_print(ep0_tx_bdt_bank ? ", odd" : ", even");
	serial_print(ep0_tx_data_toggle ? ", d1\n" : ", d0\n");
#endif
	table[index(0, TX, ep0_tx_bdt_bank)].addr = (void *)data;
    1872:	f044 0c02 	orr.w	ip, r4, #2
    1876:	eb09 03cc 	add.w	r3, r9, ip, lsl #3
    187a:	9c02      	ldr	r4, [sp, #8]
    187c:	f8df e0c0 	ldr.w	lr, [pc, #192]	; 1940 <usb_isr+0x610>
    1880:	605c      	str	r4, [r3, #4]
	table[index(0, TX, ep0_tx_bdt_bank)].desc = BDT_DESC(len, ep0_tx_data_toggle);
    1882:	2a00      	cmp	r2, #0
    1884:	f040 8126 	bne.w	1ad4 <usb_isr+0x7a4>
    1888:	0402      	lsls	r2, r0, #16
    188a:	f042 0288 	orr.w	r2, r2, #136	; 0x88
	ep0_tx_data_toggle ^= 1;
    188e:	f89d 3004 	ldrb.w	r3, [sp, #4]
	serial_phex16(len);
	serial_print(ep0_tx_bdt_bank ? ", odd" : ", even");
	serial_print(ep0_tx_data_toggle ? ", d1\n" : ", d0\n");
#endif
	table[index(0, TX, ep0_tx_bdt_bank)].addr = (void *)data;
	table[index(0, TX, ep0_tx_bdt_bank)].desc = BDT_DESC(len, ep0_tx_data_toggle);
    1892:	f84e 203c 	str.w	r2, [lr, ip, lsl #3]
	if (datalen == 0 && size < EP0_SIZE) return;

	size = datalen;
	if (size > EP0_SIZE) size = EP0_SIZE;
	endpoint0_transmit(data, size);
	data += size;
    1896:	4404      	add	r4, r0
	serial_print(ep0_tx_bdt_bank ? ", odd" : ", even");
	serial_print(ep0_tx_data_toggle ? ", d1\n" : ", d0\n");
#endif
	table[index(0, TX, ep0_tx_bdt_bank)].addr = (void *)data;
	table[index(0, TX, ep0_tx_bdt_bank)].desc = BDT_DESC(len, ep0_tx_data_toggle);
	ep0_tx_data_toggle ^= 1;
    1898:	7033      	strb	r3, [r6, #0]
	ep0_tx_bdt_bank ^= 1;
    189a:	700d      	strb	r5, [r1, #0]
	if (datalen == 0 && size < EP0_SIZE) return;

	size = datalen;
	if (size > EP0_SIZE) size = EP0_SIZE;
	endpoint0_transmit(data, size);
	data += size;
    189c:	4623      	mov	r3, r4
	datalen -= size;
	if (datalen == 0 && size < EP0_SIZE) return;
    189e:	2840      	cmp	r0, #64	; 0x40
    18a0:	d103      	bne.n	18aa <usb_isr+0x57a>
    18a2:	2000      	movs	r0, #0

	ep0_tx_ptr = data;
	ep0_tx_len = datalen;
    18a4:	4a33      	ldr	r2, [pc, #204]	; (1974 <usb_isr+0x644>)
	endpoint0_transmit(data, size);
	data += size;
	datalen -= size;
	if (datalen == 0 && size < EP0_SIZE) return;

	ep0_tx_ptr = data;
    18a6:	603b      	str	r3, [r7, #0]
	ep0_tx_len = datalen;
    18a8:	8010      	strh	r0, [r2, #0]
		serial_print("\n");
#endif
		// actually "do" the setup request
		usb_setup();
		// unfreeze the USB, now that we're ready
		USB0_CTL = USB_CTL_USBENSOFEN; // clear TXSUSPENDTOKENBUSY bit
    18aa:	4a33      	ldr	r2, [pc, #204]	; (1978 <usb_isr+0x648>)
    18ac:	2301      	movs	r3, #1
    18ae:	7013      	strb	r3, [r2, #0]
    18b0:	e64d      	b.n	154e <usb_isr+0x21e>
			}
#ifdef CDC_DATA_INTERFACE
			t = usb_cdc_transmit_flush_timer;
			if (t) {
				usb_cdc_transmit_flush_timer = --t;
				if (t == 0) usb_serial_flush_callback();
    18b2:	f000 fcab 	bl	220c <usb_serial_flush_callback>
    18b6:	e5a5      	b.n	1404 <usb_isr+0xd4>
		// initialize BDT toggle bits
		USB0_CTL = USB_CTL_ODDRST;
		ep0_tx_bdt_bank = 0;

		// set up buffers to receive Setup and OUT packets
		table[index(0, RX, EVEN)].desc = BDT_DESC(EP0_SIZE, 0);
    18b8:	4b21      	ldr	r3, [pc, #132]	; (1940 <usb_isr+0x610>)

	if (status & USB_ISTAT_USBRST /* 01 */ ) {
		//serial_print("reset\n");

		// initialize BDT toggle bits
		USB0_CTL = USB_CTL_ODDRST;
    18ba:	482f      	ldr	r0, [pc, #188]	; (1978 <usb_isr+0x648>)
		ep0_tx_bdt_bank = 0;
    18bc:	4928      	ldr	r1, [pc, #160]	; (1960 <usb_isr+0x630>)
		// set up buffers to receive Setup and OUT packets
		table[index(0, RX, EVEN)].desc = BDT_DESC(EP0_SIZE, 0);
		table[index(0, RX, EVEN)].addr = ep0_rx0_buf;
		table[index(0, RX, ODD)].desc = BDT_DESC(EP0_SIZE, 0);
		table[index(0, RX, ODD)].addr = ep0_rx1_buf;
		table[index(0, TX, EVEN)].desc = 0;
    18be:	611a      	str	r2, [r3, #16]

	if (status & USB_ISTAT_USBRST /* 01 */ ) {
		//serial_print("reset\n");

		// initialize BDT toggle bits
		USB0_CTL = USB_CTL_ODDRST;
    18c0:	f04f 0e02 	mov.w	lr, #2
    18c4:	f880 e000 	strb.w	lr, [r0]
		table[index(0, RX, ODD)].addr = ep0_rx1_buf;
		table[index(0, TX, EVEN)].desc = 0;
		table[index(0, TX, ODD)].desc = 0;

		// activate endpoint 0
		USB0_ENDPT0 = USB_ENDPT_EPRXEN | USB_ENDPT_EPTXEN | USB_ENDPT_EPHSHK;
    18c8:	4f2c      	ldr	r7, [pc, #176]	; (197c <usb_isr+0x64c>)
	if (status & USB_ISTAT_USBRST /* 01 */ ) {
		//serial_print("reset\n");

		// initialize BDT toggle bits
		USB0_CTL = USB_CTL_ODDRST;
		ep0_tx_bdt_bank = 0;
    18ca:	700a      	strb	r2, [r1, #0]

		// set up buffers to receive Setup and OUT packets
		table[index(0, RX, EVEN)].desc = BDT_DESC(EP0_SIZE, 0);
    18cc:	492c      	ldr	r1, [pc, #176]	; (1980 <usb_isr+0x650>)
    18ce:	6019      	str	r1, [r3, #0]
		table[index(0, RX, EVEN)].addr = ep0_rx0_buf;
		table[index(0, RX, ODD)].desc = BDT_DESC(EP0_SIZE, 0);
    18d0:	6099      	str	r1, [r3, #8]

		// activate endpoint 0
		USB0_ENDPT0 = USB_ENDPT_EPRXEN | USB_ENDPT_EPTXEN | USB_ENDPT_EPHSHK;

		// clear all ending interrupts
		USB0_ERRSTAT = 0xFF;
    18d2:	4e2c      	ldr	r6, [pc, #176]	; (1984 <usb_isr+0x654>)
		USB0_ISTAT = 0xFF;
    18d4:	4d2c      	ldr	r5, [pc, #176]	; (1988 <usb_isr+0x658>)

		// set the address to zero during enumeration
		USB0_ADDR = 0;
    18d6:	4c2d      	ldr	r4, [pc, #180]	; (198c <usb_isr+0x65c>)
		table[index(0, RX, EVEN)].desc = BDT_DESC(EP0_SIZE, 0);
		table[index(0, RX, EVEN)].addr = ep0_rx0_buf;
		table[index(0, RX, ODD)].desc = BDT_DESC(EP0_SIZE, 0);
		table[index(0, RX, ODD)].addr = ep0_rx1_buf;
		table[index(0, TX, EVEN)].desc = 0;
		table[index(0, TX, ODD)].desc = 0;
    18d8:	619a      	str	r2, [r3, #24]

		// activate endpoint 0
		USB0_ENDPT0 = USB_ENDPT_EPRXEN | USB_ENDPT_EPTXEN | USB_ENDPT_EPHSHK;
    18da:	210d      	movs	r1, #13
    18dc:	7039      	strb	r1, [r7, #0]

		// clear all ending interrupts
		USB0_ERRSTAT = 0xFF;
    18de:	21ff      	movs	r1, #255	; 0xff
    18e0:	7031      	strb	r1, [r6, #0]

		// set the address to zero during enumeration
		USB0_ADDR = 0;

		// enable other interrupts
		USB0_ERREN = 0xFF;
    18e2:	f8df e0b8 	ldr.w	lr, [pc, #184]	; 199c <usb_isr+0x66c>
		// activate endpoint 0
		USB0_ENDPT0 = USB_ENDPT_EPRXEN | USB_ENDPT_EPTXEN | USB_ENDPT_EPHSHK;

		// clear all ending interrupts
		USB0_ERRSTAT = 0xFF;
		USB0_ISTAT = 0xFF;
    18e6:	7029      	strb	r1, [r5, #0]

		// set the address to zero during enumeration
		USB0_ADDR = 0;
    18e8:	7022      	strb	r2, [r4, #0]
		USB0_CTL = USB_CTL_ODDRST;
		ep0_tx_bdt_bank = 0;

		// set up buffers to receive Setup and OUT packets
		table[index(0, RX, EVEN)].desc = BDT_DESC(EP0_SIZE, 0);
		table[index(0, RX, EVEN)].addr = ep0_rx0_buf;
    18ea:	4d29      	ldr	r5, [pc, #164]	; (1990 <usb_isr+0x660>)
		table[index(0, RX, ODD)].desc = BDT_DESC(EP0_SIZE, 0);
		table[index(0, RX, ODD)].addr = ep0_rx1_buf;
    18ec:	4a29      	ldr	r2, [pc, #164]	; (1994 <usb_isr+0x664>)

		// set the address to zero during enumeration
		USB0_ADDR = 0;

		// enable other interrupts
		USB0_ERREN = 0xFF;
    18ee:	f88e 1000 	strb.w	r1, [lr]
		USB0_INTEN = USB_INTEN_TOKDNEEN |
    18f2:	279f      	movs	r7, #159	; 0x9f
			USB_INTEN_ERROREN |
			USB_INTEN_USBRSTEN |
			USB_INTEN_SLEEPEN;

		// is this necessary?
		USB0_CTL = USB_CTL_USBENSOFEN;
    18f4:	2401      	movs	r4, #1
		// set the address to zero during enumeration
		USB0_ADDR = 0;

		// enable other interrupts
		USB0_ERREN = 0xFF;
		USB0_INTEN = USB_INTEN_TOKDNEEN |
    18f6:	f806 7c04 	strb.w	r7, [r6, #-4]
		USB0_CTL = USB_CTL_ODDRST;
		ep0_tx_bdt_bank = 0;

		// set up buffers to receive Setup and OUT packets
		table[index(0, RX, EVEN)].desc = BDT_DESC(EP0_SIZE, 0);
		table[index(0, RX, EVEN)].addr = ep0_rx0_buf;
    18fa:	605d      	str	r5, [r3, #4]
			USB_INTEN_ERROREN |
			USB_INTEN_USBRSTEN |
			USB_INTEN_SLEEPEN;

		// is this necessary?
		USB0_CTL = USB_CTL_USBENSOFEN;
    18fc:	7004      	strb	r4, [r0, #0]

		// set up buffers to receive Setup and OUT packets
		table[index(0, RX, EVEN)].desc = BDT_DESC(EP0_SIZE, 0);
		table[index(0, RX, EVEN)].addr = ep0_rx0_buf;
		table[index(0, RX, ODD)].desc = BDT_DESC(EP0_SIZE, 0);
		table[index(0, RX, ODD)].addr = ep0_rx1_buf;
    18fe:	60da      	str	r2, [r3, #12]
	if ((status & USB_ISTAT_SLEEP /* 10 */ )) {
		//serial_print("sleep\n");
		USB0_ISTAT = USB_ISTAT_SLEEP;
	}

}
    1900:	b007      	add	sp, #28
    1902:	e8bd 8ff0 	ldmia.w	sp!, {r4, r5, r6, r7, r8, r9, sl, fp, pc}
							((uint32_t)b & 8) ? DATA1 : DATA0);
					} else {
						//serial_print("starving ");
						//serial_phex(endpoint + 1);
						b->desc = 0;
						usb_rx_memory_needed++;
    1906:	4a24      	ldr	r2, [pc, #144]	; (1998 <usb_isr+0x668>)
						b->desc = BDT_DESC(64,
							((uint32_t)b & 8) ? DATA1 : DATA0);
					} else {
						//serial_print("starving ");
						//serial_phex(endpoint + 1);
						b->desc = 0;
    1908:	f847 0038 	str.w	r0, [r7, r8, lsl #3]
